{
  "_format": "hh-sol-artifact-1",
  "contractName": "UpdatedIPFSOmikujiNFT",
  "sourceName": "contracts/UpdatedIPFSOmikujiNFT.sol",
  "abi": [
    {
      "inputs": [],
      "stateMutability": "nonpayable",
      "type": "constructor"
    },
    {
      "inputs": [
        {
          "internalType": "address",
          "name": "sender",
          "type": "address"
        },
        {
          "internalType": "uint256",
          "name": "tokenId",
          "type": "uint256"
        },
        {
          "internalType": "address",
          "name": "owner",
          "type": "address"
        }
      ],
      "name": "ERC721IncorrectOwner",
      "type": "error"
    },
    {
      "inputs": [
        {
          "internalType": "address",
          "name": "operator",
          "type": "address"
        },
        {
          "internalType": "uint256",
          "name": "tokenId",
          "type": "uint256"
        }
      ],
      "name": "ERC721InsufficientApproval",
      "type": "error"
    },
    {
      "inputs": [
        {
          "internalType": "address",
          "name": "approver",
          "type": "address"
        }
      ],
      "name": "ERC721InvalidApprover",
      "type": "error"
    },
    {
      "inputs": [
        {
          "internalType": "address",
          "name": "operator",
          "type": "address"
        }
      ],
      "name": "ERC721InvalidOperator",
      "type": "error"
    },
    {
      "inputs": [
        {
          "internalType": "address",
          "name": "owner",
          "type": "address"
        }
      ],
      "name": "ERC721InvalidOwner",
      "type": "error"
    },
    {
      "inputs": [
        {
          "internalType": "address",
          "name": "receiver",
          "type": "address"
        }
      ],
      "name": "ERC721InvalidReceiver",
      "type": "error"
    },
    {
      "inputs": [
        {
          "internalType": "address",
          "name": "sender",
          "type": "address"
        }
      ],
      "name": "ERC721InvalidSender",
      "type": "error"
    },
    {
      "inputs": [
        {
          "internalType": "uint256",
          "name": "tokenId",
          "type": "uint256"
        }
      ],
      "name": "ERC721NonexistentToken",
      "type": "error"
    },
    {
      "inputs": [
        {
          "internalType": "address",
          "name": "owner",
          "type": "address"
        }
      ],
      "name": "OwnableInvalidOwner",
      "type": "error"
    },
    {
      "inputs": [
        {
          "internalType": "address",
          "name": "account",
          "type": "address"
        }
      ],
      "name": "OwnableUnauthorizedAccount",
      "type": "error"
    },
    {
      "anonymous": false,
      "inputs": [
        {
          "indexed": true,
          "internalType": "address",
          "name": "owner",
          "type": "address"
        },
        {
          "indexed": true,
          "internalType": "address",
          "name": "approved",
          "type": "address"
        },
        {
          "indexed": true,
          "internalType": "uint256",
          "name": "tokenId",
          "type": "uint256"
        }
      ],
      "name": "Approval",
      "type": "event"
    },
    {
      "anonymous": false,
      "inputs": [
        {
          "indexed": true,
          "internalType": "address",
          "name": "owner",
          "type": "address"
        },
        {
          "indexed": true,
          "internalType": "address",
          "name": "operator",
          "type": "address"
        },
        {
          "indexed": false,
          "internalType": "bool",
          "name": "approved",
          "type": "bool"
        }
      ],
      "name": "ApprovalForAll",
      "type": "event"
    },
    {
      "anonymous": false,
      "inputs": [
        {
          "indexed": true,
          "internalType": "address",
          "name": "drawer",
          "type": "address"
        },
        {
          "indexed": true,
          "internalType": "uint256",
          "name": "tokenId",
          "type": "uint256"
        },
        {
          "indexed": false,
          "internalType": "uint8",
          "name": "result",
          "type": "uint8"
        },
        {
          "indexed": false,
          "internalType": "string",
          "name": "message",
          "type": "string"
        }
      ],
      "name": "OmikujiDrawn",
      "type": "event"
    },
    {
      "anonymous": false,
      "inputs": [
        {
          "indexed": true,
          "internalType": "address",
          "name": "previousOwner",
          "type": "address"
        },
        {
          "indexed": true,
          "internalType": "address",
          "name": "newOwner",
          "type": "address"
        }
      ],
      "name": "OwnershipTransferred",
      "type": "event"
    },
    {
      "anonymous": false,
      "inputs": [
        {
          "indexed": true,
          "internalType": "address",
          "name": "burner",
          "type": "address"
        },
        {
          "indexed": false,
          "internalType": "uint256[]",
          "name": "tokenIds",
          "type": "uint256[]"
        },
        {
          "indexed": false,
          "internalType": "uint8",
          "name": "fortuneType",
          "type": "uint8"
        },
        {
          "indexed": false,
          "internalType": "uint256",
          "name": "freeMintGranted",
          "type": "uint256"
        }
      ],
      "name": "TokensBurned",
      "type": "event"
    },
    {
      "anonymous": false,
      "inputs": [
        {
          "indexed": true,
          "internalType": "address",
          "name": "from",
          "type": "address"
        },
        {
          "indexed": true,
          "internalType": "address",
          "name": "to",
          "type": "address"
        },
        {
          "indexed": true,
          "internalType": "uint256",
          "name": "tokenId",
          "type": "uint256"
        }
      ],
      "name": "Transfer",
      "type": "event"
    },
    {
      "inputs": [],
      "name": "COOLDOWN_PERIOD",
      "outputs": [
        {
          "internalType": "uint256",
          "name": "",
          "type": "uint256"
        }
      ],
      "stateMutability": "view",
      "type": "function"
    },
    {
      "inputs": [
        {
          "internalType": "address",
          "name": "to",
          "type": "address"
        },
        {
          "internalType": "uint256",
          "name": "tokenId",
          "type": "uint256"
        }
      ],
      "name": "approve",
      "outputs": [],
      "stateMutability": "nonpayable",
      "type": "function"
    },
    {
      "inputs": [
        {
          "internalType": "address",
          "name": "owner",
          "type": "address"
        }
      ],
      "name": "balanceOf",
      "outputs": [
        {
          "internalType": "uint256",
          "name": "",
          "type": "uint256"
        }
      ],
      "stateMutability": "view",
      "type": "function"
    },
    {
      "inputs": [
        {
          "internalType": "uint256[]",
          "name": "tokenIds",
          "type": "uint256[]"
        }
      ],
      "name": "burnAndMint",
      "outputs": [
        {
          "internalType": "uint256",
          "name": "",
          "type": "uint256"
        }
      ],
      "stateMutability": "nonpayable",
      "type": "function"
    },
    {
      "inputs": [
        {
          "internalType": "uint256[]",
          "name": "tokenIds",
          "type": "uint256[]"
        }
      ],
      "name": "burnForReroll",
      "outputs": [],
      "stateMutability": "nonpayable",
      "type": "function"
    },
    {
      "inputs": [
        {
          "internalType": "address",
          "name": "user",
          "type": "address"
        }
      ],
      "name": "canBurnForReroll",
      "outputs": [
        {
          "internalType": "bool",
          "name": "",
          "type": "bool"
        },
        {
          "internalType": "uint8",
          "name": "",
          "type": "uint8"
        },
        {
          "internalType": "uint256",
          "name": "",
          "type": "uint256"
        }
      ],
      "stateMutability": "view",
      "type": "function"
    },
    {
      "inputs": [
        {
          "internalType": "address",
          "name": "user",
          "type": "address"
        }
      ],
      "name": "canDrawOmikuji",
      "outputs": [
        {
          "internalType": "bool",
          "name": "",
          "type": "bool"
        }
      ],
      "stateMutability": "view",
      "type": "function"
    },
    {
      "inputs": [
        {
          "internalType": "address",
          "name": "user",
          "type": "address"
        }
      ],
      "name": "checkSelfMintCompletion",
      "outputs": [
        {
          "internalType": "bool",
          "name": "",
          "type": "bool"
        }
      ],
      "stateMutability": "view",
      "type": "function"
    },
    {
      "inputs": [],
      "name": "drawOmikuji",
      "outputs": [
        {
          "internalType": "uint256",
          "name": "",
          "type": "uint256"
        }
      ],
      "stateMutability": "payable",
      "type": "function"
    },
    {
      "inputs": [
        {
          "internalType": "uint8",
          "name": "",
          "type": "uint8"
        }
      ],
      "name": "fortuneImages",
      "outputs": [
        {
          "internalType": "string",
          "name": "",
          "type": "string"
        }
      ],
      "stateMutability": "view",
      "type": "function"
    },
    {
      "inputs": [
        {
          "internalType": "uint256",
          "name": "",
          "type": "uint256"
        }
      ],
      "name": "fortunes",
      "outputs": [
        {
          "internalType": "uint8",
          "name": "result",
          "type": "uint8"
        },
        {
          "internalType": "uint32",
          "name": "timestamp",
          "type": "uint32"
        },
        {
          "internalType": "address",
          "name": "drawer",
          "type": "address"
        }
      ],
      "stateMutability": "view",
      "type": "function"
    },
    {
      "inputs": [
        {
          "internalType": "address",
          "name": "",
          "type": "address"
        }
      ],
      "name": "freeMints",
      "outputs": [
        {
          "internalType": "uint256",
          "name": "",
          "type": "uint256"
        }
      ],
      "stateMutability": "view",
      "type": "function"
    },
    {
      "inputs": [
        {
          "internalType": "uint256",
          "name": "tokenId",
          "type": "uint256"
        }
      ],
      "name": "getApproved",
      "outputs": [
        {
          "internalType": "address",
          "name": "",
          "type": "address"
        }
      ],
      "stateMutability": "view",
      "type": "function"
    },
    {
      "inputs": [
        {
          "internalType": "uint256",
          "name": "tokenId",
          "type": "uint256"
        }
      ],
      "name": "getFortuneData",
      "outputs": [
        {
          "internalType": "uint8",
          "name": "result",
          "type": "uint8"
        },
        {
          "internalType": "uint32",
          "name": "timestamp",
          "type": "uint32"
        },
        {
          "internalType": "address",
          "name": "drawer",
          "type": "address"
        }
      ],
      "stateMutability": "view",
      "type": "function"
    },
    {
      "inputs": [
        {
          "internalType": "uint256",
          "name": "tokenId",
          "type": "uint256"
        }
      ],
      "name": "getFortuneImageUrl",
      "outputs": [
        {
          "internalType": "string",
          "name": "",
          "type": "string"
        }
      ],
      "stateMutability": "view",
      "type": "function"
    },
    {
      "inputs": [
        {
          "internalType": "uint256",
          "name": "tokenId",
          "type": "uint256"
        }
      ],
      "name": "getFortuneMessage",
      "outputs": [
        {
          "internalType": "string",
          "name": "",
          "type": "string"
        }
      ],
      "stateMutability": "view",
      "type": "function"
    },
    {
      "inputs": [
        {
          "internalType": "address",
          "name": "owner",
          "type": "address"
        },
        {
          "internalType": "uint8",
          "name": "fortuneType",
          "type": "uint8"
        }
      ],
      "name": "getOwnedTokensByType",
      "outputs": [
        {
          "internalType": "uint256[]",
          "name": "",
          "type": "uint256[]"
        }
      ],
      "stateMutability": "view",
      "type": "function"
    },
    {
      "inputs": [],
      "name": "getProbabilities",
      "outputs": [
        {
          "internalType": "uint16[7]",
          "name": "",
          "type": "uint16[7]"
        }
      ],
      "stateMutability": "pure",
      "type": "function"
    },
    {
      "inputs": [
        {
          "internalType": "address",
          "name": "user",
          "type": "address"
        }
      ],
      "name": "getSelfMintProgress",
      "outputs": [
        {
          "internalType": "uint8",
          "name": "",
          "type": "uint8"
        }
      ],
      "stateMutability": "view",
      "type": "function"
    },
    {
      "inputs": [
        {
          "internalType": "address",
          "name": "user",
          "type": "address"
        }
      ],
      "name": "getSelfMintedFortunes",
      "outputs": [
        {
          "internalType": "uint8[]",
          "name": "",
          "type": "uint8[]"
        }
      ],
      "stateMutability": "view",
      "type": "function"
    },
    {
      "inputs": [
        {
          "internalType": "address",
          "name": "user",
          "type": "address"
        }
      ],
      "name": "getTimeUntilNextDraw",
      "outputs": [
        {
          "internalType": "uint256",
          "name": "",
          "type": "uint256"
        }
      ],
      "stateMutability": "view",
      "type": "function"
    },
    {
      "inputs": [
        {
          "internalType": "address",
          "name": "",
          "type": "address"
        }
      ],
      "name": "hasCompletedSelfMint",
      "outputs": [
        {
          "internalType": "bool",
          "name": "",
          "type": "bool"
        }
      ],
      "stateMutability": "view",
      "type": "function"
    },
    {
      "inputs": [
        {
          "internalType": "address",
          "name": "owner",
          "type": "address"
        },
        {
          "internalType": "address",
          "name": "operator",
          "type": "address"
        }
      ],
      "name": "isApprovedForAll",
      "outputs": [
        {
          "internalType": "bool",
          "name": "",
          "type": "bool"
        }
      ],
      "stateMutability": "view",
      "type": "function"
    },
    {
      "inputs": [
        {
          "internalType": "address",
          "name": "",
          "type": "address"
        }
      ],
      "name": "lastDrawTime",
      "outputs": [
        {
          "internalType": "uint256",
          "name": "",
          "type": "uint256"
        }
      ],
      "stateMutability": "view",
      "type": "function"
    },
    {
      "inputs": [],
      "name": "name",
      "outputs": [
        {
          "internalType": "string",
          "name": "",
          "type": "string"
        }
      ],
      "stateMutability": "view",
      "type": "function"
    },
    {
      "inputs": [],
      "name": "omikujiPrice",
      "outputs": [
        {
          "internalType": "uint256",
          "name": "",
          "type": "uint256"
        }
      ],
      "stateMutability": "view",
      "type": "function"
    },
    {
      "inputs": [],
      "name": "owner",
      "outputs": [
        {
          "internalType": "address",
          "name": "",
          "type": "address"
        }
      ],
      "stateMutability": "view",
      "type": "function"
    },
    {
      "inputs": [
        {
          "internalType": "uint256",
          "name": "tokenId",
          "type": "uint256"
        }
      ],
      "name": "ownerOf",
      "outputs": [
        {
          "internalType": "address",
          "name": "",
          "type": "address"
        }
      ],
      "stateMutability": "view",
      "type": "function"
    },
    {
      "inputs": [],
      "name": "remainingSupply",
      "outputs": [
        {
          "internalType": "uint256",
          "name": "",
          "type": "uint256"
        }
      ],
      "stateMutability": "view",
      "type": "function"
    },
    {
      "inputs": [],
      "name": "renounceOwnership",
      "outputs": [],
      "stateMutability": "nonpayable",
      "type": "function"
    },
    {
      "inputs": [
        {
          "internalType": "address",
          "name": "from",
          "type": "address"
        },
        {
          "internalType": "address",
          "name": "to",
          "type": "address"
        },
        {
          "internalType": "uint256",
          "name": "tokenId",
          "type": "uint256"
        }
      ],
      "name": "safeTransferFrom",
      "outputs": [],
      "stateMutability": "nonpayable",
      "type": "function"
    },
    {
      "inputs": [
        {
          "internalType": "address",
          "name": "from",
          "type": "address"
        },
        {
          "internalType": "address",
          "name": "to",
          "type": "address"
        },
        {
          "internalType": "uint256",
          "name": "tokenId",
          "type": "uint256"
        },
        {
          "internalType": "bytes",
          "name": "data",
          "type": "bytes"
        }
      ],
      "name": "safeTransferFrom",
      "outputs": [],
      "stateMutability": "nonpayable",
      "type": "function"
    },
    {
      "inputs": [
        {
          "internalType": "address",
          "name": "",
          "type": "address"
        },
        {
          "internalType": "uint256",
          "name": "",
          "type": "uint256"
        }
      ],
      "name": "selfMintedFortunes",
      "outputs": [
        {
          "internalType": "uint8",
          "name": "",
          "type": "uint8"
        }
      ],
      "stateMutability": "view",
      "type": "function"
    },
    {
      "inputs": [
        {
          "internalType": "string[7]",
          "name": "ipfsHashes",
          "type": "string[7]"
        }
      ],
      "name": "setAllFortuneImageHashes",
      "outputs": [],
      "stateMutability": "nonpayable",
      "type": "function"
    },
    {
      "inputs": [
        {
          "internalType": "address",
          "name": "operator",
          "type": "address"
        },
        {
          "internalType": "bool",
          "name": "approved",
          "type": "bool"
        }
      ],
      "name": "setApprovalForAll",
      "outputs": [],
      "stateMutability": "nonpayable",
      "type": "function"
    },
    {
      "inputs": [
        {
          "internalType": "string",
          "name": "baseURI",
          "type": "string"
        }
      ],
      "name": "setBaseURI",
      "outputs": [],
      "stateMutability": "nonpayable",
      "type": "function"
    },
    {
      "inputs": [
        {
          "internalType": "uint8",
          "name": "fortuneType",
          "type": "uint8"
        },
        {
          "internalType": "string",
          "name": "ipfsHash",
          "type": "string"
        }
      ],
      "name": "setFortuneImageHash",
      "outputs": [],
      "stateMutability": "nonpayable",
      "type": "function"
    },
    {
      "inputs": [
        {
          "internalType": "uint256",
          "name": "_price",
          "type": "uint256"
        }
      ],
      "name": "setPrice",
      "outputs": [],
      "stateMutability": "nonpayable",
      "type": "function"
    },
    {
      "inputs": [
        {
          "internalType": "bytes4",
          "name": "interfaceId",
          "type": "bytes4"
        }
      ],
      "name": "supportsInterface",
      "outputs": [
        {
          "internalType": "bool",
          "name": "",
          "type": "bool"
        }
      ],
      "stateMutability": "view",
      "type": "function"
    },
    {
      "inputs": [],
      "name": "symbol",
      "outputs": [
        {
          "internalType": "string",
          "name": "",
          "type": "string"
        }
      ],
      "stateMutability": "view",
      "type": "function"
    },
    {
      "inputs": [
        {
          "internalType": "uint256",
          "name": "tokenId",
          "type": "uint256"
        }
      ],
      "name": "tokenURI",
      "outputs": [
        {
          "internalType": "string",
          "name": "",
          "type": "string"
        }
      ],
      "stateMutability": "view",
      "type": "function"
    },
    {
      "inputs": [],
      "name": "totalSupply",
      "outputs": [
        {
          "internalType": "uint256",
          "name": "",
          "type": "uint256"
        }
      ],
      "stateMutability": "view",
      "type": "function"
    },
    {
      "inputs": [
        {
          "internalType": "address",
          "name": "from",
          "type": "address"
        },
        {
          "internalType": "address",
          "name": "to",
          "type": "address"
        },
        {
          "internalType": "uint256",
          "name": "tokenId",
          "type": "uint256"
        }
      ],
      "name": "transferFrom",
      "outputs": [],
      "stateMutability": "nonpayable",
      "type": "function"
    },
    {
      "inputs": [
        {
          "internalType": "address",
          "name": "newOwner",
          "type": "address"
        }
      ],
      "name": "transferOwnership",
      "outputs": [],
      "stateMutability": "nonpayable",
      "type": "function"
    },
    {
      "inputs": [],
      "name": "withdraw",
      "outputs": [],
      "stateMutability": "nonpayable",
      "type": "function"
    }
  ],
  "bytecode": "0x608060405267016345785d8a00006008556040518060800160405280605e81526020016169ee605e913960099081610037919061099b565b506040518060e0016040528060405180606001604052806037815260200161681760379139815260200160405180606001604052806031815260200161684e603191398152602001604051806060016040528060248152602001616a876024913981526020016040518060600160405280602581526020016168dd6025913981526020016040518060600160405280602d81526020016167af602d913981526020016040518060600160405280602381526020016168ba60239139815260200160405180606001604052806025815260200161678a60259139815250600f90600761012392919061067e565b506040518060e001604052806040518060400160405280601a81526020017f537570657220556c74726120477265617420426c657373696e6700000000000081525081526020016040518060400160405280601481526020017f556c74726120477265617420426c657373696e6700000000000000000000000081525081526020016040518060400160405280600e81526020017f477265617420426c657373696e6700000000000000000000000000000000000081525081526020016040518060400160405280600f81526020017f4d6964646c6520426c657373696e67000000000000000000000000000000000081525081526020016040518060400160405280600e81526020017f536d616c6c20426c657373696e6700000000000000000000000000000000000081525081526020016040518060400160405280600881526020017f426c657373696e6700000000000000000000000000000000000000000000000081525081526020016040518060400160405280600e81526020017f4d696e6f7220426c657373696e6700000000000000000000000000000000000081525081525060169060076102da92919061067e565b503480156102e757600080fd5b50336040518060400160405280601b81526020017f4f6d696b756a6920536872696e65206f6e204d6f6e6164204e465400000000008152506040518060400160405280600781526020017f4f4d494b554a49000000000000000000000000000000000000000000000000008152508160009081610364919061099b565b508060019081610374919061099b565b505050600073ffffffffffffffffffffffffffffffffffffffff168173ffffffffffffffffffffffffffffffffffffffff16036103e95760006040517f1e4fbdf70000000000000000000000000000000000000000000000000000000081526004016103e09190610aae565b60405180910390fd5b6103f88161040c60201b60201c565b506104076104d260201b60201c565b610ac9565b6000600660009054906101000a900473ffffffffffffffffffffffffffffffffffffffff16905081600660006101000a81548173ffffffffffffffffffffffffffffffffffffffff021916908373ffffffffffffffffffffffffffffffffffffffff1602179055508173ffffffffffffffffffffffffffffffffffffffff168173ffffffffffffffffffffffffffffffffffffffff167f8be0079c531659141344cd1fd0a4f28419497f9722a3daafe3b4186f6b6457e060405160405180910390a35050565b6040518060600160405280603b81526020016167dc603b9139600a60008060ff168152602001908152602001600020908161050d919061099b565b506040518060600160405280603b8152602001616902603b9139600a6000600160ff168152602001908152602001600020908161054a919061099b565b506040518060600160405280603b81526020016169b3603b9139600a6000600260ff1681526020019081526020016000209081610587919061099b565b506040518060600160405280603b8152602001616978603b9139600a6000600360ff16815260200190815260200160002090816105c4919061099b565b506040518060600160405280603b8152602001616a4c603b9139600a6000600460ff1681526020019081526020016000209081610601919061099b565b506040518060600160405280603b815260200161687f603b9139600a6000600560ff168152602001908152602001600020908161063e919061099b565b506040518060600160405280603b815260200161693d603b9139600a6000600660ff168152602001908152602001600020908161067b919061099b565b50565b82600781019282156106b9579160200282015b828111156106b85782518290816106a8919061099b565b5091602001919060010190610691565b5b5090506106c691906106ca565b5090565b5b808211156106ea57600081816106e191906106ee565b506001016106cb565b5090565b5080546106fa906107b4565b6000825580601f1061070c575061072b565b601f01602090049060005260206000209081019061072a919061072e565b5b50565b5b8082111561074757600081600090555060010161072f565b5090565b600081519050919050565b7f4e487b7100000000000000000000000000000000000000000000000000000000600052604160045260246000fd5b7f4e487b7100000000000000000000000000000000000000000000000000000000600052602260045260246000fd5b600060028204905060018216806107cc57607f821691505b6020821081036107df576107de610785565b5b50919050565b60008190508160005260206000209050919050565b60006020601f8301049050919050565b600082821b905092915050565b6000600883026108477fffffffffffffffffffffffffffffffffffffffffffffffffffffffffffffffff8261080a565b610851868361080a565b95508019841693508086168417925050509392505050565b6000819050919050565b6000819050919050565b600061089861089361088e84610869565b610873565b610869565b9050919050565b6000819050919050565b6108b28361087d565b6108c66108be8261089f565b848454610817565b825550505050565b600090565b6108db6108ce565b6108e68184846108a9565b505050565b5b8181101561090a576108ff6000826108d3565b6001810190506108ec565b5050565b601f82111561094f57610920816107e5565b610929846107fa565b81016020851015610938578190505b61094c610944856107fa565b8301826108eb565b50505b505050565b600082821c905092915050565b600061097260001984600802610954565b1980831691505092915050565b600061098b8383610961565b9150826002028217905092915050565b6109a48261074b565b67ffffffffffffffff8111156109bd576109bc610756565b5b6109c782546107b4565b6109d282828561090e565b600060209050601f831160018114610a0557600084156109f3578287015190505b6109fd858261097f565b865550610a65565b601f198416610a13866107e5565b60005b82811015610a3b57848901518255600182019150602085019450602081019050610a16565b86831015610a585784890151610a54601f891682610961565b8355505b6001600288020188555050505b505050505050565b600073ffffffffffffffffffffffffffffffffffffffff82169050919050565b6000610a9882610a6d565b9050919050565b610aa881610a8d565b82525050565b6000602082019050610ac36000830184610a9f565b92915050565b615cb280610ad86000396000f3fe6080604052600436106102725760003560e01c80636d41d4fb1161014f578063a22cb465116100c1578063cebd0e7f1161007a578063cebd0e7f14610a29578063da0239a614610a66578063db811e2414610a91578063e985e9c514610aba578063f023145814610af7578063f2fde38b14610b3657610272565b8063a22cb465146108f7578063b007e18814610920578063b88d4fde1461095d578063c21d506114610986578063c351de69146109c3578063c87b56dd146109ec57610272565b80638c8005a3116101135780638c8005a3146107bf5780638da5cb5b146107fe5780639063ad041461082957806391b7f5ed14610866578063929cd8741461088f57806395d89b41146108cc57610272565b80636d41d4fb146106c65780636e99d52f1461070357806370a082311461072e578063715018a61461076b5780637182736f1461078257610272565b8063392a8dd0116101e857806355f804b3116101ac57806355f804b314610589578063581f0fb0146105b25780635982773b146105d05780635b96e7f41461060d5780636352211e1461064c57806368e68d1b1461068957610272565b8063392a8dd0146104a45780633ccfd60b146104e157806342842e0e146104f85780634b39d64f146105215780634ca8a9411461055e57610272565b8063101e38761161023a578063101e38761461037057806318160ddd146103ad5780631a7766d2146103d85780631b18b5261461041557806323b872dd1461043e5780632d2c7b551461046757610272565b806301ffc9a714610277578063062f7b8c146102b457806306fdde03146102df578063081812fc1461030a578063095ea7b314610347575b600080fd5b34801561028357600080fd5b5061029e600480360381019061029991906140b8565b610b5f565b6040516102ab9190614100565b60405180910390f35b3480156102c057600080fd5b506102c9610c41565b6040516102d691906141d4565b60405180910390f35b3480156102eb57600080fd5b506102f4610ca9565b604051610301919061427f565b60405180910390f35b34801561031657600080fd5b50610331600480360381019061032c91906142d7565b610d3b565b60405161033e9190614345565b60405180910390f35b34801561035357600080fd5b5061036e6004803603810190610369919061438c565b610d57565b005b34801561037c57600080fd5b50610397600480360381019061039291906143cc565b610d6d565b6040516103a49190614415565b60405180910390f35b3480156103b957600080fd5b506103c2610f03565b6040516103cf919061443f565b60405180910390f35b3480156103e457600080fd5b506103ff60048036038101906103fa91906143cc565b610f0d565b60405161040c9190614518565b60405180910390f35b34801561042157600080fd5b5061043c6004803603810190610437919061459f565b610fca565b005b34801561044a57600080fd5b50610465600480360381019061046091906145ec565b6112b0565b005b34801561047357600080fd5b5061048e600480360381019061048991906142d7565b6113b2565b60405161049b919061427f565b60405180910390f35b3480156104b057600080fd5b506104cb60048036038101906104c691906143cc565b61152a565b6040516104d8919061443f565b60405180910390f35b3480156104ed57600080fd5b506104f6611542565b005b34801561050457600080fd5b5061051f600480360381019061051a91906145ec565b61159a565b005b34801561052d57600080fd5b50610548600480360381019061054391906142d7565b6115ba565b604051610555919061427f565b60405180910390f35b34801561056a57600080fd5b506105736116fe565b604051610580919061443f565b60405180910390f35b34801561059557600080fd5b506105b060048036038101906105ab919061476f565b611704565b005b6105ba61171f565b6040516105c7919061443f565b60405180910390f35b3480156105dc57600080fd5b506105f760048036038101906105f291906143cc565b611c4c565b6040516106049190614100565b60405180910390f35b34801561061957600080fd5b50610634600480360381019061062f91906143cc565b611ca6565b604051610643939291906147b8565b60405180910390f35b34801561065857600080fd5b50610673600480360381019061066e91906142d7565b611dd4565b6040516106809190614345565b60405180910390f35b34801561069557600080fd5b506106b060048036038101906106ab919061438c565b611de6565b6040516106bd9190614415565b60405180910390f35b3480156106d257600080fd5b506106ed60048036038101906106e891906143cc565b611e29565b6040516106fa919061443f565b60405180910390f35b34801561070f57600080fd5b50610718611e41565b604051610725919061443f565b60405180910390f35b34801561073a57600080fd5b50610755600480360381019061075091906143cc565b611e48565b604051610762919061443f565b60405180910390f35b34801561077757600080fd5b50610780611f02565b005b34801561078e57600080fd5b506107a960048036038101906107a491906143cc565b611f16565b6040516107b69190614100565b60405180910390f35b3480156107cb57600080fd5b506107e660048036038101906107e191906142d7565b611f28565b6040516107f59392919061480e565b60405180910390f35b34801561080a57600080fd5b50610813611f8f565b6040516108209190614345565b60405180910390f35b34801561083557600080fd5b50610850600480360381019061084b91906143cc565b611fb9565b60405161085d9190614100565b60405180910390f35b34801561087257600080fd5b5061088d600480360381019061088891906142d7565b611fd9565b005b34801561089b57600080fd5b506108b660048036038101906108b19190614871565b611feb565b6040516108c3919061496f565b60405180910390f35b3480156108d857600080fd5b506108e16121b8565b6040516108ee919061427f565b60405180910390f35b34801561090357600080fd5b5061091e600480360381019061091991906149bd565b61224a565b005b34801561092c57600080fd5b506109476004803603810190610942919061459f565b612260565b604051610954919061443f565b60405180910390f35b34801561096957600080fd5b50610984600480360381019061097f9190614a9e565b61287d565b005b34801561099257600080fd5b506109ad60048036038101906109a891906143cc565b6128a2565b6040516109ba919061443f565b60405180910390f35b3480156109cf57600080fd5b506109ea60048036038101906109e59190614b21565b61291b565b005b3480156109f857600080fd5b50610a136004803603810190610a0e91906142d7565b612994565b604051610a20919061427f565b60405180910390f35b348015610a3557600080fd5b50610a506004803603810190610a4b9190614b7d565b612b02565b604051610a5d919061427f565b60405180910390f35b348015610a7257600080fd5b50610a7b612ba2565b604051610a88919061443f565b60405180910390f35b348015610a9d57600080fd5b50610ab86004803603810190610ab39190614c79565b612bd7565b005b348015610ac657600080fd5b50610ae16004803603810190610adc9190614cc2565b612c40565b604051610aee9190614100565b60405180910390f35b348015610b0357600080fd5b50610b1e6004803603810190610b1991906142d7565b612cd4565b604051610b2d9392919061480e565b60405180910390f35b348015610b4257600080fd5b50610b5d6004803603810190610b5891906143cc565b612e27565b005b60007f80ac58cd000000000000000000000000000000000000000000000000000000007bffffffffffffffffffffffffffffffffffffffffffffffffffffffff1916827bffffffffffffffffffffffffffffffffffffffffffffffffffffffff19161480610c2a57507f5b5e139f000000000000000000000000000000000000000000000000000000007bffffffffffffffffffffffffffffffffffffffffffffffffffffffff1916827bffffffffffffffffffffffffffffffffffffffffffffffffffffffff1916145b80610c3a5750610c3982612ead565b5b9050919050565b610c49614008565b6040518060e00160405280603261ffff168152602001609661ffff1681526020016101f461ffff1681526020016103e861ffff1681526020016107d061ffff168152602001610bb861ffff168152602001610ce461ffff16815250905090565b606060008054610cb890614d31565b80601f0160208091040260200160405190810160405280929190818152602001828054610ce490614d31565b8015610d315780601f10610d0657610100808354040283529160200191610d31565b820191906000526020600020905b815481529060010190602001808311610d1457829003601f168201915b5050505050905090565b6000610d4682612f17565b50610d5082612f9f565b9050919050565b610d698282610d64612fdc565b612fe4565b5050565b6000610d7761402a565b6000600c60008573ffffffffffffffffffffffffffffffffffffffff1673ffffffffffffffffffffffffffffffffffffffff168152602001908152602001600020805480602002602001604051908101604052809291908181526020018280548015610e2857602002820191906000526020600020906000905b82829054906101000a900460ff1660ff1681526020019060010190602082600001049283019260010382029150808411610df15790505b5050505050905060005b8151811015610eb0576007828281518110610e5057610e4f614d62565b5b602002602001015160ff161015610ea357600183838381518110610e7757610e76614d62565b5b602002602001015160ff1660078110610e9357610e92614d62565b5b6020020190151590811515815250505b8080600101915050610e32565b506000805b6007811015610ef757838160078110610ed157610ed0614d62565b5b602002015115610eea578180610ee690614dc0565b9250505b8080600101915050610eb5565b50809350505050919050565b6000600754905090565b6060600c60008373ffffffffffffffffffffffffffffffffffffffff1673ffffffffffffffffffffffffffffffffffffffff168152602001908152602001600020805480602002602001604051908101604052809291908181526020018280548015610fbe57602002820191906000526020600020906000905b82829054906101000a900460ff1660ff1681526020019060010190602082600001049283019260010382029150808411610f875790505b50505050509050919050565b60038282905014611010576040517f08c379a000000000000000000000000000000000000000000000000000000000815260040161100790614e35565b60405180910390fd5b6000600b60008484600081811061102a57611029614d62565b5b90506020020135815260200190815260200160002060000160009054906101000a900460ff16905060058160ff161480611067575060068160ff16145b6110a6576040517f08c379a000000000000000000000000000000000000000000000000000000000815260040161109d90614ec7565b60405180910390fd5b60005b60038110156111f4573373ffffffffffffffffffffffffffffffffffffffff166110eb8585848181106110df576110de614d62565b5b90506020020135611dd4565b73ffffffffffffffffffffffffffffffffffffffff1614611141576040517f08c379a000000000000000000000000000000000000000000000000000000000815260040161113890614f33565b60405180910390fd5b8160ff16600b600086868581811061115c5761115b614d62565b5b90506020020135815260200190815260200160002060000160009054906101000a900460ff1660ff16146111c5576040517f08c379a00000000000000000000000000000000000000000000000000000000081526004016111bc90614fc5565b60405180910390fd5b6111e78484838181106111db576111da614d62565b5b90506020020135612ff6565b80806001019150506110a9565b506112013382600361307c565b600e60003373ffffffffffffffffffffffffffffffffffffffff1673ffffffffffffffffffffffffffffffffffffffff168152602001908152602001600020600081548092919061125190614fe5565b91905055503373ffffffffffffffffffffffffffffffffffffffff167f3f8f46239f5ff752f97f04a4337ae063eef2701094d1d74887e142568aa1539784848460016040516112a394939291906150dc565b60405180910390a2505050565b600073ffffffffffffffffffffffffffffffffffffffff168273ffffffffffffffffffffffffffffffffffffffff16036113225760006040517f64a0ae920000000000000000000000000000000000000000000000000000000081526004016113199190614345565b60405180910390fd5b60006113368383611331612fdc565b61320f565b90508373ffffffffffffffffffffffffffffffffffffffff168173ffffffffffffffffffffffffffffffffffffffff16146113ac578382826040517f64283d7b0000000000000000000000000000000000000000000000000000000081526004016113a39392919061511c565b60405180910390fd5b50505050565b6060600073ffffffffffffffffffffffffffffffffffffffff166113d583613429565b73ffffffffffffffffffffffffffffffffffffffff160361142b576040517f08c379a00000000000000000000000000000000000000000000000000000000081526004016114229061519f565b60405180910390fd5b6000600b60008481526020019081526020016000206040518060600160405290816000820160009054906101000a900460ff1660ff1660ff1681526020016000820160019054906101000a900463ffffffff1663ffffffff1663ffffffff1681526020016000820160059054906101000a900473ffffffffffffffffffffffffffffffffffffffff1673ffffffffffffffffffffffffffffffffffffffff1673ffffffffffffffffffffffffffffffffffffffff16815250509050600a6000826000015160ff1660ff16815260200190815260200160002060405160200161151391906152d4565b604051602081830303815290604052915050919050565b601d6020528060005260406000206000915090505481565b61154a613466565b611552611f8f565b73ffffffffffffffffffffffffffffffffffffffff166108fc479081150290604051600060405180830381858888f19350505050158015611597573d6000803e3d6000fd5b50565b6115b58383836040518060200160405280600081525061287d565b505050565b6060600073ffffffffffffffffffffffffffffffffffffffff166115dd83613429565b73ffffffffffffffffffffffffffffffffffffffff1603611633576040517f08c379a000000000000000000000000000000000000000000000000000000000815260040161162a9061519f565b60405180910390fd5b600f600b600084815260200190815260200160002060000160009054906101000a900460ff1660ff166007811061166d5761166c614d62565b5b01805461167990614d31565b80601f01602080910402602001604051908101604052809291908181526020018280546116a590614d31565b80156116f25780601f106116c7576101008083540402835291602001916116f2565b820191906000526020600020905b8154815290600101906020018083116116d557829003601f168201915b50505050509050919050565b60085481565b61170c613466565b806009908161171b9190615483565b5050565b600062015180601d60003373ffffffffffffffffffffffffffffffffffffffff1673ffffffffffffffffffffffffffffffffffffffff1681526020019081526020016000205461176f9190615555565b4210156117b1576040517f08c379a00000000000000000000000000000000000000000000000000000000081526004016117a8906155d5565b60405180910390fd5b6000600e60003373ffffffffffffffffffffffffffffffffffffffff1673ffffffffffffffffffffffffffffffffffffffff16815260200190815260200160002054111561185357600e60003373ffffffffffffffffffffffffffffffffffffffff1673ffffffffffffffffffffffffffffffffffffffff1681526020019081526020016000206000815480929190611849906155f5565b9190505550611899565b600854341015611898576040517f08c379a000000000000000000000000000000000000000000000000000000000815260040161188f9061566a565b60405180910390fd5b5b42601d60003373ffffffffffffffffffffffffffffffffffffffff1673ffffffffffffffffffffffffffffffffffffffff168152602001908152602001600020819055506007600081548092919060010191905055506000600754905060006127104244338560405160200161191294939291906156f3565b6040516020818303038152906040528051906020012060001c6119359190615770565b90506000603282101561194b57600090506119b3565b60c882101561195d57600190506119b2565b6102bc82101561197057600290506119b1565b6106a482101561198357600390506119b0565b610e7482101561199657600490506119af565b611a2c8210156119a957600590506119ae565b600690505b5b5b5b5b5b60405180606001604052808260ff1681526020014263ffffffff1681526020013373ffffffffffffffffffffffffffffffffffffffff16815250600b600085815260200190815260200160002060008201518160000160006101000a81548160ff021916908360ff16021790555060208201518160000160016101000a81548163ffffffff021916908363ffffffff16021790555060408201518160000160056101000a81548173ffffffffffffffffffffffffffffffffffffffff021916908373ffffffffffffffffffffffffffffffffffffffff160217905550905050600c60003373ffffffffffffffffffffffffffffffffffffffff1673ffffffffffffffffffffffffffffffffffffffff1681526020019081526020016000208190806001815401808255809150506001900390600052602060002090602091828204019190069091909190916101000a81548160ff021916908360ff160217905550600d60003373ffffffffffffffffffffffffffffffffffffffff1673ffffffffffffffffffffffffffffffffffffffff16815260200190815260200160002060009054906101000a900460ff16158015611b735750611b72336134ed565b5b15611bd1576001600d60003373ffffffffffffffffffffffffffffffffffffffff1673ffffffffffffffffffffffffffffffffffffffff16815260200190815260200160002060006101000a81548160ff0219169083151502179055505b611bdb338461367f565b823373ffffffffffffffffffffffffffffffffffffffff167f8f59f601bb75974d2fc5a2ee8f1b7de682a1e78edb4cb7418db454c60ee4a5d183600f8560ff1660078110611c2c57611c2b614d62565b5b01604051611c3b929190615825565b60405180910390a382935050505090565b600062015180601d60008473ffffffffffffffffffffffffffffffffffffffff1673ffffffffffffffffffffffffffffffffffffffff16815260200190815260200160002054611c9c9190615555565b4210159050919050565b60008060008060009050600080600190505b6007548111611d8a578673ffffffffffffffffffffffffffffffffffffffff16611ce182613429565b73ffffffffffffffffffffffffffffffffffffffff1603611d77576005600b600083815260200190815260200160002060000160009054906101000a900460ff1660ff1603611d39578280611d3590614fe5565b9350505b6006600b600083815260200190815260200160002060000160009054906101000a900460ff1660ff1603611d76578180611d7290614fe5565b9250505b5b8080611d8290614fe5565b915050611cb8565b5060038210611da55760016005839450945094505050611dcd565b60038110611dbf5760016006829450945094505050611dcd565b600080600094509450945050505b9193909250565b6000611ddf82612f17565b9050919050565b600c6020528160005260406000208181548110611e0257600080fd5b9060005260206000209060209182820401919006915091509054906101000a900460ff1681565b600e6020528060005260406000206000915090505481565b6201518081565b60008073ffffffffffffffffffffffffffffffffffffffff168273ffffffffffffffffffffffffffffffffffffffff1603611ebb5760006040517f89c62b64000000000000000000000000000000000000000000000000000000008152600401611eb29190614345565b60405180910390fd5b600360008373ffffffffffffffffffffffffffffffffffffffff1673ffffffffffffffffffffffffffffffffffffffff168152602001908152602001600020549050919050565b611f0a613466565b611f146000613778565b565b6000611f21826134ed565b9050919050565b600b6020528060005260406000206000915090508060000160009054906101000a900460ff16908060000160019054906101000a900463ffffffff16908060000160059054906101000a900473ffffffffffffffffffffffffffffffffffffffff16905083565b6000600660009054906101000a900473ffffffffffffffffffffffffffffffffffffffff16905090565b600d6020528060005260406000206000915054906101000a900460ff1681565b611fe1613466565b8060088190555050565b60606000611ff884611e48565b905060008167ffffffffffffffff81111561201657612015614644565b5b6040519080825280602002602001820160405280156120445781602001602082028036833780820191505090505b509050600080600190505b600754811161210a578673ffffffffffffffffffffffffffffffffffffffff1661207882613429565b73ffffffffffffffffffffffffffffffffffffffff161480156120c357508560ff16600b600083815260200190815260200160002060000160009054906101000a900460ff1660ff16145b156120f757808383815181106120dc576120db614d62565b5b60200260200101818152505081806120f390614fe5565b9250505b808061210290614fe5565b91505061204f565b5060008167ffffffffffffffff81111561212757612126614644565b5b6040519080825280602002602001820160405280156121555781602001602082028036833780820191505090505b50905060005b828110156121aa5783818151811061217657612175614d62565b5b602002602001015182828151811061219157612190614d62565b5b602002602001018181525050808060010191505061215b565b508094505050505092915050565b6060600180546121c790614d31565b80601f01602080910402602001604051908101604052809291908181526020018280546121f390614d31565b80156122405780601f1061221557610100808354040283529160200191612240565b820191906000526020600020905b81548152906001019060200180831161222357829003601f168201915b5050505050905090565b61225c612255612fdc565b838361383e565b5050565b6000600383839050146122a8576040517f08c379a000000000000000000000000000000000000000000000000000000000815260040161229f90614e35565b60405180910390fd5b6000600b6000858560008181106122c2576122c1614d62565b5b90506020020135815260200190815260200160002060000160009054906101000a900460ff16905060058160ff1614806122ff575060068160ff16145b61233e576040517f08c379a000000000000000000000000000000000000000000000000000000000815260040161233590614ec7565b60405180910390fd5b60005b600381101561248c573373ffffffffffffffffffffffffffffffffffffffff1661238386868481811061237757612376614d62565b5b90506020020135611dd4565b73ffffffffffffffffffffffffffffffffffffffff16146123d9576040517f08c379a00000000000000000000000000000000000000000000000000000000081526004016123d090614f33565b60405180910390fd5b8160ff16600b60008787858181106123f4576123f3614d62565b5b90506020020135815260200190815260200160002060000160009054906101000a900460ff1660ff161461245d576040517f08c379a000000000000000000000000000000000000000000000000000000000815260040161245490614fc5565b60405180910390fd5b61247f85858381811061247357612472614d62565b5b90506020020135612ff6565b8080600101915050612341565b506124993382600361307c565b3373ffffffffffffffffffffffffffffffffffffffff167f3f8f46239f5ff752f97f04a4337ae063eef2701094d1d74887e142568aa1539785858460006040516124e69493929190615890565b60405180910390a2600760008154809291906001019190505550600060075490506000612710424433858a8a600081811061252457612523614d62565b5b9050602002013560405160200161253f9594939291906158d0565b6040516020818303038152906040528051906020012060001c6125629190615770565b90506000603282101561257857600090506125e0565b60c882101561258a57600190506125df565b6102bc82101561259d57600290506125de565b6106a48210156125b057600390506125dd565b610e748210156125c357600490506125dc565b611a2c8210156125d657600590506125db565b600690505b5b5b5b5b5b60405180606001604052808260ff1681526020014263ffffffff1681526020013373ffffffffffffffffffffffffffffffffffffffff16815250600b600085815260200190815260200160002060008201518160000160006101000a81548160ff021916908360ff16021790555060208201518160000160016101000a81548163ffffffff021916908363ffffffff16021790555060408201518160000160056101000a81548173ffffffffffffffffffffffffffffffffffffffff021916908373ffffffffffffffffffffffffffffffffffffffff160217905550905050600c60003373ffffffffffffffffffffffffffffffffffffffff1673ffffffffffffffffffffffffffffffffffffffff1681526020019081526020016000208190806001815401808255809150506001900390600052602060002090602091828204019190069091909190916101000a81548160ff021916908360ff160217905550600d60003373ffffffffffffffffffffffffffffffffffffffff1673ffffffffffffffffffffffffffffffffffffffff16815260200190815260200160002060009054906101000a900460ff161580156127a0575061279f336134ed565b5b156127fe576001600d60003373ffffffffffffffffffffffffffffffffffffffff1673ffffffffffffffffffffffffffffffffffffffff16815260200190815260200160002060006101000a81548160ff0219169083151502179055505b612808338461367f565b823373ffffffffffffffffffffffffffffffffffffffff167f8f59f601bb75974d2fc5a2ee8f1b7de682a1e78edb4cb7418db454c60ee4a5d183600f8560ff166007811061285957612858614d62565b5b01604051612868929190615825565b60405180910390a38294505050505092915050565b6128888484846112b0565b61289c612893612fdc565b858585856139ad565b50505050565b60008062015180601d60008573ffffffffffffffffffffffffffffffffffffffff1673ffffffffffffffffffffffffffffffffffffffff168152602001908152602001600020546128f39190615555565b9050804210612906576000915050612916565b4281612912919061592f565b9150505b919050565b612923613466565b60078260ff1610612969576040517f08c379a0000000000000000000000000000000000000000000000000000000008152600401612960906159af565b60405180910390fd5b80600a60008460ff1660ff168152602001908152602001600020908161298f9190615483565b505050565b6060600073ffffffffffffffffffffffffffffffffffffffff166129b783613429565b73ffffffffffffffffffffffffffffffffffffffff1603612a0d576040517f08c379a0000000000000000000000000000000000000000000000000000000008152600401612a049061519f565b60405180910390fd5b6000600b60008481526020019081526020016000206040518060600160405290816000820160009054906101000a900460ff1660ff1660ff1681526020016000820160019054906101000a900463ffffffff1663ffffffff1663ffffffff1681526020016000820160059054906101000a900473ffffffffffffffffffffffffffffffffffffffff1673ffffffffffffffffffffffffffffffffffffffff1673ffffffffffffffffffffffffffffffffffffffff168152505090506009612ada826000015160ff16613b5e565b604051602001612aeb929190615a4c565b604051602081830303815290604052915050919050565b600a6020528060005260406000206000915090508054612b2190614d31565b80601f0160208091040260200160405190810160405280929190818152602001828054612b4d90614d31565b8015612b9a5780601f10612b6f57610100808354040283529160200191612b9a565b820191906000526020600020905b815481529060010190602001808311612b7d57829003601f168201915b505050505081565b60006007547fffffffffffffffffffffffffffffffffffffffffffffffffffffffffffffffff612bd2919061592f565b905090565b612bdf613466565b60005b60078160ff161015612c3c57818160ff1660078110612c0457612c03614d62565b5b6020020151600a60008360ff1660ff1681526020019081526020016000209081612c2e9190615483565b508080600101915050612be2565b5050565b6000600560008473ffffffffffffffffffffffffffffffffffffffff1673ffffffffffffffffffffffffffffffffffffffff16815260200190815260200160002060008373ffffffffffffffffffffffffffffffffffffffff1673ffffffffffffffffffffffffffffffffffffffff16815260200190815260200160002060009054906101000a900460ff16905092915050565b60008060008073ffffffffffffffffffffffffffffffffffffffff16612cf985613429565b73ffffffffffffffffffffffffffffffffffffffff1603612d4f576040517f08c379a0000000000000000000000000000000000000000000000000000000008152600401612d469061519f565b60405180910390fd5b6000600b60008681526020019081526020016000206040518060600160405290816000820160009054906101000a900460ff1660ff1660ff1681526020016000820160019054906101000a900463ffffffff1663ffffffff1663ffffffff1681526020016000820160059054906101000a900473ffffffffffffffffffffffffffffffffffffffff1673ffffffffffffffffffffffffffffffffffffffff1673ffffffffffffffffffffffffffffffffffffffff16815250509050806000015181602001518260400151935093509350509193909250565b612e2f613466565b600073ffffffffffffffffffffffffffffffffffffffff168173ffffffffffffffffffffffffffffffffffffffff1603612ea15760006040517f1e4fbdf7000000000000000000000000000000000000000000000000000000008152600401612e989190614345565b60405180910390fd5b612eaa81613778565b50565b60007f01ffc9a7000000000000000000000000000000000000000000000000000000007bffffffffffffffffffffffffffffffffffffffffffffffffffffffff1916827bffffffffffffffffffffffffffffffffffffffffffffffffffffffff1916149050919050565b600080612f2383613429565b9050600073ffffffffffffffffffffffffffffffffffffffff168173ffffffffffffffffffffffffffffffffffffffff1603612f9657826040517f7e273289000000000000000000000000000000000000000000000000000000008152600401612f8d919061443f565b60405180910390fd5b80915050919050565b60006004600083815260200190815260200160002060009054906101000a900473ffffffffffffffffffffffffffffffffffffffff169050919050565b600033905090565b612ff18383836001613cbe565b505050565b6000613005600083600061320f565b9050600073ffffffffffffffffffffffffffffffffffffffff168173ffffffffffffffffffffffffffffffffffffffff160361307857816040517f7e27328900000000000000000000000000000000000000000000000000000000815260040161306f919061443f565b60405180910390fd5b5050565b6000600c60008573ffffffffffffffffffffffffffffffffffffffff1673ffffffffffffffffffffffffffffffffffffffff1681526020019081526020016000209050600080600183805490506130d39190615a85565b90505b600081121580156130e657508382105b15613207578460ff1683828154811061310257613101614d62565b5b90600052602060002090602091828204019190069054906101000a900460ff1660ff16036131f457826001848054905061313c919061592f565b8154811061314d5761314c614d62565b5b90600052602060002090602091828204019190069054906101000a900460ff168382815481106131805761317f614d62565b5b90600052602060002090602091828204019190066101000a81548160ff021916908360ff160217905550828054806131bb576131ba615ac8565b5b60019003818190600052602060002090602091828204019190066101000a81549060ff0219169055905581806131f090614fe5565b9250505b80806131ff90615af7565b9150506130d6565b505050505050565b60008061321b84613429565b9050600073ffffffffffffffffffffffffffffffffffffffff168373ffffffffffffffffffffffffffffffffffffffff161461325d5761325c818486613e83565b5b600073ffffffffffffffffffffffffffffffffffffffff168173ffffffffffffffffffffffffffffffffffffffff16146132ee5761329f600085600080613cbe565b6001600360008373ffffffffffffffffffffffffffffffffffffffff1673ffffffffffffffffffffffffffffffffffffffff168152602001908152602001600020600082825403925050819055505b600073ffffffffffffffffffffffffffffffffffffffff168573ffffffffffffffffffffffffffffffffffffffff1614613371576001600360008773ffffffffffffffffffffffffffffffffffffffff1673ffffffffffffffffffffffffffffffffffffffff168152602001908152602001600020600082825401925050819055505b846002600086815260200190815260200160002060006101000a81548173ffffffffffffffffffffffffffffffffffffffff021916908373ffffffffffffffffffffffffffffffffffffffff160217905550838573ffffffffffffffffffffffffffffffffffffffff168273ffffffffffffffffffffffffffffffffffffffff167fddf252ad1be2c89b69c2b068fc378daa952ba7f163c4a11628f55a4df523b3ef60405160405180910390a4809150509392505050565b60006002600083815260200190815260200160002060009054906101000a900473ffffffffffffffffffffffffffffffffffffffff169050919050565b61346e612fdc565b73ffffffffffffffffffffffffffffffffffffffff1661348c611f8f565b73ffffffffffffffffffffffffffffffffffffffff16146134eb576134af612fdc565b6040517f118cdaa70000000000000000000000000000000000000000000000000000000081526004016134e29190614345565b60405180910390fd5b565b60006134f761402a565b6000600c60008573ffffffffffffffffffffffffffffffffffffffff1673ffffffffffffffffffffffffffffffffffffffff1681526020019081526020016000208054806020026020016040519081016040528092919081815260200182805480156135a857602002820191906000526020600020906000905b82829054906101000a900460ff1660ff16815260200190600101906020826000010492830192600103820291508084116135715790505b5050505050905060005b81518110156136305760078282815181106135d0576135cf614d62565b5b602002602001015160ff161015613623576001838383815181106135f7576135f6614d62565b5b602002602001015160ff166007811061361357613612614d62565b5b6020020190151590811515815250505b80806001019150506135b2565b5060005b6007811015613672578281600781106136505761364f614d62565b5b6020020151613665576000935050505061367a565b8080600101915050613634565b506001925050505b919050565b600073ffffffffffffffffffffffffffffffffffffffff168273ffffffffffffffffffffffffffffffffffffffff16036136f15760006040517f64a0ae920000000000000000000000000000000000000000000000000000000081526004016136e89190614345565b60405180910390fd5b60006136ff8383600061320f565b9050600073ffffffffffffffffffffffffffffffffffffffff168173ffffffffffffffffffffffffffffffffffffffff16146137735760006040517f73c6ac6e00000000000000000000000000000000000000000000000000000000815260040161376a9190614345565b60405180910390fd5b505050565b6000600660009054906101000a900473ffffffffffffffffffffffffffffffffffffffff16905081600660006101000a81548173ffffffffffffffffffffffffffffffffffffffff021916908373ffffffffffffffffffffffffffffffffffffffff1602179055508173ffffffffffffffffffffffffffffffffffffffff168173ffffffffffffffffffffffffffffffffffffffff167f8be0079c531659141344cd1fd0a4f28419497f9722a3daafe3b4186f6b6457e060405160405180910390a35050565b600073ffffffffffffffffffffffffffffffffffffffff168273ffffffffffffffffffffffffffffffffffffffff16036138af57816040517f5b08ba180000000000000000000000000000000000000000000000000000000081526004016138a69190614345565b60405180910390fd5b80600560008573ffffffffffffffffffffffffffffffffffffffff1673ffffffffffffffffffffffffffffffffffffffff16815260200190815260200160002060008473ffffffffffffffffffffffffffffffffffffffff1673ffffffffffffffffffffffffffffffffffffffff16815260200190815260200160002060006101000a81548160ff0219169083151502179055508173ffffffffffffffffffffffffffffffffffffffff168373ffffffffffffffffffffffffffffffffffffffff167f17307eab39ab6107e8899845ad3d59bd9653f200f220920489ca2b5937696c31836040516139a09190614100565b60405180910390a3505050565b60008373ffffffffffffffffffffffffffffffffffffffff163b1115613b57578273ffffffffffffffffffffffffffffffffffffffff1663150b7a02868685856040518563ffffffff1660e01b8152600401613a0c9493929190615b94565b6020604051808303816000875af1925050508015613a4857506040513d601f19601f82011682018060405250810190613a459190615bf5565b60015b613acc573d8060008114613a78576040519150601f19603f3d011682016040523d82523d6000602084013e613a7d565b606091505b506000815103613ac457836040517f64a0ae92000000000000000000000000000000000000000000000000000000008152600401613abb9190614345565b60405180910390fd5b805160208201fd5b63150b7a0260e01b7bffffffffffffffffffffffffffffffffffffffffffffffffffffffff1916817bffffffffffffffffffffffffffffffffffffffffffffffffffffffff191614613b5557836040517f64a0ae92000000000000000000000000000000000000000000000000000000008152600401613b4c9190614345565b60405180910390fd5b505b5050505050565b606060008203613ba5576040518060400160405280600181526020017f30000000000000000000000000000000000000000000000000000000000000008152509050613cb9565b600082905060005b60008214613bd7578080613bc090614fe5565b915050600a82613bd09190615c22565b9150613bad565b60008167ffffffffffffffff811115613bf357613bf2614644565b5b6040519080825280601f01601f191660200182016040528015613c255781602001600182028036833780820191505090505b5090505b60008514613cb257600182613c3e919061592f565b9150600a85613c4d9190615770565b6030613c599190615555565b60f81b818381518110613c6f57613c6e614d62565b5b60200101907effffffffffffffffffffffffffffffffffffffffffffffffffffffffffffff1916908160001a905350600a85613cab9190615c22565b9450613c29565b8093505050505b919050565b8080613cf75750600073ffffffffffffffffffffffffffffffffffffffff168273ffffffffffffffffffffffffffffffffffffffff1614155b15613e2b576000613d0784612f17565b9050600073ffffffffffffffffffffffffffffffffffffffff168373ffffffffffffffffffffffffffffffffffffffff1614158015613d7257508273ffffffffffffffffffffffffffffffffffffffff168173ffffffffffffffffffffffffffffffffffffffff1614155b8015613d855750613d838184612c40565b155b15613dc757826040517fa9fbf51f000000000000000000000000000000000000000000000000000000008152600401613dbe9190614345565b60405180910390fd5b8115613e2957838573ffffffffffffffffffffffffffffffffffffffff168273ffffffffffffffffffffffffffffffffffffffff167f8c5be1e5ebec7d5bd14f71427d1e84f3dd0314c0f7b2291e5b200ac8c7c3b92560405160405180910390a45b505b836004600085815260200190815260200160002060006101000a81548173ffffffffffffffffffffffffffffffffffffffff021916908373ffffffffffffffffffffffffffffffffffffffff16021790555050505050565b613e8e838383613f47565b613f4257600073ffffffffffffffffffffffffffffffffffffffff168373ffffffffffffffffffffffffffffffffffffffff1603613f0357806040517f7e273289000000000000000000000000000000000000000000000000000000008152600401613efa919061443f565b60405180910390fd5b81816040517f177e802f000000000000000000000000000000000000000000000000000000008152600401613f39929190615c53565b60405180910390fd5b505050565b60008073ffffffffffffffffffffffffffffffffffffffff168373ffffffffffffffffffffffffffffffffffffffff1614158015613fff57508273ffffffffffffffffffffffffffffffffffffffff168473ffffffffffffffffffffffffffffffffffffffff161480613fc05750613fbf8484612c40565b5b80613ffe57508273ffffffffffffffffffffffffffffffffffffffff16613fe683612f9f565b73ffffffffffffffffffffffffffffffffffffffff16145b5b90509392505050565b6040518060e00160405280600790602082028036833780820191505090505090565b6040518060e00160405280600790602082028036833780820191505090505090565b6000604051905090565b600080fd5b600080fd5b60007fffffffff0000000000000000000000000000000000000000000000000000000082169050919050565b61409581614060565b81146140a057600080fd5b50565b6000813590506140b28161408c565b92915050565b6000602082840312156140ce576140cd614056565b5b60006140dc848285016140a3565b91505092915050565b60008115159050919050565b6140fa816140e5565b82525050565b600060208201905061411560008301846140f1565b92915050565b600060079050919050565b600081905092915050565b6000819050919050565b600061ffff82169050919050565b6141528161413b565b82525050565b60006141648383614149565b60208301905092915050565b6000602082019050919050565b6141868161411b565b6141908184614126565b925061419b82614131565b8060005b838110156141cc5781516141b38782614158565b96506141be83614170565b92505060018101905061419f565b505050505050565b600060e0820190506141e9600083018461417d565b92915050565b600081519050919050565b600082825260208201905092915050565b60005b8381101561422957808201518184015260208101905061420e565b60008484015250505050565b6000601f19601f8301169050919050565b6000614251826141ef565b61425b81856141fa565b935061426b81856020860161420b565b61427481614235565b840191505092915050565b600060208201905081810360008301526142998184614246565b905092915050565b6000819050919050565b6142b4816142a1565b81146142bf57600080fd5b50565b6000813590506142d1816142ab565b92915050565b6000602082840312156142ed576142ec614056565b5b60006142fb848285016142c2565b91505092915050565b600073ffffffffffffffffffffffffffffffffffffffff82169050919050565b600061432f82614304565b9050919050565b61433f81614324565b82525050565b600060208201905061435a6000830184614336565b92915050565b61436981614324565b811461437457600080fd5b50565b60008135905061438681614360565b92915050565b600080604083850312156143a3576143a2614056565b5b60006143b185828601614377565b92505060206143c2858286016142c2565b9150509250929050565b6000602082840312156143e2576143e1614056565b5b60006143f084828501614377565b91505092915050565b600060ff82169050919050565b61440f816143f9565b82525050565b600060208201905061442a6000830184614406565b92915050565b614439816142a1565b82525050565b60006020820190506144546000830184614430565b92915050565b600081519050919050565b600082825260208201905092915050565b6000819050602082019050919050565b61448f816143f9565b82525050565b60006144a18383614486565b60208301905092915050565b6000602082019050919050565b60006144c58261445a565b6144cf8185614465565b93506144da83614476565b8060005b8381101561450b5781516144f28882614495565b97506144fd836144ad565b9250506001810190506144de565b5085935050505092915050565b6000602082019050818103600083015261453281846144ba565b905092915050565b600080fd5b600080fd5b600080fd5b60008083601f84011261455f5761455e61453a565b5b8235905067ffffffffffffffff81111561457c5761457b61453f565b5b60208301915083602082028301111561459857614597614544565b5b9250929050565b600080602083850312156145b6576145b5614056565b5b600083013567ffffffffffffffff8111156145d4576145d361405b565b5b6145e085828601614549565b92509250509250929050565b60008060006060848603121561460557614604614056565b5b600061461386828701614377565b935050602061462486828701614377565b9250506040614635868287016142c2565b9150509250925092565b600080fd5b7f4e487b7100000000000000000000000000000000000000000000000000000000600052604160045260246000fd5b61467c82614235565b810181811067ffffffffffffffff8211171561469b5761469a614644565b5b80604052505050565b60006146ae61404c565b90506146ba8282614673565b919050565b600067ffffffffffffffff8211156146da576146d9614644565b5b6146e382614235565b9050602081019050919050565b82818337600083830152505050565b600061471261470d846146bf565b6146a4565b90508281526020810184848401111561472e5761472d61463f565b5b6147398482856146f0565b509392505050565b600082601f8301126147565761475561453a565b5b81356147668482602086016146ff565b91505092915050565b60006020828403121561478557614784614056565b5b600082013567ffffffffffffffff8111156147a3576147a261405b565b5b6147af84828501614741565b91505092915050565b60006060820190506147cd60008301866140f1565b6147da6020830185614406565b6147e76040830184614430565b949350505050565b600063ffffffff82169050919050565b614808816147ef565b82525050565b60006060820190506148236000830186614406565b61483060208301856147ff565b61483d6040830184614336565b949350505050565b61484e816143f9565b811461485957600080fd5b50565b60008135905061486b81614845565b92915050565b6000806040838503121561488857614887614056565b5b600061489685828601614377565b92505060206148a78582860161485c565b9150509250929050565b600081519050919050565b600082825260208201905092915050565b6000819050602082019050919050565b6148e6816142a1565b82525050565b60006148f883836148dd565b60208301905092915050565b6000602082019050919050565b600061491c826148b1565b61492681856148bc565b9350614931836148cd565b8060005b8381101561496257815161494988826148ec565b975061495483614904565b925050600181019050614935565b5085935050505092915050565b600060208201905081810360008301526149898184614911565b905092915050565b61499a816140e5565b81146149a557600080fd5b50565b6000813590506149b781614991565b92915050565b600080604083850312156149d4576149d3614056565b5b60006149e285828601614377565b92505060206149f3858286016149a8565b9150509250929050565b600067ffffffffffffffff821115614a1857614a17614644565b5b614a2182614235565b9050602081019050919050565b6000614a41614a3c846149fd565b6146a4565b905082815260208101848484011115614a5d57614a5c61463f565b5b614a688482856146f0565b509392505050565b600082601f830112614a8557614a8461453a565b5b8135614a95848260208601614a2e565b91505092915050565b60008060008060808587031215614ab857614ab7614056565b5b6000614ac687828801614377565b9450506020614ad787828801614377565b9350506040614ae8878288016142c2565b925050606085013567ffffffffffffffff811115614b0957614b0861405b565b5b614b1587828801614a70565b91505092959194509250565b60008060408385031215614b3857614b37614056565b5b6000614b468582860161485c565b925050602083013567ffffffffffffffff811115614b6757614b6661405b565b5b614b7385828601614741565b9150509250929050565b600060208284031215614b9357614b92614056565b5b6000614ba18482850161485c565b91505092915050565b600067ffffffffffffffff821115614bc557614bc4614644565b5b602082029050919050565b6000614be3614bde84614baa565b6146a4565b90508060208402830185811115614bfd57614bfc614544565b5b835b81811015614c4457803567ffffffffffffffff811115614c2257614c2161453a565b5b808601614c2f8982614741565b85526020850194505050602081019050614bff565b5050509392505050565b600082601f830112614c6357614c6261453a565b5b6007614c70848285614bd0565b91505092915050565b600060208284031215614c8f57614c8e614056565b5b600082013567ffffffffffffffff811115614cad57614cac61405b565b5b614cb984828501614c4e565b91505092915050565b60008060408385031215614cd957614cd8614056565b5b6000614ce785828601614377565b9250506020614cf885828601614377565b9150509250929050565b7f4e487b7100000000000000000000000000000000000000000000000000000000600052602260045260246000fd5b60006002820490506001821680614d4957607f821691505b602082108103614d5c57614d5b614d02565b5b50919050565b7f4e487b7100000000000000000000000000000000000000000000000000000000600052603260045260246000fd5b7f4e487b7100000000000000000000000000000000000000000000000000000000600052601160045260246000fd5b6000614dcb826143f9565b915060ff8203614dde57614ddd614d91565b5b600182019050919050565b7f4d757374206275726e2065786163746c79203320746f6b656e73000000000000600082015250565b6000614e1f601a836141fa565b9150614e2a82614de9565b602082019050919050565b60006020820190508181036000830152614e4e81614e12565b9050919050565b7f43616e206f6e6c79206275726e20426c657373696e67206f72204d696e6f722060008201527f426c657373696e67000000000000000000000000000000000000000000000000602082015250565b6000614eb16028836141fa565b9150614ebc82614e55565b604082019050919050565b60006020820190508181036000830152614ee081614ea4565b9050919050565b7f4e6f74206f776e6572206f6620746f6b656e0000000000000000000000000000600082015250565b6000614f1d6012836141fa565b9150614f2882614ee7565b602082019050919050565b60006020820190508181036000830152614f4c81614f10565b9050919050565b7f416c6c20746f6b656e73206d7573742062652073616d6520666f7274756e652060008201527f7479706500000000000000000000000000000000000000000000000000000000602082015250565b6000614faf6024836141fa565b9150614fba82614f53565b604082019050919050565b60006020820190508181036000830152614fde81614fa2565b9050919050565b6000614ff0826142a1565b91507fffffffffffffffffffffffffffffffffffffffffffffffffffffffffffffffff820361502257615021614d91565b5b600182019050919050565b600080fd5b82818337505050565b600061504783856148bc565b93507f07ffffffffffffffffffffffffffffffffffffffffffffffffffffffffffffff83111561507a5761507961502d565b5b60208302925061508b838584615032565b82840190509392505050565b6000819050919050565b6000819050919050565b60006150c66150c16150bc84615097565b6150a1565b6142a1565b9050919050565b6150d6816150ab565b82525050565b600060608201905081810360008301526150f781868861503b565b90506151066020830185614406565b61511360408301846150cd565b95945050505050565b60006060820190506151316000830186614336565b61513e6020830185614430565b61514b6040830184614336565b949350505050565b7f546f6b656e20646f6573206e6f74206578697374000000000000000000000000600082015250565b60006151896014836141fa565b915061519482615153565b602082019050919050565b600060208201905081810360008301526151b88161517c565b9050919050565b600081905092915050565b7f68747470733a2f2f676174657761792e70696e6174612e636c6f75642f69706660008201527f732f000000000000000000000000000000000000000000000000000000000000602082015250565b60006152266022836151bf565b9150615231826151ca565b602282019050919050565b60008190508160005260206000209050919050565b6000815461525e81614d31565b61526881866151bf565b945060018216600081146152835760018114615298576152cb565b60ff19831686528115158202860193506152cb565b6152a18561523c565b60005b838110156152c3578154818901526001820191506020810190506152a4565b838801955050505b50505092915050565b60006152df82615219565b91506152eb8284615251565b915081905092915050565b60006020601f8301049050919050565b600082821b905092915050565b6000600883026153437fffffffffffffffffffffffffffffffffffffffffffffffffffffffffffffffff82615306565b61534d8683615306565b95508019841693508086168417925050509392505050565b600061538061537b615376846142a1565b6150a1565b6142a1565b9050919050565b6000819050919050565b61539a83615365565b6153ae6153a682615387565b848454615313565b825550505050565b600090565b6153c36153b6565b6153ce818484615391565b505050565b5b818110156153f2576153e76000826153bb565b6001810190506153d4565b5050565b601f821115615437576154088161523c565b615411846152f6565b81016020851015615420578190505b61543461542c856152f6565b8301826153d3565b50505b505050565b600082821c905092915050565b600061545a6000198460080261543c565b1980831691505092915050565b60006154738383615449565b9150826002028217905092915050565b61548c826141ef565b67ffffffffffffffff8111156154a5576154a4614644565b5b6154af8254614d31565b6154ba8282856153f6565b600060209050601f8311600181146154ed57600084156154db578287015190505b6154e58582615467565b86555061554d565b601f1984166154fb8661523c565b60005b82811015615523578489015182556001820191506020850194506020810190506154fe565b86831015615540578489015161553c601f891682615449565b8355505b6001600288020188555050505b505050505050565b6000615560826142a1565b915061556b836142a1565b925082820190508082111561558357615582614d91565b5b92915050565b7f436f6f6c646f776e20706572696f64206e6f74206d6574000000000000000000600082015250565b60006155bf6017836141fa565b91506155ca82615589565b602082019050919050565b600060208201905081810360008301526155ee816155b2565b9050919050565b6000615600826142a1565b91506000820361561357615612614d91565b5b600182039050919050565b7f496e73756666696369656e74207061796d656e74000000000000000000000000600082015250565b60006156546014836141fa565b915061565f8261561e565b602082019050919050565b6000602082019050818103600083015261568381615647565b9050919050565b6000819050919050565b6156a56156a0826142a1565b61568a565b82525050565b60008160601b9050919050565b60006156c3826156ab565b9050919050565b60006156d5826156b8565b9050919050565b6156ed6156e882614324565b6156ca565b82525050565b60006156ff8287615694565b60208201915061570f8286615694565b60208201915061571f82856156dc565b60148201915061572f8284615694565b60208201915081905095945050505050565b7f4e487b7100000000000000000000000000000000000000000000000000000000600052601260045260246000fd5b600061577b826142a1565b9150615786836142a1565b92508261579657615795615741565b5b828206905092915050565b600081546157ae81614d31565b6157b881866141fa565b945060018216600081146157d357600181146157e95761581c565b60ff19831686528115156020028601935061581c565b6157f28561523c565b60005b83811015615814578154818901526001820191506020810190506157f5565b808801955050505b50505092915050565b600060408201905061583a6000830185614406565b818103602083015261584c81846157a1565b90509392505050565b6000819050919050565b600061587a61587561587084615855565b6150a1565b6142a1565b9050919050565b61588a8161585f565b82525050565b600060608201905081810360008301526158ab81868861503b565b90506158ba6020830185614406565b6158c76040830184615881565b95945050505050565b60006158dc8288615694565b6020820191506158ec8287615694565b6020820191506158fc82866156dc565b60148201915061590c8285615694565b60208201915061591c8284615694565b6020820191508190509695505050505050565b600061593a826142a1565b9150615945836142a1565b925082820390508181111561595d5761595c614d91565b5b92915050565b7f496e76616c696420666f7274756e652074797065000000000000000000000000600082015250565b60006159996014836141fa565b91506159a482615963565b602082019050919050565b600060208201905081810360008301526159c88161598c565b9050919050565b60006159da826141ef565b6159e481856151bf565b93506159f481856020860161420b565b80840191505092915050565b7f2e6a736f6e000000000000000000000000000000000000000000000000000000600082015250565b6000615a366005836151bf565b9150615a4182615a00565b600582019050919050565b6000615a588285615251565b9150615a6482846159cf565b9150615a6f82615a29565b91508190509392505050565b6000819050919050565b6000615a9082615a7b565b9150615a9b83615a7b565b9250828203905081811260008412168282136000851215161715615ac257615ac1614d91565b5b92915050565b7f4e487b7100000000000000000000000000000000000000000000000000000000600052603160045260246000fd5b6000615b0282615a7b565b91507f80000000000000000000000000000000000000000000000000000000000000008203615b3457615b33614d91565b5b600182039050919050565b600081519050919050565b600082825260208201905092915050565b6000615b6682615b3f565b615b708185615b4a565b9350615b8081856020860161420b565b615b8981614235565b840191505092915050565b6000608082019050615ba96000830187614336565b615bb66020830186614336565b615bc36040830185614430565b8181036060830152615bd58184615b5b565b905095945050505050565b600081519050615bef8161408c565b92915050565b600060208284031215615c0b57615c0a614056565b5b6000615c1984828501615be0565b91505092915050565b6000615c2d826142a1565b9150615c38836142a1565b925082615c4857615c47615741565b5b828204905092915050565b6000604082019050615c686000830185614336565b615c756020830184614430565b939250505056fea2646970667358221220f795d3aa7fddfb764e501890be6456fe33f54a63166cc118cc79a4a0ceadd68764736f6c634300081b003350617469656e6365206272696e677320746865207377656574657374207265776172647321536d616c6c20626c657373696e6773206c65616420746f20626967676572206f70706f7274756e6974696573216261667962656964327564613568616d6b7a62346c73653572633768746362636a66666f376467756b6a6f34626a71646a7576686534346767376145787472616f7264696e61727920666f7274756e6520617761697473212045766572797468696e67207475726e7320746f20676f6c6421496e6372656469626c65206c75636b2120596f757220647265616d7320657863656564206578706563746174696f6e732162616679626569646c7974373375636a6d74637a727463766463666b73756c676670783567646167326a37366871646f336b637064783276327665476f6f64207468696e677320636f6d6520746f2074686f73652077686f20776169742142616c616e636564206c75636b206272696e6773207374656164792070726f6772657373216261667962656968733561757578777534346634676571776867797a646f616d64676171786a367762746377733437667436346d61796178736365626166796265696565326b637a6a677a73656171616e356c6465776c7363686677616c65787a79676568657775366a6f656f77326574626b65726162616679626569686d6e74713372786864356a366e786b366a3376626c7a713672686c6f697a326972636d6477673234337261637a7937716c61756261667962656963617274346f656736677868716769766d356b6e626f6f716e346278613337346a7067373361716465687a3233347a683671756d68747470733a2f2f676174657761792e70696e6174612e636c6f75642f697066732f626166796265696865726f756c6d72336273357378796c6c6b347870696b63657537736f7175716734697076686d6b6474706d70756a7267746b792f6261666b72656967696f337532356732706762666f33616a6f68793571636964613734616b666c6e3374746c786834343378676a7933336f73706d477265617420666f7274756e6520736d696c65732075706f6e20796f7520746f64617921",
  "linkReferences": {},
  "deployedLinkReferences": {}
}