{
  "_format": "hh-sol-artifact-1",
  "contractName": "UpdatedIPFSOmikujiNFT",
  "sourceName": "contracts/UpdatedIPFSOmikujiNFT.sol",
  "abi": [
    {
      "inputs": [],
      "stateMutability": "nonpayable",
      "type": "constructor"
    },
    {
      "inputs": [
        {
          "internalType": "address",
          "name": "sender",
          "type": "address"
        },
        {
          "internalType": "uint256",
          "name": "tokenId",
          "type": "uint256"
        },
        {
          "internalType": "address",
          "name": "owner",
          "type": "address"
        }
      ],
      "name": "ERC721IncorrectOwner",
      "type": "error"
    },
    {
      "inputs": [
        {
          "internalType": "address",
          "name": "operator",
          "type": "address"
        },
        {
          "internalType": "uint256",
          "name": "tokenId",
          "type": "uint256"
        }
      ],
      "name": "ERC721InsufficientApproval",
      "type": "error"
    },
    {
      "inputs": [
        {
          "internalType": "address",
          "name": "approver",
          "type": "address"
        }
      ],
      "name": "ERC721InvalidApprover",
      "type": "error"
    },
    {
      "inputs": [
        {
          "internalType": "address",
          "name": "operator",
          "type": "address"
        }
      ],
      "name": "ERC721InvalidOperator",
      "type": "error"
    },
    {
      "inputs": [
        {
          "internalType": "address",
          "name": "owner",
          "type": "address"
        }
      ],
      "name": "ERC721InvalidOwner",
      "type": "error"
    },
    {
      "inputs": [
        {
          "internalType": "address",
          "name": "receiver",
          "type": "address"
        }
      ],
      "name": "ERC721InvalidReceiver",
      "type": "error"
    },
    {
      "inputs": [
        {
          "internalType": "address",
          "name": "sender",
          "type": "address"
        }
      ],
      "name": "ERC721InvalidSender",
      "type": "error"
    },
    {
      "inputs": [
        {
          "internalType": "uint256",
          "name": "tokenId",
          "type": "uint256"
        }
      ],
      "name": "ERC721NonexistentToken",
      "type": "error"
    },
    {
      "inputs": [
        {
          "internalType": "address",
          "name": "owner",
          "type": "address"
        }
      ],
      "name": "OwnableInvalidOwner",
      "type": "error"
    },
    {
      "inputs": [
        {
          "internalType": "address",
          "name": "account",
          "type": "address"
        }
      ],
      "name": "OwnableUnauthorizedAccount",
      "type": "error"
    },
    {
      "anonymous": false,
      "inputs": [
        {
          "indexed": true,
          "internalType": "address",
          "name": "owner",
          "type": "address"
        },
        {
          "indexed": true,
          "internalType": "address",
          "name": "approved",
          "type": "address"
        },
        {
          "indexed": true,
          "internalType": "uint256",
          "name": "tokenId",
          "type": "uint256"
        }
      ],
      "name": "Approval",
      "type": "event"
    },
    {
      "anonymous": false,
      "inputs": [
        {
          "indexed": true,
          "internalType": "address",
          "name": "owner",
          "type": "address"
        },
        {
          "indexed": true,
          "internalType": "address",
          "name": "operator",
          "type": "address"
        },
        {
          "indexed": false,
          "internalType": "bool",
          "name": "approved",
          "type": "bool"
        }
      ],
      "name": "ApprovalForAll",
      "type": "event"
    },
    {
      "anonymous": false,
      "inputs": [
        {
          "indexed": true,
          "internalType": "address",
          "name": "drawer",
          "type": "address"
        },
        {
          "indexed": true,
          "internalType": "uint256",
          "name": "tokenId",
          "type": "uint256"
        },
        {
          "indexed": false,
          "internalType": "uint8",
          "name": "result",
          "type": "uint8"
        },
        {
          "indexed": false,
          "internalType": "string",
          "name": "message",
          "type": "string"
        }
      ],
      "name": "OmikujiDrawn",
      "type": "event"
    },
    {
      "anonymous": false,
      "inputs": [
        {
          "indexed": true,
          "internalType": "address",
          "name": "previousOwner",
          "type": "address"
        },
        {
          "indexed": true,
          "internalType": "address",
          "name": "newOwner",
          "type": "address"
        }
      ],
      "name": "OwnershipTransferred",
      "type": "event"
    },
    {
      "anonymous": false,
      "inputs": [
        {
          "indexed": true,
          "internalType": "address",
          "name": "from",
          "type": "address"
        },
        {
          "indexed": true,
          "internalType": "address",
          "name": "to",
          "type": "address"
        },
        {
          "indexed": true,
          "internalType": "uint256",
          "name": "tokenId",
          "type": "uint256"
        }
      ],
      "name": "Transfer",
      "type": "event"
    },
    {
      "inputs": [
        {
          "internalType": "address",
          "name": "to",
          "type": "address"
        },
        {
          "internalType": "uint256",
          "name": "tokenId",
          "type": "uint256"
        }
      ],
      "name": "approve",
      "outputs": [],
      "stateMutability": "nonpayable",
      "type": "function"
    },
    {
      "inputs": [
        {
          "internalType": "address",
          "name": "owner",
          "type": "address"
        }
      ],
      "name": "balanceOf",
      "outputs": [
        {
          "internalType": "uint256",
          "name": "",
          "type": "uint256"
        }
      ],
      "stateMutability": "view",
      "type": "function"
    },
    {
      "inputs": [
        {
          "internalType": "address",
          "name": "",
          "type": "address"
        }
      ],
      "name": "canDrawOmikuji",
      "outputs": [
        {
          "internalType": "bool",
          "name": "",
          "type": "bool"
        }
      ],
      "stateMutability": "pure",
      "type": "function"
    },
    {
      "inputs": [
        {
          "internalType": "address",
          "name": "user",
          "type": "address"
        }
      ],
      "name": "checkSelfMintCompletion",
      "outputs": [
        {
          "internalType": "bool",
          "name": "",
          "type": "bool"
        }
      ],
      "stateMutability": "view",
      "type": "function"
    },
    {
      "inputs": [],
      "name": "drawOmikuji",
      "outputs": [
        {
          "internalType": "uint256",
          "name": "",
          "type": "uint256"
        }
      ],
      "stateMutability": "payable",
      "type": "function"
    },
    {
      "inputs": [
        {
          "internalType": "uint8",
          "name": "",
          "type": "uint8"
        }
      ],
      "name": "fortuneImages",
      "outputs": [
        {
          "internalType": "string",
          "name": "",
          "type": "string"
        }
      ],
      "stateMutability": "view",
      "type": "function"
    },
    {
      "inputs": [
        {
          "internalType": "uint256",
          "name": "",
          "type": "uint256"
        }
      ],
      "name": "fortunes",
      "outputs": [
        {
          "internalType": "uint8",
          "name": "result",
          "type": "uint8"
        },
        {
          "internalType": "uint32",
          "name": "timestamp",
          "type": "uint32"
        },
        {
          "internalType": "address",
          "name": "drawer",
          "type": "address"
        }
      ],
      "stateMutability": "view",
      "type": "function"
    },
    {
      "inputs": [
        {
          "internalType": "uint256",
          "name": "tokenId",
          "type": "uint256"
        }
      ],
      "name": "getApproved",
      "outputs": [
        {
          "internalType": "address",
          "name": "",
          "type": "address"
        }
      ],
      "stateMutability": "view",
      "type": "function"
    },
    {
      "inputs": [
        {
          "internalType": "uint256",
          "name": "tokenId",
          "type": "uint256"
        }
      ],
      "name": "getFortuneData",
      "outputs": [
        {
          "internalType": "uint8",
          "name": "result",
          "type": "uint8"
        },
        {
          "internalType": "uint32",
          "name": "timestamp",
          "type": "uint32"
        },
        {
          "internalType": "address",
          "name": "drawer",
          "type": "address"
        }
      ],
      "stateMutability": "view",
      "type": "function"
    },
    {
      "inputs": [
        {
          "internalType": "uint256",
          "name": "tokenId",
          "type": "uint256"
        }
      ],
      "name": "getFortuneImageUrl",
      "outputs": [
        {
          "internalType": "string",
          "name": "",
          "type": "string"
        }
      ],
      "stateMutability": "view",
      "type": "function"
    },
    {
      "inputs": [
        {
          "internalType": "uint256",
          "name": "tokenId",
          "type": "uint256"
        }
      ],
      "name": "getFortuneMessage",
      "outputs": [
        {
          "internalType": "string",
          "name": "",
          "type": "string"
        }
      ],
      "stateMutability": "view",
      "type": "function"
    },
    {
      "inputs": [],
      "name": "getProbabilities",
      "outputs": [
        {
          "internalType": "uint16[7]",
          "name": "",
          "type": "uint16[7]"
        }
      ],
      "stateMutability": "pure",
      "type": "function"
    },
    {
      "inputs": [
        {
          "internalType": "address",
          "name": "user",
          "type": "address"
        }
      ],
      "name": "getSelfMintProgress",
      "outputs": [
        {
          "internalType": "uint8",
          "name": "",
          "type": "uint8"
        }
      ],
      "stateMutability": "view",
      "type": "function"
    },
    {
      "inputs": [
        {
          "internalType": "address",
          "name": "user",
          "type": "address"
        }
      ],
      "name": "getSelfMintedFortunes",
      "outputs": [
        {
          "internalType": "uint8[]",
          "name": "",
          "type": "uint8[]"
        }
      ],
      "stateMutability": "view",
      "type": "function"
    },
    {
      "inputs": [
        {
          "internalType": "address",
          "name": "",
          "type": "address"
        }
      ],
      "name": "getTimeUntilNextDraw",
      "outputs": [
        {
          "internalType": "uint256",
          "name": "",
          "type": "uint256"
        }
      ],
      "stateMutability": "pure",
      "type": "function"
    },
    {
      "inputs": [
        {
          "internalType": "address",
          "name": "",
          "type": "address"
        }
      ],
      "name": "hasCompletedSelfMint",
      "outputs": [
        {
          "internalType": "bool",
          "name": "",
          "type": "bool"
        }
      ],
      "stateMutability": "view",
      "type": "function"
    },
    {
      "inputs": [
        {
          "internalType": "address",
          "name": "owner",
          "type": "address"
        },
        {
          "internalType": "address",
          "name": "operator",
          "type": "address"
        }
      ],
      "name": "isApprovedForAll",
      "outputs": [
        {
          "internalType": "bool",
          "name": "",
          "type": "bool"
        }
      ],
      "stateMutability": "view",
      "type": "function"
    },
    {
      "inputs": [],
      "name": "name",
      "outputs": [
        {
          "internalType": "string",
          "name": "",
          "type": "string"
        }
      ],
      "stateMutability": "view",
      "type": "function"
    },
    {
      "inputs": [],
      "name": "omikujiPrice",
      "outputs": [
        {
          "internalType": "uint256",
          "name": "",
          "type": "uint256"
        }
      ],
      "stateMutability": "view",
      "type": "function"
    },
    {
      "inputs": [],
      "name": "owner",
      "outputs": [
        {
          "internalType": "address",
          "name": "",
          "type": "address"
        }
      ],
      "stateMutability": "view",
      "type": "function"
    },
    {
      "inputs": [
        {
          "internalType": "uint256",
          "name": "tokenId",
          "type": "uint256"
        }
      ],
      "name": "ownerOf",
      "outputs": [
        {
          "internalType": "address",
          "name": "",
          "type": "address"
        }
      ],
      "stateMutability": "view",
      "type": "function"
    },
    {
      "inputs": [],
      "name": "remainingSupply",
      "outputs": [
        {
          "internalType": "uint256",
          "name": "",
          "type": "uint256"
        }
      ],
      "stateMutability": "view",
      "type": "function"
    },
    {
      "inputs": [],
      "name": "renounceOwnership",
      "outputs": [],
      "stateMutability": "nonpayable",
      "type": "function"
    },
    {
      "inputs": [
        {
          "internalType": "address",
          "name": "from",
          "type": "address"
        },
        {
          "internalType": "address",
          "name": "to",
          "type": "address"
        },
        {
          "internalType": "uint256",
          "name": "tokenId",
          "type": "uint256"
        }
      ],
      "name": "safeTransferFrom",
      "outputs": [],
      "stateMutability": "nonpayable",
      "type": "function"
    },
    {
      "inputs": [
        {
          "internalType": "address",
          "name": "from",
          "type": "address"
        },
        {
          "internalType": "address",
          "name": "to",
          "type": "address"
        },
        {
          "internalType": "uint256",
          "name": "tokenId",
          "type": "uint256"
        },
        {
          "internalType": "bytes",
          "name": "data",
          "type": "bytes"
        }
      ],
      "name": "safeTransferFrom",
      "outputs": [],
      "stateMutability": "nonpayable",
      "type": "function"
    },
    {
      "inputs": [
        {
          "internalType": "address",
          "name": "",
          "type": "address"
        },
        {
          "internalType": "uint256",
          "name": "",
          "type": "uint256"
        }
      ],
      "name": "selfMintedFortunes",
      "outputs": [
        {
          "internalType": "uint8",
          "name": "",
          "type": "uint8"
        }
      ],
      "stateMutability": "view",
      "type": "function"
    },
    {
      "inputs": [
        {
          "internalType": "string[7]",
          "name": "ipfsHashes",
          "type": "string[7]"
        }
      ],
      "name": "setAllFortuneImageHashes",
      "outputs": [],
      "stateMutability": "nonpayable",
      "type": "function"
    },
    {
      "inputs": [
        {
          "internalType": "address",
          "name": "operator",
          "type": "address"
        },
        {
          "internalType": "bool",
          "name": "approved",
          "type": "bool"
        }
      ],
      "name": "setApprovalForAll",
      "outputs": [],
      "stateMutability": "nonpayable",
      "type": "function"
    },
    {
      "inputs": [
        {
          "internalType": "string",
          "name": "baseURI",
          "type": "string"
        }
      ],
      "name": "setBaseURI",
      "outputs": [],
      "stateMutability": "nonpayable",
      "type": "function"
    },
    {
      "inputs": [
        {
          "internalType": "uint8",
          "name": "fortuneType",
          "type": "uint8"
        },
        {
          "internalType": "string",
          "name": "ipfsHash",
          "type": "string"
        }
      ],
      "name": "setFortuneImageHash",
      "outputs": [],
      "stateMutability": "nonpayable",
      "type": "function"
    },
    {
      "inputs": [
        {
          "internalType": "uint256",
          "name": "_price",
          "type": "uint256"
        }
      ],
      "name": "setPrice",
      "outputs": [],
      "stateMutability": "nonpayable",
      "type": "function"
    },
    {
      "inputs": [
        {
          "internalType": "bytes4",
          "name": "interfaceId",
          "type": "bytes4"
        }
      ],
      "name": "supportsInterface",
      "outputs": [
        {
          "internalType": "bool",
          "name": "",
          "type": "bool"
        }
      ],
      "stateMutability": "view",
      "type": "function"
    },
    {
      "inputs": [],
      "name": "symbol",
      "outputs": [
        {
          "internalType": "string",
          "name": "",
          "type": "string"
        }
      ],
      "stateMutability": "view",
      "type": "function"
    },
    {
      "inputs": [
        {
          "internalType": "uint256",
          "name": "tokenId",
          "type": "uint256"
        }
      ],
      "name": "tokenURI",
      "outputs": [
        {
          "internalType": "string",
          "name": "",
          "type": "string"
        }
      ],
      "stateMutability": "view",
      "type": "function"
    },
    {
      "inputs": [],
      "name": "totalSupply",
      "outputs": [
        {
          "internalType": "uint256",
          "name": "",
          "type": "uint256"
        }
      ],
      "stateMutability": "view",
      "type": "function"
    },
    {
      "inputs": [
        {
          "internalType": "address",
          "name": "from",
          "type": "address"
        },
        {
          "internalType": "address",
          "name": "to",
          "type": "address"
        },
        {
          "internalType": "uint256",
          "name": "tokenId",
          "type": "uint256"
        }
      ],
      "name": "transferFrom",
      "outputs": [],
      "stateMutability": "nonpayable",
      "type": "function"
    },
    {
      "inputs": [
        {
          "internalType": "address",
          "name": "newOwner",
          "type": "address"
        }
      ],
      "name": "transferOwnership",
      "outputs": [],
      "stateMutability": "nonpayable",
      "type": "function"
    },
    {
      "inputs": [],
      "name": "withdraw",
      "outputs": [],
      "stateMutability": "nonpayable",
      "type": "function"
    }
  ],
  "bytecode": "0x608060405267016345785d8a00006008556040518060800160405280605e8152602001615081605e913960099081610037919061099b565b506040518060e00160405280604051806060016040528060378152602001614eaa603791398152602001604051806060016040528060318152602001614ee160319139815260200160405180606001604052806024815260200161511a602491398152602001604051806060016040528060258152602001614f706025913981526020016040518060600160405280602d8152602001614e42602d91398152602001604051806060016040528060238152602001614f4d602391398152602001604051806060016040528060258152602001614e1d60259139815250600e90600761012392919061067e565b506040518060e001604052806040518060400160405280601a81526020017f537570657220556c74726120477265617420426c657373696e6700000000000081525081526020016040518060400160405280601481526020017f556c74726120477265617420426c657373696e6700000000000000000000000081525081526020016040518060400160405280600e81526020017f477265617420426c657373696e6700000000000000000000000000000000000081525081526020016040518060400160405280600f81526020017f4d6964646c6520426c657373696e67000000000000000000000000000000000081525081526020016040518060400160405280600e81526020017f536d616c6c20426c657373696e6700000000000000000000000000000000000081525081526020016040518060400160405280600881526020017f426c657373696e6700000000000000000000000000000000000000000000000081525081526020016040518060400160405280600e81526020017f4d696e6f7220426c657373696e6700000000000000000000000000000000000081525081525060159060076102da92919061067e565b503480156102e757600080fd5b50336040518060400160405280601b81526020017f4f6d696b756a6920536872696e65206f6e204d6f6e6164204e465400000000008152506040518060400160405280600781526020017f4f4d494b554a49000000000000000000000000000000000000000000000000008152508160009081610364919061099b565b508060019081610374919061099b565b505050600073ffffffffffffffffffffffffffffffffffffffff168173ffffffffffffffffffffffffffffffffffffffff16036103e95760006040517f1e4fbdf70000000000000000000000000000000000000000000000000000000081526004016103e09190610aae565b60405180910390fd5b6103f88161040c60201b60201c565b506104076104d260201b60201c565b610ac9565b6000600660009054906101000a900473ffffffffffffffffffffffffffffffffffffffff16905081600660006101000a81548173ffffffffffffffffffffffffffffffffffffffff021916908373ffffffffffffffffffffffffffffffffffffffff1602179055508173ffffffffffffffffffffffffffffffffffffffff168173ffffffffffffffffffffffffffffffffffffffff167f8be0079c531659141344cd1fd0a4f28419497f9722a3daafe3b4186f6b6457e060405160405180910390a35050565b6040518060600160405280603b8152602001614e6f603b9139600a60008060ff168152602001908152602001600020908161050d919061099b565b506040518060600160405280603b8152602001614f95603b9139600a6000600160ff168152602001908152602001600020908161054a919061099b565b506040518060600160405280603b8152602001615046603b9139600a6000600260ff1681526020019081526020016000209081610587919061099b565b506040518060600160405280603b815260200161500b603b9139600a6000600360ff16815260200190815260200160002090816105c4919061099b565b506040518060600160405280603b81526020016150df603b9139600a6000600460ff1681526020019081526020016000209081610601919061099b565b506040518060600160405280603b8152602001614f12603b9139600a6000600560ff168152602001908152602001600020908161063e919061099b565b506040518060600160405280603b8152602001614fd0603b9139600a6000600660ff168152602001908152602001600020908161067b919061099b565b50565b82600781019282156106b9579160200282015b828111156106b85782518290816106a8919061099b565b5091602001919060010190610691565b5b5090506106c691906106ca565b5090565b5b808211156106ea57600081816106e191906106ee565b506001016106cb565b5090565b5080546106fa906107b4565b6000825580601f1061070c575061072b565b601f01602090049060005260206000209081019061072a919061072e565b5b50565b5b8082111561074757600081600090555060010161072f565b5090565b600081519050919050565b7f4e487b7100000000000000000000000000000000000000000000000000000000600052604160045260246000fd5b7f4e487b7100000000000000000000000000000000000000000000000000000000600052602260045260246000fd5b600060028204905060018216806107cc57607f821691505b6020821081036107df576107de610785565b5b50919050565b60008190508160005260206000209050919050565b60006020601f8301049050919050565b600082821b905092915050565b6000600883026108477fffffffffffffffffffffffffffffffffffffffffffffffffffffffffffffffff8261080a565b610851868361080a565b95508019841693508086168417925050509392505050565b6000819050919050565b6000819050919050565b600061089861089361088e84610869565b610873565b610869565b9050919050565b6000819050919050565b6108b28361087d565b6108c66108be8261089f565b848454610817565b825550505050565b600090565b6108db6108ce565b6108e68184846108a9565b505050565b5b8181101561090a576108ff6000826108d3565b6001810190506108ec565b5050565b601f82111561094f57610920816107e5565b610929846107fa565b81016020851015610938578190505b61094c610944856107fa565b8301826108eb565b50505b505050565b600082821c905092915050565b600061097260001984600802610954565b1980831691505092915050565b600061098b8383610961565b9150826002028217905092915050565b6109a48261074b565b67ffffffffffffffff8111156109bd576109bc610756565b5b6109c782546107b4565b6109d282828561090e565b600060209050601f831160018114610a0557600084156109f3578287015190505b6109fd858261097f565b865550610a65565b601f198416610a13866107e5565b60005b82811015610a3b57848901518255600182019150602085019450602081019050610a16565b86831015610a585784890151610a54601f891682610961565b8355505b6001600288020188555050505b505050505050565b600073ffffffffffffffffffffffffffffffffffffffff82169050919050565b6000610a9882610a6d565b9050919050565b610aa881610a8d565b82525050565b6000602082019050610ac36000830184610a9f565b92915050565b61434580610ad86000396000f3fe6080604052600436106102255760003560e01c806370a0823111610123578063b88d4fde116100ab578063da0239a61161006f578063da0239a614610892578063db811e24146108bd578063e985e9c5146108e6578063f023145814610923578063f2fde38b1461096257610225565b8063b88d4fde14610789578063c21d5061146107b2578063c351de69146107ef578063c87b56dd14610818578063cebd0e7f1461085557610225565b80638da5cb5b116100f25780638da5cb5b146106a45780639063ad04146106cf57806391b7f5ed1461070c57806395d89b4114610735578063a22cb4651461076057610225565b806370a08231146105d4578063715018a6146106115780637182736f146106285780638c8005a31461066557610225565b80632d2c7b55116101b157806355f804b31161017557806355f804b3146104d6578063581f0fb0146104ff5780635982773b1461051d5780636352211e1461055a57806368e68d1b1461059757610225565b80632d2c7b55146103f15780633ccfd60b1461042e57806342842e0e146104455780634b39d64f1461046e5780634ca8a941146104ab57610225565b8063095ea7b3116101f8578063095ea7b3146102fa578063101e38761461032357806318160ddd146103605780631a7766d21461038b57806323b872dd146103c857610225565b806301ffc9a71461022a578063062f7b8c1461026757806306fdde0314610292578063081812fc146102bd575b600080fd5b34801561023657600080fd5b50610251600480360381019061024c9190612e5e565b61098b565b60405161025e9190612ea6565b60405180910390f35b34801561027357600080fd5b5061027c610a6d565b6040516102899190612f7a565b60405180910390f35b34801561029e57600080fd5b506102a7610ad5565b6040516102b49190613025565b60405180910390f35b3480156102c957600080fd5b506102e460048036038101906102df919061307d565b610b67565b6040516102f191906130eb565b60405180910390f35b34801561030657600080fd5b50610321600480360381019061031c9190613132565b610b83565b005b34801561032f57600080fd5b5061034a60048036038101906103459190613172565b610b99565b60405161035791906131bb565b60405180910390f35b34801561036c57600080fd5b50610375610d2f565b60405161038291906131e5565b60405180910390f35b34801561039757600080fd5b506103b260048036038101906103ad9190613172565b610d39565b6040516103bf91906132be565b60405180910390f35b3480156103d457600080fd5b506103ef60048036038101906103ea91906132e0565b610df6565b005b3480156103fd57600080fd5b506104186004803603810190610413919061307d565b610ef8565b6040516104259190613025565b60405180910390f35b34801561043a57600080fd5b50610443611070565b005b34801561045157600080fd5b5061046c600480360381019061046791906132e0565b6110c8565b005b34801561047a57600080fd5b506104956004803603810190610490919061307d565b6110e8565b6040516104a29190613025565b60405180910390f35b3480156104b757600080fd5b506104c061122c565b6040516104cd91906131e5565b60405180910390f35b3480156104e257600080fd5b506104fd60048036038101906104f89190613468565b611232565b005b61050761124d565b60405161051491906131e5565b60405180910390f35b34801561052957600080fd5b50610544600480360381019061053f9190613172565b611603565b6040516105519190612ea6565b60405180910390f35b34801561056657600080fd5b50610581600480360381019061057c919061307d565b61160e565b60405161058e91906130eb565b60405180910390f35b3480156105a357600080fd5b506105be60048036038101906105b99190613132565b611620565b6040516105cb91906131bb565b60405180910390f35b3480156105e057600080fd5b506105fb60048036038101906105f69190613172565b611663565b60405161060891906131e5565b60405180910390f35b34801561061d57600080fd5b5061062661171d565b005b34801561063457600080fd5b5061064f600480360381019061064a9190613172565b611731565b60405161065c9190612ea6565b60405180910390f35b34801561067157600080fd5b5061068c6004803603810190610687919061307d565b611743565b60405161069b939291906134d0565b60405180910390f35b3480156106b057600080fd5b506106b96117aa565b6040516106c691906130eb565b60405180910390f35b3480156106db57600080fd5b506106f660048036038101906106f19190613172565b6117d4565b6040516107039190612ea6565b60405180910390f35b34801561071857600080fd5b50610733600480360381019061072e919061307d565b6117f4565b005b34801561074157600080fd5b5061074a611806565b6040516107579190613025565b60405180910390f35b34801561076c57600080fd5b5061078760048036038101906107829190613533565b611898565b005b34801561079557600080fd5b506107b060048036038101906107ab9190613614565b6118ae565b005b3480156107be57600080fd5b506107d960048036038101906107d49190613172565b6118d3565b6040516107e691906131e5565b60405180910390f35b3480156107fb57600080fd5b50610816600480360381019061081191906136c3565b6118da565b005b34801561082457600080fd5b5061083f600480360381019061083a919061307d565b611953565b60405161084c9190613025565b60405180910390f35b34801561086157600080fd5b5061087c6004803603810190610877919061371f565b611ac1565b6040516108899190613025565b60405180910390f35b34801561089e57600080fd5b506108a7611b61565b6040516108b491906131e5565b60405180910390f35b3480156108c957600080fd5b506108e460048036038101906108df9190613820565b611b96565b005b3480156108f257600080fd5b5061090d60048036038101906109089190613869565b611bff565b60405161091a9190612ea6565b60405180910390f35b34801561092f57600080fd5b5061094a6004803603810190610945919061307d565b611c93565b604051610959939291906134d0565b60405180910390f35b34801561096e57600080fd5b5061098960048036038101906109849190613172565b611de6565b005b60007f80ac58cd000000000000000000000000000000000000000000000000000000007bffffffffffffffffffffffffffffffffffffffffffffffffffffffff1916827bffffffffffffffffffffffffffffffffffffffffffffffffffffffff19161480610a5657507f5b5e139f000000000000000000000000000000000000000000000000000000007bffffffffffffffffffffffffffffffffffffffffffffffffffffffff1916827bffffffffffffffffffffffffffffffffffffffffffffffffffffffff1916145b80610a665750610a6582611e6c565b5b9050919050565b610a75612dae565b6040518060e00160405280603261ffff168152602001609661ffff1681526020016101f461ffff1681526020016103e861ffff1681526020016107d061ffff168152602001610bb861ffff168152602001610ce461ffff16815250905090565b606060008054610ae4906138d8565b80601f0160208091040260200160405190810160405280929190818152602001828054610b10906138d8565b8015610b5d5780601f10610b3257610100808354040283529160200191610b5d565b820191906000526020600020905b815481529060010190602001808311610b4057829003601f168201915b5050505050905090565b6000610b7282611ed6565b50610b7c82611f5e565b9050919050565b610b958282610b90611f9b565b611fa3565b5050565b6000610ba3612dd0565b6000600c60008573ffffffffffffffffffffffffffffffffffffffff1673ffffffffffffffffffffffffffffffffffffffff168152602001908152602001600020805480602002602001604051908101604052809291908181526020018280548015610c5457602002820191906000526020600020906000905b82829054906101000a900460ff1660ff1681526020019060010190602082600001049283019260010382029150808411610c1d5790505b5050505050905060005b8151811015610cdc576007828281518110610c7c57610c7b613909565b5b602002602001015160ff161015610ccf57600183838381518110610ca357610ca2613909565b5b602002602001015160ff1660078110610cbf57610cbe613909565b5b6020020190151590811515815250505b8080600101915050610c5e565b506000805b6007811015610d2357838160078110610cfd57610cfc613909565b5b602002015115610d16578180610d1290613967565b9250505b8080600101915050610ce1565b50809350505050919050565b6000600754905090565b6060600c60008373ffffffffffffffffffffffffffffffffffffffff1673ffffffffffffffffffffffffffffffffffffffff168152602001908152602001600020805480602002602001604051908101604052809291908181526020018280548015610dea57602002820191906000526020600020906000905b82829054906101000a900460ff1660ff1681526020019060010190602082600001049283019260010382029150808411610db35790505b50505050509050919050565b600073ffffffffffffffffffffffffffffffffffffffff168273ffffffffffffffffffffffffffffffffffffffff1603610e685760006040517f64a0ae92000000000000000000000000000000000000000000000000000000008152600401610e5f91906130eb565b60405180910390fd5b6000610e7c8383610e77611f9b565b611fb5565b90508373ffffffffffffffffffffffffffffffffffffffff168173ffffffffffffffffffffffffffffffffffffffff1614610ef2578382826040517f64283d7b000000000000000000000000000000000000000000000000000000008152600401610ee993929190613990565b60405180910390fd5b50505050565b6060600073ffffffffffffffffffffffffffffffffffffffff16610f1b836121cf565b73ffffffffffffffffffffffffffffffffffffffff1603610f71576040517f08c379a0000000000000000000000000000000000000000000000000000000008152600401610f6890613a13565b60405180910390fd5b6000600b60008481526020019081526020016000206040518060600160405290816000820160009054906101000a900460ff1660ff1660ff1681526020016000820160019054906101000a900463ffffffff1663ffffffff1663ffffffff1681526020016000820160059054906101000a900473ffffffffffffffffffffffffffffffffffffffff1673ffffffffffffffffffffffffffffffffffffffff1673ffffffffffffffffffffffffffffffffffffffff16815250509050600a6000826000015160ff1660ff1681526020019081526020016000206040516020016110599190613b48565b604051602081830303815290604052915050919050565b61107861220c565b6110806117aa565b73ffffffffffffffffffffffffffffffffffffffff166108fc479081150290604051600060405180830381858888f193505050501580156110c5573d6000803e3d6000fd5b50565b6110e3838383604051806020016040528060008152506118ae565b505050565b6060600073ffffffffffffffffffffffffffffffffffffffff1661110b836121cf565b73ffffffffffffffffffffffffffffffffffffffff1603611161576040517f08c379a000000000000000000000000000000000000000000000000000000000815260040161115890613a13565b60405180910390fd5b600e600b600084815260200190815260200160002060000160009054906101000a900460ff1660ff166007811061119b5761119a613909565b5b0180546111a7906138d8565b80601f01602080910402602001604051908101604052809291908181526020018280546111d3906138d8565b80156112205780601f106111f557610100808354040283529160200191611220565b820191906000526020600020905b81548152906001019060200180831161120357829003601f168201915b50505050509050919050565b60085481565b61123a61220c565b80600990816112499190613d01565b5050565b6000600854341015611294576040517f08c379a000000000000000000000000000000000000000000000000000000000815260040161128b90613e1f565b60405180910390fd5b600760008154809291906001019190505550600060075490506000612710424433856040516020016112c99493929190613ea8565b6040516020818303038152906040528051906020012060001c6112ec9190613f25565b905060006032821015611302576000905061136a565b60c88210156113145760019050611369565b6102bc8210156113275760029050611368565b6106a482101561133a5760039050611367565b610e7482101561134d5760049050611366565b611a2c8210156113605760059050611365565b600690505b5b5b5b5b5b60405180606001604052808260ff1681526020014263ffffffff1681526020013373ffffffffffffffffffffffffffffffffffffffff16815250600b600085815260200190815260200160002060008201518160000160006101000a81548160ff021916908360ff16021790555060208201518160000160016101000a81548163ffffffff021916908363ffffffff16021790555060408201518160000160056101000a81548173ffffffffffffffffffffffffffffffffffffffff021916908373ffffffffffffffffffffffffffffffffffffffff160217905550905050600c60003373ffffffffffffffffffffffffffffffffffffffff1673ffffffffffffffffffffffffffffffffffffffff1681526020019081526020016000208190806001815401808255809150506001900390600052602060002090602091828204019190069091909190916101000a81548160ff021916908360ff160217905550600d60003373ffffffffffffffffffffffffffffffffffffffff1673ffffffffffffffffffffffffffffffffffffffff16815260200190815260200160002060009054906101000a900460ff1615801561152a575061152933612293565b5b15611588576001600d60003373ffffffffffffffffffffffffffffffffffffffff1673ffffffffffffffffffffffffffffffffffffffff16815260200190815260200160002060006101000a81548160ff0219169083151502179055505b6115923384612425565b823373ffffffffffffffffffffffffffffffffffffffff167f8f59f601bb75974d2fc5a2ee8f1b7de682a1e78edb4cb7418db454c60ee4a5d183600e8560ff16600781106115e3576115e2613909565b5b016040516115f2929190613fda565b60405180910390a382935050505090565b600060019050919050565b600061161982611ed6565b9050919050565b600c602052816000526040600020818154811061163c57600080fd5b9060005260206000209060209182820401919006915091509054906101000a900460ff1681565b60008073ffffffffffffffffffffffffffffffffffffffff168273ffffffffffffffffffffffffffffffffffffffff16036116d65760006040517f89c62b640000000000000000000000000000000000000000000000000000000081526004016116cd91906130eb565b60405180910390fd5b600360008373ffffffffffffffffffffffffffffffffffffffff1673ffffffffffffffffffffffffffffffffffffffff168152602001908152602001600020549050919050565b61172561220c565b61172f600061251e565b565b600061173c82612293565b9050919050565b600b6020528060005260406000206000915090508060000160009054906101000a900460ff16908060000160019054906101000a900463ffffffff16908060000160059054906101000a900473ffffffffffffffffffffffffffffffffffffffff16905083565b6000600660009054906101000a900473ffffffffffffffffffffffffffffffffffffffff16905090565b600d6020528060005260406000206000915054906101000a900460ff1681565b6117fc61220c565b8060088190555050565b606060018054611815906138d8565b80601f0160208091040260200160405190810160405280929190818152602001828054611841906138d8565b801561188e5780601f106118635761010080835404028352916020019161188e565b820191906000526020600020905b81548152906001019060200180831161187157829003601f168201915b5050505050905090565b6118aa6118a3611f9b565b83836125e4565b5050565b6118b9848484610df6565b6118cd6118c4611f9b565b85858585612753565b50505050565b6000919050565b6118e261220c565b60078260ff1610611928576040517f08c379a000000000000000000000000000000000000000000000000000000000815260040161191f90614056565b60405180910390fd5b80600a60008460ff1660ff168152602001908152602001600020908161194e9190613d01565b505050565b6060600073ffffffffffffffffffffffffffffffffffffffff16611976836121cf565b73ffffffffffffffffffffffffffffffffffffffff16036119cc576040517f08c379a00000000000000000000000000000000000000000000000000000000081526004016119c390613a13565b60405180910390fd5b6000600b60008481526020019081526020016000206040518060600160405290816000820160009054906101000a900460ff1660ff1660ff1681526020016000820160019054906101000a900463ffffffff1663ffffffff1663ffffffff1681526020016000820160059054906101000a900473ffffffffffffffffffffffffffffffffffffffff1673ffffffffffffffffffffffffffffffffffffffff1673ffffffffffffffffffffffffffffffffffffffff168152505090506009611a99826000015160ff16612904565b604051602001611aaa9291906140f3565b604051602081830303815290604052915050919050565b600a6020528060005260406000206000915090508054611ae0906138d8565b80601f0160208091040260200160405190810160405280929190818152602001828054611b0c906138d8565b8015611b595780601f10611b2e57610100808354040283529160200191611b59565b820191906000526020600020905b815481529060010190602001808311611b3c57829003601f168201915b505050505081565b60006007547fffffffffffffffffffffffffffffffffffffffffffffffffffffffffffffffff611b919190614122565b905090565b611b9e61220c565b60005b60078160ff161015611bfb57818160ff1660078110611bc357611bc2613909565b5b6020020151600a60008360ff1660ff1681526020019081526020016000209081611bed9190613d01565b508080600101915050611ba1565b5050565b6000600560008473ffffffffffffffffffffffffffffffffffffffff1673ffffffffffffffffffffffffffffffffffffffff16815260200190815260200160002060008373ffffffffffffffffffffffffffffffffffffffff1673ffffffffffffffffffffffffffffffffffffffff16815260200190815260200160002060009054906101000a900460ff16905092915050565b60008060008073ffffffffffffffffffffffffffffffffffffffff16611cb8856121cf565b73ffffffffffffffffffffffffffffffffffffffff1603611d0e576040517f08c379a0000000000000000000000000000000000000000000000000000000008152600401611d0590613a13565b60405180910390fd5b6000600b60008681526020019081526020016000206040518060600160405290816000820160009054906101000a900460ff1660ff1660ff1681526020016000820160019054906101000a900463ffffffff1663ffffffff1663ffffffff1681526020016000820160059054906101000a900473ffffffffffffffffffffffffffffffffffffffff1673ffffffffffffffffffffffffffffffffffffffff1673ffffffffffffffffffffffffffffffffffffffff16815250509050806000015181602001518260400151935093509350509193909250565b611dee61220c565b600073ffffffffffffffffffffffffffffffffffffffff168173ffffffffffffffffffffffffffffffffffffffff1603611e605760006040517f1e4fbdf7000000000000000000000000000000000000000000000000000000008152600401611e5791906130eb565b60405180910390fd5b611e698161251e565b50565b60007f01ffc9a7000000000000000000000000000000000000000000000000000000007bffffffffffffffffffffffffffffffffffffffffffffffffffffffff1916827bffffffffffffffffffffffffffffffffffffffffffffffffffffffff1916149050919050565b600080611ee2836121cf565b9050600073ffffffffffffffffffffffffffffffffffffffff168173ffffffffffffffffffffffffffffffffffffffff1603611f5557826040517f7e273289000000000000000000000000000000000000000000000000000000008152600401611f4c91906131e5565b60405180910390fd5b80915050919050565b60006004600083815260200190815260200160002060009054906101000a900473ffffffffffffffffffffffffffffffffffffffff169050919050565b600033905090565b611fb08383836001612a64565b505050565b600080611fc1846121cf565b9050600073ffffffffffffffffffffffffffffffffffffffff168373ffffffffffffffffffffffffffffffffffffffff161461200357612002818486612c29565b5b600073ffffffffffffffffffffffffffffffffffffffff168173ffffffffffffffffffffffffffffffffffffffff161461209457612045600085600080612a64565b6001600360008373ffffffffffffffffffffffffffffffffffffffff1673ffffffffffffffffffffffffffffffffffffffff168152602001908152602001600020600082825403925050819055505b600073ffffffffffffffffffffffffffffffffffffffff168573ffffffffffffffffffffffffffffffffffffffff1614612117576001600360008773ffffffffffffffffffffffffffffffffffffffff1673ffffffffffffffffffffffffffffffffffffffff168152602001908152602001600020600082825401925050819055505b846002600086815260200190815260200160002060006101000a81548173ffffffffffffffffffffffffffffffffffffffff021916908373ffffffffffffffffffffffffffffffffffffffff160217905550838573ffffffffffffffffffffffffffffffffffffffff168273ffffffffffffffffffffffffffffffffffffffff167fddf252ad1be2c89b69c2b068fc378daa952ba7f163c4a11628f55a4df523b3ef60405160405180910390a4809150509392505050565b60006002600083815260200190815260200160002060009054906101000a900473ffffffffffffffffffffffffffffffffffffffff169050919050565b612214611f9b565b73ffffffffffffffffffffffffffffffffffffffff166122326117aa565b73ffffffffffffffffffffffffffffffffffffffff161461229157612255611f9b565b6040517f118cdaa700000000000000000000000000000000000000000000000000000000815260040161228891906130eb565b60405180910390fd5b565b600061229d612dd0565b6000600c60008573ffffffffffffffffffffffffffffffffffffffff1673ffffffffffffffffffffffffffffffffffffffff16815260200190815260200160002080548060200260200160405190810160405280929190818152602001828054801561234e57602002820191906000526020600020906000905b82829054906101000a900460ff1660ff16815260200190600101906020826000010492830192600103820291508084116123175790505b5050505050905060005b81518110156123d657600782828151811061237657612375613909565b5b602002602001015160ff1610156123c95760018383838151811061239d5761239c613909565b5b602002602001015160ff16600781106123b9576123b8613909565b5b6020020190151590811515815250505b8080600101915050612358565b5060005b6007811015612418578281600781106123f6576123f5613909565b5b602002015161240b5760009350505050612420565b80806001019150506123da565b506001925050505b919050565b600073ffffffffffffffffffffffffffffffffffffffff168273ffffffffffffffffffffffffffffffffffffffff16036124975760006040517f64a0ae9200000000000000000000000000000000000000000000000000000000815260040161248e91906130eb565b60405180910390fd5b60006124a583836000611fb5565b9050600073ffffffffffffffffffffffffffffffffffffffff168173ffffffffffffffffffffffffffffffffffffffff16146125195760006040517f73c6ac6e00000000000000000000000000000000000000000000000000000000815260040161251091906130eb565b60405180910390fd5b505050565b6000600660009054906101000a900473ffffffffffffffffffffffffffffffffffffffff16905081600660006101000a81548173ffffffffffffffffffffffffffffffffffffffff021916908373ffffffffffffffffffffffffffffffffffffffff1602179055508173ffffffffffffffffffffffffffffffffffffffff168173ffffffffffffffffffffffffffffffffffffffff167f8be0079c531659141344cd1fd0a4f28419497f9722a3daafe3b4186f6b6457e060405160405180910390a35050565b600073ffffffffffffffffffffffffffffffffffffffff168273ffffffffffffffffffffffffffffffffffffffff160361265557816040517f5b08ba1800000000000000000000000000000000000000000000000000000000815260040161264c91906130eb565b60405180910390fd5b80600560008573ffffffffffffffffffffffffffffffffffffffff1673ffffffffffffffffffffffffffffffffffffffff16815260200190815260200160002060008473ffffffffffffffffffffffffffffffffffffffff1673ffffffffffffffffffffffffffffffffffffffff16815260200190815260200160002060006101000a81548160ff0219169083151502179055508173ffffffffffffffffffffffffffffffffffffffff168373ffffffffffffffffffffffffffffffffffffffff167f17307eab39ab6107e8899845ad3d59bd9653f200f220920489ca2b5937696c31836040516127469190612ea6565b60405180910390a3505050565b60008373ffffffffffffffffffffffffffffffffffffffff163b11156128fd578273ffffffffffffffffffffffffffffffffffffffff1663150b7a02868685856040518563ffffffff1660e01b81526004016127b294939291906141ab565b6020604051808303816000875af19250505080156127ee57506040513d601f19601f820116820180604052508101906127eb919061420c565b60015b612872573d806000811461281e576040519150601f19603f3d011682016040523d82523d6000602084013e612823565b606091505b50600081510361286a57836040517f64a0ae9200000000000000000000000000000000000000000000000000000000815260040161286191906130eb565b60405180910390fd5b805160208201fd5b63150b7a0260e01b7bffffffffffffffffffffffffffffffffffffffffffffffffffffffff1916817bffffffffffffffffffffffffffffffffffffffffffffffffffffffff1916146128fb57836040517f64a0ae920000000000000000000000000000000000000000000000000000000081526004016128f291906130eb565b60405180910390fd5b505b5050505050565b60606000820361294b576040518060400160405280600181526020017f30000000000000000000000000000000000000000000000000000000000000008152509050612a5f565b600082905060005b6000821461297d57808061296690614239565b915050600a826129769190614281565b9150612953565b60008167ffffffffffffffff8111156129995761299861333d565b5b6040519080825280601f01601f1916602001820160405280156129cb5781602001600182028036833780820191505090505b5090505b60008514612a58576001826129e49190614122565b9150600a856129f39190613f25565b60306129ff91906142b2565b60f81b818381518110612a1557612a14613909565b5b60200101907effffffffffffffffffffffffffffffffffffffffffffffffffffffffffffff1916908160001a905350600a85612a519190614281565b94506129cf565b8093505050505b919050565b8080612a9d5750600073ffffffffffffffffffffffffffffffffffffffff168273ffffffffffffffffffffffffffffffffffffffff1614155b15612bd1576000612aad84611ed6565b9050600073ffffffffffffffffffffffffffffffffffffffff168373ffffffffffffffffffffffffffffffffffffffff1614158015612b1857508273ffffffffffffffffffffffffffffffffffffffff168173ffffffffffffffffffffffffffffffffffffffff1614155b8015612b2b5750612b298184611bff565b155b15612b6d57826040517fa9fbf51f000000000000000000000000000000000000000000000000000000008152600401612b6491906130eb565b60405180910390fd5b8115612bcf57838573ffffffffffffffffffffffffffffffffffffffff168273ffffffffffffffffffffffffffffffffffffffff167f8c5be1e5ebec7d5bd14f71427d1e84f3dd0314c0f7b2291e5b200ac8c7c3b92560405160405180910390a45b505b836004600085815260200190815260200160002060006101000a81548173ffffffffffffffffffffffffffffffffffffffff021916908373ffffffffffffffffffffffffffffffffffffffff16021790555050505050565b612c34838383612ced565b612ce857600073ffffffffffffffffffffffffffffffffffffffff168373ffffffffffffffffffffffffffffffffffffffff1603612ca957806040517f7e273289000000000000000000000000000000000000000000000000000000008152600401612ca091906131e5565b60405180910390fd5b81816040517f177e802f000000000000000000000000000000000000000000000000000000008152600401612cdf9291906142e6565b60405180910390fd5b505050565b60008073ffffffffffffffffffffffffffffffffffffffff168373ffffffffffffffffffffffffffffffffffffffff1614158015612da557508273ffffffffffffffffffffffffffffffffffffffff168473ffffffffffffffffffffffffffffffffffffffff161480612d665750612d658484611bff565b5b80612da457508273ffffffffffffffffffffffffffffffffffffffff16612d8c83611f5e565b73ffffffffffffffffffffffffffffffffffffffff16145b5b90509392505050565b6040518060e00160405280600790602082028036833780820191505090505090565b6040518060e00160405280600790602082028036833780820191505090505090565b6000604051905090565b600080fd5b600080fd5b60007fffffffff0000000000000000000000000000000000000000000000000000000082169050919050565b612e3b81612e06565b8114612e4657600080fd5b50565b600081359050612e5881612e32565b92915050565b600060208284031215612e7457612e73612dfc565b5b6000612e8284828501612e49565b91505092915050565b60008115159050919050565b612ea081612e8b565b82525050565b6000602082019050612ebb6000830184612e97565b92915050565b600060079050919050565b600081905092915050565b6000819050919050565b600061ffff82169050919050565b612ef881612ee1565b82525050565b6000612f0a8383612eef565b60208301905092915050565b6000602082019050919050565b612f2c81612ec1565b612f368184612ecc565b9250612f4182612ed7565b8060005b83811015612f72578151612f598782612efe565b9650612f6483612f16565b925050600181019050612f45565b505050505050565b600060e082019050612f8f6000830184612f23565b92915050565b600081519050919050565b600082825260208201905092915050565b60005b83811015612fcf578082015181840152602081019050612fb4565b60008484015250505050565b6000601f19601f8301169050919050565b6000612ff782612f95565b6130018185612fa0565b9350613011818560208601612fb1565b61301a81612fdb565b840191505092915050565b6000602082019050818103600083015261303f8184612fec565b905092915050565b6000819050919050565b61305a81613047565b811461306557600080fd5b50565b60008135905061307781613051565b92915050565b60006020828403121561309357613092612dfc565b5b60006130a184828501613068565b91505092915050565b600073ffffffffffffffffffffffffffffffffffffffff82169050919050565b60006130d5826130aa565b9050919050565b6130e5816130ca565b82525050565b600060208201905061310060008301846130dc565b92915050565b61310f816130ca565b811461311a57600080fd5b50565b60008135905061312c81613106565b92915050565b6000806040838503121561314957613148612dfc565b5b60006131578582860161311d565b925050602061316885828601613068565b9150509250929050565b60006020828403121561318857613187612dfc565b5b60006131968482850161311d565b91505092915050565b600060ff82169050919050565b6131b58161319f565b82525050565b60006020820190506131d060008301846131ac565b92915050565b6131df81613047565b82525050565b60006020820190506131fa60008301846131d6565b92915050565b600081519050919050565b600082825260208201905092915050565b6000819050602082019050919050565b6132358161319f565b82525050565b6000613247838361322c565b60208301905092915050565b6000602082019050919050565b600061326b82613200565b613275818561320b565b93506132808361321c565b8060005b838110156132b1578151613298888261323b565b97506132a383613253565b925050600181019050613284565b5085935050505092915050565b600060208201905081810360008301526132d88184613260565b905092915050565b6000806000606084860312156132f9576132f8612dfc565b5b60006133078682870161311d565b93505060206133188682870161311d565b925050604061332986828701613068565b9150509250925092565b600080fd5b600080fd5b7f4e487b7100000000000000000000000000000000000000000000000000000000600052604160045260246000fd5b61337582612fdb565b810181811067ffffffffffffffff821117156133945761339361333d565b5b80604052505050565b60006133a7612df2565b90506133b3828261336c565b919050565b600067ffffffffffffffff8211156133d3576133d261333d565b5b6133dc82612fdb565b9050602081019050919050565b82818337600083830152505050565b600061340b613406846133b8565b61339d565b90508281526020810184848401111561342757613426613338565b5b6134328482856133e9565b509392505050565b600082601f83011261344f5761344e613333565b5b813561345f8482602086016133f8565b91505092915050565b60006020828403121561347e5761347d612dfc565b5b600082013567ffffffffffffffff81111561349c5761349b612e01565b5b6134a88482850161343a565b91505092915050565b600063ffffffff82169050919050565b6134ca816134b1565b82525050565b60006060820190506134e560008301866131ac565b6134f260208301856134c1565b6134ff60408301846130dc565b949350505050565b61351081612e8b565b811461351b57600080fd5b50565b60008135905061352d81613507565b92915050565b6000806040838503121561354a57613549612dfc565b5b60006135588582860161311d565b92505060206135698582860161351e565b9150509250929050565b600067ffffffffffffffff82111561358e5761358d61333d565b5b61359782612fdb565b9050602081019050919050565b60006135b76135b284613573565b61339d565b9050828152602081018484840111156135d3576135d2613338565b5b6135de8482856133e9565b509392505050565b600082601f8301126135fb576135fa613333565b5b813561360b8482602086016135a4565b91505092915050565b6000806000806080858703121561362e5761362d612dfc565b5b600061363c8782880161311d565b945050602061364d8782880161311d565b935050604061365e87828801613068565b925050606085013567ffffffffffffffff81111561367f5761367e612e01565b5b61368b878288016135e6565b91505092959194509250565b6136a08161319f565b81146136ab57600080fd5b50565b6000813590506136bd81613697565b92915050565b600080604083850312156136da576136d9612dfc565b5b60006136e8858286016136ae565b925050602083013567ffffffffffffffff81111561370957613708612e01565b5b6137158582860161343a565b9150509250929050565b60006020828403121561373557613734612dfc565b5b6000613743848285016136ae565b91505092915050565b600067ffffffffffffffff8211156137675761376661333d565b5b602082029050919050565b600080fd5b600061378a6137858461374c565b61339d565b905080602084028301858111156137a4576137a3613772565b5b835b818110156137eb57803567ffffffffffffffff8111156137c9576137c8613333565b5b8086016137d6898261343a565b855260208501945050506020810190506137a6565b5050509392505050565b600082601f83011261380a57613809613333565b5b6007613817848285613777565b91505092915050565b60006020828403121561383657613835612dfc565b5b600082013567ffffffffffffffff81111561385457613853612e01565b5b613860848285016137f5565b91505092915050565b600080604083850312156138805761387f612dfc565b5b600061388e8582860161311d565b925050602061389f8582860161311d565b9150509250929050565b7f4e487b7100000000000000000000000000000000000000000000000000000000600052602260045260246000fd5b600060028204905060018216806138f057607f821691505b602082108103613903576139026138a9565b5b50919050565b7f4e487b7100000000000000000000000000000000000000000000000000000000600052603260045260246000fd5b7f4e487b7100000000000000000000000000000000000000000000000000000000600052601160045260246000fd5b60006139728261319f565b915060ff820361398557613984613938565b5b600182019050919050565b60006060820190506139a560008301866130dc565b6139b260208301856131d6565b6139bf60408301846130dc565b949350505050565b7f546f6b656e20646f6573206e6f74206578697374000000000000000000000000600082015250565b60006139fd601483612fa0565b9150613a08826139c7565b602082019050919050565b60006020820190508181036000830152613a2c816139f0565b9050919050565b600081905092915050565b7f68747470733a2f2f676174657761792e70696e6174612e636c6f75642f69706660008201527f732f000000000000000000000000000000000000000000000000000000000000602082015250565b6000613a9a602283613a33565b9150613aa582613a3e565b602282019050919050565b60008190508160005260206000209050919050565b60008154613ad2816138d8565b613adc8186613a33565b94506001821660008114613af75760018114613b0c57613b3f565b60ff1983168652811515820286019350613b3f565b613b1585613ab0565b60005b83811015613b3757815481890152600182019150602081019050613b18565b838801955050505b50505092915050565b6000613b5382613a8d565b9150613b5f8284613ac5565b915081905092915050565b60006020601f8301049050919050565b600082821b905092915050565b600060088302613bb77fffffffffffffffffffffffffffffffffffffffffffffffffffffffffffffffff82613b7a565b613bc18683613b7a565b95508019841693508086168417925050509392505050565b6000819050919050565b6000613bfe613bf9613bf484613047565b613bd9565b613047565b9050919050565b6000819050919050565b613c1883613be3565b613c2c613c2482613c05565b848454613b87565b825550505050565b600090565b613c41613c34565b613c4c818484613c0f565b505050565b5b81811015613c7057613c65600082613c39565b600181019050613c52565b5050565b601f821115613cb557613c8681613ab0565b613c8f84613b6a565b81016020851015613c9e578190505b613cb2613caa85613b6a565b830182613c51565b50505b505050565b600082821c905092915050565b6000613cd860001984600802613cba565b1980831691505092915050565b6000613cf18383613cc7565b9150826002028217905092915050565b613d0a82612f95565b67ffffffffffffffff811115613d2357613d2261333d565b5b613d2d82546138d8565b613d38828285613c74565b600060209050601f831160018114613d6b5760008415613d59578287015190505b613d638582613ce5565b865550613dcb565b601f198416613d7986613ab0565b60005b82811015613da157848901518255600182019150602085019450602081019050613d7c565b86831015613dbe5784890151613dba601f891682613cc7565b8355505b6001600288020188555050505b505050505050565b7f496e73756666696369656e74207061796d656e74000000000000000000000000600082015250565b6000613e09601483612fa0565b9150613e1482613dd3565b602082019050919050565b60006020820190508181036000830152613e3881613dfc565b9050919050565b6000819050919050565b613e5a613e5582613047565b613e3f565b82525050565b60008160601b9050919050565b6000613e7882613e60565b9050919050565b6000613e8a82613e6d565b9050919050565b613ea2613e9d826130ca565b613e7f565b82525050565b6000613eb48287613e49565b602082019150613ec48286613e49565b602082019150613ed48285613e91565b601482019150613ee48284613e49565b60208201915081905095945050505050565b7f4e487b7100000000000000000000000000000000000000000000000000000000600052601260045260246000fd5b6000613f3082613047565b9150613f3b83613047565b925082613f4b57613f4a613ef6565b5b828206905092915050565b60008154613f63816138d8565b613f6d8186612fa0565b94506001821660008114613f885760018114613f9e57613fd1565b60ff198316865281151560200286019350613fd1565b613fa785613ab0565b60005b83811015613fc957815481890152600182019150602081019050613faa565b808801955050505b50505092915050565b6000604082019050613fef60008301856131ac565b81810360208301526140018184613f56565b90509392505050565b7f496e76616c696420666f7274756e652074797065000000000000000000000000600082015250565b6000614040601483612fa0565b915061404b8261400a565b602082019050919050565b6000602082019050818103600083015261406f81614033565b9050919050565b600061408182612f95565b61408b8185613a33565b935061409b818560208601612fb1565b80840191505092915050565b7f2e6a736f6e000000000000000000000000000000000000000000000000000000600082015250565b60006140dd600583613a33565b91506140e8826140a7565b600582019050919050565b60006140ff8285613ac5565b915061410b8284614076565b9150614116826140d0565b91508190509392505050565b600061412d82613047565b915061413883613047565b92508282039050818111156141505761414f613938565b5b92915050565b600081519050919050565b600082825260208201905092915050565b600061417d82614156565b6141878185614161565b9350614197818560208601612fb1565b6141a081612fdb565b840191505092915050565b60006080820190506141c060008301876130dc565b6141cd60208301866130dc565b6141da60408301856131d6565b81810360608301526141ec8184614172565b905095945050505050565b60008151905061420681612e32565b92915050565b60006020828403121561422257614221612dfc565b5b6000614230848285016141f7565b91505092915050565b600061424482613047565b91507fffffffffffffffffffffffffffffffffffffffffffffffffffffffffffffffff820361427657614275613938565b5b600182019050919050565b600061428c82613047565b915061429783613047565b9250826142a7576142a6613ef6565b5b828204905092915050565b60006142bd82613047565b91506142c883613047565b92508282019050808211156142e0576142df613938565b5b92915050565b60006040820190506142fb60008301856130dc565b61430860208301846131d6565b939250505056fea2646970667358221220545f58b963a9485bdbac4dcee3fe7cd25d2e32aebd87e1e4968237e92b379b1064736f6c634300081b003350617469656e6365206272696e677320746865207377656574657374207265776172647321536d616c6c20626c657373696e6773206c65616420746f20626967676572206f70706f7274756e6974696573216261667962656964327564613568616d6b7a62346c73653572633768746362636a66666f376467756b6a6f34626a71646a7576686534346767376145787472616f7264696e61727920666f7274756e6520617761697473212045766572797468696e67207475726e7320746f20676f6c6421496e6372656469626c65206c75636b2120596f757220647265616d7320657863656564206578706563746174696f6e732162616679626569646c7974373375636a6d74637a727463766463666b73756c676670783567646167326a37366871646f336b637064783276327665476f6f64207468696e677320636f6d6520746f2074686f73652077686f20776169742142616c616e636564206c75636b206272696e6773207374656164792070726f6772657373216261667962656968733561757578777534346634676571776867797a646f616d64676171786a367762746377733437667436346d61796178736365626166796265696565326b637a6a677a73656171616e356c6465776c7363686677616c65787a79676568657775366a6f656f77326574626b65726162616679626569686d6e74713372786864356a366e786b366a3376626c7a713672686c6f697a326972636d6477673234337261637a7937716c61756261667962656963617274346f656736677868716769766d356b6e626f6f716e346278613337346a7067373361716465687a3233347a683671756d68747470733a2f2f676174657761792e70696e6174612e636c6f75642f697066732f626166796265696865726f756c6d72336273357378796c6c6b347870696b63657537736f7175716734697076686d6b6474706d70756a7267746b792f6261666b72656967696f337532356732706762666f33616a6f68793571636964613734616b666c6e3374746c786834343378676a7933336f73706d477265617420666f7274756e6520736d696c65732075706f6e20796f7520746f64617921",
  "linkReferences": {},
  "deployedLinkReferences": {}
}