{
  "_format": "hh-sol-artifact-1",
  "contractName": "UpdatedIPFSOmikujiNFT",
  "sourceName": "contracts/UpdatedIPFSOmikujiNFT.sol",
  "abi": [
    {
      "inputs": [],
      "stateMutability": "nonpayable",
      "type": "constructor"
    },
    {
      "inputs": [
        {
          "internalType": "address",
          "name": "sender",
          "type": "address"
        },
        {
          "internalType": "uint256",
          "name": "tokenId",
          "type": "uint256"
        },
        {
          "internalType": "address",
          "name": "owner",
          "type": "address"
        }
      ],
      "name": "ERC721IncorrectOwner",
      "type": "error"
    },
    {
      "inputs": [
        {
          "internalType": "address",
          "name": "operator",
          "type": "address"
        },
        {
          "internalType": "uint256",
          "name": "tokenId",
          "type": "uint256"
        }
      ],
      "name": "ERC721InsufficientApproval",
      "type": "error"
    },
    {
      "inputs": [
        {
          "internalType": "address",
          "name": "approver",
          "type": "address"
        }
      ],
      "name": "ERC721InvalidApprover",
      "type": "error"
    },
    {
      "inputs": [
        {
          "internalType": "address",
          "name": "operator",
          "type": "address"
        }
      ],
      "name": "ERC721InvalidOperator",
      "type": "error"
    },
    {
      "inputs": [
        {
          "internalType": "address",
          "name": "owner",
          "type": "address"
        }
      ],
      "name": "ERC721InvalidOwner",
      "type": "error"
    },
    {
      "inputs": [
        {
          "internalType": "address",
          "name": "receiver",
          "type": "address"
        }
      ],
      "name": "ERC721InvalidReceiver",
      "type": "error"
    },
    {
      "inputs": [
        {
          "internalType": "address",
          "name": "sender",
          "type": "address"
        }
      ],
      "name": "ERC721InvalidSender",
      "type": "error"
    },
    {
      "inputs": [
        {
          "internalType": "uint256",
          "name": "tokenId",
          "type": "uint256"
        }
      ],
      "name": "ERC721NonexistentToken",
      "type": "error"
    },
    {
      "inputs": [
        {
          "internalType": "address",
          "name": "owner",
          "type": "address"
        }
      ],
      "name": "OwnableInvalidOwner",
      "type": "error"
    },
    {
      "inputs": [
        {
          "internalType": "address",
          "name": "account",
          "type": "address"
        }
      ],
      "name": "OwnableUnauthorizedAccount",
      "type": "error"
    },
    {
      "anonymous": false,
      "inputs": [
        {
          "indexed": true,
          "internalType": "address",
          "name": "owner",
          "type": "address"
        },
        {
          "indexed": true,
          "internalType": "address",
          "name": "approved",
          "type": "address"
        },
        {
          "indexed": true,
          "internalType": "uint256",
          "name": "tokenId",
          "type": "uint256"
        }
      ],
      "name": "Approval",
      "type": "event"
    },
    {
      "anonymous": false,
      "inputs": [
        {
          "indexed": true,
          "internalType": "address",
          "name": "owner",
          "type": "address"
        },
        {
          "indexed": true,
          "internalType": "address",
          "name": "operator",
          "type": "address"
        },
        {
          "indexed": false,
          "internalType": "bool",
          "name": "approved",
          "type": "bool"
        }
      ],
      "name": "ApprovalForAll",
      "type": "event"
    },
    {
      "anonymous": false,
      "inputs": [
        {
          "indexed": true,
          "internalType": "address",
          "name": "drawer",
          "type": "address"
        },
        {
          "indexed": true,
          "internalType": "uint256",
          "name": "tokenId",
          "type": "uint256"
        },
        {
          "indexed": false,
          "internalType": "uint8",
          "name": "result",
          "type": "uint8"
        },
        {
          "indexed": false,
          "internalType": "string",
          "name": "message",
          "type": "string"
        }
      ],
      "name": "OmikujiDrawn",
      "type": "event"
    },
    {
      "anonymous": false,
      "inputs": [
        {
          "indexed": true,
          "internalType": "address",
          "name": "previousOwner",
          "type": "address"
        },
        {
          "indexed": true,
          "internalType": "address",
          "name": "newOwner",
          "type": "address"
        }
      ],
      "name": "OwnershipTransferred",
      "type": "event"
    },
    {
      "anonymous": false,
      "inputs": [
        {
          "indexed": true,
          "internalType": "address",
          "name": "from",
          "type": "address"
        },
        {
          "indexed": true,
          "internalType": "address",
          "name": "to",
          "type": "address"
        },
        {
          "indexed": true,
          "internalType": "uint256",
          "name": "tokenId",
          "type": "uint256"
        }
      ],
      "name": "Transfer",
      "type": "event"
    },
    {
      "inputs": [
        {
          "internalType": "address",
          "name": "to",
          "type": "address"
        },
        {
          "internalType": "uint256",
          "name": "tokenId",
          "type": "uint256"
        }
      ],
      "name": "approve",
      "outputs": [],
      "stateMutability": "nonpayable",
      "type": "function"
    },
    {
      "inputs": [
        {
          "internalType": "address",
          "name": "owner",
          "type": "address"
        }
      ],
      "name": "balanceOf",
      "outputs": [
        {
          "internalType": "uint256",
          "name": "",
          "type": "uint256"
        }
      ],
      "stateMutability": "view",
      "type": "function"
    },
    {
      "inputs": [
        {
          "internalType": "address",
          "name": "",
          "type": "address"
        }
      ],
      "name": "canDrawOmikuji",
      "outputs": [
        {
          "internalType": "bool",
          "name": "",
          "type": "bool"
        }
      ],
      "stateMutability": "pure",
      "type": "function"
    },
    {
      "inputs": [
        {
          "internalType": "address",
          "name": "user",
          "type": "address"
        }
      ],
      "name": "checkSelfMintCompletion",
      "outputs": [
        {
          "internalType": "bool",
          "name": "",
          "type": "bool"
        }
      ],
      "stateMutability": "view",
      "type": "function"
    },
    {
      "inputs": [],
      "name": "drawOmikuji",
      "outputs": [
        {
          "internalType": "uint256",
          "name": "",
          "type": "uint256"
        }
      ],
      "stateMutability": "payable",
      "type": "function"
    },
    {
      "inputs": [
        {
          "internalType": "uint8",
          "name": "",
          "type": "uint8"
        }
      ],
      "name": "fortuneImages",
      "outputs": [
        {
          "internalType": "string",
          "name": "",
          "type": "string"
        }
      ],
      "stateMutability": "view",
      "type": "function"
    },
    {
      "inputs": [
        {
          "internalType": "uint256",
          "name": "",
          "type": "uint256"
        }
      ],
      "name": "fortunes",
      "outputs": [
        {
          "internalType": "uint8",
          "name": "result",
          "type": "uint8"
        },
        {
          "internalType": "uint32",
          "name": "timestamp",
          "type": "uint32"
        },
        {
          "internalType": "address",
          "name": "drawer",
          "type": "address"
        }
      ],
      "stateMutability": "view",
      "type": "function"
    },
    {
      "inputs": [
        {
          "internalType": "uint256",
          "name": "tokenId",
          "type": "uint256"
        }
      ],
      "name": "getApproved",
      "outputs": [
        {
          "internalType": "address",
          "name": "",
          "type": "address"
        }
      ],
      "stateMutability": "view",
      "type": "function"
    },
    {
      "inputs": [
        {
          "internalType": "uint256",
          "name": "tokenId",
          "type": "uint256"
        }
      ],
      "name": "getFortuneData",
      "outputs": [
        {
          "internalType": "uint8",
          "name": "result",
          "type": "uint8"
        },
        {
          "internalType": "uint32",
          "name": "timestamp",
          "type": "uint32"
        },
        {
          "internalType": "address",
          "name": "drawer",
          "type": "address"
        }
      ],
      "stateMutability": "view",
      "type": "function"
    },
    {
      "inputs": [
        {
          "internalType": "uint256",
          "name": "tokenId",
          "type": "uint256"
        }
      ],
      "name": "getFortuneImageUrl",
      "outputs": [
        {
          "internalType": "string",
          "name": "",
          "type": "string"
        }
      ],
      "stateMutability": "view",
      "type": "function"
    },
    {
      "inputs": [
        {
          "internalType": "uint256",
          "name": "tokenId",
          "type": "uint256"
        }
      ],
      "name": "getFortuneMessage",
      "outputs": [
        {
          "internalType": "string",
          "name": "",
          "type": "string"
        }
      ],
      "stateMutability": "view",
      "type": "function"
    },
    {
      "inputs": [],
      "name": "getProbabilities",
      "outputs": [
        {
          "internalType": "uint16[7]",
          "name": "",
          "type": "uint16[7]"
        }
      ],
      "stateMutability": "pure",
      "type": "function"
    },
    {
      "inputs": [
        {
          "internalType": "address",
          "name": "user",
          "type": "address"
        }
      ],
      "name": "getSelfMintProgress",
      "outputs": [
        {
          "internalType": "uint8",
          "name": "",
          "type": "uint8"
        }
      ],
      "stateMutability": "view",
      "type": "function"
    },
    {
      "inputs": [
        {
          "internalType": "address",
          "name": "user",
          "type": "address"
        }
      ],
      "name": "getSelfMintedFortunes",
      "outputs": [
        {
          "internalType": "uint8[]",
          "name": "",
          "type": "uint8[]"
        }
      ],
      "stateMutability": "view",
      "type": "function"
    },
    {
      "inputs": [
        {
          "internalType": "address",
          "name": "",
          "type": "address"
        }
      ],
      "name": "getTimeUntilNextDraw",
      "outputs": [
        {
          "internalType": "uint256",
          "name": "",
          "type": "uint256"
        }
      ],
      "stateMutability": "pure",
      "type": "function"
    },
    {
      "inputs": [
        {
          "internalType": "address",
          "name": "",
          "type": "address"
        }
      ],
      "name": "hasCompletedSelfMint",
      "outputs": [
        {
          "internalType": "bool",
          "name": "",
          "type": "bool"
        }
      ],
      "stateMutability": "view",
      "type": "function"
    },
    {
      "inputs": [
        {
          "internalType": "address",
          "name": "owner",
          "type": "address"
        },
        {
          "internalType": "address",
          "name": "operator",
          "type": "address"
        }
      ],
      "name": "isApprovedForAll",
      "outputs": [
        {
          "internalType": "bool",
          "name": "",
          "type": "bool"
        }
      ],
      "stateMutability": "view",
      "type": "function"
    },
    {
      "inputs": [],
      "name": "name",
      "outputs": [
        {
          "internalType": "string",
          "name": "",
          "type": "string"
        }
      ],
      "stateMutability": "view",
      "type": "function"
    },
    {
      "inputs": [],
      "name": "omikujiPrice",
      "outputs": [
        {
          "internalType": "uint256",
          "name": "",
          "type": "uint256"
        }
      ],
      "stateMutability": "view",
      "type": "function"
    },
    {
      "inputs": [],
      "name": "owner",
      "outputs": [
        {
          "internalType": "address",
          "name": "",
          "type": "address"
        }
      ],
      "stateMutability": "view",
      "type": "function"
    },
    {
      "inputs": [
        {
          "internalType": "uint256",
          "name": "tokenId",
          "type": "uint256"
        }
      ],
      "name": "ownerOf",
      "outputs": [
        {
          "internalType": "address",
          "name": "",
          "type": "address"
        }
      ],
      "stateMutability": "view",
      "type": "function"
    },
    {
      "inputs": [],
      "name": "remainingSupply",
      "outputs": [
        {
          "internalType": "uint256",
          "name": "",
          "type": "uint256"
        }
      ],
      "stateMutability": "view",
      "type": "function"
    },
    {
      "inputs": [],
      "name": "renounceOwnership",
      "outputs": [],
      "stateMutability": "nonpayable",
      "type": "function"
    },
    {
      "inputs": [
        {
          "internalType": "address",
          "name": "from",
          "type": "address"
        },
        {
          "internalType": "address",
          "name": "to",
          "type": "address"
        },
        {
          "internalType": "uint256",
          "name": "tokenId",
          "type": "uint256"
        }
      ],
      "name": "safeTransferFrom",
      "outputs": [],
      "stateMutability": "nonpayable",
      "type": "function"
    },
    {
      "inputs": [
        {
          "internalType": "address",
          "name": "from",
          "type": "address"
        },
        {
          "internalType": "address",
          "name": "to",
          "type": "address"
        },
        {
          "internalType": "uint256",
          "name": "tokenId",
          "type": "uint256"
        },
        {
          "internalType": "bytes",
          "name": "data",
          "type": "bytes"
        }
      ],
      "name": "safeTransferFrom",
      "outputs": [],
      "stateMutability": "nonpayable",
      "type": "function"
    },
    {
      "inputs": [
        {
          "internalType": "address",
          "name": "",
          "type": "address"
        },
        {
          "internalType": "uint256",
          "name": "",
          "type": "uint256"
        }
      ],
      "name": "selfMintedFortunes",
      "outputs": [
        {
          "internalType": "uint8",
          "name": "",
          "type": "uint8"
        }
      ],
      "stateMutability": "view",
      "type": "function"
    },
    {
      "inputs": [
        {
          "internalType": "string[7]",
          "name": "ipfsHashes",
          "type": "string[7]"
        }
      ],
      "name": "setAllFortuneImageHashes",
      "outputs": [],
      "stateMutability": "nonpayable",
      "type": "function"
    },
    {
      "inputs": [
        {
          "internalType": "address",
          "name": "operator",
          "type": "address"
        },
        {
          "internalType": "bool",
          "name": "approved",
          "type": "bool"
        }
      ],
      "name": "setApprovalForAll",
      "outputs": [],
      "stateMutability": "nonpayable",
      "type": "function"
    },
    {
      "inputs": [
        {
          "internalType": "string",
          "name": "baseURI",
          "type": "string"
        }
      ],
      "name": "setBaseURI",
      "outputs": [],
      "stateMutability": "nonpayable",
      "type": "function"
    },
    {
      "inputs": [
        {
          "internalType": "uint8",
          "name": "fortuneType",
          "type": "uint8"
        },
        {
          "internalType": "string",
          "name": "ipfsHash",
          "type": "string"
        }
      ],
      "name": "setFortuneImageHash",
      "outputs": [],
      "stateMutability": "nonpayable",
      "type": "function"
    },
    {
      "inputs": [
        {
          "internalType": "uint256",
          "name": "_price",
          "type": "uint256"
        }
      ],
      "name": "setPrice",
      "outputs": [],
      "stateMutability": "nonpayable",
      "type": "function"
    },
    {
      "inputs": [
        {
          "internalType": "bytes4",
          "name": "interfaceId",
          "type": "bytes4"
        }
      ],
      "name": "supportsInterface",
      "outputs": [
        {
          "internalType": "bool",
          "name": "",
          "type": "bool"
        }
      ],
      "stateMutability": "view",
      "type": "function"
    },
    {
      "inputs": [],
      "name": "symbol",
      "outputs": [
        {
          "internalType": "string",
          "name": "",
          "type": "string"
        }
      ],
      "stateMutability": "view",
      "type": "function"
    },
    {
      "inputs": [
        {
          "internalType": "uint256",
          "name": "tokenId",
          "type": "uint256"
        }
      ],
      "name": "tokenURI",
      "outputs": [
        {
          "internalType": "string",
          "name": "",
          "type": "string"
        }
      ],
      "stateMutability": "view",
      "type": "function"
    },
    {
      "inputs": [],
      "name": "totalSupply",
      "outputs": [
        {
          "internalType": "uint256",
          "name": "",
          "type": "uint256"
        }
      ],
      "stateMutability": "view",
      "type": "function"
    },
    {
      "inputs": [
        {
          "internalType": "address",
          "name": "from",
          "type": "address"
        },
        {
          "internalType": "address",
          "name": "to",
          "type": "address"
        },
        {
          "internalType": "uint256",
          "name": "tokenId",
          "type": "uint256"
        }
      ],
      "name": "transferFrom",
      "outputs": [],
      "stateMutability": "nonpayable",
      "type": "function"
    },
    {
      "inputs": [
        {
          "internalType": "address",
          "name": "newOwner",
          "type": "address"
        }
      ],
      "name": "transferOwnership",
      "outputs": [],
      "stateMutability": "nonpayable",
      "type": "function"
    },
    {
      "inputs": [],
      "name": "withdraw",
      "outputs": [],
      "stateMutability": "nonpayable",
      "type": "function"
    }
  ],
  "bytecode": "0x608060405267016345785d8a0000600855604051806060016040528060228152602001615c526022913960099081610037919061099b565b506040518060e00160405280604051806060016040528060378152602001615af1603791398152602001604051806060016040528060318152602001615b28603191398152602001604051806060016040528060248152602001615d25602491398152602001604051806060016040528060258152602001615bb76025913981526020016040518060600160405280602d8152602001615a89602d91398152602001604051806060016040528060238152602001615b94602391398152602001604051806060016040528060258152602001615a6460259139815250600e90600761012392919061067e565b506040518060e001604052806040518060400160405280601a81526020017f537570657220556c74726120477265617420426c657373696e6700000000000081525081526020016040518060400160405280601481526020017f556c74726120477265617420426c657373696e6700000000000000000000000081525081526020016040518060400160405280600e81526020017f477265617420426c657373696e6700000000000000000000000000000000000081525081526020016040518060400160405280600f81526020017f4d6964646c6520426c657373696e67000000000000000000000000000000000081525081526020016040518060400160405280600e81526020017f536d616c6c20426c657373696e6700000000000000000000000000000000000081525081526020016040518060400160405280600881526020017f426c657373696e6700000000000000000000000000000000000000000000000081525081526020016040518060400160405280600e81526020017f4d696e6f7220426c657373696e6700000000000000000000000000000000000081525081525060159060076102da92919061067e565b503480156102e757600080fd5b50336040518060400160405280601b81526020017f4f6d696b756a6920536872696e65206f6e204d6f6e6164204e465400000000008152506040518060400160405280600781526020017f4f4d494b554a49000000000000000000000000000000000000000000000000008152508160009081610364919061099b565b508060019081610374919061099b565b505050600073ffffffffffffffffffffffffffffffffffffffff168173ffffffffffffffffffffffffffffffffffffffff16036103e95760006040517f1e4fbdf70000000000000000000000000000000000000000000000000000000081526004016103e09190610aae565b60405180910390fd5b6103f88161040c60201b60201c565b506104076104d260201b60201c565b610ac9565b6000600660009054906101000a900473ffffffffffffffffffffffffffffffffffffffff16905081600660006101000a81548173ffffffffffffffffffffffffffffffffffffffff021916908373ffffffffffffffffffffffffffffffffffffffff1602179055508173ffffffffffffffffffffffffffffffffffffffff168173ffffffffffffffffffffffffffffffffffffffff167f8be0079c531659141344cd1fd0a4f28419497f9722a3daafe3b4186f6b6457e060405160405180910390a35050565b6040518060600160405280603b8152602001615ab6603b9139600a60008060ff168152602001908152602001600020908161050d919061099b565b506040518060600160405280603b8152602001615bdc603b9139600a6000600160ff168152602001908152602001600020908161054a919061099b565b506040518060600160405280603b8152602001615caf603b9139600a6000600260ff1681526020019081526020016000209081610587919061099b565b506040518060600160405280603b8152602001615c74603b9139600a6000600360ff16815260200190815260200160002090816105c4919061099b565b506040518060600160405280603b8152602001615cea603b9139600a6000600460ff1681526020019081526020016000209081610601919061099b565b506040518060600160405280603b8152602001615b59603b9139600a6000600560ff168152602001908152602001600020908161063e919061099b565b506040518060600160405280603b8152602001615c17603b9139600a6000600660ff168152602001908152602001600020908161067b919061099b565b50565b82600781019282156106b9579160200282015b828111156106b85782518290816106a8919061099b565b5091602001919060010190610691565b5b5090506106c691906106ca565b5090565b5b808211156106ea57600081816106e191906106ee565b506001016106cb565b5090565b5080546106fa906107b4565b6000825580601f1061070c575061072b565b601f01602090049060005260206000209081019061072a919061072e565b5b50565b5b8082111561074757600081600090555060010161072f565b5090565b600081519050919050565b7f4e487b7100000000000000000000000000000000000000000000000000000000600052604160045260246000fd5b7f4e487b7100000000000000000000000000000000000000000000000000000000600052602260045260246000fd5b600060028204905060018216806107cc57607f821691505b6020821081036107df576107de610785565b5b50919050565b60008190508160005260206000209050919050565b60006020601f8301049050919050565b600082821b905092915050565b6000600883026108477fffffffffffffffffffffffffffffffffffffffffffffffffffffffffffffffff8261080a565b610851868361080a565b95508019841693508086168417925050509392505050565b6000819050919050565b6000819050919050565b600061089861089361088e84610869565b610873565b610869565b9050919050565b6000819050919050565b6108b28361087d565b6108c66108be8261089f565b848454610817565b825550505050565b600090565b6108db6108ce565b6108e68184846108a9565b505050565b5b8181101561090a576108ff6000826108d3565b6001810190506108ec565b5050565b601f82111561094f57610920816107e5565b610929846107fa565b81016020851015610938578190505b61094c610944856107fa565b8301826108eb565b50505b505050565b600082821c905092915050565b600061097260001984600802610954565b1980831691505092915050565b600061098b8383610961565b9150826002028217905092915050565b6109a48261074b565b67ffffffffffffffff8111156109bd576109bc610756565b5b6109c782546107b4565b6109d282828561090e565b600060209050601f831160018114610a0557600084156109f3578287015190505b6109fd858261097f565b865550610a65565b601f198416610a13866107e5565b60005b82811015610a3b57848901518255600182019150602085019450602081019050610a16565b86831015610a585784890151610a54601f891682610961565b8355505b6001600288020188555050505b505050505050565b600073ffffffffffffffffffffffffffffffffffffffff82169050919050565b6000610a9882610a6d565b9050919050565b610aa881610a8d565b82525050565b6000602082019050610ac36000830184610a9f565b92915050565b614f8c80610ad86000396000f3fe6080604052600436106102255760003560e01c806370a0823111610123578063b88d4fde116100ab578063da0239a61161006f578063da0239a614610892578063db811e24146108bd578063e985e9c5146108e6578063f023145814610923578063f2fde38b1461096257610225565b8063b88d4fde14610789578063c21d5061146107b2578063c351de69146107ef578063c87b56dd14610818578063cebd0e7f1461085557610225565b80638da5cb5b116100f25780638da5cb5b146106a45780639063ad04146106cf57806391b7f5ed1461070c57806395d89b4114610735578063a22cb4651461076057610225565b806370a08231146105d4578063715018a6146106115780637182736f146106285780638c8005a31461066557610225565b80632d2c7b55116101b157806355f804b31161017557806355f804b3146104d6578063581f0fb0146104ff5780635982773b1461051d5780636352211e1461055a57806368e68d1b1461059757610225565b80632d2c7b55146103f15780633ccfd60b1461042e57806342842e0e146104455780634b39d64f1461046e5780634ca8a941146104ab57610225565b8063095ea7b3116101f8578063095ea7b3146102fa578063101e38761461032357806318160ddd146103605780631a7766d21461038b57806323b872dd146103c857610225565b806301ffc9a71461022a578063062f7b8c1461026757806306fdde0314610292578063081812fc146102bd575b600080fd5b34801561023657600080fd5b50610251600480360381019061024c91906135b5565b61098b565b60405161025e91906135fd565b60405180910390f35b34801561027357600080fd5b5061027c610a6d565b60405161028991906136d1565b60405180910390f35b34801561029e57600080fd5b506102a7610ad5565b6040516102b4919061377c565b60405180910390f35b3480156102c957600080fd5b506102e460048036038101906102df91906137d4565b610b67565b6040516102f19190613842565b60405180910390f35b34801561030657600080fd5b50610321600480360381019061031c9190613889565b610b83565b005b34801561032f57600080fd5b5061034a600480360381019061034591906138c9565b610b99565b6040516103579190613912565b60405180910390f35b34801561036c57600080fd5b50610375610d2f565b604051610382919061393c565b60405180910390f35b34801561039757600080fd5b506103b260048036038101906103ad91906138c9565b610d39565b6040516103bf9190613a15565b60405180910390f35b3480156103d457600080fd5b506103ef60048036038101906103ea9190613a37565b610df6565b005b3480156103fd57600080fd5b50610418600480360381019061041391906137d4565b610ef8565b604051610425919061377c565b60405180910390f35b34801561043a57600080fd5b50610443611073565b005b34801561045157600080fd5b5061046c60048036038101906104679190613a37565b6110cb565b005b34801561047a57600080fd5b50610495600480360381019061049091906137d4565b6110eb565b6040516104a2919061377c565b60405180910390f35b3480156104b757600080fd5b506104c061122f565b6040516104cd919061393c565b60405180910390f35b3480156104e257600080fd5b506104fd60048036038101906104f89190613bbf565b611235565b005b610507611250565b604051610514919061393c565b60405180910390f35b34801561052957600080fd5b50610544600480360381019061053f91906138c9565b611606565b60405161055191906135fd565b60405180910390f35b34801561056657600080fd5b50610581600480360381019061057c91906137d4565b611611565b60405161058e9190613842565b60405180910390f35b3480156105a357600080fd5b506105be60048036038101906105b99190613889565b611623565b6040516105cb9190613912565b60405180910390f35b3480156105e057600080fd5b506105fb60048036038101906105f691906138c9565b611666565b604051610608919061393c565b60405180910390f35b34801561061d57600080fd5b50610626611720565b005b34801561063457600080fd5b5061064f600480360381019061064a91906138c9565b611734565b60405161065c91906135fd565b60405180910390f35b34801561067157600080fd5b5061068c600480360381019061068791906137d4565b611746565b60405161069b93929190613c27565b60405180910390f35b3480156106b057600080fd5b506106b96117ad565b6040516106c69190613842565b60405180910390f35b3480156106db57600080fd5b506106f660048036038101906106f191906138c9565b6117d7565b60405161070391906135fd565b60405180910390f35b34801561071857600080fd5b50610733600480360381019061072e91906137d4565b6117f7565b005b34801561074157600080fd5b5061074a611809565b604051610757919061377c565b60405180910390f35b34801561076c57600080fd5b5061078760048036038101906107829190613c8a565b61189b565b005b34801561079557600080fd5b506107b060048036038101906107ab9190613d6b565b6118b1565b005b3480156107be57600080fd5b506107d960048036038101906107d491906138c9565b6118d6565b6040516107e6919061393c565b60405180910390f35b3480156107fb57600080fd5b5061081660048036038101906108119190613e1a565b6118dd565b005b34801561082457600080fd5b5061083f600480360381019061083a91906137d4565b611956565b60405161084c919061377c565b60405180910390f35b34801561086157600080fd5b5061087c60048036038101906108779190613e76565b611b97565b604051610889919061377c565b60405180910390f35b34801561089e57600080fd5b506108a7611c37565b6040516108b4919061393c565b60405180910390f35b3480156108c957600080fd5b506108e460048036038101906108df9190613f77565b611c6c565b005b3480156108f257600080fd5b5061090d60048036038101906109089190613fc0565b611cd5565b60405161091a91906135fd565b60405180910390f35b34801561092f57600080fd5b5061094a600480360381019061094591906137d4565b611d69565b60405161095993929190613c27565b60405180910390f35b34801561096e57600080fd5b50610989600480360381019061098491906138c9565b611ebc565b005b60007f80ac58cd000000000000000000000000000000000000000000000000000000007bffffffffffffffffffffffffffffffffffffffffffffffffffffffff1916827bffffffffffffffffffffffffffffffffffffffffffffffffffffffff19161480610a5657507f5b5e139f000000000000000000000000000000000000000000000000000000007bffffffffffffffffffffffffffffffffffffffffffffffffffffffff1916827bffffffffffffffffffffffffffffffffffffffffffffffffffffffff1916145b80610a665750610a6582611f42565b5b9050919050565b610a75613505565b6040518060e00160405280603261ffff168152602001609661ffff1681526020016101f461ffff1681526020016103e861ffff1681526020016107d061ffff168152602001610bb861ffff168152602001610ce461ffff16815250905090565b606060008054610ae49061402f565b80601f0160208091040260200160405190810160405280929190818152602001828054610b109061402f565b8015610b5d5780601f10610b3257610100808354040283529160200191610b5d565b820191906000526020600020905b815481529060010190602001808311610b4057829003601f168201915b5050505050905090565b6000610b7282611fac565b50610b7c82612034565b9050919050565b610b958282610b90612071565b612079565b5050565b6000610ba3613527565b6000600c60008573ffffffffffffffffffffffffffffffffffffffff1673ffffffffffffffffffffffffffffffffffffffff168152602001908152602001600020805480602002602001604051908101604052809291908181526020018280548015610c5457602002820191906000526020600020906000905b82829054906101000a900460ff1660ff1681526020019060010190602082600001049283019260010382029150808411610c1d5790505b5050505050905060005b8151811015610cdc576007828281518110610c7c57610c7b614060565b5b602002602001015160ff161015610ccf57600183838381518110610ca357610ca2614060565b5b602002602001015160ff1660078110610cbf57610cbe614060565b5b6020020190151590811515815250505b8080600101915050610c5e565b506000805b6007811015610d2357838160078110610cfd57610cfc614060565b5b602002015115610d16578180610d12906140be565b9250505b8080600101915050610ce1565b50809350505050919050565b6000600754905090565b6060600c60008373ffffffffffffffffffffffffffffffffffffffff1673ffffffffffffffffffffffffffffffffffffffff168152602001908152602001600020805480602002602001604051908101604052809291908181526020018280548015610dea57602002820191906000526020600020906000905b82829054906101000a900460ff1660ff1681526020019060010190602082600001049283019260010382029150808411610db35790505b50505050509050919050565b600073ffffffffffffffffffffffffffffffffffffffff168273ffffffffffffffffffffffffffffffffffffffff1603610e685760006040517f64a0ae92000000000000000000000000000000000000000000000000000000008152600401610e5f9190613842565b60405180910390fd5b6000610e7c8383610e77612071565b61208b565b90508373ffffffffffffffffffffffffffffffffffffffff168173ffffffffffffffffffffffffffffffffffffffff1614610ef2578382826040517f64283d7b000000000000000000000000000000000000000000000000000000008152600401610ee9939291906140e7565b60405180910390fd5b50505050565b6060600073ffffffffffffffffffffffffffffffffffffffff16610f1b836122a5565b73ffffffffffffffffffffffffffffffffffffffff1603610f71576040517f08c379a0000000000000000000000000000000000000000000000000000000008152600401610f689061416a565b60405180910390fd5b6000600b60008481526020019081526020016000206040518060600160405290816000820160009054906101000a900460ff1660ff1660ff1681526020016000820160019054906101000a900463ffffffff1663ffffffff1663ffffffff1681526020016000820160059054906101000a900473ffffffffffffffffffffffffffffffffffffffff1673ffffffffffffffffffffffffffffffffffffffff1673ffffffffffffffffffffffffffffffffffffffff168152505090506009600a6000836000015160ff1660ff16815260200190815260200160002060405160200161105c92919061422d565b604051602081830303815290604052915050919050565b61107b6122e2565b6110836117ad565b73ffffffffffffffffffffffffffffffffffffffff166108fc479081150290604051600060405180830381858888f193505050501580156110c8573d6000803e3d6000fd5b50565b6110e6838383604051806020016040528060008152506118b1565b505050565b6060600073ffffffffffffffffffffffffffffffffffffffff1661110e836122a5565b73ffffffffffffffffffffffffffffffffffffffff1603611164576040517f08c379a000000000000000000000000000000000000000000000000000000000815260040161115b9061416a565b60405180910390fd5b600e600b600084815260200190815260200160002060000160009054906101000a900460ff1660ff166007811061119e5761119d614060565b5b0180546111aa9061402f565b80601f01602080910402602001604051908101604052809291908181526020018280546111d69061402f565b80156112235780601f106111f857610100808354040283529160200191611223565b820191906000526020600020905b81548152906001019060200180831161120657829003601f168201915b50505050509050919050565b60085481565b61123d6122e2565b806009908161124c91906143e8565b5050565b6000600854341015611297576040517f08c379a000000000000000000000000000000000000000000000000000000000815260040161128e90614506565b60405180910390fd5b600760008154809291906001019190505550600060075490506000612710424433856040516020016112cc949392919061458f565b6040516020818303038152906040528051906020012060001c6112ef919061460c565b905060006032821015611305576000905061136d565b60c8821015611317576001905061136c565b6102bc82101561132a576002905061136b565b6106a482101561133d576003905061136a565b610e748210156113505760049050611369565b611a2c8210156113635760059050611368565b600690505b5b5b5b5b5b60405180606001604052808260ff1681526020014263ffffffff1681526020013373ffffffffffffffffffffffffffffffffffffffff16815250600b600085815260200190815260200160002060008201518160000160006101000a81548160ff021916908360ff16021790555060208201518160000160016101000a81548163ffffffff021916908363ffffffff16021790555060408201518160000160056101000a81548173ffffffffffffffffffffffffffffffffffffffff021916908373ffffffffffffffffffffffffffffffffffffffff160217905550905050600c60003373ffffffffffffffffffffffffffffffffffffffff1673ffffffffffffffffffffffffffffffffffffffff1681526020019081526020016000208190806001815401808255809150506001900390600052602060002090602091828204019190069091909190916101000a81548160ff021916908360ff160217905550600d60003373ffffffffffffffffffffffffffffffffffffffff1673ffffffffffffffffffffffffffffffffffffffff16815260200190815260200160002060009054906101000a900460ff1615801561152d575061152c33612369565b5b1561158b576001600d60003373ffffffffffffffffffffffffffffffffffffffff1673ffffffffffffffffffffffffffffffffffffffff16815260200190815260200160002060006101000a81548160ff0219169083151502179055505b61159533846124fb565b823373ffffffffffffffffffffffffffffffffffffffff167f8f59f601bb75974d2fc5a2ee8f1b7de682a1e78edb4cb7418db454c60ee4a5d183600e8560ff16600781106115e6576115e5614060565b5b016040516115f59291906146c1565b60405180910390a382935050505090565b600060019050919050565b600061161c82611fac565b9050919050565b600c602052816000526040600020818154811061163f57600080fd5b9060005260206000209060209182820401919006915091509054906101000a900460ff1681565b60008073ffffffffffffffffffffffffffffffffffffffff168273ffffffffffffffffffffffffffffffffffffffff16036116d95760006040517f89c62b640000000000000000000000000000000000000000000000000000000081526004016116d09190613842565b60405180910390fd5b600360008373ffffffffffffffffffffffffffffffffffffffff1673ffffffffffffffffffffffffffffffffffffffff168152602001908152602001600020549050919050565b6117286122e2565b61173260006125f4565b565b600061173f82612369565b9050919050565b600b6020528060005260406000206000915090508060000160009054906101000a900460ff16908060000160019054906101000a900463ffffffff16908060000160059054906101000a900473ffffffffffffffffffffffffffffffffffffffff16905083565b6000600660009054906101000a900473ffffffffffffffffffffffffffffffffffffffff16905090565b600d6020528060005260406000206000915054906101000a900460ff1681565b6117ff6122e2565b8060088190555050565b6060600180546118189061402f565b80601f01602080910402602001604051908101604052809291908181526020018280546118449061402f565b80156118915780601f1061186657610100808354040283529160200191611891565b820191906000526020600020905b81548152906001019060200180831161187457829003601f168201915b5050505050905090565b6118ad6118a6612071565b83836126ba565b5050565b6118bc848484610df6565b6118d06118c7612071565b85858585612829565b50505050565b6000919050565b6118e56122e2565b60078260ff161061192b576040517f08c379a00000000000000000000000000000000000000000000000000000000081526004016119229061473d565b60405180910390fd5b80600a60008460ff1660ff168152602001908152602001600020908161195191906143e8565b505050565b6060600073ffffffffffffffffffffffffffffffffffffffff16611979836122a5565b73ffffffffffffffffffffffffffffffffffffffff16036119cf576040517f08c379a00000000000000000000000000000000000000000000000000000000081526004016119c69061416a565b60405180910390fd5b6000600b60008481526020019081526020016000206040518060600160405290816000820160009054906101000a900460ff1660ff1660ff1681526020016000820160019054906101000a900463ffffffff1663ffffffff1663ffffffff1681526020016000820160059054906101000a900473ffffffffffffffffffffffffffffffffffffffff1673ffffffffffffffffffffffffffffffffffffffff1673ffffffffffffffffffffffffffffffffffffffff1681525050905060006009600a6000846000015160ff1660ff168152602001908152602001600020604051602001611abc92919061422d565b60405160208183030381529060405290506000611ad8856129da565b600e846000015160ff1660078110611af357611af2614060565b5b01836015866000015160ff1660078110611b1057611b0f614060565b5b01611b1e8760000151612b3a565b611b31886020015163ffffffff166129da565b611b3e8960400151612d2a565b604051602001611b549796959493929190614b6a565b6040516020818303038152906040529050611b6e81613043565b604051602001611b7e9190614caa565b6040516020818303038152906040529350505050919050565b600a6020528060005260406000206000915090508054611bb69061402f565b80601f0160208091040260200160405190810160405280929190818152602001828054611be29061402f565b8015611c2f5780601f10611c0457610100808354040283529160200191611c2f565b820191906000526020600020905b815481529060010190602001808311611c1257829003601f168201915b505050505081565b60006007547fffffffffffffffffffffffffffffffffffffffffffffffffffffffffffffffff611c679190614ccc565b905090565b611c746122e2565b60005b60078160ff161015611cd157818160ff1660078110611c9957611c98614060565b5b6020020151600a60008360ff1660ff1681526020019081526020016000209081611cc391906143e8565b508080600101915050611c77565b5050565b6000600560008473ffffffffffffffffffffffffffffffffffffffff1673ffffffffffffffffffffffffffffffffffffffff16815260200190815260200160002060008373ffffffffffffffffffffffffffffffffffffffff1673ffffffffffffffffffffffffffffffffffffffff16815260200190815260200160002060009054906101000a900460ff16905092915050565b60008060008073ffffffffffffffffffffffffffffffffffffffff16611d8e856122a5565b73ffffffffffffffffffffffffffffffffffffffff1603611de4576040517f08c379a0000000000000000000000000000000000000000000000000000000008152600401611ddb9061416a565b60405180910390fd5b6000600b60008681526020019081526020016000206040518060600160405290816000820160009054906101000a900460ff1660ff1660ff1681526020016000820160019054906101000a900463ffffffff1663ffffffff1663ffffffff1681526020016000820160059054906101000a900473ffffffffffffffffffffffffffffffffffffffff1673ffffffffffffffffffffffffffffffffffffffff1673ffffffffffffffffffffffffffffffffffffffff16815250509050806000015181602001518260400151935093509350509193909250565b611ec46122e2565b600073ffffffffffffffffffffffffffffffffffffffff168173ffffffffffffffffffffffffffffffffffffffff1603611f365760006040517f1e4fbdf7000000000000000000000000000000000000000000000000000000008152600401611f2d9190613842565b60405180910390fd5b611f3f816125f4565b50565b60007f01ffc9a7000000000000000000000000000000000000000000000000000000007bffffffffffffffffffffffffffffffffffffffffffffffffffffffff1916827bffffffffffffffffffffffffffffffffffffffffffffffffffffffff1916149050919050565b600080611fb8836122a5565b9050600073ffffffffffffffffffffffffffffffffffffffff168173ffffffffffffffffffffffffffffffffffffffff160361202b57826040517f7e273289000000000000000000000000000000000000000000000000000000008152600401612022919061393c565b60405180910390fd5b80915050919050565b60006004600083815260200190815260200160002060009054906101000a900473ffffffffffffffffffffffffffffffffffffffff169050919050565b600033905090565b61208683838360016131bb565b505050565b600080612097846122a5565b9050600073ffffffffffffffffffffffffffffffffffffffff168373ffffffffffffffffffffffffffffffffffffffff16146120d9576120d8818486613380565b5b600073ffffffffffffffffffffffffffffffffffffffff168173ffffffffffffffffffffffffffffffffffffffff161461216a5761211b6000856000806131bb565b6001600360008373ffffffffffffffffffffffffffffffffffffffff1673ffffffffffffffffffffffffffffffffffffffff168152602001908152602001600020600082825403925050819055505b600073ffffffffffffffffffffffffffffffffffffffff168573ffffffffffffffffffffffffffffffffffffffff16146121ed576001600360008773ffffffffffffffffffffffffffffffffffffffff1673ffffffffffffffffffffffffffffffffffffffff168152602001908152602001600020600082825401925050819055505b846002600086815260200190815260200160002060006101000a81548173ffffffffffffffffffffffffffffffffffffffff021916908373ffffffffffffffffffffffffffffffffffffffff160217905550838573ffffffffffffffffffffffffffffffffffffffff168273ffffffffffffffffffffffffffffffffffffffff167fddf252ad1be2c89b69c2b068fc378daa952ba7f163c4a11628f55a4df523b3ef60405160405180910390a4809150509392505050565b60006002600083815260200190815260200160002060009054906101000a900473ffffffffffffffffffffffffffffffffffffffff169050919050565b6122ea612071565b73ffffffffffffffffffffffffffffffffffffffff166123086117ad565b73ffffffffffffffffffffffffffffffffffffffff16146123675761232b612071565b6040517f118cdaa700000000000000000000000000000000000000000000000000000000815260040161235e9190613842565b60405180910390fd5b565b6000612373613527565b6000600c60008573ffffffffffffffffffffffffffffffffffffffff1673ffffffffffffffffffffffffffffffffffffffff16815260200190815260200160002080548060200260200160405190810160405280929190818152602001828054801561242457602002820191906000526020600020906000905b82829054906101000a900460ff1660ff16815260200190600101906020826000010492830192600103820291508084116123ed5790505b5050505050905060005b81518110156124ac57600782828151811061244c5761244b614060565b5b602002602001015160ff16101561249f5760018383838151811061247357612472614060565b5b602002602001015160ff166007811061248f5761248e614060565b5b6020020190151590811515815250505b808060010191505061242e565b5060005b60078110156124ee578281600781106124cc576124cb614060565b5b60200201516124e157600093505050506124f6565b80806001019150506124b0565b506001925050505b919050565b600073ffffffffffffffffffffffffffffffffffffffff168273ffffffffffffffffffffffffffffffffffffffff160361256d5760006040517f64a0ae920000000000000000000000000000000000000000000000000000000081526004016125649190613842565b60405180910390fd5b600061257b8383600061208b565b9050600073ffffffffffffffffffffffffffffffffffffffff168173ffffffffffffffffffffffffffffffffffffffff16146125ef5760006040517f73c6ac6e0000000000000000000000000000000000000000000000000000000081526004016125e69190613842565b60405180910390fd5b505050565b6000600660009054906101000a900473ffffffffffffffffffffffffffffffffffffffff16905081600660006101000a81548173ffffffffffffffffffffffffffffffffffffffff021916908373ffffffffffffffffffffffffffffffffffffffff1602179055508173ffffffffffffffffffffffffffffffffffffffff168173ffffffffffffffffffffffffffffffffffffffff167f8be0079c531659141344cd1fd0a4f28419497f9722a3daafe3b4186f6b6457e060405160405180910390a35050565b600073ffffffffffffffffffffffffffffffffffffffff168273ffffffffffffffffffffffffffffffffffffffff160361272b57816040517f5b08ba180000000000000000000000000000000000000000000000000000000081526004016127229190613842565b60405180910390fd5b80600560008573ffffffffffffffffffffffffffffffffffffffff1673ffffffffffffffffffffffffffffffffffffffff16815260200190815260200160002060008473ffffffffffffffffffffffffffffffffffffffff1673ffffffffffffffffffffffffffffffffffffffff16815260200190815260200160002060006101000a81548160ff0219169083151502179055508173ffffffffffffffffffffffffffffffffffffffff168373ffffffffffffffffffffffffffffffffffffffff167f17307eab39ab6107e8899845ad3d59bd9653f200f220920489ca2b5937696c318360405161281c91906135fd565b60405180910390a3505050565b60008373ffffffffffffffffffffffffffffffffffffffff163b11156129d3578273ffffffffffffffffffffffffffffffffffffffff1663150b7a02868685856040518563ffffffff1660e01b81526004016128889493929190614d55565b6020604051808303816000875af19250505080156128c457506040513d601f19601f820116820180604052508101906128c19190614db6565b60015b612948573d80600081146128f4576040519150601f19603f3d011682016040523d82523d6000602084013e6128f9565b606091505b50600081510361294057836040517f64a0ae920000000000000000000000000000000000000000000000000000000081526004016129379190613842565b60405180910390fd5b805160208201fd5b63150b7a0260e01b7bffffffffffffffffffffffffffffffffffffffffffffffffffffffff1916817bffffffffffffffffffffffffffffffffffffffffffffffffffffffff1916146129d157836040517f64a0ae920000000000000000000000000000000000000000000000000000000081526004016129c89190613842565b60405180910390fd5b505b5050505050565b606060008203612a21576040518060400160405280600181526020017f30000000000000000000000000000000000000000000000000000000000000008152509050612b35565b600082905060005b60008214612a53578080612a3c90614de3565b915050600a82612a4c9190614e2b565b9150612a29565b60008167ffffffffffffffff811115612a6f57612a6e613a94565b5b6040519080825280601f01601f191660200182016040528015612aa15781602001600182028036833780820191505090505b5090505b60008514612b2e57600182612aba9190614ccc565b9150600a85612ac9919061460c565b6030612ad59190614e5c565b60f81b818381518110612aeb57612aea614060565b5b60200101907effffffffffffffffffffffffffffffffffffffffffffffffffffffffffffff1916908160001a905350600a85612b279190614e2b565b9450612aa5565b8093505050505b919050565b606060008260ff1603612b84576040518060400160405280601081526020017f4c6567656e646172792028302e312529000000000000000000000000000000008152509050612d25565b60018260ff1603612bcc576040518060400160405280600b81526020017f457069632028312e3025290000000000000000000000000000000000000000008152509050612d25565b60028260ff1603612c14576040518060400160405280600b81526020017f526172652028352e3025290000000000000000000000000000000000000000008152509050612d25565b60038260ff1603612c5c576040518060400160405280601081526020017f556e636f6d6d6f6e202831302e302529000000000000000000000000000000008152509050612d25565b60048260ff1603612ca4576040518060400160405280600e81526020017f436f6d6d6f6e202832302e3025290000000000000000000000000000000000008152509050612d25565b60058260ff1603612cec576040518060400160405280600e81526020017f436f6d6d6f6e202833302e3025290000000000000000000000000000000000008152509050612d25565b6040518060400160405280600e81526020017f436f6d6d6f6e202833332e39252900000000000000000000000000000000000081525090505b919050565b6060600082604051602001612d3f9190614e90565b604051602081830303815290604052905060006040518060400160405280601081526020017f30313233343536373839616263646566000000000000000000000000000000008152509050600060028351612d9a9190614eab565b6002612da69190614e5c565b67ffffffffffffffff811115612dbf57612dbe613a94565b5b6040519080825280601f01601f191660200182016040528015612df15781602001600182028036833780820191505090505b5090507f300000000000000000000000000000000000000000000000000000000000000081600081518110612e2957612e28614060565b5b60200101907effffffffffffffffffffffffffffffffffffffffffffffffffffffffffffff1916908160001a9053507f780000000000000000000000000000000000000000000000000000000000000081600181518110612e8d57612e8c614060565b5b60200101907effffffffffffffffffffffffffffffffffffffffffffffffffffffffffffff1916908160001a90535060005b835181101561303757826004858381518110612ede57612edd614060565b5b602001015160f81c60f81b7effffffffffffffffffffffffffffffffffffffffffffffffffffffffffffff1916901c60f81c60ff1681518110612f2457612f23614060565b5b602001015160f81c60f81b82600283612f3d9190614eab565b6002612f499190614e5c565b81518110612f5a57612f59614060565b5b60200101907effffffffffffffffffffffffffffffffffffffffffffffffffffffffffffff1916908160001a90535082600f60f81b858381518110612fa257612fa1614060565b5b602001015160f81c60f81b1660f81c60ff1681518110612fc557612fc4614060565b5b602001015160f81c60f81b82600283612fde9190614eab565b6003612fea9190614e5c565b81518110612ffb57612ffa614060565b5b60200101907effffffffffffffffffffffffffffffffffffffffffffffffffffffffffffff1916908160001a9053508080600101915050612ebf565b50809350505050919050565b60606000825103613065576040518060200160405280600081525090506131b6565b6000604051806060016040528060408152602001614f1760409139905060006003600285516130949190614e5c565b61309e9190614e2b565b60046130aa9190614eab565b905060006020826130bb9190614e5c565b67ffffffffffffffff8111156130d4576130d3613a94565b5b6040519080825280601f01601f1916602001820160405280156131065781602001600182028036833780820191505090505b509050600183018586518101602084015b81831015613172576003830192508251603f8160121c168501518253600182019150603f81600c1c168501518253600182019150603f8160061c168501518253600182019150603f8116850151825360018201915050613117565b60038951066001811461318c576002811461319c576131a7565b613d3d60f01b60028303526131a7565b603d60f81b60018303525b50858552505050508093505050505b919050565b80806131f45750600073ffffffffffffffffffffffffffffffffffffffff168273ffffffffffffffffffffffffffffffffffffffff1614155b1561332857600061320484611fac565b9050600073ffffffffffffffffffffffffffffffffffffffff168373ffffffffffffffffffffffffffffffffffffffff161415801561326f57508273ffffffffffffffffffffffffffffffffffffffff168173ffffffffffffffffffffffffffffffffffffffff1614155b801561328257506132808184611cd5565b155b156132c457826040517fa9fbf51f0000000000000000000000000000000000000000000000000000000081526004016132bb9190613842565b60405180910390fd5b811561332657838573ffffffffffffffffffffffffffffffffffffffff168273ffffffffffffffffffffffffffffffffffffffff167f8c5be1e5ebec7d5bd14f71427d1e84f3dd0314c0f7b2291e5b200ac8c7c3b92560405160405180910390a45b505b836004600085815260200190815260200160002060006101000a81548173ffffffffffffffffffffffffffffffffffffffff021916908373ffffffffffffffffffffffffffffffffffffffff16021790555050505050565b61338b838383613444565b61343f57600073ffffffffffffffffffffffffffffffffffffffff168373ffffffffffffffffffffffffffffffffffffffff160361340057806040517f7e2732890000000000000000000000000000000000000000000000000000000081526004016133f7919061393c565b60405180910390fd5b81816040517f177e802f000000000000000000000000000000000000000000000000000000008152600401613436929190614eed565b60405180910390fd5b505050565b60008073ffffffffffffffffffffffffffffffffffffffff168373ffffffffffffffffffffffffffffffffffffffff16141580156134fc57508273ffffffffffffffffffffffffffffffffffffffff168473ffffffffffffffffffffffffffffffffffffffff1614806134bd57506134bc8484611cd5565b5b806134fb57508273ffffffffffffffffffffffffffffffffffffffff166134e383612034565b73ffffffffffffffffffffffffffffffffffffffff16145b5b90509392505050565b6040518060e00160405280600790602082028036833780820191505090505090565b6040518060e00160405280600790602082028036833780820191505090505090565b6000604051905090565b600080fd5b600080fd5b60007fffffffff0000000000000000000000000000000000000000000000000000000082169050919050565b6135928161355d565b811461359d57600080fd5b50565b6000813590506135af81613589565b92915050565b6000602082840312156135cb576135ca613553565b5b60006135d9848285016135a0565b91505092915050565b60008115159050919050565b6135f7816135e2565b82525050565b600060208201905061361260008301846135ee565b92915050565b600060079050919050565b600081905092915050565b6000819050919050565b600061ffff82169050919050565b61364f81613638565b82525050565b60006136618383613646565b60208301905092915050565b6000602082019050919050565b61368381613618565b61368d8184613623565b92506136988261362e565b8060005b838110156136c95781516136b08782613655565b96506136bb8361366d565b92505060018101905061369c565b505050505050565b600060e0820190506136e6600083018461367a565b92915050565b600081519050919050565b600082825260208201905092915050565b60005b8381101561372657808201518184015260208101905061370b565b60008484015250505050565b6000601f19601f8301169050919050565b600061374e826136ec565b61375881856136f7565b9350613768818560208601613708565b61377181613732565b840191505092915050565b600060208201905081810360008301526137968184613743565b905092915050565b6000819050919050565b6137b18161379e565b81146137bc57600080fd5b50565b6000813590506137ce816137a8565b92915050565b6000602082840312156137ea576137e9613553565b5b60006137f8848285016137bf565b91505092915050565b600073ffffffffffffffffffffffffffffffffffffffff82169050919050565b600061382c82613801565b9050919050565b61383c81613821565b82525050565b60006020820190506138576000830184613833565b92915050565b61386681613821565b811461387157600080fd5b50565b6000813590506138838161385d565b92915050565b600080604083850312156138a05761389f613553565b5b60006138ae85828601613874565b92505060206138bf858286016137bf565b9150509250929050565b6000602082840312156138df576138de613553565b5b60006138ed84828501613874565b91505092915050565b600060ff82169050919050565b61390c816138f6565b82525050565b60006020820190506139276000830184613903565b92915050565b6139368161379e565b82525050565b6000602082019050613951600083018461392d565b92915050565b600081519050919050565b600082825260208201905092915050565b6000819050602082019050919050565b61398c816138f6565b82525050565b600061399e8383613983565b60208301905092915050565b6000602082019050919050565b60006139c282613957565b6139cc8185613962565b93506139d783613973565b8060005b83811015613a085781516139ef8882613992565b97506139fa836139aa565b9250506001810190506139db565b5085935050505092915050565b60006020820190508181036000830152613a2f81846139b7565b905092915050565b600080600060608486031215613a5057613a4f613553565b5b6000613a5e86828701613874565b9350506020613a6f86828701613874565b9250506040613a80868287016137bf565b9150509250925092565b600080fd5b600080fd5b7f4e487b7100000000000000000000000000000000000000000000000000000000600052604160045260246000fd5b613acc82613732565b810181811067ffffffffffffffff82111715613aeb57613aea613a94565b5b80604052505050565b6000613afe613549565b9050613b0a8282613ac3565b919050565b600067ffffffffffffffff821115613b2a57613b29613a94565b5b613b3382613732565b9050602081019050919050565b82818337600083830152505050565b6000613b62613b5d84613b0f565b613af4565b905082815260208101848484011115613b7e57613b7d613a8f565b5b613b89848285613b40565b509392505050565b600082601f830112613ba657613ba5613a8a565b5b8135613bb6848260208601613b4f565b91505092915050565b600060208284031215613bd557613bd4613553565b5b600082013567ffffffffffffffff811115613bf357613bf2613558565b5b613bff84828501613b91565b91505092915050565b600063ffffffff82169050919050565b613c2181613c08565b82525050565b6000606082019050613c3c6000830186613903565b613c496020830185613c18565b613c566040830184613833565b949350505050565b613c67816135e2565b8114613c7257600080fd5b50565b600081359050613c8481613c5e565b92915050565b60008060408385031215613ca157613ca0613553565b5b6000613caf85828601613874565b9250506020613cc085828601613c75565b9150509250929050565b600067ffffffffffffffff821115613ce557613ce4613a94565b5b613cee82613732565b9050602081019050919050565b6000613d0e613d0984613cca565b613af4565b905082815260208101848484011115613d2a57613d29613a8f565b5b613d35848285613b40565b509392505050565b600082601f830112613d5257613d51613a8a565b5b8135613d62848260208601613cfb565b91505092915050565b60008060008060808587031215613d8557613d84613553565b5b6000613d9387828801613874565b9450506020613da487828801613874565b9350506040613db5878288016137bf565b925050606085013567ffffffffffffffff811115613dd657613dd5613558565b5b613de287828801613d3d565b91505092959194509250565b613df7816138f6565b8114613e0257600080fd5b50565b600081359050613e1481613dee565b92915050565b60008060408385031215613e3157613e30613553565b5b6000613e3f85828601613e05565b925050602083013567ffffffffffffffff811115613e6057613e5f613558565b5b613e6c85828601613b91565b9150509250929050565b600060208284031215613e8c57613e8b613553565b5b6000613e9a84828501613e05565b91505092915050565b600067ffffffffffffffff821115613ebe57613ebd613a94565b5b602082029050919050565b600080fd5b6000613ee1613edc84613ea3565b613af4565b90508060208402830185811115613efb57613efa613ec9565b5b835b81811015613f4257803567ffffffffffffffff811115613f2057613f1f613a8a565b5b808601613f2d8982613b91565b85526020850194505050602081019050613efd565b5050509392505050565b600082601f830112613f6157613f60613a8a565b5b6007613f6e848285613ece565b91505092915050565b600060208284031215613f8d57613f8c613553565b5b600082013567ffffffffffffffff811115613fab57613faa613558565b5b613fb784828501613f4c565b91505092915050565b60008060408385031215613fd757613fd6613553565b5b6000613fe585828601613874565b9250506020613ff685828601613874565b9150509250929050565b7f4e487b7100000000000000000000000000000000000000000000000000000000600052602260045260246000fd5b6000600282049050600182168061404757607f821691505b60208210810361405a57614059614000565b5b50919050565b7f4e487b7100000000000000000000000000000000000000000000000000000000600052603260045260246000fd5b7f4e487b7100000000000000000000000000000000000000000000000000000000600052601160045260246000fd5b60006140c9826138f6565b915060ff82036140dc576140db61408f565b5b600182019050919050565b60006060820190506140fc6000830186613833565b614109602083018561392d565b6141166040830184613833565b949350505050565b7f546f6b656e20646f6573206e6f74206578697374000000000000000000000000600082015250565b60006141546014836136f7565b915061415f8261411e565b602082019050919050565b6000602082019050818103600083015261418381614147565b9050919050565b600081905092915050565b60008190508160005260206000209050919050565b600081546141b78161402f565b6141c1818661418a565b945060018216600081146141dc57600181146141f157614224565b60ff1983168652811515820286019350614224565b6141fa85614195565b60005b8381101561421c578154818901526001820191506020810190506141fd565b838801955050505b50505092915050565b600061423982856141aa565b915061424582846141aa565b91508190509392505050565b60006020601f8301049050919050565b600082821b905092915050565b60006008830261429e7fffffffffffffffffffffffffffffffffffffffffffffffffffffffffffffffff82614261565b6142a88683614261565b95508019841693508086168417925050509392505050565b6000819050919050565b60006142e56142e06142db8461379e565b6142c0565b61379e565b9050919050565b6000819050919050565b6142ff836142ca565b61431361430b826142ec565b84845461426e565b825550505050565b600090565b61432861431b565b6143338184846142f6565b505050565b5b818110156143575761434c600082614320565b600181019050614339565b5050565b601f82111561439c5761436d81614195565b61437684614251565b81016020851015614385578190505b61439961439185614251565b830182614338565b50505b505050565b600082821c905092915050565b60006143bf600019846008026143a1565b1980831691505092915050565b60006143d883836143ae565b9150826002028217905092915050565b6143f1826136ec565b67ffffffffffffffff81111561440a57614409613a94565b5b614414825461402f565b61441f82828561435b565b600060209050601f8311600181146144525760008415614440578287015190505b61444a85826143cc565b8655506144b2565b601f19841661446086614195565b60005b8281101561448857848901518255600182019150602085019450602081019050614463565b868310156144a557848901516144a1601f8916826143ae565b8355505b6001600288020188555050505b505050505050565b7f496e73756666696369656e74207061796d656e74000000000000000000000000600082015250565b60006144f06014836136f7565b91506144fb826144ba565b602082019050919050565b6000602082019050818103600083015261451f816144e3565b9050919050565b6000819050919050565b61454161453c8261379e565b614526565b82525050565b60008160601b9050919050565b600061455f82614547565b9050919050565b600061457182614554565b9050919050565b61458961458482613821565b614566565b82525050565b600061459b8287614530565b6020820191506145ab8286614530565b6020820191506145bb8285614578565b6014820191506145cb8284614530565b60208201915081905095945050505050565b7f4e487b7100000000000000000000000000000000000000000000000000000000600052601260045260246000fd5b60006146178261379e565b91506146228361379e565b925082614632576146316145dd565b5b828206905092915050565b6000815461464a8161402f565b61465481866136f7565b9450600182166000811461466f5760018114614685576146b8565b60ff1983168652811515602002860193506146b8565b61468e85614195565b60005b838110156146b057815481890152600182019150602081019050614691565b808801955050505b50505092915050565b60006040820190506146d66000830185613903565b81810360208301526146e8818461463d565b90509392505050565b7f496e76616c696420666f7274756e652074797065000000000000000000000000600082015250565b60006147276014836136f7565b9150614732826146f1565b602082019050919050565b600060208201905081810360008301526147568161471a565b9050919050565b7f7b226e616d65223a224f6d696b756a6920230000000000000000000000000000600082015250565b600061479360128361418a565b915061479e8261475d565b601282019050919050565b60006147b4826136ec565b6147be818561418a565b93506147ce818560208601613708565b80840191505092915050565b7f222c226465736372697074696f6e223a22000000000000000000000000000000600082015250565b600061481060118361418a565b915061481b826147da565b601182019050919050565b7f222c22696d616765223a22000000000000000000000000000000000000000000600082015250565b600061485c600b8361418a565b915061486782614826565b600b82019050919050565b7f222c2261747472696275746573223a5b00000000000000000000000000000000600082015250565b60006148a860108361418a565b91506148b382614872565b601082019050919050565b7f7b2274726169745f74797065223a22466f7274756e65222c2276616c7565223a60008201527f2200000000000000000000000000000000000000000000000000000000000000602082015250565b600061491a60218361418a565b9150614925826148be565b602182019050919050565b7f227d2c0000000000000000000000000000000000000000000000000000000000600082015250565b600061496660038361418a565b915061497182614930565b600382019050919050565b7f7b2274726169745f74797065223a22526172697479222c2276616c7565223a22600082015250565b60006149b260208361418a565b91506149bd8261497c565b602082019050919050565b7f7b2274726169745f74797065223a2254696d657374616d70222c2276616c756560008201527f223a000000000000000000000000000000000000000000000000000000000000602082015250565b6000614a2460228361418a565b9150614a2f826149c8565b602282019050919050565b7f7d2c000000000000000000000000000000000000000000000000000000000000600082015250565b6000614a7060028361418a565b9150614a7b82614a3a565b600282019050919050565b7f7b2274726169745f74797065223a22447261776572222c2276616c7565223a22600082015250565b6000614abc60208361418a565b9150614ac782614a86565b602082019050919050565b7f227d000000000000000000000000000000000000000000000000000000000000600082015250565b6000614b0860028361418a565b9150614b1382614ad2565b600282019050919050565b7f5d7d000000000000000000000000000000000000000000000000000000000000600082015250565b6000614b5460028361418a565b9150614b5f82614b1e565b600282019050919050565b6000614b7582614786565b9150614b81828a6147a9565b9150614b8c82614803565b9150614b9882896141aa565b9150614ba38261484f565b9150614baf82886147a9565b9150614bba8261489b565b9150614bc58261490d565b9150614bd182876141aa565b9150614bdc82614959565b9150614be7826149a5565b9150614bf382866147a9565b9150614bfe82614959565b9150614c0982614a17565b9150614c1582856147a9565b9150614c2082614a63565b9150614c2b82614aaf565b9150614c3782846147a9565b9150614c4282614afb565b9150614c4d82614b47565b915081905098975050505050505050565b7f646174613a6170706c69636174696f6e2f6a736f6e3b6261736536342c000000600082015250565b6000614c94601d8361418a565b9150614c9f82614c5e565b601d82019050919050565b6000614cb582614c87565b9150614cc182846147a9565b915081905092915050565b6000614cd78261379e565b9150614ce28361379e565b9250828203905081811115614cfa57614cf961408f565b5b92915050565b600081519050919050565b600082825260208201905092915050565b6000614d2782614d00565b614d318185614d0b565b9350614d41818560208601613708565b614d4a81613732565b840191505092915050565b6000608082019050614d6a6000830187613833565b614d776020830186613833565b614d84604083018561392d565b8181036060830152614d968184614d1c565b905095945050505050565b600081519050614db081613589565b92915050565b600060208284031215614dcc57614dcb613553565b5b6000614dda84828501614da1565b91505092915050565b6000614dee8261379e565b91507fffffffffffffffffffffffffffffffffffffffffffffffffffffffffffffffff8203614e2057614e1f61408f565b5b600182019050919050565b6000614e368261379e565b9150614e418361379e565b925082614e5157614e506145dd565b5b828204905092915050565b6000614e678261379e565b9150614e728361379e565b9250828201905080821115614e8a57614e8961408f565b5b92915050565b6000614e9c8284614578565b60148201915081905092915050565b6000614eb68261379e565b9150614ec18361379e565b9250828202614ecf8161379e565b91508282048414831517614ee657614ee561408f565b5b5092915050565b6000604082019050614f026000830185613833565b614f0f602083018461392d565b939250505056fe4142434445464748494a4b4c4d4e4f505152535455565758595a6162636465666768696a6b6c6d6e6f707172737475767778797a303132333435363738392b2fa2646970667358221220c87fcd0386efcd547315589806ede37b3c3f75ff20b0890d1ea6f3afd87cd38b64736f6c634300081b003350617469656e6365206272696e677320746865207377656574657374207265776172647321536d616c6c20626c657373696e6773206c65616420746f20626967676572206f70706f7274756e6974696573216261667962656964327564613568616d6b7a62346c73653572633768746362636a66666f376467756b6a6f34626a71646a7576686534346767376145787472616f7264696e61727920666f7274756e6520617761697473212045766572797468696e67207475726e7320746f20676f6c6421496e6372656469626c65206c75636b2120596f757220647265616d7320657863656564206578706563746174696f6e732162616679626569646c7974373375636a6d74637a727463766463666b73756c676670783567646167326a37366871646f336b637064783276327665476f6f64207468696e677320636f6d6520746f2074686f73652077686f20776169742142616c616e636564206c75636b206272696e6773207374656164792070726f6772657373216261667962656968733561757578777534346634676571776867797a646f616d64676171786a367762746377733437667436346d61796178736365626166796265696565326b637a6a677a73656171616e356c6465776c7363686677616c65787a79676568657775366a6f656f77326574626b65726168747470733a2f2f676174657761792e70696e6174612e636c6f75642f697066732f62616679626569686d6e74713372786864356a366e786b366a3376626c7a713672686c6f697a326972636d6477673234337261637a7937716c61756261667962656963617274346f656736677868716769766d356b6e626f6f716e346278613337346a7067373361716465687a3233347a683671756d6261666b72656967696f337532356732706762666f33616a6f68793571636964613734616b666c6e3374746c786834343378676a7933336f73706d477265617420666f7274756e6520736d696c65732075706f6e20796f7520746f64617921",
  "linkReferences": {},
  "deployedLinkReferences": {}
}