{
  "_format": "hh-sol-artifact-1",
  "contractName": "UpdatedIPFSOmikujiNFT",
  "sourceName": "contracts/UpdatedIPFSOmikujiNFT.sol",
  "abi": [
    {
      "inputs": [],
      "stateMutability": "nonpayable",
      "type": "constructor"
    },
    {
      "inputs": [
        {
          "internalType": "address",
          "name": "sender",
          "type": "address"
        },
        {
          "internalType": "uint256",
          "name": "tokenId",
          "type": "uint256"
        },
        {
          "internalType": "address",
          "name": "owner",
          "type": "address"
        }
      ],
      "name": "ERC721IncorrectOwner",
      "type": "error"
    },
    {
      "inputs": [
        {
          "internalType": "address",
          "name": "operator",
          "type": "address"
        },
        {
          "internalType": "uint256",
          "name": "tokenId",
          "type": "uint256"
        }
      ],
      "name": "ERC721InsufficientApproval",
      "type": "error"
    },
    {
      "inputs": [
        {
          "internalType": "address",
          "name": "approver",
          "type": "address"
        }
      ],
      "name": "ERC721InvalidApprover",
      "type": "error"
    },
    {
      "inputs": [
        {
          "internalType": "address",
          "name": "operator",
          "type": "address"
        }
      ],
      "name": "ERC721InvalidOperator",
      "type": "error"
    },
    {
      "inputs": [
        {
          "internalType": "address",
          "name": "owner",
          "type": "address"
        }
      ],
      "name": "ERC721InvalidOwner",
      "type": "error"
    },
    {
      "inputs": [
        {
          "internalType": "address",
          "name": "receiver",
          "type": "address"
        }
      ],
      "name": "ERC721InvalidReceiver",
      "type": "error"
    },
    {
      "inputs": [
        {
          "internalType": "address",
          "name": "sender",
          "type": "address"
        }
      ],
      "name": "ERC721InvalidSender",
      "type": "error"
    },
    {
      "inputs": [
        {
          "internalType": "uint256",
          "name": "tokenId",
          "type": "uint256"
        }
      ],
      "name": "ERC721NonexistentToken",
      "type": "error"
    },
    {
      "inputs": [
        {
          "internalType": "address",
          "name": "owner",
          "type": "address"
        }
      ],
      "name": "OwnableInvalidOwner",
      "type": "error"
    },
    {
      "inputs": [
        {
          "internalType": "address",
          "name": "account",
          "type": "address"
        }
      ],
      "name": "OwnableUnauthorizedAccount",
      "type": "error"
    },
    {
      "anonymous": false,
      "inputs": [
        {
          "indexed": true,
          "internalType": "address",
          "name": "owner",
          "type": "address"
        },
        {
          "indexed": true,
          "internalType": "address",
          "name": "approved",
          "type": "address"
        },
        {
          "indexed": true,
          "internalType": "uint256",
          "name": "tokenId",
          "type": "uint256"
        }
      ],
      "name": "Approval",
      "type": "event"
    },
    {
      "anonymous": false,
      "inputs": [
        {
          "indexed": true,
          "internalType": "address",
          "name": "owner",
          "type": "address"
        },
        {
          "indexed": true,
          "internalType": "address",
          "name": "operator",
          "type": "address"
        },
        {
          "indexed": false,
          "internalType": "bool",
          "name": "approved",
          "type": "bool"
        }
      ],
      "name": "ApprovalForAll",
      "type": "event"
    },
    {
      "anonymous": false,
      "inputs": [
        {
          "indexed": true,
          "internalType": "address",
          "name": "drawer",
          "type": "address"
        },
        {
          "indexed": true,
          "internalType": "uint256",
          "name": "tokenId",
          "type": "uint256"
        },
        {
          "indexed": false,
          "internalType": "uint8",
          "name": "result",
          "type": "uint8"
        },
        {
          "indexed": false,
          "internalType": "string",
          "name": "message",
          "type": "string"
        }
      ],
      "name": "OmikujiDrawn",
      "type": "event"
    },
    {
      "anonymous": false,
      "inputs": [
        {
          "indexed": true,
          "internalType": "address",
          "name": "previousOwner",
          "type": "address"
        },
        {
          "indexed": true,
          "internalType": "address",
          "name": "newOwner",
          "type": "address"
        }
      ],
      "name": "OwnershipTransferred",
      "type": "event"
    },
    {
      "anonymous": false,
      "inputs": [
        {
          "indexed": true,
          "internalType": "address",
          "name": "burner",
          "type": "address"
        },
        {
          "indexed": false,
          "internalType": "uint256[]",
          "name": "tokenIds",
          "type": "uint256[]"
        },
        {
          "indexed": false,
          "internalType": "uint8",
          "name": "fortuneType",
          "type": "uint8"
        },
        {
          "indexed": false,
          "internalType": "uint256",
          "name": "freeMintGranted",
          "type": "uint256"
        }
      ],
      "name": "TokensBurned",
      "type": "event"
    },
    {
      "anonymous": false,
      "inputs": [
        {
          "indexed": true,
          "internalType": "address",
          "name": "from",
          "type": "address"
        },
        {
          "indexed": true,
          "internalType": "address",
          "name": "to",
          "type": "address"
        },
        {
          "indexed": true,
          "internalType": "uint256",
          "name": "tokenId",
          "type": "uint256"
        }
      ],
      "name": "Transfer",
      "type": "event"
    },
    {
      "inputs": [
        {
          "internalType": "address",
          "name": "to",
          "type": "address"
        },
        {
          "internalType": "uint256",
          "name": "tokenId",
          "type": "uint256"
        }
      ],
      "name": "approve",
      "outputs": [],
      "stateMutability": "nonpayable",
      "type": "function"
    },
    {
      "inputs": [
        {
          "internalType": "address",
          "name": "owner",
          "type": "address"
        }
      ],
      "name": "balanceOf",
      "outputs": [
        {
          "internalType": "uint256",
          "name": "",
          "type": "uint256"
        }
      ],
      "stateMutability": "view",
      "type": "function"
    },
    {
      "inputs": [
        {
          "internalType": "uint256[]",
          "name": "tokenIds",
          "type": "uint256[]"
        }
      ],
      "name": "burnForReroll",
      "outputs": [],
      "stateMutability": "nonpayable",
      "type": "function"
    },
    {
      "inputs": [
        {
          "internalType": "address",
          "name": "user",
          "type": "address"
        }
      ],
      "name": "canBurnForReroll",
      "outputs": [
        {
          "internalType": "bool",
          "name": "",
          "type": "bool"
        },
        {
          "internalType": "uint8",
          "name": "",
          "type": "uint8"
        },
        {
          "internalType": "uint256",
          "name": "",
          "type": "uint256"
        }
      ],
      "stateMutability": "view",
      "type": "function"
    },
    {
      "inputs": [
        {
          "internalType": "address",
          "name": "",
          "type": "address"
        }
      ],
      "name": "canDrawOmikuji",
      "outputs": [
        {
          "internalType": "bool",
          "name": "",
          "type": "bool"
        }
      ],
      "stateMutability": "pure",
      "type": "function"
    },
    {
      "inputs": [
        {
          "internalType": "address",
          "name": "user",
          "type": "address"
        }
      ],
      "name": "checkSelfMintCompletion",
      "outputs": [
        {
          "internalType": "bool",
          "name": "",
          "type": "bool"
        }
      ],
      "stateMutability": "view",
      "type": "function"
    },
    {
      "inputs": [],
      "name": "drawOmikuji",
      "outputs": [
        {
          "internalType": "uint256",
          "name": "",
          "type": "uint256"
        }
      ],
      "stateMutability": "payable",
      "type": "function"
    },
    {
      "inputs": [
        {
          "internalType": "uint8",
          "name": "",
          "type": "uint8"
        }
      ],
      "name": "fortuneImages",
      "outputs": [
        {
          "internalType": "string",
          "name": "",
          "type": "string"
        }
      ],
      "stateMutability": "view",
      "type": "function"
    },
    {
      "inputs": [
        {
          "internalType": "uint256",
          "name": "",
          "type": "uint256"
        }
      ],
      "name": "fortunes",
      "outputs": [
        {
          "internalType": "uint8",
          "name": "result",
          "type": "uint8"
        },
        {
          "internalType": "uint32",
          "name": "timestamp",
          "type": "uint32"
        },
        {
          "internalType": "address",
          "name": "drawer",
          "type": "address"
        }
      ],
      "stateMutability": "view",
      "type": "function"
    },
    {
      "inputs": [
        {
          "internalType": "address",
          "name": "",
          "type": "address"
        }
      ],
      "name": "freeMints",
      "outputs": [
        {
          "internalType": "uint256",
          "name": "",
          "type": "uint256"
        }
      ],
      "stateMutability": "view",
      "type": "function"
    },
    {
      "inputs": [
        {
          "internalType": "uint256",
          "name": "tokenId",
          "type": "uint256"
        }
      ],
      "name": "getApproved",
      "outputs": [
        {
          "internalType": "address",
          "name": "",
          "type": "address"
        }
      ],
      "stateMutability": "view",
      "type": "function"
    },
    {
      "inputs": [
        {
          "internalType": "uint256",
          "name": "tokenId",
          "type": "uint256"
        }
      ],
      "name": "getFortuneData",
      "outputs": [
        {
          "internalType": "uint8",
          "name": "result",
          "type": "uint8"
        },
        {
          "internalType": "uint32",
          "name": "timestamp",
          "type": "uint32"
        },
        {
          "internalType": "address",
          "name": "drawer",
          "type": "address"
        }
      ],
      "stateMutability": "view",
      "type": "function"
    },
    {
      "inputs": [
        {
          "internalType": "uint256",
          "name": "tokenId",
          "type": "uint256"
        }
      ],
      "name": "getFortuneImageUrl",
      "outputs": [
        {
          "internalType": "string",
          "name": "",
          "type": "string"
        }
      ],
      "stateMutability": "view",
      "type": "function"
    },
    {
      "inputs": [
        {
          "internalType": "uint256",
          "name": "tokenId",
          "type": "uint256"
        }
      ],
      "name": "getFortuneMessage",
      "outputs": [
        {
          "internalType": "string",
          "name": "",
          "type": "string"
        }
      ],
      "stateMutability": "view",
      "type": "function"
    },
    {
      "inputs": [
        {
          "internalType": "address",
          "name": "owner",
          "type": "address"
        },
        {
          "internalType": "uint8",
          "name": "fortuneType",
          "type": "uint8"
        }
      ],
      "name": "getOwnedTokensByType",
      "outputs": [
        {
          "internalType": "uint256[]",
          "name": "",
          "type": "uint256[]"
        }
      ],
      "stateMutability": "view",
      "type": "function"
    },
    {
      "inputs": [],
      "name": "getProbabilities",
      "outputs": [
        {
          "internalType": "uint16[7]",
          "name": "",
          "type": "uint16[7]"
        }
      ],
      "stateMutability": "pure",
      "type": "function"
    },
    {
      "inputs": [
        {
          "internalType": "address",
          "name": "user",
          "type": "address"
        }
      ],
      "name": "getSelfMintProgress",
      "outputs": [
        {
          "internalType": "uint8",
          "name": "",
          "type": "uint8"
        }
      ],
      "stateMutability": "view",
      "type": "function"
    },
    {
      "inputs": [
        {
          "internalType": "address",
          "name": "user",
          "type": "address"
        }
      ],
      "name": "getSelfMintedFortunes",
      "outputs": [
        {
          "internalType": "uint8[]",
          "name": "",
          "type": "uint8[]"
        }
      ],
      "stateMutability": "view",
      "type": "function"
    },
    {
      "inputs": [
        {
          "internalType": "address",
          "name": "",
          "type": "address"
        }
      ],
      "name": "getTimeUntilNextDraw",
      "outputs": [
        {
          "internalType": "uint256",
          "name": "",
          "type": "uint256"
        }
      ],
      "stateMutability": "pure",
      "type": "function"
    },
    {
      "inputs": [
        {
          "internalType": "address",
          "name": "",
          "type": "address"
        }
      ],
      "name": "hasCompletedSelfMint",
      "outputs": [
        {
          "internalType": "bool",
          "name": "",
          "type": "bool"
        }
      ],
      "stateMutability": "view",
      "type": "function"
    },
    {
      "inputs": [
        {
          "internalType": "address",
          "name": "owner",
          "type": "address"
        },
        {
          "internalType": "address",
          "name": "operator",
          "type": "address"
        }
      ],
      "name": "isApprovedForAll",
      "outputs": [
        {
          "internalType": "bool",
          "name": "",
          "type": "bool"
        }
      ],
      "stateMutability": "view",
      "type": "function"
    },
    {
      "inputs": [],
      "name": "name",
      "outputs": [
        {
          "internalType": "string",
          "name": "",
          "type": "string"
        }
      ],
      "stateMutability": "view",
      "type": "function"
    },
    {
      "inputs": [],
      "name": "omikujiPrice",
      "outputs": [
        {
          "internalType": "uint256",
          "name": "",
          "type": "uint256"
        }
      ],
      "stateMutability": "view",
      "type": "function"
    },
    {
      "inputs": [],
      "name": "owner",
      "outputs": [
        {
          "internalType": "address",
          "name": "",
          "type": "address"
        }
      ],
      "stateMutability": "view",
      "type": "function"
    },
    {
      "inputs": [
        {
          "internalType": "uint256",
          "name": "tokenId",
          "type": "uint256"
        }
      ],
      "name": "ownerOf",
      "outputs": [
        {
          "internalType": "address",
          "name": "",
          "type": "address"
        }
      ],
      "stateMutability": "view",
      "type": "function"
    },
    {
      "inputs": [],
      "name": "remainingSupply",
      "outputs": [
        {
          "internalType": "uint256",
          "name": "",
          "type": "uint256"
        }
      ],
      "stateMutability": "view",
      "type": "function"
    },
    {
      "inputs": [],
      "name": "renounceOwnership",
      "outputs": [],
      "stateMutability": "nonpayable",
      "type": "function"
    },
    {
      "inputs": [
        {
          "internalType": "address",
          "name": "from",
          "type": "address"
        },
        {
          "internalType": "address",
          "name": "to",
          "type": "address"
        },
        {
          "internalType": "uint256",
          "name": "tokenId",
          "type": "uint256"
        }
      ],
      "name": "safeTransferFrom",
      "outputs": [],
      "stateMutability": "nonpayable",
      "type": "function"
    },
    {
      "inputs": [
        {
          "internalType": "address",
          "name": "from",
          "type": "address"
        },
        {
          "internalType": "address",
          "name": "to",
          "type": "address"
        },
        {
          "internalType": "uint256",
          "name": "tokenId",
          "type": "uint256"
        },
        {
          "internalType": "bytes",
          "name": "data",
          "type": "bytes"
        }
      ],
      "name": "safeTransferFrom",
      "outputs": [],
      "stateMutability": "nonpayable",
      "type": "function"
    },
    {
      "inputs": [
        {
          "internalType": "address",
          "name": "",
          "type": "address"
        },
        {
          "internalType": "uint256",
          "name": "",
          "type": "uint256"
        }
      ],
      "name": "selfMintedFortunes",
      "outputs": [
        {
          "internalType": "uint8",
          "name": "",
          "type": "uint8"
        }
      ],
      "stateMutability": "view",
      "type": "function"
    },
    {
      "inputs": [
        {
          "internalType": "string[7]",
          "name": "ipfsHashes",
          "type": "string[7]"
        }
      ],
      "name": "setAllFortuneImageHashes",
      "outputs": [],
      "stateMutability": "nonpayable",
      "type": "function"
    },
    {
      "inputs": [
        {
          "internalType": "address",
          "name": "operator",
          "type": "address"
        },
        {
          "internalType": "bool",
          "name": "approved",
          "type": "bool"
        }
      ],
      "name": "setApprovalForAll",
      "outputs": [],
      "stateMutability": "nonpayable",
      "type": "function"
    },
    {
      "inputs": [
        {
          "internalType": "string",
          "name": "baseURI",
          "type": "string"
        }
      ],
      "name": "setBaseURI",
      "outputs": [],
      "stateMutability": "nonpayable",
      "type": "function"
    },
    {
      "inputs": [
        {
          "internalType": "uint8",
          "name": "fortuneType",
          "type": "uint8"
        },
        {
          "internalType": "string",
          "name": "ipfsHash",
          "type": "string"
        }
      ],
      "name": "setFortuneImageHash",
      "outputs": [],
      "stateMutability": "nonpayable",
      "type": "function"
    },
    {
      "inputs": [
        {
          "internalType": "uint256",
          "name": "_price",
          "type": "uint256"
        }
      ],
      "name": "setPrice",
      "outputs": [],
      "stateMutability": "nonpayable",
      "type": "function"
    },
    {
      "inputs": [
        {
          "internalType": "bytes4",
          "name": "interfaceId",
          "type": "bytes4"
        }
      ],
      "name": "supportsInterface",
      "outputs": [
        {
          "internalType": "bool",
          "name": "",
          "type": "bool"
        }
      ],
      "stateMutability": "view",
      "type": "function"
    },
    {
      "inputs": [],
      "name": "symbol",
      "outputs": [
        {
          "internalType": "string",
          "name": "",
          "type": "string"
        }
      ],
      "stateMutability": "view",
      "type": "function"
    },
    {
      "inputs": [
        {
          "internalType": "uint256",
          "name": "tokenId",
          "type": "uint256"
        }
      ],
      "name": "tokenURI",
      "outputs": [
        {
          "internalType": "string",
          "name": "",
          "type": "string"
        }
      ],
      "stateMutability": "view",
      "type": "function"
    },
    {
      "inputs": [],
      "name": "totalSupply",
      "outputs": [
        {
          "internalType": "uint256",
          "name": "",
          "type": "uint256"
        }
      ],
      "stateMutability": "view",
      "type": "function"
    },
    {
      "inputs": [
        {
          "internalType": "address",
          "name": "from",
          "type": "address"
        },
        {
          "internalType": "address",
          "name": "to",
          "type": "address"
        },
        {
          "internalType": "uint256",
          "name": "tokenId",
          "type": "uint256"
        }
      ],
      "name": "transferFrom",
      "outputs": [],
      "stateMutability": "nonpayable",
      "type": "function"
    },
    {
      "inputs": [
        {
          "internalType": "address",
          "name": "newOwner",
          "type": "address"
        }
      ],
      "name": "transferOwnership",
      "outputs": [],
      "stateMutability": "nonpayable",
      "type": "function"
    },
    {
      "inputs": [],
      "name": "withdraw",
      "outputs": [],
      "stateMutability": "nonpayable",
      "type": "function"
    }
  ],
  "bytecode": "0x608060405267016345785d8a00006008556040518060800160405280605e8152602001615dad605e913960099081610037919061099b565b506040518060e00160405280604051806060016040528060378152602001615bd6603791398152602001604051806060016040528060318152602001615c0d603191398152602001604051806060016040528060248152602001615e46602491398152602001604051806060016040528060258152602001615c9c6025913981526020016040518060600160405280602d8152602001615b6e602d91398152602001604051806060016040528060238152602001615c79602391398152602001604051806060016040528060258152602001615b4960259139815250600f90600761012392919061067e565b506040518060e001604052806040518060400160405280601a81526020017f537570657220556c74726120477265617420426c657373696e6700000000000081525081526020016040518060400160405280601481526020017f556c74726120477265617420426c657373696e6700000000000000000000000081525081526020016040518060400160405280600e81526020017f477265617420426c657373696e6700000000000000000000000000000000000081525081526020016040518060400160405280600f81526020017f4d6964646c6520426c657373696e67000000000000000000000000000000000081525081526020016040518060400160405280600e81526020017f536d616c6c20426c657373696e6700000000000000000000000000000000000081525081526020016040518060400160405280600881526020017f426c657373696e6700000000000000000000000000000000000000000000000081525081526020016040518060400160405280600e81526020017f4d696e6f7220426c657373696e6700000000000000000000000000000000000081525081525060169060076102da92919061067e565b503480156102e757600080fd5b50336040518060400160405280601b81526020017f4f6d696b756a6920536872696e65206f6e204d6f6e6164204e465400000000008152506040518060400160405280600781526020017f4f4d494b554a49000000000000000000000000000000000000000000000000008152508160009081610364919061099b565b508060019081610374919061099b565b505050600073ffffffffffffffffffffffffffffffffffffffff168173ffffffffffffffffffffffffffffffffffffffff16036103e95760006040517f1e4fbdf70000000000000000000000000000000000000000000000000000000081526004016103e09190610aae565b60405180910390fd5b6103f88161040c60201b60201c565b506104076104d260201b60201c565b610ac9565b6000600660009054906101000a900473ffffffffffffffffffffffffffffffffffffffff16905081600660006101000a81548173ffffffffffffffffffffffffffffffffffffffff021916908373ffffffffffffffffffffffffffffffffffffffff1602179055508173ffffffffffffffffffffffffffffffffffffffff168173ffffffffffffffffffffffffffffffffffffffff167f8be0079c531659141344cd1fd0a4f28419497f9722a3daafe3b4186f6b6457e060405160405180910390a35050565b6040518060600160405280603b8152602001615b9b603b9139600a60008060ff168152602001908152602001600020908161050d919061099b565b506040518060600160405280603b8152602001615cc1603b9139600a6000600160ff168152602001908152602001600020908161054a919061099b565b506040518060600160405280603b8152602001615d72603b9139600a6000600260ff1681526020019081526020016000209081610587919061099b565b506040518060600160405280603b8152602001615d37603b9139600a6000600360ff16815260200190815260200160002090816105c4919061099b565b506040518060600160405280603b8152602001615e0b603b9139600a6000600460ff1681526020019081526020016000209081610601919061099b565b506040518060600160405280603b8152602001615c3e603b9139600a6000600560ff168152602001908152602001600020908161063e919061099b565b506040518060600160405280603b8152602001615cfc603b9139600a6000600660ff168152602001908152602001600020908161067b919061099b565b50565b82600781019282156106b9579160200282015b828111156106b85782518290816106a8919061099b565b5091602001919060010190610691565b5b5090506106c691906106ca565b5090565b5b808211156106ea57600081816106e191906106ee565b506001016106cb565b5090565b5080546106fa906107b4565b6000825580601f1061070c575061072b565b601f01602090049060005260206000209081019061072a919061072e565b5b50565b5b8082111561074757600081600090555060010161072f565b5090565b600081519050919050565b7f4e487b7100000000000000000000000000000000000000000000000000000000600052604160045260246000fd5b7f4e487b7100000000000000000000000000000000000000000000000000000000600052602260045260246000fd5b600060028204905060018216806107cc57607f821691505b6020821081036107df576107de610785565b5b50919050565b60008190508160005260206000209050919050565b60006020601f8301049050919050565b600082821b905092915050565b6000600883026108477fffffffffffffffffffffffffffffffffffffffffffffffffffffffffffffffff8261080a565b610851868361080a565b95508019841693508086168417925050509392505050565b6000819050919050565b6000819050919050565b600061089861089361088e84610869565b610873565b610869565b9050919050565b6000819050919050565b6108b28361087d565b6108c66108be8261089f565b848454610817565b825550505050565b600090565b6108db6108ce565b6108e68184846108a9565b505050565b5b8181101561090a576108ff6000826108d3565b6001810190506108ec565b5050565b601f82111561094f57610920816107e5565b610929846107fa565b81016020851015610938578190505b61094c610944856107fa565b8301826108eb565b50505b505050565b600082821c905092915050565b600061097260001984600802610954565b1980831691505092915050565b600061098b8383610961565b9150826002028217905092915050565b6109a48261074b565b67ffffffffffffffff8111156109bd576109bc610756565b5b6109c782546107b4565b6109d282828561090e565b600060209050601f831160018114610a0557600084156109f3578287015190505b6109fd858261097f565b865550610a65565b601f198416610a13866107e5565b60005b82811015610a3b57848901518255600182019150602085019450602081019050610a16565b86831015610a585784890151610a54601f891682610961565b8355505b6001600288020188555050505b505050505050565b600073ffffffffffffffffffffffffffffffffffffffff82169050919050565b6000610a9882610a6d565b9050919050565b610aa881610a8d565b82525050565b6000602082019050610ac36000830184610a9f565b92915050565b61507180610ad86000396000f3fe6080604052600436106102515760003560e01c80636d41d4fb11610139578063a22cb465116100b6578063cebd0e7f1161007a578063cebd0e7f14610963578063da0239a6146109a0578063db811e24146109cb578063e985e9c5146109f4578063f023145814610a31578063f2fde38b14610a7057610251565b8063a22cb4651461086e578063b88d4fde14610897578063c21d5061146108c0578063c351de69146108fd578063c87b56dd1461092657610251565b80638da5cb5b116100fd5780638da5cb5b146107755780639063ad04146107a057806391b7f5ed146107dd578063929cd8741461080657806395d89b411461084357610251565b80636d41d4fb1461066857806370a08231146106a5578063715018a6146106e25780637182736f146106f95780638c8005a31461073657610251565b80632d2c7b55116101d257806355f804b31161019657806355f804b31461052b578063581f0fb0146105545780635982773b146105725780635b96e7f4146105af5780636352211e146105ee57806368e68d1b1461062b57610251565b80632d2c7b55146104465780633ccfd60b1461048357806342842e0e1461049a5780634b39d64f146104c35780634ca8a9411461050057610251565b8063101e387611610219578063101e38761461034f57806318160ddd1461038c5780631a7766d2146103b75780631b18b526146103f457806323b872dd1461041d57610251565b806301ffc9a714610256578063062f7b8c1461029357806306fdde03146102be578063081812fc146102e9578063095ea7b314610326575b600080fd5b34801561026257600080fd5b5061027d60048036038101906102789190613681565b610a99565b60405161028a91906136c9565b60405180910390f35b34801561029f57600080fd5b506102a8610b7b565b6040516102b5919061379d565b60405180910390f35b3480156102ca57600080fd5b506102d3610be3565b6040516102e09190613848565b60405180910390f35b3480156102f557600080fd5b50610310600480360381019061030b91906138a0565b610c75565b60405161031d919061390e565b60405180910390f35b34801561033257600080fd5b5061034d60048036038101906103489190613955565b610c91565b005b34801561035b57600080fd5b5061037660048036038101906103719190613995565b610ca7565b60405161038391906139de565b60405180910390f35b34801561039857600080fd5b506103a1610e3d565b6040516103ae9190613a08565b60405180910390f35b3480156103c357600080fd5b506103de60048036038101906103d99190613995565b610e47565b6040516103eb9190613ae1565b60405180910390f35b34801561040057600080fd5b5061041b60048036038101906104169190613b68565b610f04565b005b34801561042957600080fd5b50610444600480360381019061043f9190613bb5565b6111de565b005b34801561045257600080fd5b5061046d600480360381019061046891906138a0565b6112e0565b60405161047a9190613848565b60405180910390f35b34801561048f57600080fd5b50610498611458565b005b3480156104a657600080fd5b506104c160048036038101906104bc9190613bb5565b6114b0565b005b3480156104cf57600080fd5b506104ea60048036038101906104e591906138a0565b6114d0565b6040516104f79190613848565b60405180910390f35b34801561050c57600080fd5b50610515611614565b6040516105229190613a08565b60405180910390f35b34801561053757600080fd5b50610552600480360381019061054d9190613d38565b61161a565b005b61055c611635565b6040516105699190613a08565b60405180910390f35b34801561057e57600080fd5b5061059960048036038101906105949190613995565b611a8d565b6040516105a691906136c9565b60405180910390f35b3480156105bb57600080fd5b506105d660048036038101906105d19190613995565b611a98565b6040516105e593929190613d81565b60405180910390f35b3480156105fa57600080fd5b50610615600480360381019061061091906138a0565b611bc6565b604051610622919061390e565b60405180910390f35b34801561063757600080fd5b50610652600480360381019061064d9190613955565b611bd8565b60405161065f91906139de565b60405180910390f35b34801561067457600080fd5b5061068f600480360381019061068a9190613995565b611c1b565b60405161069c9190613a08565b60405180910390f35b3480156106b157600080fd5b506106cc60048036038101906106c79190613995565b611c33565b6040516106d99190613a08565b60405180910390f35b3480156106ee57600080fd5b506106f7611ced565b005b34801561070557600080fd5b50610720600480360381019061071b9190613995565b611d01565b60405161072d91906136c9565b60405180910390f35b34801561074257600080fd5b5061075d600480360381019061075891906138a0565b611d13565b60405161076c93929190613dd7565b60405180910390f35b34801561078157600080fd5b5061078a611d7a565b604051610797919061390e565b60405180910390f35b3480156107ac57600080fd5b506107c760048036038101906107c29190613995565b611da4565b6040516107d491906136c9565b60405180910390f35b3480156107e957600080fd5b5061080460048036038101906107ff91906138a0565b611dc4565b005b34801561081257600080fd5b5061082d60048036038101906108289190613e3a565b611dd6565b60405161083a9190613f38565b60405180910390f35b34801561084f57600080fd5b50610858611fa3565b6040516108659190613848565b60405180910390f35b34801561087a57600080fd5b5061089560048036038101906108909190613f86565b612035565b005b3480156108a357600080fd5b506108be60048036038101906108b99190614067565b61204b565b005b3480156108cc57600080fd5b506108e760048036038101906108e29190613995565b612070565b6040516108f49190613a08565b60405180910390f35b34801561090957600080fd5b50610924600480360381019061091f91906140ea565b612077565b005b34801561093257600080fd5b5061094d600480360381019061094891906138a0565b6120f0565b60405161095a9190613848565b60405180910390f35b34801561096f57600080fd5b5061098a60048036038101906109859190614146565b61225e565b6040516109979190613848565b60405180910390f35b3480156109ac57600080fd5b506109b56122fe565b6040516109c29190613a08565b60405180910390f35b3480156109d757600080fd5b506109f260048036038101906109ed9190614242565b612333565b005b348015610a0057600080fd5b50610a1b6004803603810190610a16919061428b565b61239c565b604051610a2891906136c9565b60405180910390f35b348015610a3d57600080fd5b50610a586004803603810190610a5391906138a0565b612430565b604051610a6793929190613dd7565b60405180910390f35b348015610a7c57600080fd5b50610a976004803603810190610a929190613995565b612583565b005b60007f80ac58cd000000000000000000000000000000000000000000000000000000007bffffffffffffffffffffffffffffffffffffffffffffffffffffffff1916827bffffffffffffffffffffffffffffffffffffffffffffffffffffffff19161480610b6457507f5b5e139f000000000000000000000000000000000000000000000000000000007bffffffffffffffffffffffffffffffffffffffffffffffffffffffff1916827bffffffffffffffffffffffffffffffffffffffffffffffffffffffff1916145b80610b745750610b7382612609565b5b9050919050565b610b836135d1565b6040518060e00160405280603261ffff168152602001609661ffff1681526020016101f461ffff1681526020016103e861ffff1681526020016107d061ffff168152602001610bb861ffff168152602001610ce461ffff16815250905090565b606060008054610bf2906142fa565b80601f0160208091040260200160405190810160405280929190818152602001828054610c1e906142fa565b8015610c6b5780601f10610c4057610100808354040283529160200191610c6b565b820191906000526020600020905b815481529060010190602001808311610c4e57829003601f168201915b5050505050905090565b6000610c8082612673565b50610c8a826126fb565b9050919050565b610ca38282610c9e612738565b612740565b5050565b6000610cb16135f3565b6000600c60008573ffffffffffffffffffffffffffffffffffffffff1673ffffffffffffffffffffffffffffffffffffffff168152602001908152602001600020805480602002602001604051908101604052809291908181526020018280548015610d6257602002820191906000526020600020906000905b82829054906101000a900460ff1660ff1681526020019060010190602082600001049283019260010382029150808411610d2b5790505b5050505050905060005b8151811015610dea576007828281518110610d8a57610d8961432b565b5b602002602001015160ff161015610ddd57600183838381518110610db157610db061432b565b5b602002602001015160ff1660078110610dcd57610dcc61432b565b5b6020020190151590811515815250505b8080600101915050610d6c565b506000805b6007811015610e3157838160078110610e0b57610e0a61432b565b5b602002015115610e24578180610e2090614389565b9250505b8080600101915050610def565b50809350505050919050565b6000600754905090565b6060600c60008373ffffffffffffffffffffffffffffffffffffffff1673ffffffffffffffffffffffffffffffffffffffff168152602001908152602001600020805480602002602001604051908101604052809291908181526020018280548015610ef857602002820191906000526020600020906000905b82829054906101000a900460ff1660ff1681526020019060010190602082600001049283019260010382029150808411610ec15790505b50505050509050919050565b60038282905014610f4a576040517f08c379a0000000000000000000000000000000000000000000000000000000008152600401610f41906143fe565b60405180910390fd5b6000600b600084846000818110610f6457610f6361432b565b5b90506020020135815260200190815260200160002060000160009054906101000a900460ff16905060058160ff161480610fa1575060068160ff16145b610fe0576040517f08c379a0000000000000000000000000000000000000000000000000000000008152600401610fd790614490565b60405180910390fd5b60005b600381101561112e573373ffffffffffffffffffffffffffffffffffffffff166110258585848181106110195761101861432b565b5b90506020020135611bc6565b73ffffffffffffffffffffffffffffffffffffffff161461107b576040517f08c379a0000000000000000000000000000000000000000000000000000000008152600401611072906144fc565b60405180910390fd5b8160ff16600b60008686858181106110965761109561432b565b5b90506020020135815260200190815260200160002060000160009054906101000a900460ff1660ff16146110ff576040517f08c379a00000000000000000000000000000000000000000000000000000000081526004016110f69061458e565b60405180910390fd5b6111218484838181106111155761111461432b565b5b90506020020135612752565b8080600101915050610fe3565b50600e60003373ffffffffffffffffffffffffffffffffffffffff1673ffffffffffffffffffffffffffffffffffffffff168152602001908152602001600020600081548092919061117f906145ae565b91905055503373ffffffffffffffffffffffffffffffffffffffff167f3f8f46239f5ff752f97f04a4337ae063eef2701094d1d74887e142568aa1539784848460016040516111d194939291906146a5565b60405180910390a2505050565b600073ffffffffffffffffffffffffffffffffffffffff168273ffffffffffffffffffffffffffffffffffffffff16036112505760006040517f64a0ae92000000000000000000000000000000000000000000000000000000008152600401611247919061390e565b60405180910390fd5b6000611264838361125f612738565b6127d8565b90508373ffffffffffffffffffffffffffffffffffffffff168173ffffffffffffffffffffffffffffffffffffffff16146112da578382826040517f64283d7b0000000000000000000000000000000000000000000000000000000081526004016112d1939291906146e5565b60405180910390fd5b50505050565b6060600073ffffffffffffffffffffffffffffffffffffffff16611303836129f2565b73ffffffffffffffffffffffffffffffffffffffff1603611359576040517f08c379a000000000000000000000000000000000000000000000000000000000815260040161135090614768565b60405180910390fd5b6000600b60008481526020019081526020016000206040518060600160405290816000820160009054906101000a900460ff1660ff1660ff1681526020016000820160019054906101000a900463ffffffff1663ffffffff1663ffffffff1681526020016000820160059054906101000a900473ffffffffffffffffffffffffffffffffffffffff1673ffffffffffffffffffffffffffffffffffffffff1673ffffffffffffffffffffffffffffffffffffffff16815250509050600a6000826000015160ff1660ff168152602001908152602001600020604051602001611441919061489d565b604051602081830303815290604052915050919050565b611460612a2f565b611468611d7a565b73ffffffffffffffffffffffffffffffffffffffff166108fc479081150290604051600060405180830381858888f193505050501580156114ad573d6000803e3d6000fd5b50565b6114cb8383836040518060200160405280600081525061204b565b505050565b6060600073ffffffffffffffffffffffffffffffffffffffff166114f3836129f2565b73ffffffffffffffffffffffffffffffffffffffff1603611549576040517f08c379a000000000000000000000000000000000000000000000000000000000815260040161154090614768565b60405180910390fd5b600f600b600084815260200190815260200160002060000160009054906101000a900460ff1660ff16600781106115835761158261432b565b5b01805461158f906142fa565b80601f01602080910402602001604051908101604052809291908181526020018280546115bb906142fa565b80156116085780601f106115dd57610100808354040283529160200191611608565b820191906000526020600020905b8154815290600101906020018083116115eb57829003601f168201915b50505050509050919050565b60085481565b611622612a2f565b80600990816116319190614a4c565b5050565b600080600e60003373ffffffffffffffffffffffffffffffffffffffff1673ffffffffffffffffffffffffffffffffffffffff1681526020019081526020016000205411156116d857600e60003373ffffffffffffffffffffffffffffffffffffffff1673ffffffffffffffffffffffffffffffffffffffff16815260200190815260200160002060008154809291906116ce90614b1e565b919050555061171e565b60085434101561171d576040517f08c379a000000000000000000000000000000000000000000000000000000000815260040161171490614b93565b60405180910390fd5b5b600760008154809291906001019190505550600060075490506000612710424433856040516020016117539493929190614c1c565b6040516020818303038152906040528051906020012060001c6117769190614c99565b90506000603282101561178c57600090506117f4565b60c882101561179e57600190506117f3565b6102bc8210156117b157600290506117f2565b6106a48210156117c457600390506117f1565b610e748210156117d757600490506117f0565b611a2c8210156117ea57600590506117ef565b600690505b5b5b5b5b5b60405180606001604052808260ff1681526020014263ffffffff1681526020013373ffffffffffffffffffffffffffffffffffffffff16815250600b600085815260200190815260200160002060008201518160000160006101000a81548160ff021916908360ff16021790555060208201518160000160016101000a81548163ffffffff021916908363ffffffff16021790555060408201518160000160056101000a81548173ffffffffffffffffffffffffffffffffffffffff021916908373ffffffffffffffffffffffffffffffffffffffff160217905550905050600c60003373ffffffffffffffffffffffffffffffffffffffff1673ffffffffffffffffffffffffffffffffffffffff1681526020019081526020016000208190806001815401808255809150506001900390600052602060002090602091828204019190069091909190916101000a81548160ff021916908360ff160217905550600d60003373ffffffffffffffffffffffffffffffffffffffff1673ffffffffffffffffffffffffffffffffffffffff16815260200190815260200160002060009054906101000a900460ff161580156119b457506119b333612ab6565b5b15611a12576001600d60003373ffffffffffffffffffffffffffffffffffffffff1673ffffffffffffffffffffffffffffffffffffffff16815260200190815260200160002060006101000a81548160ff0219169083151502179055505b611a1c3384612c48565b823373ffffffffffffffffffffffffffffffffffffffff167f8f59f601bb75974d2fc5a2ee8f1b7de682a1e78edb4cb7418db454c60ee4a5d183600f8560ff1660078110611a6d57611a6c61432b565b5b01604051611a7c929190614d4e565b60405180910390a382935050505090565b600060019050919050565b60008060008060009050600080600190505b6007548111611b7c578673ffffffffffffffffffffffffffffffffffffffff16611ad3826129f2565b73ffffffffffffffffffffffffffffffffffffffff1603611b69576005600b600083815260200190815260200160002060000160009054906101000a900460ff1660ff1603611b2b578280611b27906145ae565b9350505b6006600b600083815260200190815260200160002060000160009054906101000a900460ff1660ff1603611b68578180611b64906145ae565b9250505b5b8080611b74906145ae565b915050611aaa565b5060038210611b975760016005839450945094505050611bbf565b60038110611bb15760016006829450945094505050611bbf565b600080600094509450945050505b9193909250565b6000611bd182612673565b9050919050565b600c6020528160005260406000208181548110611bf457600080fd5b9060005260206000209060209182820401919006915091509054906101000a900460ff1681565b600e6020528060005260406000206000915090505481565b60008073ffffffffffffffffffffffffffffffffffffffff168273ffffffffffffffffffffffffffffffffffffffff1603611ca65760006040517f89c62b64000000000000000000000000000000000000000000000000000000008152600401611c9d919061390e565b60405180910390fd5b600360008373ffffffffffffffffffffffffffffffffffffffff1673ffffffffffffffffffffffffffffffffffffffff168152602001908152602001600020549050919050565b611cf5612a2f565b611cff6000612d41565b565b6000611d0c82612ab6565b9050919050565b600b6020528060005260406000206000915090508060000160009054906101000a900460ff16908060000160019054906101000a900463ffffffff16908060000160059054906101000a900473ffffffffffffffffffffffffffffffffffffffff16905083565b6000600660009054906101000a900473ffffffffffffffffffffffffffffffffffffffff16905090565b600d6020528060005260406000206000915054906101000a900460ff1681565b611dcc612a2f565b8060088190555050565b60606000611de384611c33565b905060008167ffffffffffffffff811115611e0157611e00613c0d565b5b604051908082528060200260200182016040528015611e2f5781602001602082028036833780820191505090505b509050600080600190505b6007548111611ef5578673ffffffffffffffffffffffffffffffffffffffff16611e63826129f2565b73ffffffffffffffffffffffffffffffffffffffff16148015611eae57508560ff16600b600083815260200190815260200160002060000160009054906101000a900460ff1660ff16145b15611ee25780838381518110611ec757611ec661432b565b5b6020026020010181815250508180611ede906145ae565b9250505b8080611eed906145ae565b915050611e3a565b5060008167ffffffffffffffff811115611f1257611f11613c0d565b5b604051908082528060200260200182016040528015611f405781602001602082028036833780820191505090505b50905060005b82811015611f9557838181518110611f6157611f6061432b565b5b6020026020010151828281518110611f7c57611f7b61432b565b5b6020026020010181815250508080600101915050611f46565b508094505050505092915050565b606060018054611fb2906142fa565b80601f0160208091040260200160405190810160405280929190818152602001828054611fde906142fa565b801561202b5780601f106120005761010080835404028352916020019161202b565b820191906000526020600020905b81548152906001019060200180831161200e57829003601f168201915b5050505050905090565b612047612040612738565b8383612e07565b5050565b6120568484846111de565b61206a612061612738565b85858585612f76565b50505050565b6000919050565b61207f612a2f565b60078260ff16106120c5576040517f08c379a00000000000000000000000000000000000000000000000000000000081526004016120bc90614dca565b60405180910390fd5b80600a60008460ff1660ff16815260200190815260200160002090816120eb9190614a4c565b505050565b6060600073ffffffffffffffffffffffffffffffffffffffff16612113836129f2565b73ffffffffffffffffffffffffffffffffffffffff1603612169576040517f08c379a000000000000000000000000000000000000000000000000000000000815260040161216090614768565b60405180910390fd5b6000600b60008481526020019081526020016000206040518060600160405290816000820160009054906101000a900460ff1660ff1660ff1681526020016000820160019054906101000a900463ffffffff1663ffffffff1663ffffffff1681526020016000820160059054906101000a900473ffffffffffffffffffffffffffffffffffffffff1673ffffffffffffffffffffffffffffffffffffffff1673ffffffffffffffffffffffffffffffffffffffff168152505090506009612236826000015160ff16613127565b604051602001612247929190614e67565b604051602081830303815290604052915050919050565b600a602052806000526040600020600091509050805461227d906142fa565b80601f01602080910402602001604051908101604052809291908181526020018280546122a9906142fa565b80156122f65780601f106122cb576101008083540402835291602001916122f6565b820191906000526020600020905b8154815290600101906020018083116122d957829003601f168201915b505050505081565b60006007547fffffffffffffffffffffffffffffffffffffffffffffffffffffffffffffffff61232e9190614e96565b905090565b61233b612a2f565b60005b60078160ff16101561239857818160ff16600781106123605761235f61432b565b5b6020020151600a60008360ff1660ff168152602001908152602001600020908161238a9190614a4c565b50808060010191505061233e565b5050565b6000600560008473ffffffffffffffffffffffffffffffffffffffff1673ffffffffffffffffffffffffffffffffffffffff16815260200190815260200160002060008373ffffffffffffffffffffffffffffffffffffffff1673ffffffffffffffffffffffffffffffffffffffff16815260200190815260200160002060009054906101000a900460ff16905092915050565b60008060008073ffffffffffffffffffffffffffffffffffffffff16612455856129f2565b73ffffffffffffffffffffffffffffffffffffffff16036124ab576040517f08c379a00000000000000000000000000000000000000000000000000000000081526004016124a290614768565b60405180910390fd5b6000600b60008681526020019081526020016000206040518060600160405290816000820160009054906101000a900460ff1660ff1660ff1681526020016000820160019054906101000a900463ffffffff1663ffffffff1663ffffffff1681526020016000820160059054906101000a900473ffffffffffffffffffffffffffffffffffffffff1673ffffffffffffffffffffffffffffffffffffffff1673ffffffffffffffffffffffffffffffffffffffff16815250509050806000015181602001518260400151935093509350509193909250565b61258b612a2f565b600073ffffffffffffffffffffffffffffffffffffffff168173ffffffffffffffffffffffffffffffffffffffff16036125fd5760006040517f1e4fbdf70000000000000000000000000000000000000000000000000000000081526004016125f4919061390e565b60405180910390fd5b61260681612d41565b50565b60007f01ffc9a7000000000000000000000000000000000000000000000000000000007bffffffffffffffffffffffffffffffffffffffffffffffffffffffff1916827bffffffffffffffffffffffffffffffffffffffffffffffffffffffff1916149050919050565b60008061267f836129f2565b9050600073ffffffffffffffffffffffffffffffffffffffff168173ffffffffffffffffffffffffffffffffffffffff16036126f257826040517f7e2732890000000000000000000000000000000000000000000000000000000081526004016126e99190613a08565b60405180910390fd5b80915050919050565b60006004600083815260200190815260200160002060009054906101000a900473ffffffffffffffffffffffffffffffffffffffff169050919050565b600033905090565b61274d8383836001613287565b505050565b600061276160008360006127d8565b9050600073ffffffffffffffffffffffffffffffffffffffff168173ffffffffffffffffffffffffffffffffffffffff16036127d457816040517f7e2732890000000000000000000000000000000000000000000000000000000081526004016127cb9190613a08565b60405180910390fd5b5050565b6000806127e4846129f2565b9050600073ffffffffffffffffffffffffffffffffffffffff168373ffffffffffffffffffffffffffffffffffffffff16146128265761282581848661344c565b5b600073ffffffffffffffffffffffffffffffffffffffff168173ffffffffffffffffffffffffffffffffffffffff16146128b757612868600085600080613287565b6001600360008373ffffffffffffffffffffffffffffffffffffffff1673ffffffffffffffffffffffffffffffffffffffff168152602001908152602001600020600082825403925050819055505b600073ffffffffffffffffffffffffffffffffffffffff168573ffffffffffffffffffffffffffffffffffffffff161461293a576001600360008773ffffffffffffffffffffffffffffffffffffffff1673ffffffffffffffffffffffffffffffffffffffff168152602001908152602001600020600082825401925050819055505b846002600086815260200190815260200160002060006101000a81548173ffffffffffffffffffffffffffffffffffffffff021916908373ffffffffffffffffffffffffffffffffffffffff160217905550838573ffffffffffffffffffffffffffffffffffffffff168273ffffffffffffffffffffffffffffffffffffffff167fddf252ad1be2c89b69c2b068fc378daa952ba7f163c4a11628f55a4df523b3ef60405160405180910390a4809150509392505050565b60006002600083815260200190815260200160002060009054906101000a900473ffffffffffffffffffffffffffffffffffffffff169050919050565b612a37612738565b73ffffffffffffffffffffffffffffffffffffffff16612a55611d7a565b73ffffffffffffffffffffffffffffffffffffffff1614612ab457612a78612738565b6040517f118cdaa7000000000000000000000000000000000000000000000000000000008152600401612aab919061390e565b60405180910390fd5b565b6000612ac06135f3565b6000600c60008573ffffffffffffffffffffffffffffffffffffffff1673ffffffffffffffffffffffffffffffffffffffff168152602001908152602001600020805480602002602001604051908101604052809291908181526020018280548015612b7157602002820191906000526020600020906000905b82829054906101000a900460ff1660ff1681526020019060010190602082600001049283019260010382029150808411612b3a5790505b5050505050905060005b8151811015612bf9576007828281518110612b9957612b9861432b565b5b602002602001015160ff161015612bec57600183838381518110612bc057612bbf61432b565b5b602002602001015160ff1660078110612bdc57612bdb61432b565b5b6020020190151590811515815250505b8080600101915050612b7b565b5060005b6007811015612c3b57828160078110612c1957612c1861432b565b5b6020020151612c2e5760009350505050612c43565b8080600101915050612bfd565b506001925050505b919050565b600073ffffffffffffffffffffffffffffffffffffffff168273ffffffffffffffffffffffffffffffffffffffff1603612cba5760006040517f64a0ae92000000000000000000000000000000000000000000000000000000008152600401612cb1919061390e565b60405180910390fd5b6000612cc8838360006127d8565b9050600073ffffffffffffffffffffffffffffffffffffffff168173ffffffffffffffffffffffffffffffffffffffff1614612d3c5760006040517f73c6ac6e000000000000000000000000000000000000000000000000000000008152600401612d33919061390e565b60405180910390fd5b505050565b6000600660009054906101000a900473ffffffffffffffffffffffffffffffffffffffff16905081600660006101000a81548173ffffffffffffffffffffffffffffffffffffffff021916908373ffffffffffffffffffffffffffffffffffffffff1602179055508173ffffffffffffffffffffffffffffffffffffffff168173ffffffffffffffffffffffffffffffffffffffff167f8be0079c531659141344cd1fd0a4f28419497f9722a3daafe3b4186f6b6457e060405160405180910390a35050565b600073ffffffffffffffffffffffffffffffffffffffff168273ffffffffffffffffffffffffffffffffffffffff1603612e7857816040517f5b08ba18000000000000000000000000000000000000000000000000000000008152600401612e6f919061390e565b60405180910390fd5b80600560008573ffffffffffffffffffffffffffffffffffffffff1673ffffffffffffffffffffffffffffffffffffffff16815260200190815260200160002060008473ffffffffffffffffffffffffffffffffffffffff1673ffffffffffffffffffffffffffffffffffffffff16815260200190815260200160002060006101000a81548160ff0219169083151502179055508173ffffffffffffffffffffffffffffffffffffffff168373ffffffffffffffffffffffffffffffffffffffff167f17307eab39ab6107e8899845ad3d59bd9653f200f220920489ca2b5937696c3183604051612f6991906136c9565b60405180910390a3505050565b60008373ffffffffffffffffffffffffffffffffffffffff163b1115613120578273ffffffffffffffffffffffffffffffffffffffff1663150b7a02868685856040518563ffffffff1660e01b8152600401612fd59493929190614f1f565b6020604051808303816000875af192505050801561301157506040513d601f19601f8201168201806040525081019061300e9190614f80565b60015b613095573d8060008114613041576040519150601f19603f3d011682016040523d82523d6000602084013e613046565b606091505b50600081510361308d57836040517f64a0ae92000000000000000000000000000000000000000000000000000000008152600401613084919061390e565b60405180910390fd5b805160208201fd5b63150b7a0260e01b7bffffffffffffffffffffffffffffffffffffffffffffffffffffffff1916817bffffffffffffffffffffffffffffffffffffffffffffffffffffffff19161461311e57836040517f64a0ae92000000000000000000000000000000000000000000000000000000008152600401613115919061390e565b60405180910390fd5b505b5050505050565b60606000820361316e576040518060400160405280600181526020017f30000000000000000000000000000000000000000000000000000000000000008152509050613282565b600082905060005b600082146131a0578080613189906145ae565b915050600a826131999190614fad565b9150613176565b60008167ffffffffffffffff8111156131bc576131bb613c0d565b5b6040519080825280601f01601f1916602001820160405280156131ee5781602001600182028036833780820191505090505b5090505b6000851461327b576001826132079190614e96565b9150600a856132169190614c99565b60306132229190614fde565b60f81b8183815181106132385761323761432b565b5b60200101907effffffffffffffffffffffffffffffffffffffffffffffffffffffffffffff1916908160001a905350600a856132749190614fad565b94506131f2565b8093505050505b919050565b80806132c05750600073ffffffffffffffffffffffffffffffffffffffff168273ffffffffffffffffffffffffffffffffffffffff1614155b156133f45760006132d084612673565b9050600073ffffffffffffffffffffffffffffffffffffffff168373ffffffffffffffffffffffffffffffffffffffff161415801561333b57508273ffffffffffffffffffffffffffffffffffffffff168173ffffffffffffffffffffffffffffffffffffffff1614155b801561334e575061334c818461239c565b155b1561339057826040517fa9fbf51f000000000000000000000000000000000000000000000000000000008152600401613387919061390e565b60405180910390fd5b81156133f257838573ffffffffffffffffffffffffffffffffffffffff168273ffffffffffffffffffffffffffffffffffffffff167f8c5be1e5ebec7d5bd14f71427d1e84f3dd0314c0f7b2291e5b200ac8c7c3b92560405160405180910390a45b505b836004600085815260200190815260200160002060006101000a81548173ffffffffffffffffffffffffffffffffffffffff021916908373ffffffffffffffffffffffffffffffffffffffff16021790555050505050565b613457838383613510565b61350b57600073ffffffffffffffffffffffffffffffffffffffff168373ffffffffffffffffffffffffffffffffffffffff16036134cc57806040517f7e2732890000000000000000000000000000000000000000000000000000000081526004016134c39190613a08565b60405180910390fd5b81816040517f177e802f000000000000000000000000000000000000000000000000000000008152600401613502929190615012565b60405180910390fd5b505050565b60008073ffffffffffffffffffffffffffffffffffffffff168373ffffffffffffffffffffffffffffffffffffffff16141580156135c857508273ffffffffffffffffffffffffffffffffffffffff168473ffffffffffffffffffffffffffffffffffffffff1614806135895750613588848461239c565b5b806135c757508273ffffffffffffffffffffffffffffffffffffffff166135af836126fb565b73ffffffffffffffffffffffffffffffffffffffff16145b5b90509392505050565b6040518060e00160405280600790602082028036833780820191505090505090565b6040518060e00160405280600790602082028036833780820191505090505090565b6000604051905090565b600080fd5b600080fd5b60007fffffffff0000000000000000000000000000000000000000000000000000000082169050919050565b61365e81613629565b811461366957600080fd5b50565b60008135905061367b81613655565b92915050565b6000602082840312156136975761369661361f565b5b60006136a58482850161366c565b91505092915050565b60008115159050919050565b6136c3816136ae565b82525050565b60006020820190506136de60008301846136ba565b92915050565b600060079050919050565b600081905092915050565b6000819050919050565b600061ffff82169050919050565b61371b81613704565b82525050565b600061372d8383613712565b60208301905092915050565b6000602082019050919050565b61374f816136e4565b61375981846136ef565b9250613764826136fa565b8060005b8381101561379557815161377c8782613721565b965061378783613739565b925050600181019050613768565b505050505050565b600060e0820190506137b26000830184613746565b92915050565b600081519050919050565b600082825260208201905092915050565b60005b838110156137f25780820151818401526020810190506137d7565b60008484015250505050565b6000601f19601f8301169050919050565b600061381a826137b8565b61382481856137c3565b93506138348185602086016137d4565b61383d816137fe565b840191505092915050565b60006020820190508181036000830152613862818461380f565b905092915050565b6000819050919050565b61387d8161386a565b811461388857600080fd5b50565b60008135905061389a81613874565b92915050565b6000602082840312156138b6576138b561361f565b5b60006138c48482850161388b565b91505092915050565b600073ffffffffffffffffffffffffffffffffffffffff82169050919050565b60006138f8826138cd565b9050919050565b613908816138ed565b82525050565b600060208201905061392360008301846138ff565b92915050565b613932816138ed565b811461393d57600080fd5b50565b60008135905061394f81613929565b92915050565b6000806040838503121561396c5761396b61361f565b5b600061397a85828601613940565b925050602061398b8582860161388b565b9150509250929050565b6000602082840312156139ab576139aa61361f565b5b60006139b984828501613940565b91505092915050565b600060ff82169050919050565b6139d8816139c2565b82525050565b60006020820190506139f360008301846139cf565b92915050565b613a028161386a565b82525050565b6000602082019050613a1d60008301846139f9565b92915050565b600081519050919050565b600082825260208201905092915050565b6000819050602082019050919050565b613a58816139c2565b82525050565b6000613a6a8383613a4f565b60208301905092915050565b6000602082019050919050565b6000613a8e82613a23565b613a988185613a2e565b9350613aa383613a3f565b8060005b83811015613ad4578151613abb8882613a5e565b9750613ac683613a76565b925050600181019050613aa7565b5085935050505092915050565b60006020820190508181036000830152613afb8184613a83565b905092915050565b600080fd5b600080fd5b600080fd5b60008083601f840112613b2857613b27613b03565b5b8235905067ffffffffffffffff811115613b4557613b44613b08565b5b602083019150836020820283011115613b6157613b60613b0d565b5b9250929050565b60008060208385031215613b7f57613b7e61361f565b5b600083013567ffffffffffffffff811115613b9d57613b9c613624565b5b613ba985828601613b12565b92509250509250929050565b600080600060608486031215613bce57613bcd61361f565b5b6000613bdc86828701613940565b9350506020613bed86828701613940565b9250506040613bfe8682870161388b565b9150509250925092565b600080fd5b7f4e487b7100000000000000000000000000000000000000000000000000000000600052604160045260246000fd5b613c45826137fe565b810181811067ffffffffffffffff82111715613c6457613c63613c0d565b5b80604052505050565b6000613c77613615565b9050613c838282613c3c565b919050565b600067ffffffffffffffff821115613ca357613ca2613c0d565b5b613cac826137fe565b9050602081019050919050565b82818337600083830152505050565b6000613cdb613cd684613c88565b613c6d565b905082815260208101848484011115613cf757613cf6613c08565b5b613d02848285613cb9565b509392505050565b600082601f830112613d1f57613d1e613b03565b5b8135613d2f848260208601613cc8565b91505092915050565b600060208284031215613d4e57613d4d61361f565b5b600082013567ffffffffffffffff811115613d6c57613d6b613624565b5b613d7884828501613d0a565b91505092915050565b6000606082019050613d9660008301866136ba565b613da360208301856139cf565b613db060408301846139f9565b949350505050565b600063ffffffff82169050919050565b613dd181613db8565b82525050565b6000606082019050613dec60008301866139cf565b613df96020830185613dc8565b613e0660408301846138ff565b949350505050565b613e17816139c2565b8114613e2257600080fd5b50565b600081359050613e3481613e0e565b92915050565b60008060408385031215613e5157613e5061361f565b5b6000613e5f85828601613940565b9250506020613e7085828601613e25565b9150509250929050565b600081519050919050565b600082825260208201905092915050565b6000819050602082019050919050565b613eaf8161386a565b82525050565b6000613ec18383613ea6565b60208301905092915050565b6000602082019050919050565b6000613ee582613e7a565b613eef8185613e85565b9350613efa83613e96565b8060005b83811015613f2b578151613f128882613eb5565b9750613f1d83613ecd565b925050600181019050613efe565b5085935050505092915050565b60006020820190508181036000830152613f528184613eda565b905092915050565b613f63816136ae565b8114613f6e57600080fd5b50565b600081359050613f8081613f5a565b92915050565b60008060408385031215613f9d57613f9c61361f565b5b6000613fab85828601613940565b9250506020613fbc85828601613f71565b9150509250929050565b600067ffffffffffffffff821115613fe157613fe0613c0d565b5b613fea826137fe565b9050602081019050919050565b600061400a61400584613fc6565b613c6d565b90508281526020810184848401111561402657614025613c08565b5b614031848285613cb9565b509392505050565b600082601f83011261404e5761404d613b03565b5b813561405e848260208601613ff7565b91505092915050565b600080600080608085870312156140815761408061361f565b5b600061408f87828801613940565b94505060206140a087828801613940565b93505060406140b18782880161388b565b925050606085013567ffffffffffffffff8111156140d2576140d1613624565b5b6140de87828801614039565b91505092959194509250565b600080604083850312156141015761410061361f565b5b600061410f85828601613e25565b925050602083013567ffffffffffffffff8111156141305761412f613624565b5b61413c85828601613d0a565b9150509250929050565b60006020828403121561415c5761415b61361f565b5b600061416a84828501613e25565b91505092915050565b600067ffffffffffffffff82111561418e5761418d613c0d565b5b602082029050919050565b60006141ac6141a784614173565b613c6d565b905080602084028301858111156141c6576141c5613b0d565b5b835b8181101561420d57803567ffffffffffffffff8111156141eb576141ea613b03565b5b8086016141f88982613d0a565b855260208501945050506020810190506141c8565b5050509392505050565b600082601f83011261422c5761422b613b03565b5b6007614239848285614199565b91505092915050565b6000602082840312156142585761425761361f565b5b600082013567ffffffffffffffff81111561427657614275613624565b5b61428284828501614217565b91505092915050565b600080604083850312156142a2576142a161361f565b5b60006142b085828601613940565b92505060206142c185828601613940565b9150509250929050565b7f4e487b7100000000000000000000000000000000000000000000000000000000600052602260045260246000fd5b6000600282049050600182168061431257607f821691505b602082108103614325576143246142cb565b5b50919050565b7f4e487b7100000000000000000000000000000000000000000000000000000000600052603260045260246000fd5b7f4e487b7100000000000000000000000000000000000000000000000000000000600052601160045260246000fd5b6000614394826139c2565b915060ff82036143a7576143a661435a565b5b600182019050919050565b7f4d757374206275726e2065786163746c79203320746f6b656e73000000000000600082015250565b60006143e8601a836137c3565b91506143f3826143b2565b602082019050919050565b60006020820190508181036000830152614417816143db565b9050919050565b7f43616e206f6e6c79206275726e20426c657373696e67206f72204d696e6f722060008201527f426c657373696e67000000000000000000000000000000000000000000000000602082015250565b600061447a6028836137c3565b91506144858261441e565b604082019050919050565b600060208201905081810360008301526144a98161446d565b9050919050565b7f4e6f74206f776e6572206f6620746f6b656e0000000000000000000000000000600082015250565b60006144e66012836137c3565b91506144f1826144b0565b602082019050919050565b60006020820190508181036000830152614515816144d9565b9050919050565b7f416c6c20746f6b656e73206d7573742062652073616d6520666f7274756e652060008201527f7479706500000000000000000000000000000000000000000000000000000000602082015250565b60006145786024836137c3565b91506145838261451c565b604082019050919050565b600060208201905081810360008301526145a78161456b565b9050919050565b60006145b98261386a565b91507fffffffffffffffffffffffffffffffffffffffffffffffffffffffffffffffff82036145eb576145ea61435a565b5b600182019050919050565b600080fd5b82818337505050565b60006146108385613e85565b93507f07ffffffffffffffffffffffffffffffffffffffffffffffffffffffffffffff831115614643576146426145f6565b5b6020830292506146548385846145fb565b82840190509392505050565b6000819050919050565b6000819050919050565b600061468f61468a61468584614660565b61466a565b61386a565b9050919050565b61469f81614674565b82525050565b600060608201905081810360008301526146c0818688614604565b90506146cf60208301856139cf565b6146dc6040830184614696565b95945050505050565b60006060820190506146fa60008301866138ff565b61470760208301856139f9565b61471460408301846138ff565b949350505050565b7f546f6b656e20646f6573206e6f74206578697374000000000000000000000000600082015250565b60006147526014836137c3565b915061475d8261471c565b602082019050919050565b6000602082019050818103600083015261478181614745565b9050919050565b600081905092915050565b7f68747470733a2f2f676174657761792e70696e6174612e636c6f75642f69706660008201527f732f000000000000000000000000000000000000000000000000000000000000602082015250565b60006147ef602283614788565b91506147fa82614793565b602282019050919050565b60008190508160005260206000209050919050565b60008154614827816142fa565b6148318186614788565b9450600182166000811461484c576001811461486157614894565b60ff1983168652811515820286019350614894565b61486a85614805565b60005b8381101561488c5781548189015260018201915060208101905061486d565b838801955050505b50505092915050565b60006148a8826147e2565b91506148b4828461481a565b915081905092915050565b60006020601f8301049050919050565b600082821b905092915050565b60006008830261490c7fffffffffffffffffffffffffffffffffffffffffffffffffffffffffffffffff826148cf565b61491686836148cf565b95508019841693508086168417925050509392505050565b600061494961494461493f8461386a565b61466a565b61386a565b9050919050565b6000819050919050565b6149638361492e565b61497761496f82614950565b8484546148dc565b825550505050565b600090565b61498c61497f565b61499781848461495a565b505050565b5b818110156149bb576149b0600082614984565b60018101905061499d565b5050565b601f821115614a00576149d181614805565b6149da846148bf565b810160208510156149e9578190505b6149fd6149f5856148bf565b83018261499c565b50505b505050565b600082821c905092915050565b6000614a2360001984600802614a05565b1980831691505092915050565b6000614a3c8383614a12565b9150826002028217905092915050565b614a55826137b8565b67ffffffffffffffff811115614a6e57614a6d613c0d565b5b614a7882546142fa565b614a838282856149bf565b600060209050601f831160018114614ab65760008415614aa4578287015190505b614aae8582614a30565b865550614b16565b601f198416614ac486614805565b60005b82811015614aec57848901518255600182019150602085019450602081019050614ac7565b86831015614b095784890151614b05601f891682614a12565b8355505b6001600288020188555050505b505050505050565b6000614b298261386a565b915060008203614b3c57614b3b61435a565b5b600182039050919050565b7f496e73756666696369656e74207061796d656e74000000000000000000000000600082015250565b6000614b7d6014836137c3565b9150614b8882614b47565b602082019050919050565b60006020820190508181036000830152614bac81614b70565b9050919050565b6000819050919050565b614bce614bc98261386a565b614bb3565b82525050565b60008160601b9050919050565b6000614bec82614bd4565b9050919050565b6000614bfe82614be1565b9050919050565b614c16614c11826138ed565b614bf3565b82525050565b6000614c288287614bbd565b602082019150614c388286614bbd565b602082019150614c488285614c05565b601482019150614c588284614bbd565b60208201915081905095945050505050565b7f4e487b7100000000000000000000000000000000000000000000000000000000600052601260045260246000fd5b6000614ca48261386a565b9150614caf8361386a565b925082614cbf57614cbe614c6a565b5b828206905092915050565b60008154614cd7816142fa565b614ce181866137c3565b94506001821660008114614cfc5760018114614d1257614d45565b60ff198316865281151560200286019350614d45565b614d1b85614805565b60005b83811015614d3d57815481890152600182019150602081019050614d1e565b808801955050505b50505092915050565b6000604082019050614d6360008301856139cf565b8181036020830152614d758184614cca565b90509392505050565b7f496e76616c696420666f7274756e652074797065000000000000000000000000600082015250565b6000614db46014836137c3565b9150614dbf82614d7e565b602082019050919050565b60006020820190508181036000830152614de381614da7565b9050919050565b6000614df5826137b8565b614dff8185614788565b9350614e0f8185602086016137d4565b80840191505092915050565b7f2e6a736f6e000000000000000000000000000000000000000000000000000000600082015250565b6000614e51600583614788565b9150614e5c82614e1b565b600582019050919050565b6000614e73828561481a565b9150614e7f8284614dea565b9150614e8a82614e44565b91508190509392505050565b6000614ea18261386a565b9150614eac8361386a565b9250828203905081811115614ec457614ec361435a565b5b92915050565b600081519050919050565b600082825260208201905092915050565b6000614ef182614eca565b614efb8185614ed5565b9350614f0b8185602086016137d4565b614f14816137fe565b840191505092915050565b6000608082019050614f3460008301876138ff565b614f4160208301866138ff565b614f4e60408301856139f9565b8181036060830152614f608184614ee6565b905095945050505050565b600081519050614f7a81613655565b92915050565b600060208284031215614f9657614f9561361f565b5b6000614fa484828501614f6b565b91505092915050565b6000614fb88261386a565b9150614fc38361386a565b925082614fd357614fd2614c6a565b5b828204905092915050565b6000614fe98261386a565b9150614ff48361386a565b925082820190508082111561500c5761500b61435a565b5b92915050565b600060408201905061502760008301856138ff565b61503460208301846139f9565b939250505056fea2646970667358221220247818f468cfb5cbf7fcd6c2a6eca069f830133115119349f7a055ab700772bb64736f6c634300081b003350617469656e6365206272696e677320746865207377656574657374207265776172647321536d616c6c20626c657373696e6773206c65616420746f20626967676572206f70706f7274756e6974696573216261667962656964327564613568616d6b7a62346c73653572633768746362636a66666f376467756b6a6f34626a71646a7576686534346767376145787472616f7264696e61727920666f7274756e6520617761697473212045766572797468696e67207475726e7320746f20676f6c6421496e6372656469626c65206c75636b2120596f757220647265616d7320657863656564206578706563746174696f6e732162616679626569646c7974373375636a6d74637a727463766463666b73756c676670783567646167326a37366871646f336b637064783276327665476f6f64207468696e677320636f6d6520746f2074686f73652077686f20776169742142616c616e636564206c75636b206272696e6773207374656164792070726f6772657373216261667962656968733561757578777534346634676571776867797a646f616d64676171786a367762746377733437667436346d61796178736365626166796265696565326b637a6a677a73656171616e356c6465776c7363686677616c65787a79676568657775366a6f656f77326574626b65726162616679626569686d6e74713372786864356a366e786b366a3376626c7a713672686c6f697a326972636d6477673234337261637a7937716c61756261667962656963617274346f656736677868716769766d356b6e626f6f716e346278613337346a7067373361716465687a3233347a683671756d68747470733a2f2f676174657761792e70696e6174612e636c6f75642f697066732f626166796265696865726f756c6d72336273357378796c6c6b347870696b63657537736f7175716734697076686d6b6474706d70756a7267746b792f6261666b72656967696f337532356732706762666f33616a6f68793571636964613734616b666c6e3374746c786834343378676a7933336f73706d477265617420666f7274756e6520736d696c65732075706f6e20796f7520746f64617921",
  "linkReferences": {},
  "deployedLinkReferences": {}
}