{
  "_format": "hh-sol-artifact-1",
  "contractName": "UpdatedIPFSOmikujiNFT",
  "sourceName": "contracts/UpdatedIPFSOmikujiNFT.sol",
  "abi": [
    {
      "inputs": [],
      "stateMutability": "nonpayable",
      "type": "constructor"
    },
    {
      "inputs": [
        {
          "internalType": "address",
          "name": "sender",
          "type": "address"
        },
        {
          "internalType": "uint256",
          "name": "tokenId",
          "type": "uint256"
        },
        {
          "internalType": "address",
          "name": "owner",
          "type": "address"
        }
      ],
      "name": "ERC721IncorrectOwner",
      "type": "error"
    },
    {
      "inputs": [
        {
          "internalType": "address",
          "name": "operator",
          "type": "address"
        },
        {
          "internalType": "uint256",
          "name": "tokenId",
          "type": "uint256"
        }
      ],
      "name": "ERC721InsufficientApproval",
      "type": "error"
    },
    {
      "inputs": [
        {
          "internalType": "address",
          "name": "approver",
          "type": "address"
        }
      ],
      "name": "ERC721InvalidApprover",
      "type": "error"
    },
    {
      "inputs": [
        {
          "internalType": "address",
          "name": "operator",
          "type": "address"
        }
      ],
      "name": "ERC721InvalidOperator",
      "type": "error"
    },
    {
      "inputs": [
        {
          "internalType": "address",
          "name": "owner",
          "type": "address"
        }
      ],
      "name": "ERC721InvalidOwner",
      "type": "error"
    },
    {
      "inputs": [
        {
          "internalType": "address",
          "name": "receiver",
          "type": "address"
        }
      ],
      "name": "ERC721InvalidReceiver",
      "type": "error"
    },
    {
      "inputs": [
        {
          "internalType": "address",
          "name": "sender",
          "type": "address"
        }
      ],
      "name": "ERC721InvalidSender",
      "type": "error"
    },
    {
      "inputs": [
        {
          "internalType": "uint256",
          "name": "tokenId",
          "type": "uint256"
        }
      ],
      "name": "ERC721NonexistentToken",
      "type": "error"
    },
    {
      "inputs": [
        {
          "internalType": "address",
          "name": "owner",
          "type": "address"
        }
      ],
      "name": "OwnableInvalidOwner",
      "type": "error"
    },
    {
      "inputs": [
        {
          "internalType": "address",
          "name": "account",
          "type": "address"
        }
      ],
      "name": "OwnableUnauthorizedAccount",
      "type": "error"
    },
    {
      "anonymous": false,
      "inputs": [
        {
          "indexed": true,
          "internalType": "address",
          "name": "owner",
          "type": "address"
        },
        {
          "indexed": true,
          "internalType": "address",
          "name": "approved",
          "type": "address"
        },
        {
          "indexed": true,
          "internalType": "uint256",
          "name": "tokenId",
          "type": "uint256"
        }
      ],
      "name": "Approval",
      "type": "event"
    },
    {
      "anonymous": false,
      "inputs": [
        {
          "indexed": true,
          "internalType": "address",
          "name": "owner",
          "type": "address"
        },
        {
          "indexed": true,
          "internalType": "address",
          "name": "operator",
          "type": "address"
        },
        {
          "indexed": false,
          "internalType": "bool",
          "name": "approved",
          "type": "bool"
        }
      ],
      "name": "ApprovalForAll",
      "type": "event"
    },
    {
      "anonymous": false,
      "inputs": [
        {
          "indexed": true,
          "internalType": "address",
          "name": "drawer",
          "type": "address"
        },
        {
          "indexed": true,
          "internalType": "uint256",
          "name": "tokenId",
          "type": "uint256"
        },
        {
          "indexed": false,
          "internalType": "uint8",
          "name": "result",
          "type": "uint8"
        },
        {
          "indexed": false,
          "internalType": "string",
          "name": "message",
          "type": "string"
        }
      ],
      "name": "OmikujiDrawn",
      "type": "event"
    },
    {
      "anonymous": false,
      "inputs": [
        {
          "indexed": true,
          "internalType": "address",
          "name": "previousOwner",
          "type": "address"
        },
        {
          "indexed": true,
          "internalType": "address",
          "name": "newOwner",
          "type": "address"
        }
      ],
      "name": "OwnershipTransferred",
      "type": "event"
    },
    {
      "anonymous": false,
      "inputs": [
        {
          "indexed": true,
          "internalType": "address",
          "name": "burner",
          "type": "address"
        },
        {
          "indexed": false,
          "internalType": "uint256[]",
          "name": "tokenIds",
          "type": "uint256[]"
        },
        {
          "indexed": false,
          "internalType": "uint8",
          "name": "fortuneType",
          "type": "uint8"
        },
        {
          "indexed": false,
          "internalType": "uint256",
          "name": "freeMintGranted",
          "type": "uint256"
        }
      ],
      "name": "TokensBurned",
      "type": "event"
    },
    {
      "anonymous": false,
      "inputs": [
        {
          "indexed": true,
          "internalType": "address",
          "name": "from",
          "type": "address"
        },
        {
          "indexed": true,
          "internalType": "address",
          "name": "to",
          "type": "address"
        },
        {
          "indexed": true,
          "internalType": "uint256",
          "name": "tokenId",
          "type": "uint256"
        }
      ],
      "name": "Transfer",
      "type": "event"
    },
    {
      "inputs": [
        {
          "internalType": "address",
          "name": "to",
          "type": "address"
        },
        {
          "internalType": "uint256",
          "name": "tokenId",
          "type": "uint256"
        }
      ],
      "name": "approve",
      "outputs": [],
      "stateMutability": "nonpayable",
      "type": "function"
    },
    {
      "inputs": [
        {
          "internalType": "address",
          "name": "owner",
          "type": "address"
        }
      ],
      "name": "balanceOf",
      "outputs": [
        {
          "internalType": "uint256",
          "name": "",
          "type": "uint256"
        }
      ],
      "stateMutability": "view",
      "type": "function"
    },
    {
      "inputs": [
        {
          "internalType": "uint256[]",
          "name": "tokenIds",
          "type": "uint256[]"
        }
      ],
      "name": "burnAndMint",
      "outputs": [
        {
          "internalType": "uint256",
          "name": "",
          "type": "uint256"
        }
      ],
      "stateMutability": "nonpayable",
      "type": "function"
    },
    {
      "inputs": [
        {
          "internalType": "uint256[]",
          "name": "tokenIds",
          "type": "uint256[]"
        }
      ],
      "name": "burnForReroll",
      "outputs": [],
      "stateMutability": "nonpayable",
      "type": "function"
    },
    {
      "inputs": [
        {
          "internalType": "address",
          "name": "user",
          "type": "address"
        }
      ],
      "name": "canBurnForReroll",
      "outputs": [
        {
          "internalType": "bool",
          "name": "",
          "type": "bool"
        },
        {
          "internalType": "uint8",
          "name": "",
          "type": "uint8"
        },
        {
          "internalType": "uint256",
          "name": "",
          "type": "uint256"
        }
      ],
      "stateMutability": "view",
      "type": "function"
    },
    {
      "inputs": [
        {
          "internalType": "address",
          "name": "",
          "type": "address"
        }
      ],
      "name": "canDrawOmikuji",
      "outputs": [
        {
          "internalType": "bool",
          "name": "",
          "type": "bool"
        }
      ],
      "stateMutability": "pure",
      "type": "function"
    },
    {
      "inputs": [
        {
          "internalType": "address",
          "name": "user",
          "type": "address"
        }
      ],
      "name": "checkSelfMintCompletion",
      "outputs": [
        {
          "internalType": "bool",
          "name": "",
          "type": "bool"
        }
      ],
      "stateMutability": "view",
      "type": "function"
    },
    {
      "inputs": [],
      "name": "drawOmikuji",
      "outputs": [
        {
          "internalType": "uint256",
          "name": "",
          "type": "uint256"
        }
      ],
      "stateMutability": "payable",
      "type": "function"
    },
    {
      "inputs": [
        {
          "internalType": "uint8",
          "name": "",
          "type": "uint8"
        }
      ],
      "name": "fortuneImages",
      "outputs": [
        {
          "internalType": "string",
          "name": "",
          "type": "string"
        }
      ],
      "stateMutability": "view",
      "type": "function"
    },
    {
      "inputs": [
        {
          "internalType": "uint256",
          "name": "",
          "type": "uint256"
        }
      ],
      "name": "fortunes",
      "outputs": [
        {
          "internalType": "uint8",
          "name": "result",
          "type": "uint8"
        },
        {
          "internalType": "uint32",
          "name": "timestamp",
          "type": "uint32"
        },
        {
          "internalType": "address",
          "name": "drawer",
          "type": "address"
        }
      ],
      "stateMutability": "view",
      "type": "function"
    },
    {
      "inputs": [
        {
          "internalType": "address",
          "name": "",
          "type": "address"
        }
      ],
      "name": "freeMints",
      "outputs": [
        {
          "internalType": "uint256",
          "name": "",
          "type": "uint256"
        }
      ],
      "stateMutability": "view",
      "type": "function"
    },
    {
      "inputs": [
        {
          "internalType": "uint256",
          "name": "tokenId",
          "type": "uint256"
        }
      ],
      "name": "getApproved",
      "outputs": [
        {
          "internalType": "address",
          "name": "",
          "type": "address"
        }
      ],
      "stateMutability": "view",
      "type": "function"
    },
    {
      "inputs": [
        {
          "internalType": "uint256",
          "name": "tokenId",
          "type": "uint256"
        }
      ],
      "name": "getFortuneData",
      "outputs": [
        {
          "internalType": "uint8",
          "name": "result",
          "type": "uint8"
        },
        {
          "internalType": "uint32",
          "name": "timestamp",
          "type": "uint32"
        },
        {
          "internalType": "address",
          "name": "drawer",
          "type": "address"
        }
      ],
      "stateMutability": "view",
      "type": "function"
    },
    {
      "inputs": [
        {
          "internalType": "uint256",
          "name": "tokenId",
          "type": "uint256"
        }
      ],
      "name": "getFortuneImageUrl",
      "outputs": [
        {
          "internalType": "string",
          "name": "",
          "type": "string"
        }
      ],
      "stateMutability": "view",
      "type": "function"
    },
    {
      "inputs": [
        {
          "internalType": "uint256",
          "name": "tokenId",
          "type": "uint256"
        }
      ],
      "name": "getFortuneMessage",
      "outputs": [
        {
          "internalType": "string",
          "name": "",
          "type": "string"
        }
      ],
      "stateMutability": "view",
      "type": "function"
    },
    {
      "inputs": [
        {
          "internalType": "address",
          "name": "owner",
          "type": "address"
        },
        {
          "internalType": "uint8",
          "name": "fortuneType",
          "type": "uint8"
        }
      ],
      "name": "getOwnedTokensByType",
      "outputs": [
        {
          "internalType": "uint256[]",
          "name": "",
          "type": "uint256[]"
        }
      ],
      "stateMutability": "view",
      "type": "function"
    },
    {
      "inputs": [],
      "name": "getProbabilities",
      "outputs": [
        {
          "internalType": "uint16[7]",
          "name": "",
          "type": "uint16[7]"
        }
      ],
      "stateMutability": "pure",
      "type": "function"
    },
    {
      "inputs": [
        {
          "internalType": "address",
          "name": "user",
          "type": "address"
        }
      ],
      "name": "getSelfMintProgress",
      "outputs": [
        {
          "internalType": "uint8",
          "name": "",
          "type": "uint8"
        }
      ],
      "stateMutability": "view",
      "type": "function"
    },
    {
      "inputs": [
        {
          "internalType": "address",
          "name": "user",
          "type": "address"
        }
      ],
      "name": "getSelfMintedFortunes",
      "outputs": [
        {
          "internalType": "uint8[]",
          "name": "",
          "type": "uint8[]"
        }
      ],
      "stateMutability": "view",
      "type": "function"
    },
    {
      "inputs": [
        {
          "internalType": "address",
          "name": "",
          "type": "address"
        }
      ],
      "name": "getTimeUntilNextDraw",
      "outputs": [
        {
          "internalType": "uint256",
          "name": "",
          "type": "uint256"
        }
      ],
      "stateMutability": "pure",
      "type": "function"
    },
    {
      "inputs": [
        {
          "internalType": "address",
          "name": "",
          "type": "address"
        }
      ],
      "name": "hasCompletedSelfMint",
      "outputs": [
        {
          "internalType": "bool",
          "name": "",
          "type": "bool"
        }
      ],
      "stateMutability": "view",
      "type": "function"
    },
    {
      "inputs": [
        {
          "internalType": "address",
          "name": "owner",
          "type": "address"
        },
        {
          "internalType": "address",
          "name": "operator",
          "type": "address"
        }
      ],
      "name": "isApprovedForAll",
      "outputs": [
        {
          "internalType": "bool",
          "name": "",
          "type": "bool"
        }
      ],
      "stateMutability": "view",
      "type": "function"
    },
    {
      "inputs": [],
      "name": "name",
      "outputs": [
        {
          "internalType": "string",
          "name": "",
          "type": "string"
        }
      ],
      "stateMutability": "view",
      "type": "function"
    },
    {
      "inputs": [],
      "name": "omikujiPrice",
      "outputs": [
        {
          "internalType": "uint256",
          "name": "",
          "type": "uint256"
        }
      ],
      "stateMutability": "view",
      "type": "function"
    },
    {
      "inputs": [],
      "name": "owner",
      "outputs": [
        {
          "internalType": "address",
          "name": "",
          "type": "address"
        }
      ],
      "stateMutability": "view",
      "type": "function"
    },
    {
      "inputs": [
        {
          "internalType": "uint256",
          "name": "tokenId",
          "type": "uint256"
        }
      ],
      "name": "ownerOf",
      "outputs": [
        {
          "internalType": "address",
          "name": "",
          "type": "address"
        }
      ],
      "stateMutability": "view",
      "type": "function"
    },
    {
      "inputs": [],
      "name": "remainingSupply",
      "outputs": [
        {
          "internalType": "uint256",
          "name": "",
          "type": "uint256"
        }
      ],
      "stateMutability": "view",
      "type": "function"
    },
    {
      "inputs": [],
      "name": "renounceOwnership",
      "outputs": [],
      "stateMutability": "nonpayable",
      "type": "function"
    },
    {
      "inputs": [
        {
          "internalType": "address",
          "name": "from",
          "type": "address"
        },
        {
          "internalType": "address",
          "name": "to",
          "type": "address"
        },
        {
          "internalType": "uint256",
          "name": "tokenId",
          "type": "uint256"
        }
      ],
      "name": "safeTransferFrom",
      "outputs": [],
      "stateMutability": "nonpayable",
      "type": "function"
    },
    {
      "inputs": [
        {
          "internalType": "address",
          "name": "from",
          "type": "address"
        },
        {
          "internalType": "address",
          "name": "to",
          "type": "address"
        },
        {
          "internalType": "uint256",
          "name": "tokenId",
          "type": "uint256"
        },
        {
          "internalType": "bytes",
          "name": "data",
          "type": "bytes"
        }
      ],
      "name": "safeTransferFrom",
      "outputs": [],
      "stateMutability": "nonpayable",
      "type": "function"
    },
    {
      "inputs": [
        {
          "internalType": "address",
          "name": "",
          "type": "address"
        },
        {
          "internalType": "uint256",
          "name": "",
          "type": "uint256"
        }
      ],
      "name": "selfMintedFortunes",
      "outputs": [
        {
          "internalType": "uint8",
          "name": "",
          "type": "uint8"
        }
      ],
      "stateMutability": "view",
      "type": "function"
    },
    {
      "inputs": [
        {
          "internalType": "string[7]",
          "name": "ipfsHashes",
          "type": "string[7]"
        }
      ],
      "name": "setAllFortuneImageHashes",
      "outputs": [],
      "stateMutability": "nonpayable",
      "type": "function"
    },
    {
      "inputs": [
        {
          "internalType": "address",
          "name": "operator",
          "type": "address"
        },
        {
          "internalType": "bool",
          "name": "approved",
          "type": "bool"
        }
      ],
      "name": "setApprovalForAll",
      "outputs": [],
      "stateMutability": "nonpayable",
      "type": "function"
    },
    {
      "inputs": [
        {
          "internalType": "string",
          "name": "baseURI",
          "type": "string"
        }
      ],
      "name": "setBaseURI",
      "outputs": [],
      "stateMutability": "nonpayable",
      "type": "function"
    },
    {
      "inputs": [
        {
          "internalType": "uint8",
          "name": "fortuneType",
          "type": "uint8"
        },
        {
          "internalType": "string",
          "name": "ipfsHash",
          "type": "string"
        }
      ],
      "name": "setFortuneImageHash",
      "outputs": [],
      "stateMutability": "nonpayable",
      "type": "function"
    },
    {
      "inputs": [
        {
          "internalType": "uint256",
          "name": "_price",
          "type": "uint256"
        }
      ],
      "name": "setPrice",
      "outputs": [],
      "stateMutability": "nonpayable",
      "type": "function"
    },
    {
      "inputs": [
        {
          "internalType": "bytes4",
          "name": "interfaceId",
          "type": "bytes4"
        }
      ],
      "name": "supportsInterface",
      "outputs": [
        {
          "internalType": "bool",
          "name": "",
          "type": "bool"
        }
      ],
      "stateMutability": "view",
      "type": "function"
    },
    {
      "inputs": [],
      "name": "symbol",
      "outputs": [
        {
          "internalType": "string",
          "name": "",
          "type": "string"
        }
      ],
      "stateMutability": "view",
      "type": "function"
    },
    {
      "inputs": [
        {
          "internalType": "uint256",
          "name": "tokenId",
          "type": "uint256"
        }
      ],
      "name": "tokenURI",
      "outputs": [
        {
          "internalType": "string",
          "name": "",
          "type": "string"
        }
      ],
      "stateMutability": "view",
      "type": "function"
    },
    {
      "inputs": [],
      "name": "totalSupply",
      "outputs": [
        {
          "internalType": "uint256",
          "name": "",
          "type": "uint256"
        }
      ],
      "stateMutability": "view",
      "type": "function"
    },
    {
      "inputs": [
        {
          "internalType": "address",
          "name": "from",
          "type": "address"
        },
        {
          "internalType": "address",
          "name": "to",
          "type": "address"
        },
        {
          "internalType": "uint256",
          "name": "tokenId",
          "type": "uint256"
        }
      ],
      "name": "transferFrom",
      "outputs": [],
      "stateMutability": "nonpayable",
      "type": "function"
    },
    {
      "inputs": [
        {
          "internalType": "address",
          "name": "newOwner",
          "type": "address"
        }
      ],
      "name": "transferOwnership",
      "outputs": [],
      "stateMutability": "nonpayable",
      "type": "function"
    },
    {
      "inputs": [],
      "name": "withdraw",
      "outputs": [],
      "stateMutability": "nonpayable",
      "type": "function"
    }
  ],
  "bytecode": "0x608060405267016345785d8a00006008556040518060800160405280605e815260200161674f605e913960099081610037919061099b565b506040518060e001604052806040518060600160405280603781526020016165786037913981526020016040518060600160405280603181526020016165af6031913981526020016040518060600160405280602481526020016167e860249139815260200160405180606001604052806025815260200161663e6025913981526020016040518060600160405280602d8152602001616510602d9139815260200160405180606001604052806023815260200161661b6023913981526020016040518060600160405280602581526020016164eb60259139815250600f90600761012392919061067e565b506040518060e001604052806040518060400160405280601a81526020017f537570657220556c74726120477265617420426c657373696e6700000000000081525081526020016040518060400160405280601481526020017f556c74726120477265617420426c657373696e6700000000000000000000000081525081526020016040518060400160405280600e81526020017f477265617420426c657373696e6700000000000000000000000000000000000081525081526020016040518060400160405280600f81526020017f4d6964646c6520426c657373696e67000000000000000000000000000000000081525081526020016040518060400160405280600e81526020017f536d616c6c20426c657373696e6700000000000000000000000000000000000081525081526020016040518060400160405280600881526020017f426c657373696e6700000000000000000000000000000000000000000000000081525081526020016040518060400160405280600e81526020017f4d696e6f7220426c657373696e6700000000000000000000000000000000000081525081525060169060076102da92919061067e565b503480156102e757600080fd5b50336040518060400160405280601b81526020017f4f6d696b756a6920536872696e65206f6e204d6f6e6164204e465400000000008152506040518060400160405280600781526020017f4f4d494b554a49000000000000000000000000000000000000000000000000008152508160009081610364919061099b565b508060019081610374919061099b565b505050600073ffffffffffffffffffffffffffffffffffffffff168173ffffffffffffffffffffffffffffffffffffffff16036103e95760006040517f1e4fbdf70000000000000000000000000000000000000000000000000000000081526004016103e09190610aae565b60405180910390fd5b6103f88161040c60201b60201c565b506104076104d260201b60201c565b610ac9565b6000600660009054906101000a900473ffffffffffffffffffffffffffffffffffffffff16905081600660006101000a81548173ffffffffffffffffffffffffffffffffffffffff021916908373ffffffffffffffffffffffffffffffffffffffff1602179055508173ffffffffffffffffffffffffffffffffffffffff168173ffffffffffffffffffffffffffffffffffffffff167f8be0079c531659141344cd1fd0a4f28419497f9722a3daafe3b4186f6b6457e060405160405180910390a35050565b6040518060600160405280603b815260200161653d603b9139600a60008060ff168152602001908152602001600020908161050d919061099b565b506040518060600160405280603b8152602001616663603b9139600a6000600160ff168152602001908152602001600020908161054a919061099b565b506040518060600160405280603b8152602001616714603b9139600a6000600260ff1681526020019081526020016000209081610587919061099b565b506040518060600160405280603b81526020016166d9603b9139600a6000600360ff16815260200190815260200160002090816105c4919061099b565b506040518060600160405280603b81526020016167ad603b9139600a6000600460ff1681526020019081526020016000209081610601919061099b565b506040518060600160405280603b81526020016165e0603b9139600a6000600560ff168152602001908152602001600020908161063e919061099b565b506040518060600160405280603b815260200161669e603b9139600a6000600660ff168152602001908152602001600020908161067b919061099b565b50565b82600781019282156106b9579160200282015b828111156106b85782518290816106a8919061099b565b5091602001919060010190610691565b5b5090506106c691906106ca565b5090565b5b808211156106ea57600081816106e191906106ee565b506001016106cb565b5090565b5080546106fa906107b4565b6000825580601f1061070c575061072b565b601f01602090049060005260206000209081019061072a919061072e565b5b50565b5b8082111561074757600081600090555060010161072f565b5090565b600081519050919050565b7f4e487b7100000000000000000000000000000000000000000000000000000000600052604160045260246000fd5b7f4e487b7100000000000000000000000000000000000000000000000000000000600052602260045260246000fd5b600060028204905060018216806107cc57607f821691505b6020821081036107df576107de610785565b5b50919050565b60008190508160005260206000209050919050565b60006020601f8301049050919050565b600082821b905092915050565b6000600883026108477fffffffffffffffffffffffffffffffffffffffffffffffffffffffffffffffff8261080a565b610851868361080a565b95508019841693508086168417925050509392505050565b6000819050919050565b6000819050919050565b600061089861089361088e84610869565b610873565b610869565b9050919050565b6000819050919050565b6108b28361087d565b6108c66108be8261089f565b848454610817565b825550505050565b600090565b6108db6108ce565b6108e68184846108a9565b505050565b5b8181101561090a576108ff6000826108d3565b6001810190506108ec565b5050565b601f82111561094f57610920816107e5565b610929846107fa565b81016020851015610938578190505b61094c610944856107fa565b8301826108eb565b50505b505050565b600082821c905092915050565b600061097260001984600802610954565b1980831691505092915050565b600061098b8383610961565b9150826002028217905092915050565b6109a48261074b565b67ffffffffffffffff8111156109bd576109bc610756565b5b6109c782546107b4565b6109d282828561090e565b600060209050601f831160018114610a0557600084156109f3578287015190505b6109fd858261097f565b865550610a65565b601f198416610a13866107e5565b60005b82811015610a3b57848901518255600182019150602085019450602081019050610a16565b86831015610a585784890151610a54601f891682610961565b8355505b6001600288020188555050505b505050505050565b600073ffffffffffffffffffffffffffffffffffffffff82169050919050565b6000610a9882610a6d565b9050919050565b610aa881610a8d565b82525050565b6000602082019050610ac36000830184610a9f565b92915050565b615a1380610ad86000396000f3fe60806040526004361061025c5760003560e01c80636d41d4fb11610144578063b007e188116100b6578063cebd0e7f1161007a578063cebd0e7f146109ab578063da0239a6146109e8578063db811e2414610a13578063e985e9c514610a3c578063f023145814610a79578063f2fde38b14610ab85761025c565b8063b007e188146108a2578063b88d4fde146108df578063c21d506114610908578063c351de6914610945578063c87b56dd1461096e5761025c565b80638da5cb5b116101085780638da5cb5b146107805780639063ad04146107ab57806391b7f5ed146107e8578063929cd8741461081157806395d89b411461084e578063a22cb465146108795761025c565b80636d41d4fb1461067357806370a08231146106b0578063715018a6146106ed5780637182736f146107045780638c8005a3146107415761025c565b80632d2c7b55116101dd57806355f804b3116101a157806355f804b314610536578063581f0fb01461055f5780635982773b1461057d5780635b96e7f4146105ba5780636352211e146105f957806368e68d1b146106365761025c565b80632d2c7b55146104515780633ccfd60b1461048e57806342842e0e146104a55780634b39d64f146104ce5780634ca8a9411461050b5761025c565b8063101e387611610224578063101e38761461035a57806318160ddd146103975780631a7766d2146103c25780631b18b526146103ff57806323b872dd146104285761025c565b806301ffc9a714610261578063062f7b8c1461029e57806306fdde03146102c9578063081812fc146102f4578063095ea7b314610331575b600080fd5b34801561026d57600080fd5b5061028860048036038101906102839190613e85565b610ae1565b6040516102959190613ecd565b60405180910390f35b3480156102aa57600080fd5b506102b3610bc3565b6040516102c09190613fa1565b60405180910390f35b3480156102d557600080fd5b506102de610c2b565b6040516102eb919061404c565b60405180910390f35b34801561030057600080fd5b5061031b600480360381019061031691906140a4565b610cbd565b6040516103289190614112565b60405180910390f35b34801561033d57600080fd5b5061035860048036038101906103539190614159565b610cd9565b005b34801561036657600080fd5b50610381600480360381019061037c9190614199565b610cef565b60405161038e91906141e2565b60405180910390f35b3480156103a357600080fd5b506103ac610e85565b6040516103b9919061420c565b60405180910390f35b3480156103ce57600080fd5b506103e960048036038101906103e49190614199565b610e8f565b6040516103f691906142e5565b60405180910390f35b34801561040b57600080fd5b506104266004803603810190610421919061436c565b610f4c565b005b34801561043457600080fd5b5061044f600480360381019061044a91906143b9565b611232565b005b34801561045d57600080fd5b50610478600480360381019061047391906140a4565b611334565b604051610485919061404c565b60405180910390f35b34801561049a57600080fd5b506104a36114ac565b005b3480156104b157600080fd5b506104cc60048036038101906104c791906143b9565b611504565b005b3480156104da57600080fd5b506104f560048036038101906104f091906140a4565b611524565b604051610502919061404c565b60405180910390f35b34801561051757600080fd5b50610520611668565b60405161052d919061420c565b60405180910390f35b34801561054257600080fd5b5061055d6004803603810190610558919061453c565b61166e565b005b610567611689565b604051610574919061420c565b60405180910390f35b34801561058957600080fd5b506105a4600480360381019061059f9190614199565b611ae1565b6040516105b19190613ecd565b60405180910390f35b3480156105c657600080fd5b506105e160048036038101906105dc9190614199565b611aec565b6040516105f093929190614585565b60405180910390f35b34801561060557600080fd5b50610620600480360381019061061b91906140a4565b611c1a565b60405161062d9190614112565b60405180910390f35b34801561064257600080fd5b5061065d60048036038101906106589190614159565b611c2c565b60405161066a91906141e2565b60405180910390f35b34801561067f57600080fd5b5061069a60048036038101906106959190614199565b611c6f565b6040516106a7919061420c565b60405180910390f35b3480156106bc57600080fd5b506106d760048036038101906106d29190614199565b611c87565b6040516106e4919061420c565b60405180910390f35b3480156106f957600080fd5b50610702611d41565b005b34801561071057600080fd5b5061072b60048036038101906107269190614199565b611d55565b6040516107389190613ecd565b60405180910390f35b34801561074d57600080fd5b50610768600480360381019061076391906140a4565b611d67565b604051610777939291906145db565b60405180910390f35b34801561078c57600080fd5b50610795611dce565b6040516107a29190614112565b60405180910390f35b3480156107b757600080fd5b506107d260048036038101906107cd9190614199565b611df8565b6040516107df9190613ecd565b60405180910390f35b3480156107f457600080fd5b5061080f600480360381019061080a91906140a4565b611e18565b005b34801561081d57600080fd5b506108386004803603810190610833919061463e565b611e2a565b604051610845919061473c565b60405180910390f35b34801561085a57600080fd5b50610863611ff7565b604051610870919061404c565b60405180910390f35b34801561088557600080fd5b506108a0600480360381019061089b919061478a565b612089565b005b3480156108ae57600080fd5b506108c960048036038101906108c4919061436c565b61209f565b6040516108d6919061420c565b60405180910390f35b3480156108eb57600080fd5b506109066004803603810190610901919061486b565b6126bc565b005b34801561091457600080fd5b5061092f600480360381019061092a9190614199565b6126e1565b60405161093c919061420c565b60405180910390f35b34801561095157600080fd5b5061096c600480360381019061096791906148ee565b6126e8565b005b34801561097a57600080fd5b50610995600480360381019061099091906140a4565b612761565b6040516109a2919061404c565b60405180910390f35b3480156109b757600080fd5b506109d260048036038101906109cd919061494a565b6128cf565b6040516109df919061404c565b60405180910390f35b3480156109f457600080fd5b506109fd61296f565b604051610a0a919061420c565b60405180910390f35b348015610a1f57600080fd5b50610a3a6004803603810190610a359190614a46565b6129a4565b005b348015610a4857600080fd5b50610a636004803603810190610a5e9190614a8f565b612a0d565b604051610a709190613ecd565b60405180910390f35b348015610a8557600080fd5b50610aa06004803603810190610a9b91906140a4565b612aa1565b604051610aaf939291906145db565b60405180910390f35b348015610ac457600080fd5b50610adf6004803603810190610ada9190614199565b612bf4565b005b60007f80ac58cd000000000000000000000000000000000000000000000000000000007bffffffffffffffffffffffffffffffffffffffffffffffffffffffff1916827bffffffffffffffffffffffffffffffffffffffffffffffffffffffff19161480610bac57507f5b5e139f000000000000000000000000000000000000000000000000000000007bffffffffffffffffffffffffffffffffffffffffffffffffffffffff1916827bffffffffffffffffffffffffffffffffffffffffffffffffffffffff1916145b80610bbc5750610bbb82612c7a565b5b9050919050565b610bcb613dd5565b6040518060e00160405280603261ffff168152602001609661ffff1681526020016101f461ffff1681526020016103e861ffff1681526020016107d061ffff168152602001610bb861ffff168152602001610ce461ffff16815250905090565b606060008054610c3a90614afe565b80601f0160208091040260200160405190810160405280929190818152602001828054610c6690614afe565b8015610cb35780601f10610c8857610100808354040283529160200191610cb3565b820191906000526020600020905b815481529060010190602001808311610c9657829003601f168201915b5050505050905090565b6000610cc882612ce4565b50610cd282612d6c565b9050919050565b610ceb8282610ce6612da9565b612db1565b5050565b6000610cf9613df7565b6000600c60008573ffffffffffffffffffffffffffffffffffffffff1673ffffffffffffffffffffffffffffffffffffffff168152602001908152602001600020805480602002602001604051908101604052809291908181526020018280548015610daa57602002820191906000526020600020906000905b82829054906101000a900460ff1660ff1681526020019060010190602082600001049283019260010382029150808411610d735790505b5050505050905060005b8151811015610e32576007828281518110610dd257610dd1614b2f565b5b602002602001015160ff161015610e2557600183838381518110610df957610df8614b2f565b5b602002602001015160ff1660078110610e1557610e14614b2f565b5b6020020190151590811515815250505b8080600101915050610db4565b506000805b6007811015610e7957838160078110610e5357610e52614b2f565b5b602002015115610e6c578180610e6890614b8d565b9250505b8080600101915050610e37565b50809350505050919050565b6000600754905090565b6060600c60008373ffffffffffffffffffffffffffffffffffffffff1673ffffffffffffffffffffffffffffffffffffffff168152602001908152602001600020805480602002602001604051908101604052809291908181526020018280548015610f4057602002820191906000526020600020906000905b82829054906101000a900460ff1660ff1681526020019060010190602082600001049283019260010382029150808411610f095790505b50505050509050919050565b60038282905014610f92576040517f08c379a0000000000000000000000000000000000000000000000000000000008152600401610f8990614c02565b60405180910390fd5b6000600b600084846000818110610fac57610fab614b2f565b5b90506020020135815260200190815260200160002060000160009054906101000a900460ff16905060058160ff161480610fe9575060068160ff16145b611028576040517f08c379a000000000000000000000000000000000000000000000000000000000815260040161101f90614c94565b60405180910390fd5b60005b6003811015611176573373ffffffffffffffffffffffffffffffffffffffff1661106d85858481811061106157611060614b2f565b5b90506020020135611c1a565b73ffffffffffffffffffffffffffffffffffffffff16146110c3576040517f08c379a00000000000000000000000000000000000000000000000000000000081526004016110ba90614d00565b60405180910390fd5b8160ff16600b60008686858181106110de576110dd614b2f565b5b90506020020135815260200190815260200160002060000160009054906101000a900460ff1660ff1614611147576040517f08c379a000000000000000000000000000000000000000000000000000000000815260040161113e90614d92565b60405180910390fd5b61116984848381811061115d5761115c614b2f565b5b90506020020135612dc3565b808060010191505061102b565b5061118333826003612e49565b600e60003373ffffffffffffffffffffffffffffffffffffffff1673ffffffffffffffffffffffffffffffffffffffff16815260200190815260200160002060008154809291906111d390614db2565b91905055503373ffffffffffffffffffffffffffffffffffffffff167f3f8f46239f5ff752f97f04a4337ae063eef2701094d1d74887e142568aa1539784848460016040516112259493929190614ea9565b60405180910390a2505050565b600073ffffffffffffffffffffffffffffffffffffffff168273ffffffffffffffffffffffffffffffffffffffff16036112a45760006040517f64a0ae9200000000000000000000000000000000000000000000000000000000815260040161129b9190614112565b60405180910390fd5b60006112b883836112b3612da9565b612fdc565b90508373ffffffffffffffffffffffffffffffffffffffff168173ffffffffffffffffffffffffffffffffffffffff161461132e578382826040517f64283d7b00000000000000000000000000000000000000000000000000000000815260040161132593929190614ee9565b60405180910390fd5b50505050565b6060600073ffffffffffffffffffffffffffffffffffffffff16611357836131f6565b73ffffffffffffffffffffffffffffffffffffffff16036113ad576040517f08c379a00000000000000000000000000000000000000000000000000000000081526004016113a490614f6c565b60405180910390fd5b6000600b60008481526020019081526020016000206040518060600160405290816000820160009054906101000a900460ff1660ff1660ff1681526020016000820160019054906101000a900463ffffffff1663ffffffff1663ffffffff1681526020016000820160059054906101000a900473ffffffffffffffffffffffffffffffffffffffff1673ffffffffffffffffffffffffffffffffffffffff1673ffffffffffffffffffffffffffffffffffffffff16815250509050600a6000826000015160ff1660ff16815260200190815260200160002060405160200161149591906150a1565b604051602081830303815290604052915050919050565b6114b4613233565b6114bc611dce565b73ffffffffffffffffffffffffffffffffffffffff166108fc479081150290604051600060405180830381858888f19350505050158015611501573d6000803e3d6000fd5b50565b61151f838383604051806020016040528060008152506126bc565b505050565b6060600073ffffffffffffffffffffffffffffffffffffffff16611547836131f6565b73ffffffffffffffffffffffffffffffffffffffff160361159d576040517f08c379a000000000000000000000000000000000000000000000000000000000815260040161159490614f6c565b60405180910390fd5b600f600b600084815260200190815260200160002060000160009054906101000a900460ff1660ff16600781106115d7576115d6614b2f565b5b0180546115e390614afe565b80601f016020809104026020016040519081016040528092919081815260200182805461160f90614afe565b801561165c5780601f106116315761010080835404028352916020019161165c565b820191906000526020600020905b81548152906001019060200180831161163f57829003601f168201915b50505050509050919050565b60085481565b611676613233565b80600990816116859190615250565b5050565b600080600e60003373ffffffffffffffffffffffffffffffffffffffff1673ffffffffffffffffffffffffffffffffffffffff16815260200190815260200160002054111561172c57600e60003373ffffffffffffffffffffffffffffffffffffffff1673ffffffffffffffffffffffffffffffffffffffff168152602001908152602001600020600081548092919061172290615322565b9190505550611772565b600854341015611771576040517f08c379a000000000000000000000000000000000000000000000000000000000815260040161176890615397565b60405180910390fd5b5b600760008154809291906001019190505550600060075490506000612710424433856040516020016117a79493929190615420565b6040516020818303038152906040528051906020012060001c6117ca919061549d565b9050600060328210156117e05760009050611848565b60c88210156117f25760019050611847565b6102bc8210156118055760029050611846565b6106a48210156118185760039050611845565b610e7482101561182b5760049050611844565b611a2c82101561183e5760059050611843565b600690505b5b5b5b5b5b60405180606001604052808260ff1681526020014263ffffffff1681526020013373ffffffffffffffffffffffffffffffffffffffff16815250600b600085815260200190815260200160002060008201518160000160006101000a81548160ff021916908360ff16021790555060208201518160000160016101000a81548163ffffffff021916908363ffffffff16021790555060408201518160000160056101000a81548173ffffffffffffffffffffffffffffffffffffffff021916908373ffffffffffffffffffffffffffffffffffffffff160217905550905050600c60003373ffffffffffffffffffffffffffffffffffffffff1673ffffffffffffffffffffffffffffffffffffffff1681526020019081526020016000208190806001815401808255809150506001900390600052602060002090602091828204019190069091909190916101000a81548160ff021916908360ff160217905550600d60003373ffffffffffffffffffffffffffffffffffffffff1673ffffffffffffffffffffffffffffffffffffffff16815260200190815260200160002060009054906101000a900460ff16158015611a085750611a07336132ba565b5b15611a66576001600d60003373ffffffffffffffffffffffffffffffffffffffff1673ffffffffffffffffffffffffffffffffffffffff16815260200190815260200160002060006101000a81548160ff0219169083151502179055505b611a70338461344c565b823373ffffffffffffffffffffffffffffffffffffffff167f8f59f601bb75974d2fc5a2ee8f1b7de682a1e78edb4cb7418db454c60ee4a5d183600f8560ff1660078110611ac157611ac0614b2f565b5b01604051611ad0929190615552565b60405180910390a382935050505090565b600060019050919050565b60008060008060009050600080600190505b6007548111611bd0578673ffffffffffffffffffffffffffffffffffffffff16611b27826131f6565b73ffffffffffffffffffffffffffffffffffffffff1603611bbd576005600b600083815260200190815260200160002060000160009054906101000a900460ff1660ff1603611b7f578280611b7b90614db2565b9350505b6006600b600083815260200190815260200160002060000160009054906101000a900460ff1660ff1603611bbc578180611bb890614db2565b9250505b5b8080611bc890614db2565b915050611afe565b5060038210611beb5760016005839450945094505050611c13565b60038110611c055760016006829450945094505050611c13565b600080600094509450945050505b9193909250565b6000611c2582612ce4565b9050919050565b600c6020528160005260406000208181548110611c4857600080fd5b9060005260206000209060209182820401919006915091509054906101000a900460ff1681565b600e6020528060005260406000206000915090505481565b60008073ffffffffffffffffffffffffffffffffffffffff168273ffffffffffffffffffffffffffffffffffffffff1603611cfa5760006040517f89c62b64000000000000000000000000000000000000000000000000000000008152600401611cf19190614112565b60405180910390fd5b600360008373ffffffffffffffffffffffffffffffffffffffff1673ffffffffffffffffffffffffffffffffffffffff168152602001908152602001600020549050919050565b611d49613233565b611d536000613545565b565b6000611d60826132ba565b9050919050565b600b6020528060005260406000206000915090508060000160009054906101000a900460ff16908060000160019054906101000a900463ffffffff16908060000160059054906101000a900473ffffffffffffffffffffffffffffffffffffffff16905083565b6000600660009054906101000a900473ffffffffffffffffffffffffffffffffffffffff16905090565b600d6020528060005260406000206000915054906101000a900460ff1681565b611e20613233565b8060088190555050565b60606000611e3784611c87565b905060008167ffffffffffffffff811115611e5557611e54614411565b5b604051908082528060200260200182016040528015611e835781602001602082028036833780820191505090505b509050600080600190505b6007548111611f49578673ffffffffffffffffffffffffffffffffffffffff16611eb7826131f6565b73ffffffffffffffffffffffffffffffffffffffff16148015611f0257508560ff16600b600083815260200190815260200160002060000160009054906101000a900460ff1660ff16145b15611f365780838381518110611f1b57611f1a614b2f565b5b6020026020010181815250508180611f3290614db2565b9250505b8080611f4190614db2565b915050611e8e565b5060008167ffffffffffffffff811115611f6657611f65614411565b5b604051908082528060200260200182016040528015611f945781602001602082028036833780820191505090505b50905060005b82811015611fe957838181518110611fb557611fb4614b2f565b5b6020026020010151828281518110611fd057611fcf614b2f565b5b6020026020010181815250508080600101915050611f9a565b508094505050505092915050565b60606001805461200690614afe565b80601f016020809104026020016040519081016040528092919081815260200182805461203290614afe565b801561207f5780601f106120545761010080835404028352916020019161207f565b820191906000526020600020905b81548152906001019060200180831161206257829003601f168201915b5050505050905090565b61209b612094612da9565b838361360b565b5050565b6000600383839050146120e7576040517f08c379a00000000000000000000000000000000000000000000000000000000081526004016120de90614c02565b60405180910390fd5b6000600b60008585600081811061210157612100614b2f565b5b90506020020135815260200190815260200160002060000160009054906101000a900460ff16905060058160ff16148061213e575060068160ff16145b61217d576040517f08c379a000000000000000000000000000000000000000000000000000000000815260040161217490614c94565b60405180910390fd5b60005b60038110156122cb573373ffffffffffffffffffffffffffffffffffffffff166121c28686848181106121b6576121b5614b2f565b5b90506020020135611c1a565b73ffffffffffffffffffffffffffffffffffffffff1614612218576040517f08c379a000000000000000000000000000000000000000000000000000000000815260040161220f90614d00565b60405180910390fd5b8160ff16600b600087878581811061223357612232614b2f565b5b90506020020135815260200190815260200160002060000160009054906101000a900460ff1660ff161461229c576040517f08c379a000000000000000000000000000000000000000000000000000000000815260040161229390614d92565b60405180910390fd5b6122be8585838181106122b2576122b1614b2f565b5b90506020020135612dc3565b8080600101915050612180565b506122d833826003612e49565b3373ffffffffffffffffffffffffffffffffffffffff167f3f8f46239f5ff752f97f04a4337ae063eef2701094d1d74887e142568aa15397858584600060405161232594939291906155bd565b60405180910390a2600760008154809291906001019190505550600060075490506000612710424433858a8a600081811061236357612362614b2f565b5b9050602002013560405160200161237e9594939291906155fd565b6040516020818303038152906040528051906020012060001c6123a1919061549d565b9050600060328210156123b7576000905061241f565b60c88210156123c9576001905061241e565b6102bc8210156123dc576002905061241d565b6106a48210156123ef576003905061241c565b610e74821015612402576004905061241b565b611a2c821015612415576005905061241a565b600690505b5b5b5b5b5b60405180606001604052808260ff1681526020014263ffffffff1681526020013373ffffffffffffffffffffffffffffffffffffffff16815250600b600085815260200190815260200160002060008201518160000160006101000a81548160ff021916908360ff16021790555060208201518160000160016101000a81548163ffffffff021916908363ffffffff16021790555060408201518160000160056101000a81548173ffffffffffffffffffffffffffffffffffffffff021916908373ffffffffffffffffffffffffffffffffffffffff160217905550905050600c60003373ffffffffffffffffffffffffffffffffffffffff1673ffffffffffffffffffffffffffffffffffffffff1681526020019081526020016000208190806001815401808255809150506001900390600052602060002090602091828204019190069091909190916101000a81548160ff021916908360ff160217905550600d60003373ffffffffffffffffffffffffffffffffffffffff1673ffffffffffffffffffffffffffffffffffffffff16815260200190815260200160002060009054906101000a900460ff161580156125df57506125de336132ba565b5b1561263d576001600d60003373ffffffffffffffffffffffffffffffffffffffff1673ffffffffffffffffffffffffffffffffffffffff16815260200190815260200160002060006101000a81548160ff0219169083151502179055505b612647338461344c565b823373ffffffffffffffffffffffffffffffffffffffff167f8f59f601bb75974d2fc5a2ee8f1b7de682a1e78edb4cb7418db454c60ee4a5d183600f8560ff166007811061269857612697614b2f565b5b016040516126a7929190615552565b60405180910390a38294505050505092915050565b6126c7848484611232565b6126db6126d2612da9565b8585858561377a565b50505050565b6000919050565b6126f0613233565b60078260ff1610612736576040517f08c379a000000000000000000000000000000000000000000000000000000000815260040161272d906156a8565b60405180910390fd5b80600a60008460ff1660ff168152602001908152602001600020908161275c9190615250565b505050565b6060600073ffffffffffffffffffffffffffffffffffffffff16612784836131f6565b73ffffffffffffffffffffffffffffffffffffffff16036127da576040517f08c379a00000000000000000000000000000000000000000000000000000000081526004016127d190614f6c565b60405180910390fd5b6000600b60008481526020019081526020016000206040518060600160405290816000820160009054906101000a900460ff1660ff1660ff1681526020016000820160019054906101000a900463ffffffff1663ffffffff1663ffffffff1681526020016000820160059054906101000a900473ffffffffffffffffffffffffffffffffffffffff1673ffffffffffffffffffffffffffffffffffffffff1673ffffffffffffffffffffffffffffffffffffffff1681525050905060096128a7826000015160ff1661392b565b6040516020016128b8929190615745565b604051602081830303815290604052915050919050565b600a60205280600052604060002060009150905080546128ee90614afe565b80601f016020809104026020016040519081016040528092919081815260200182805461291a90614afe565b80156129675780601f1061293c57610100808354040283529160200191612967565b820191906000526020600020905b81548152906001019060200180831161294a57829003601f168201915b505050505081565b60006007547fffffffffffffffffffffffffffffffffffffffffffffffffffffffffffffffff61299f9190615774565b905090565b6129ac613233565b60005b60078160ff161015612a0957818160ff16600781106129d1576129d0614b2f565b5b6020020151600a60008360ff1660ff16815260200190815260200160002090816129fb9190615250565b5080806001019150506129af565b5050565b6000600560008473ffffffffffffffffffffffffffffffffffffffff1673ffffffffffffffffffffffffffffffffffffffff16815260200190815260200160002060008373ffffffffffffffffffffffffffffffffffffffff1673ffffffffffffffffffffffffffffffffffffffff16815260200190815260200160002060009054906101000a900460ff16905092915050565b60008060008073ffffffffffffffffffffffffffffffffffffffff16612ac6856131f6565b73ffffffffffffffffffffffffffffffffffffffff1603612b1c576040517f08c379a0000000000000000000000000000000000000000000000000000000008152600401612b1390614f6c565b60405180910390fd5b6000600b60008681526020019081526020016000206040518060600160405290816000820160009054906101000a900460ff1660ff1660ff1681526020016000820160019054906101000a900463ffffffff1663ffffffff1663ffffffff1681526020016000820160059054906101000a900473ffffffffffffffffffffffffffffffffffffffff1673ffffffffffffffffffffffffffffffffffffffff1673ffffffffffffffffffffffffffffffffffffffff16815250509050806000015181602001518260400151935093509350509193909250565b612bfc613233565b600073ffffffffffffffffffffffffffffffffffffffff168173ffffffffffffffffffffffffffffffffffffffff1603612c6e5760006040517f1e4fbdf7000000000000000000000000000000000000000000000000000000008152600401612c659190614112565b60405180910390fd5b612c7781613545565b50565b60007f01ffc9a7000000000000000000000000000000000000000000000000000000007bffffffffffffffffffffffffffffffffffffffffffffffffffffffff1916827bffffffffffffffffffffffffffffffffffffffffffffffffffffffff1916149050919050565b600080612cf0836131f6565b9050600073ffffffffffffffffffffffffffffffffffffffff168173ffffffffffffffffffffffffffffffffffffffff1603612d6357826040517f7e273289000000000000000000000000000000000000000000000000000000008152600401612d5a919061420c565b60405180910390fd5b80915050919050565b60006004600083815260200190815260200160002060009054906101000a900473ffffffffffffffffffffffffffffffffffffffff169050919050565b600033905090565b612dbe8383836001613a8b565b505050565b6000612dd26000836000612fdc565b9050600073ffffffffffffffffffffffffffffffffffffffff168173ffffffffffffffffffffffffffffffffffffffff1603612e4557816040517f7e273289000000000000000000000000000000000000000000000000000000008152600401612e3c919061420c565b60405180910390fd5b5050565b6000600c60008573ffffffffffffffffffffffffffffffffffffffff1673ffffffffffffffffffffffffffffffffffffffff168152602001908152602001600020905060008060018380549050612ea091906157b2565b90505b60008112158015612eb357508382105b15612fd4578460ff16838281548110612ecf57612ece614b2f565b5b90600052602060002090602091828204019190069054906101000a900460ff1660ff1603612fc1578260018480549050612f099190615774565b81548110612f1a57612f19614b2f565b5b90600052602060002090602091828204019190069054906101000a900460ff16838281548110612f4d57612f4c614b2f565b5b90600052602060002090602091828204019190066101000a81548160ff021916908360ff16021790555082805480612f8857612f876157f5565b5b60019003818190600052602060002090602091828204019190066101000a81549060ff021916905590558180612fbd90614db2565b9250505b8080612fcc90615824565b915050612ea3565b505050505050565b600080612fe8846131f6565b9050600073ffffffffffffffffffffffffffffffffffffffff168373ffffffffffffffffffffffffffffffffffffffff161461302a57613029818486613c50565b5b600073ffffffffffffffffffffffffffffffffffffffff168173ffffffffffffffffffffffffffffffffffffffff16146130bb5761306c600085600080613a8b565b6001600360008373ffffffffffffffffffffffffffffffffffffffff1673ffffffffffffffffffffffffffffffffffffffff168152602001908152602001600020600082825403925050819055505b600073ffffffffffffffffffffffffffffffffffffffff168573ffffffffffffffffffffffffffffffffffffffff161461313e576001600360008773ffffffffffffffffffffffffffffffffffffffff1673ffffffffffffffffffffffffffffffffffffffff168152602001908152602001600020600082825401925050819055505b846002600086815260200190815260200160002060006101000a81548173ffffffffffffffffffffffffffffffffffffffff021916908373ffffffffffffffffffffffffffffffffffffffff160217905550838573ffffffffffffffffffffffffffffffffffffffff168273ffffffffffffffffffffffffffffffffffffffff167fddf252ad1be2c89b69c2b068fc378daa952ba7f163c4a11628f55a4df523b3ef60405160405180910390a4809150509392505050565b60006002600083815260200190815260200160002060009054906101000a900473ffffffffffffffffffffffffffffffffffffffff169050919050565b61323b612da9565b73ffffffffffffffffffffffffffffffffffffffff16613259611dce565b73ffffffffffffffffffffffffffffffffffffffff16146132b85761327c612da9565b6040517f118cdaa70000000000000000000000000000000000000000000000000000000081526004016132af9190614112565b60405180910390fd5b565b60006132c4613df7565b6000600c60008573ffffffffffffffffffffffffffffffffffffffff1673ffffffffffffffffffffffffffffffffffffffff16815260200190815260200160002080548060200260200160405190810160405280929190818152602001828054801561337557602002820191906000526020600020906000905b82829054906101000a900460ff1660ff168152602001906001019060208260000104928301926001038202915080841161333e5790505b5050505050905060005b81518110156133fd57600782828151811061339d5761339c614b2f565b5b602002602001015160ff1610156133f0576001838383815181106133c4576133c3614b2f565b5b602002602001015160ff16600781106133e0576133df614b2f565b5b6020020190151590811515815250505b808060010191505061337f565b5060005b600781101561343f5782816007811061341d5761341c614b2f565b5b60200201516134325760009350505050613447565b8080600101915050613401565b506001925050505b919050565b600073ffffffffffffffffffffffffffffffffffffffff168273ffffffffffffffffffffffffffffffffffffffff16036134be5760006040517f64a0ae920000000000000000000000000000000000000000000000000000000081526004016134b59190614112565b60405180910390fd5b60006134cc83836000612fdc565b9050600073ffffffffffffffffffffffffffffffffffffffff168173ffffffffffffffffffffffffffffffffffffffff16146135405760006040517f73c6ac6e0000000000000000000000000000000000000000000000000000000081526004016135379190614112565b60405180910390fd5b505050565b6000600660009054906101000a900473ffffffffffffffffffffffffffffffffffffffff16905081600660006101000a81548173ffffffffffffffffffffffffffffffffffffffff021916908373ffffffffffffffffffffffffffffffffffffffff1602179055508173ffffffffffffffffffffffffffffffffffffffff168173ffffffffffffffffffffffffffffffffffffffff167f8be0079c531659141344cd1fd0a4f28419497f9722a3daafe3b4186f6b6457e060405160405180910390a35050565b600073ffffffffffffffffffffffffffffffffffffffff168273ffffffffffffffffffffffffffffffffffffffff160361367c57816040517f5b08ba180000000000000000000000000000000000000000000000000000000081526004016136739190614112565b60405180910390fd5b80600560008573ffffffffffffffffffffffffffffffffffffffff1673ffffffffffffffffffffffffffffffffffffffff16815260200190815260200160002060008473ffffffffffffffffffffffffffffffffffffffff1673ffffffffffffffffffffffffffffffffffffffff16815260200190815260200160002060006101000a81548160ff0219169083151502179055508173ffffffffffffffffffffffffffffffffffffffff168373ffffffffffffffffffffffffffffffffffffffff167f17307eab39ab6107e8899845ad3d59bd9653f200f220920489ca2b5937696c318360405161376d9190613ecd565b60405180910390a3505050565b60008373ffffffffffffffffffffffffffffffffffffffff163b1115613924578273ffffffffffffffffffffffffffffffffffffffff1663150b7a02868685856040518563ffffffff1660e01b81526004016137d994939291906158c1565b6020604051808303816000875af192505050801561381557506040513d601f19601f820116820180604052508101906138129190615922565b60015b613899573d8060008114613845576040519150601f19603f3d011682016040523d82523d6000602084013e61384a565b606091505b50600081510361389157836040517f64a0ae920000000000000000000000000000000000000000000000000000000081526004016138889190614112565b60405180910390fd5b805160208201fd5b63150b7a0260e01b7bffffffffffffffffffffffffffffffffffffffffffffffffffffffff1916817bffffffffffffffffffffffffffffffffffffffffffffffffffffffff19161461392257836040517f64a0ae920000000000000000000000000000000000000000000000000000000081526004016139199190614112565b60405180910390fd5b505b5050505050565b606060008203613972576040518060400160405280600181526020017f30000000000000000000000000000000000000000000000000000000000000008152509050613a86565b600082905060005b600082146139a457808061398d90614db2565b915050600a8261399d919061594f565b915061397a565b60008167ffffffffffffffff8111156139c0576139bf614411565b5b6040519080825280601f01601f1916602001820160405280156139f25781602001600182028036833780820191505090505b5090505b60008514613a7f57600182613a0b9190615774565b9150600a85613a1a919061549d565b6030613a269190615980565b60f81b818381518110613a3c57613a3b614b2f565b5b60200101907effffffffffffffffffffffffffffffffffffffffffffffffffffffffffffff1916908160001a905350600a85613a78919061594f565b94506139f6565b8093505050505b919050565b8080613ac45750600073ffffffffffffffffffffffffffffffffffffffff168273ffffffffffffffffffffffffffffffffffffffff1614155b15613bf8576000613ad484612ce4565b9050600073ffffffffffffffffffffffffffffffffffffffff168373ffffffffffffffffffffffffffffffffffffffff1614158015613b3f57508273ffffffffffffffffffffffffffffffffffffffff168173ffffffffffffffffffffffffffffffffffffffff1614155b8015613b525750613b508184612a0d565b155b15613b9457826040517fa9fbf51f000000000000000000000000000000000000000000000000000000008152600401613b8b9190614112565b60405180910390fd5b8115613bf657838573ffffffffffffffffffffffffffffffffffffffff168273ffffffffffffffffffffffffffffffffffffffff167f8c5be1e5ebec7d5bd14f71427d1e84f3dd0314c0f7b2291e5b200ac8c7c3b92560405160405180910390a45b505b836004600085815260200190815260200160002060006101000a81548173ffffffffffffffffffffffffffffffffffffffff021916908373ffffffffffffffffffffffffffffffffffffffff16021790555050505050565b613c5b838383613d14565b613d0f57600073ffffffffffffffffffffffffffffffffffffffff168373ffffffffffffffffffffffffffffffffffffffff1603613cd057806040517f7e273289000000000000000000000000000000000000000000000000000000008152600401613cc7919061420c565b60405180910390fd5b81816040517f177e802f000000000000000000000000000000000000000000000000000000008152600401613d069291906159b4565b60405180910390fd5b505050565b60008073ffffffffffffffffffffffffffffffffffffffff168373ffffffffffffffffffffffffffffffffffffffff1614158015613dcc57508273ffffffffffffffffffffffffffffffffffffffff168473ffffffffffffffffffffffffffffffffffffffff161480613d8d5750613d8c8484612a0d565b5b80613dcb57508273ffffffffffffffffffffffffffffffffffffffff16613db383612d6c565b73ffffffffffffffffffffffffffffffffffffffff16145b5b90509392505050565b6040518060e00160405280600790602082028036833780820191505090505090565b6040518060e00160405280600790602082028036833780820191505090505090565b6000604051905090565b600080fd5b600080fd5b60007fffffffff0000000000000000000000000000000000000000000000000000000082169050919050565b613e6281613e2d565b8114613e6d57600080fd5b50565b600081359050613e7f81613e59565b92915050565b600060208284031215613e9b57613e9a613e23565b5b6000613ea984828501613e70565b91505092915050565b60008115159050919050565b613ec781613eb2565b82525050565b6000602082019050613ee26000830184613ebe565b92915050565b600060079050919050565b600081905092915050565b6000819050919050565b600061ffff82169050919050565b613f1f81613f08565b82525050565b6000613f318383613f16565b60208301905092915050565b6000602082019050919050565b613f5381613ee8565b613f5d8184613ef3565b9250613f6882613efe565b8060005b83811015613f99578151613f808782613f25565b9650613f8b83613f3d565b925050600181019050613f6c565b505050505050565b600060e082019050613fb66000830184613f4a565b92915050565b600081519050919050565b600082825260208201905092915050565b60005b83811015613ff6578082015181840152602081019050613fdb565b60008484015250505050565b6000601f19601f8301169050919050565b600061401e82613fbc565b6140288185613fc7565b9350614038818560208601613fd8565b61404181614002565b840191505092915050565b600060208201905081810360008301526140668184614013565b905092915050565b6000819050919050565b6140818161406e565b811461408c57600080fd5b50565b60008135905061409e81614078565b92915050565b6000602082840312156140ba576140b9613e23565b5b60006140c88482850161408f565b91505092915050565b600073ffffffffffffffffffffffffffffffffffffffff82169050919050565b60006140fc826140d1565b9050919050565b61410c816140f1565b82525050565b60006020820190506141276000830184614103565b92915050565b614136816140f1565b811461414157600080fd5b50565b6000813590506141538161412d565b92915050565b600080604083850312156141705761416f613e23565b5b600061417e85828601614144565b925050602061418f8582860161408f565b9150509250929050565b6000602082840312156141af576141ae613e23565b5b60006141bd84828501614144565b91505092915050565b600060ff82169050919050565b6141dc816141c6565b82525050565b60006020820190506141f760008301846141d3565b92915050565b6142068161406e565b82525050565b600060208201905061422160008301846141fd565b92915050565b600081519050919050565b600082825260208201905092915050565b6000819050602082019050919050565b61425c816141c6565b82525050565b600061426e8383614253565b60208301905092915050565b6000602082019050919050565b600061429282614227565b61429c8185614232565b93506142a783614243565b8060005b838110156142d85781516142bf8882614262565b97506142ca8361427a565b9250506001810190506142ab565b5085935050505092915050565b600060208201905081810360008301526142ff8184614287565b905092915050565b600080fd5b600080fd5b600080fd5b60008083601f84011261432c5761432b614307565b5b8235905067ffffffffffffffff8111156143495761434861430c565b5b60208301915083602082028301111561436557614364614311565b5b9250929050565b6000806020838503121561438357614382613e23565b5b600083013567ffffffffffffffff8111156143a1576143a0613e28565b5b6143ad85828601614316565b92509250509250929050565b6000806000606084860312156143d2576143d1613e23565b5b60006143e086828701614144565b93505060206143f186828701614144565b92505060406144028682870161408f565b9150509250925092565b600080fd5b7f4e487b7100000000000000000000000000000000000000000000000000000000600052604160045260246000fd5b61444982614002565b810181811067ffffffffffffffff8211171561446857614467614411565b5b80604052505050565b600061447b613e19565b90506144878282614440565b919050565b600067ffffffffffffffff8211156144a7576144a6614411565b5b6144b082614002565b9050602081019050919050565b82818337600083830152505050565b60006144df6144da8461448c565b614471565b9050828152602081018484840111156144fb576144fa61440c565b5b6145068482856144bd565b509392505050565b600082601f83011261452357614522614307565b5b81356145338482602086016144cc565b91505092915050565b60006020828403121561455257614551613e23565b5b600082013567ffffffffffffffff8111156145705761456f613e28565b5b61457c8482850161450e565b91505092915050565b600060608201905061459a6000830186613ebe565b6145a760208301856141d3565b6145b460408301846141fd565b949350505050565b600063ffffffff82169050919050565b6145d5816145bc565b82525050565b60006060820190506145f060008301866141d3565b6145fd60208301856145cc565b61460a6040830184614103565b949350505050565b61461b816141c6565b811461462657600080fd5b50565b60008135905061463881614612565b92915050565b6000806040838503121561465557614654613e23565b5b600061466385828601614144565b925050602061467485828601614629565b9150509250929050565b600081519050919050565b600082825260208201905092915050565b6000819050602082019050919050565b6146b38161406e565b82525050565b60006146c583836146aa565b60208301905092915050565b6000602082019050919050565b60006146e98261467e565b6146f38185614689565b93506146fe8361469a565b8060005b8381101561472f57815161471688826146b9565b9750614721836146d1565b925050600181019050614702565b5085935050505092915050565b6000602082019050818103600083015261475681846146de565b905092915050565b61476781613eb2565b811461477257600080fd5b50565b6000813590506147848161475e565b92915050565b600080604083850312156147a1576147a0613e23565b5b60006147af85828601614144565b92505060206147c085828601614775565b9150509250929050565b600067ffffffffffffffff8211156147e5576147e4614411565b5b6147ee82614002565b9050602081019050919050565b600061480e614809846147ca565b614471565b90508281526020810184848401111561482a5761482961440c565b5b6148358482856144bd565b509392505050565b600082601f83011261485257614851614307565b5b81356148628482602086016147fb565b91505092915050565b6000806000806080858703121561488557614884613e23565b5b600061489387828801614144565b94505060206148a487828801614144565b93505060406148b58782880161408f565b925050606085013567ffffffffffffffff8111156148d6576148d5613e28565b5b6148e28782880161483d565b91505092959194509250565b6000806040838503121561490557614904613e23565b5b600061491385828601614629565b925050602083013567ffffffffffffffff81111561493457614933613e28565b5b6149408582860161450e565b9150509250929050565b6000602082840312156149605761495f613e23565b5b600061496e84828501614629565b91505092915050565b600067ffffffffffffffff82111561499257614991614411565b5b602082029050919050565b60006149b06149ab84614977565b614471565b905080602084028301858111156149ca576149c9614311565b5b835b81811015614a1157803567ffffffffffffffff8111156149ef576149ee614307565b5b8086016149fc898261450e565b855260208501945050506020810190506149cc565b5050509392505050565b600082601f830112614a3057614a2f614307565b5b6007614a3d84828561499d565b91505092915050565b600060208284031215614a5c57614a5b613e23565b5b600082013567ffffffffffffffff811115614a7a57614a79613e28565b5b614a8684828501614a1b565b91505092915050565b60008060408385031215614aa657614aa5613e23565b5b6000614ab485828601614144565b9250506020614ac585828601614144565b9150509250929050565b7f4e487b7100000000000000000000000000000000000000000000000000000000600052602260045260246000fd5b60006002820490506001821680614b1657607f821691505b602082108103614b2957614b28614acf565b5b50919050565b7f4e487b7100000000000000000000000000000000000000000000000000000000600052603260045260246000fd5b7f4e487b7100000000000000000000000000000000000000000000000000000000600052601160045260246000fd5b6000614b98826141c6565b915060ff8203614bab57614baa614b5e565b5b600182019050919050565b7f4d757374206275726e2065786163746c79203320746f6b656e73000000000000600082015250565b6000614bec601a83613fc7565b9150614bf782614bb6565b602082019050919050565b60006020820190508181036000830152614c1b81614bdf565b9050919050565b7f43616e206f6e6c79206275726e20426c657373696e67206f72204d696e6f722060008201527f426c657373696e67000000000000000000000000000000000000000000000000602082015250565b6000614c7e602883613fc7565b9150614c8982614c22565b604082019050919050565b60006020820190508181036000830152614cad81614c71565b9050919050565b7f4e6f74206f776e6572206f6620746f6b656e0000000000000000000000000000600082015250565b6000614cea601283613fc7565b9150614cf582614cb4565b602082019050919050565b60006020820190508181036000830152614d1981614cdd565b9050919050565b7f416c6c20746f6b656e73206d7573742062652073616d6520666f7274756e652060008201527f7479706500000000000000000000000000000000000000000000000000000000602082015250565b6000614d7c602483613fc7565b9150614d8782614d20565b604082019050919050565b60006020820190508181036000830152614dab81614d6f565b9050919050565b6000614dbd8261406e565b91507fffffffffffffffffffffffffffffffffffffffffffffffffffffffffffffffff8203614def57614dee614b5e565b5b600182019050919050565b600080fd5b82818337505050565b6000614e148385614689565b93507f07ffffffffffffffffffffffffffffffffffffffffffffffffffffffffffffff831115614e4757614e46614dfa565b5b602083029250614e58838584614dff565b82840190509392505050565b6000819050919050565b6000819050919050565b6000614e93614e8e614e8984614e64565b614e6e565b61406e565b9050919050565b614ea381614e78565b82525050565b60006060820190508181036000830152614ec4818688614e08565b9050614ed360208301856141d3565b614ee06040830184614e9a565b95945050505050565b6000606082019050614efe6000830186614103565b614f0b60208301856141fd565b614f186040830184614103565b949350505050565b7f546f6b656e20646f6573206e6f74206578697374000000000000000000000000600082015250565b6000614f56601483613fc7565b9150614f6182614f20565b602082019050919050565b60006020820190508181036000830152614f8581614f49565b9050919050565b600081905092915050565b7f68747470733a2f2f676174657761792e70696e6174612e636c6f75642f69706660008201527f732f000000000000000000000000000000000000000000000000000000000000602082015250565b6000614ff3602283614f8c565b9150614ffe82614f97565b602282019050919050565b60008190508160005260206000209050919050565b6000815461502b81614afe565b6150358186614f8c565b94506001821660008114615050576001811461506557615098565b60ff1983168652811515820286019350615098565b61506e85615009565b60005b8381101561509057815481890152600182019150602081019050615071565b838801955050505b50505092915050565b60006150ac82614fe6565b91506150b8828461501e565b915081905092915050565b60006020601f8301049050919050565b600082821b905092915050565b6000600883026151107fffffffffffffffffffffffffffffffffffffffffffffffffffffffffffffffff826150d3565b61511a86836150d3565b95508019841693508086168417925050509392505050565b600061514d6151486151438461406e565b614e6e565b61406e565b9050919050565b6000819050919050565b61516783615132565b61517b61517382615154565b8484546150e0565b825550505050565b600090565b615190615183565b61519b81848461515e565b505050565b5b818110156151bf576151b4600082615188565b6001810190506151a1565b5050565b601f821115615204576151d581615009565b6151de846150c3565b810160208510156151ed578190505b6152016151f9856150c3565b8301826151a0565b50505b505050565b600082821c905092915050565b600061522760001984600802615209565b1980831691505092915050565b60006152408383615216565b9150826002028217905092915050565b61525982613fbc565b67ffffffffffffffff81111561527257615271614411565b5b61527c8254614afe565b6152878282856151c3565b600060209050601f8311600181146152ba57600084156152a8578287015190505b6152b28582615234565b86555061531a565b601f1984166152c886615009565b60005b828110156152f0578489015182556001820191506020850194506020810190506152cb565b8683101561530d5784890151615309601f891682615216565b8355505b6001600288020188555050505b505050505050565b600061532d8261406e565b9150600082036153405761533f614b5e565b5b600182039050919050565b7f496e73756666696369656e74207061796d656e74000000000000000000000000600082015250565b6000615381601483613fc7565b915061538c8261534b565b602082019050919050565b600060208201905081810360008301526153b081615374565b9050919050565b6000819050919050565b6153d26153cd8261406e565b6153b7565b82525050565b60008160601b9050919050565b60006153f0826153d8565b9050919050565b6000615402826153e5565b9050919050565b61541a615415826140f1565b6153f7565b82525050565b600061542c82876153c1565b60208201915061543c82866153c1565b60208201915061544c8285615409565b60148201915061545c82846153c1565b60208201915081905095945050505050565b7f4e487b7100000000000000000000000000000000000000000000000000000000600052601260045260246000fd5b60006154a88261406e565b91506154b38361406e565b9250826154c3576154c261546e565b5b828206905092915050565b600081546154db81614afe565b6154e58186613fc7565b94506001821660008114615500576001811461551657615549565b60ff198316865281151560200286019350615549565b61551f85615009565b60005b8381101561554157815481890152600182019150602081019050615522565b808801955050505b50505092915050565b600060408201905061556760008301856141d3565b818103602083015261557981846154ce565b90509392505050565b6000819050919050565b60006155a76155a261559d84615582565b614e6e565b61406e565b9050919050565b6155b78161558c565b82525050565b600060608201905081810360008301526155d8818688614e08565b90506155e760208301856141d3565b6155f460408301846155ae565b95945050505050565b600061560982886153c1565b60208201915061561982876153c1565b6020820191506156298286615409565b60148201915061563982856153c1565b60208201915061564982846153c1565b6020820191508190509695505050505050565b7f496e76616c696420666f7274756e652074797065000000000000000000000000600082015250565b6000615692601483613fc7565b915061569d8261565c565b602082019050919050565b600060208201905081810360008301526156c181615685565b9050919050565b60006156d382613fbc565b6156dd8185614f8c565b93506156ed818560208601613fd8565b80840191505092915050565b7f2e6a736f6e000000000000000000000000000000000000000000000000000000600082015250565b600061572f600583614f8c565b915061573a826156f9565b600582019050919050565b6000615751828561501e565b915061575d82846156c8565b915061576882615722565b91508190509392505050565b600061577f8261406e565b915061578a8361406e565b92508282039050818111156157a2576157a1614b5e565b5b92915050565b6000819050919050565b60006157bd826157a8565b91506157c8836157a8565b92508282039050818112600084121682821360008512151617156157ef576157ee614b5e565b5b92915050565b7f4e487b7100000000000000000000000000000000000000000000000000000000600052603160045260246000fd5b600061582f826157a8565b91507f8000000000000000000000000000000000000000000000000000000000000000820361586157615860614b5e565b5b600182039050919050565b600081519050919050565b600082825260208201905092915050565b60006158938261586c565b61589d8185615877565b93506158ad818560208601613fd8565b6158b681614002565b840191505092915050565b60006080820190506158d66000830187614103565b6158e36020830186614103565b6158f060408301856141fd565b81810360608301526159028184615888565b905095945050505050565b60008151905061591c81613e59565b92915050565b60006020828403121561593857615937613e23565b5b60006159468482850161590d565b91505092915050565b600061595a8261406e565b91506159658361406e565b9250826159755761597461546e565b5b828204905092915050565b600061598b8261406e565b91506159968361406e565b92508282019050808211156159ae576159ad614b5e565b5b92915050565b60006040820190506159c96000830185614103565b6159d660208301846141fd565b939250505056fea264697066735822122081f8cc80b18cb73ba679b4e6bbf4084eb07cd13101571823ccd3183e8c661a6164736f6c634300081b003350617469656e6365206272696e677320746865207377656574657374207265776172647321536d616c6c20626c657373696e6773206c65616420746f20626967676572206f70706f7274756e6974696573216261667962656964327564613568616d6b7a62346c73653572633768746362636a66666f376467756b6a6f34626a71646a7576686534346767376145787472616f7264696e61727920666f7274756e6520617761697473212045766572797468696e67207475726e7320746f20676f6c6421496e6372656469626c65206c75636b2120596f757220647265616d7320657863656564206578706563746174696f6e732162616679626569646c7974373375636a6d74637a727463766463666b73756c676670783567646167326a37366871646f336b637064783276327665476f6f64207468696e677320636f6d6520746f2074686f73652077686f20776169742142616c616e636564206c75636b206272696e6773207374656164792070726f6772657373216261667962656968733561757578777534346634676571776867797a646f616d64676171786a367762746377733437667436346d61796178736365626166796265696565326b637a6a677a73656171616e356c6465776c7363686677616c65787a79676568657775366a6f656f77326574626b65726162616679626569686d6e74713372786864356a366e786b366a3376626c7a713672686c6f697a326972636d6477673234337261637a7937716c61756261667962656963617274346f656736677868716769766d356b6e626f6f716e346278613337346a7067373361716465687a3233347a683671756d68747470733a2f2f676174657761792e70696e6174612e636c6f75642f697066732f626166796265696865726f756c6d72336273357378796c6c6b347870696b63657537736f7175716734697076686d6b6474706d70756a7267746b792f6261666b72656967696f337532356732706762666f33616a6f68793571636964613734616b666c6e3374746c786834343378676a7933336f73706d477265617420666f7274756e6520736d696c65732075706f6e20796f7520746f64617921",
  "linkReferences": {},
  "deployedLinkReferences": {}
}