{
  "_format": "hh-sol-artifact-1",
  "contractName": "UpdatedIPFSOmikujiNFT",
  "sourceName": "contracts/UpdatedIPFSOmikujiNFT.sol",
  "abi": [
    {
      "inputs": [],
      "stateMutability": "nonpayable",
      "type": "constructor"
    },
    {
      "inputs": [
        {
          "internalType": "address",
          "name": "sender",
          "type": "address"
        },
        {
          "internalType": "uint256",
          "name": "tokenId",
          "type": "uint256"
        },
        {
          "internalType": "address",
          "name": "owner",
          "type": "address"
        }
      ],
      "name": "ERC721IncorrectOwner",
      "type": "error"
    },
    {
      "inputs": [
        {
          "internalType": "address",
          "name": "operator",
          "type": "address"
        },
        {
          "internalType": "uint256",
          "name": "tokenId",
          "type": "uint256"
        }
      ],
      "name": "ERC721InsufficientApproval",
      "type": "error"
    },
    {
      "inputs": [
        {
          "internalType": "address",
          "name": "approver",
          "type": "address"
        }
      ],
      "name": "ERC721InvalidApprover",
      "type": "error"
    },
    {
      "inputs": [
        {
          "internalType": "address",
          "name": "operator",
          "type": "address"
        }
      ],
      "name": "ERC721InvalidOperator",
      "type": "error"
    },
    {
      "inputs": [
        {
          "internalType": "address",
          "name": "owner",
          "type": "address"
        }
      ],
      "name": "ERC721InvalidOwner",
      "type": "error"
    },
    {
      "inputs": [
        {
          "internalType": "address",
          "name": "receiver",
          "type": "address"
        }
      ],
      "name": "ERC721InvalidReceiver",
      "type": "error"
    },
    {
      "inputs": [
        {
          "internalType": "address",
          "name": "sender",
          "type": "address"
        }
      ],
      "name": "ERC721InvalidSender",
      "type": "error"
    },
    {
      "inputs": [
        {
          "internalType": "uint256",
          "name": "tokenId",
          "type": "uint256"
        }
      ],
      "name": "ERC721NonexistentToken",
      "type": "error"
    },
    {
      "inputs": [
        {
          "internalType": "address",
          "name": "owner",
          "type": "address"
        }
      ],
      "name": "OwnableInvalidOwner",
      "type": "error"
    },
    {
      "inputs": [
        {
          "internalType": "address",
          "name": "account",
          "type": "address"
        }
      ],
      "name": "OwnableUnauthorizedAccount",
      "type": "error"
    },
    {
      "anonymous": false,
      "inputs": [
        {
          "indexed": true,
          "internalType": "address",
          "name": "owner",
          "type": "address"
        },
        {
          "indexed": true,
          "internalType": "address",
          "name": "approved",
          "type": "address"
        },
        {
          "indexed": true,
          "internalType": "uint256",
          "name": "tokenId",
          "type": "uint256"
        }
      ],
      "name": "Approval",
      "type": "event"
    },
    {
      "anonymous": false,
      "inputs": [
        {
          "indexed": true,
          "internalType": "address",
          "name": "owner",
          "type": "address"
        },
        {
          "indexed": true,
          "internalType": "address",
          "name": "operator",
          "type": "address"
        },
        {
          "indexed": false,
          "internalType": "bool",
          "name": "approved",
          "type": "bool"
        }
      ],
      "name": "ApprovalForAll",
      "type": "event"
    },
    {
      "anonymous": false,
      "inputs": [
        {
          "indexed": true,
          "internalType": "address",
          "name": "drawer",
          "type": "address"
        },
        {
          "indexed": true,
          "internalType": "uint256",
          "name": "tokenId",
          "type": "uint256"
        },
        {
          "indexed": false,
          "internalType": "uint8",
          "name": "result",
          "type": "uint8"
        },
        {
          "indexed": false,
          "internalType": "string",
          "name": "message",
          "type": "string"
        }
      ],
      "name": "OmikujiDrawn",
      "type": "event"
    },
    {
      "anonymous": false,
      "inputs": [
        {
          "indexed": true,
          "internalType": "address",
          "name": "previousOwner",
          "type": "address"
        },
        {
          "indexed": true,
          "internalType": "address",
          "name": "newOwner",
          "type": "address"
        }
      ],
      "name": "OwnershipTransferred",
      "type": "event"
    },
    {
      "anonymous": false,
      "inputs": [
        {
          "indexed": true,
          "internalType": "address",
          "name": "from",
          "type": "address"
        },
        {
          "indexed": true,
          "internalType": "address",
          "name": "to",
          "type": "address"
        },
        {
          "indexed": true,
          "internalType": "uint256",
          "name": "tokenId",
          "type": "uint256"
        }
      ],
      "name": "Transfer",
      "type": "event"
    },
    {
      "inputs": [
        {
          "internalType": "address",
          "name": "to",
          "type": "address"
        },
        {
          "internalType": "uint256",
          "name": "tokenId",
          "type": "uint256"
        }
      ],
      "name": "approve",
      "outputs": [],
      "stateMutability": "nonpayable",
      "type": "function"
    },
    {
      "inputs": [
        {
          "internalType": "address",
          "name": "owner",
          "type": "address"
        }
      ],
      "name": "balanceOf",
      "outputs": [
        {
          "internalType": "uint256",
          "name": "",
          "type": "uint256"
        }
      ],
      "stateMutability": "view",
      "type": "function"
    },
    {
      "inputs": [
        {
          "internalType": "address",
          "name": "",
          "type": "address"
        }
      ],
      "name": "canDrawOmikuji",
      "outputs": [
        {
          "internalType": "bool",
          "name": "",
          "type": "bool"
        }
      ],
      "stateMutability": "pure",
      "type": "function"
    },
    {
      "inputs": [],
      "name": "drawOmikuji",
      "outputs": [
        {
          "internalType": "uint256",
          "name": "",
          "type": "uint256"
        }
      ],
      "stateMutability": "payable",
      "type": "function"
    },
    {
      "inputs": [
        {
          "internalType": "uint8",
          "name": "",
          "type": "uint8"
        }
      ],
      "name": "fortuneImages",
      "outputs": [
        {
          "internalType": "string",
          "name": "",
          "type": "string"
        }
      ],
      "stateMutability": "view",
      "type": "function"
    },
    {
      "inputs": [
        {
          "internalType": "uint256",
          "name": "",
          "type": "uint256"
        }
      ],
      "name": "fortunes",
      "outputs": [
        {
          "internalType": "uint8",
          "name": "result",
          "type": "uint8"
        },
        {
          "internalType": "uint32",
          "name": "timestamp",
          "type": "uint32"
        },
        {
          "internalType": "address",
          "name": "drawer",
          "type": "address"
        }
      ],
      "stateMutability": "view",
      "type": "function"
    },
    {
      "inputs": [
        {
          "internalType": "uint256",
          "name": "tokenId",
          "type": "uint256"
        }
      ],
      "name": "getApproved",
      "outputs": [
        {
          "internalType": "address",
          "name": "",
          "type": "address"
        }
      ],
      "stateMutability": "view",
      "type": "function"
    },
    {
      "inputs": [
        {
          "internalType": "uint256",
          "name": "tokenId",
          "type": "uint256"
        }
      ],
      "name": "getFortuneData",
      "outputs": [
        {
          "internalType": "uint8",
          "name": "result",
          "type": "uint8"
        },
        {
          "internalType": "uint32",
          "name": "timestamp",
          "type": "uint32"
        },
        {
          "internalType": "address",
          "name": "drawer",
          "type": "address"
        }
      ],
      "stateMutability": "view",
      "type": "function"
    },
    {
      "inputs": [
        {
          "internalType": "uint256",
          "name": "tokenId",
          "type": "uint256"
        }
      ],
      "name": "getFortuneImageUrl",
      "outputs": [
        {
          "internalType": "string",
          "name": "",
          "type": "string"
        }
      ],
      "stateMutability": "view",
      "type": "function"
    },
    {
      "inputs": [
        {
          "internalType": "uint256",
          "name": "tokenId",
          "type": "uint256"
        }
      ],
      "name": "getFortuneMessage",
      "outputs": [
        {
          "internalType": "string",
          "name": "",
          "type": "string"
        }
      ],
      "stateMutability": "view",
      "type": "function"
    },
    {
      "inputs": [],
      "name": "getProbabilities",
      "outputs": [
        {
          "internalType": "uint16[7]",
          "name": "",
          "type": "uint16[7]"
        }
      ],
      "stateMutability": "pure",
      "type": "function"
    },
    {
      "inputs": [
        {
          "internalType": "address",
          "name": "",
          "type": "address"
        }
      ],
      "name": "getTimeUntilNextDraw",
      "outputs": [
        {
          "internalType": "uint256",
          "name": "",
          "type": "uint256"
        }
      ],
      "stateMutability": "pure",
      "type": "function"
    },
    {
      "inputs": [
        {
          "internalType": "address",
          "name": "owner",
          "type": "address"
        },
        {
          "internalType": "address",
          "name": "operator",
          "type": "address"
        }
      ],
      "name": "isApprovedForAll",
      "outputs": [
        {
          "internalType": "bool",
          "name": "",
          "type": "bool"
        }
      ],
      "stateMutability": "view",
      "type": "function"
    },
    {
      "inputs": [],
      "name": "name",
      "outputs": [
        {
          "internalType": "string",
          "name": "",
          "type": "string"
        }
      ],
      "stateMutability": "view",
      "type": "function"
    },
    {
      "inputs": [],
      "name": "omikujiPrice",
      "outputs": [
        {
          "internalType": "uint256",
          "name": "",
          "type": "uint256"
        }
      ],
      "stateMutability": "view",
      "type": "function"
    },
    {
      "inputs": [],
      "name": "owner",
      "outputs": [
        {
          "internalType": "address",
          "name": "",
          "type": "address"
        }
      ],
      "stateMutability": "view",
      "type": "function"
    },
    {
      "inputs": [
        {
          "internalType": "uint256",
          "name": "tokenId",
          "type": "uint256"
        }
      ],
      "name": "ownerOf",
      "outputs": [
        {
          "internalType": "address",
          "name": "",
          "type": "address"
        }
      ],
      "stateMutability": "view",
      "type": "function"
    },
    {
      "inputs": [],
      "name": "remainingSupply",
      "outputs": [
        {
          "internalType": "uint256",
          "name": "",
          "type": "uint256"
        }
      ],
      "stateMutability": "view",
      "type": "function"
    },
    {
      "inputs": [],
      "name": "renounceOwnership",
      "outputs": [],
      "stateMutability": "nonpayable",
      "type": "function"
    },
    {
      "inputs": [
        {
          "internalType": "address",
          "name": "from",
          "type": "address"
        },
        {
          "internalType": "address",
          "name": "to",
          "type": "address"
        },
        {
          "internalType": "uint256",
          "name": "tokenId",
          "type": "uint256"
        }
      ],
      "name": "safeTransferFrom",
      "outputs": [],
      "stateMutability": "nonpayable",
      "type": "function"
    },
    {
      "inputs": [
        {
          "internalType": "address",
          "name": "from",
          "type": "address"
        },
        {
          "internalType": "address",
          "name": "to",
          "type": "address"
        },
        {
          "internalType": "uint256",
          "name": "tokenId",
          "type": "uint256"
        },
        {
          "internalType": "bytes",
          "name": "data",
          "type": "bytes"
        }
      ],
      "name": "safeTransferFrom",
      "outputs": [],
      "stateMutability": "nonpayable",
      "type": "function"
    },
    {
      "inputs": [
        {
          "internalType": "string[7]",
          "name": "ipfsHashes",
          "type": "string[7]"
        }
      ],
      "name": "setAllFortuneImageHashes",
      "outputs": [],
      "stateMutability": "nonpayable",
      "type": "function"
    },
    {
      "inputs": [
        {
          "internalType": "address",
          "name": "operator",
          "type": "address"
        },
        {
          "internalType": "bool",
          "name": "approved",
          "type": "bool"
        }
      ],
      "name": "setApprovalForAll",
      "outputs": [],
      "stateMutability": "nonpayable",
      "type": "function"
    },
    {
      "inputs": [
        {
          "internalType": "string",
          "name": "baseURI",
          "type": "string"
        }
      ],
      "name": "setBaseURI",
      "outputs": [],
      "stateMutability": "nonpayable",
      "type": "function"
    },
    {
      "inputs": [
        {
          "internalType": "uint8",
          "name": "fortuneType",
          "type": "uint8"
        },
        {
          "internalType": "string",
          "name": "ipfsHash",
          "type": "string"
        }
      ],
      "name": "setFortuneImageHash",
      "outputs": [],
      "stateMutability": "nonpayable",
      "type": "function"
    },
    {
      "inputs": [
        {
          "internalType": "uint256",
          "name": "_price",
          "type": "uint256"
        }
      ],
      "name": "setPrice",
      "outputs": [],
      "stateMutability": "nonpayable",
      "type": "function"
    },
    {
      "inputs": [
        {
          "internalType": "bytes4",
          "name": "interfaceId",
          "type": "bytes4"
        }
      ],
      "name": "supportsInterface",
      "outputs": [
        {
          "internalType": "bool",
          "name": "",
          "type": "bool"
        }
      ],
      "stateMutability": "view",
      "type": "function"
    },
    {
      "inputs": [],
      "name": "symbol",
      "outputs": [
        {
          "internalType": "string",
          "name": "",
          "type": "string"
        }
      ],
      "stateMutability": "view",
      "type": "function"
    },
    {
      "inputs": [
        {
          "internalType": "uint256",
          "name": "tokenId",
          "type": "uint256"
        }
      ],
      "name": "tokenURI",
      "outputs": [
        {
          "internalType": "string",
          "name": "",
          "type": "string"
        }
      ],
      "stateMutability": "view",
      "type": "function"
    },
    {
      "inputs": [],
      "name": "totalSupply",
      "outputs": [
        {
          "internalType": "uint256",
          "name": "",
          "type": "uint256"
        }
      ],
      "stateMutability": "view",
      "type": "function"
    },
    {
      "inputs": [
        {
          "internalType": "address",
          "name": "from",
          "type": "address"
        },
        {
          "internalType": "address",
          "name": "to",
          "type": "address"
        },
        {
          "internalType": "uint256",
          "name": "tokenId",
          "type": "uint256"
        }
      ],
      "name": "transferFrom",
      "outputs": [],
      "stateMutability": "nonpayable",
      "type": "function"
    },
    {
      "inputs": [
        {
          "internalType": "address",
          "name": "newOwner",
          "type": "address"
        }
      ],
      "name": "transferOwnership",
      "outputs": [],
      "stateMutability": "nonpayable",
      "type": "function"
    },
    {
      "inputs": [],
      "name": "withdraw",
      "outputs": [],
      "stateMutability": "nonpayable",
      "type": "function"
    }
  ],
  "bytecode": "0x608060405267016345785d8a000060085560405180606001604052806022815260200161540b6022913960099081610037919061099b565b506040518060e001604052806040518060600160405280603781526020016152aa6037913981526020016040518060600160405280603181526020016152e16031913981526020016040518060600160405280602481526020016154de6024913981526020016040518060600160405280602581526020016153706025913981526020016040518060600160405280602d8152602001615242602d9139815260200160405180606001604052806023815260200161534d60239139815260200160405180606001604052806025815260200161521d60259139815250600c90600761012392919061067e565b506040518060e001604052806040518060400160405280601a81526020017f537570657220556c74726120477265617420426c657373696e6700000000000081525081526020016040518060400160405280601481526020017f556c74726120477265617420426c657373696e6700000000000000000000000081525081526020016040518060400160405280600e81526020017f477265617420426c657373696e6700000000000000000000000000000000000081525081526020016040518060400160405280600f81526020017f4d6964646c6520426c657373696e67000000000000000000000000000000000081525081526020016040518060400160405280600e81526020017f536d616c6c20426c657373696e6700000000000000000000000000000000000081525081526020016040518060400160405280600881526020017f426c657373696e6700000000000000000000000000000000000000000000000081525081526020016040518060400160405280600e81526020017f4d696e6f7220426c657373696e6700000000000000000000000000000000000081525081525060139060076102da92919061067e565b503480156102e757600080fd5b50336040518060400160405280601b81526020017f4f6d696b756a6920536872696e65206f6e204d6f6e6164204e465400000000008152506040518060400160405280600781526020017f4f4d494b554a49000000000000000000000000000000000000000000000000008152508160009081610364919061099b565b508060019081610374919061099b565b505050600073ffffffffffffffffffffffffffffffffffffffff168173ffffffffffffffffffffffffffffffffffffffff16036103e95760006040517f1e4fbdf70000000000000000000000000000000000000000000000000000000081526004016103e09190610aae565b60405180910390fd5b6103f88161040c60201b60201c565b506104076104d260201b60201c565b610ac9565b6000600660009054906101000a900473ffffffffffffffffffffffffffffffffffffffff16905081600660006101000a81548173ffffffffffffffffffffffffffffffffffffffff021916908373ffffffffffffffffffffffffffffffffffffffff1602179055508173ffffffffffffffffffffffffffffffffffffffff168173ffffffffffffffffffffffffffffffffffffffff167f8be0079c531659141344cd1fd0a4f28419497f9722a3daafe3b4186f6b6457e060405160405180910390a35050565b6040518060600160405280603b815260200161526f603b9139600a60008060ff168152602001908152602001600020908161050d919061099b565b506040518060600160405280603b8152602001615395603b9139600a6000600160ff168152602001908152602001600020908161054a919061099b565b506040518060600160405280603b8152602001615468603b9139600a6000600260ff1681526020019081526020016000209081610587919061099b565b506040518060600160405280603b815260200161542d603b9139600a6000600360ff16815260200190815260200160002090816105c4919061099b565b506040518060600160405280603b81526020016154a3603b9139600a6000600460ff1681526020019081526020016000209081610601919061099b565b506040518060600160405280603b8152602001615312603b9139600a6000600560ff168152602001908152602001600020908161063e919061099b565b506040518060600160405280603b81526020016153d0603b9139600a6000600660ff168152602001908152602001600020908161067b919061099b565b50565b82600781019282156106b9579160200282015b828111156106b85782518290816106a8919061099b565b5091602001919060010190610691565b5b5090506106c691906106ca565b5090565b5b808211156106ea57600081816106e191906106ee565b506001016106cb565b5090565b5080546106fa906107b4565b6000825580601f1061070c575061072b565b601f01602090049060005260206000209081019061072a919061072e565b5b50565b5b8082111561074757600081600090555060010161072f565b5090565b600081519050919050565b7f4e487b7100000000000000000000000000000000000000000000000000000000600052604160045260246000fd5b7f4e487b7100000000000000000000000000000000000000000000000000000000600052602260045260246000fd5b600060028204905060018216806107cc57607f821691505b6020821081036107df576107de610785565b5b50919050565b60008190508160005260206000209050919050565b60006020601f8301049050919050565b600082821b905092915050565b6000600883026108477fffffffffffffffffffffffffffffffffffffffffffffffffffffffffffffffff8261080a565b610851868361080a565b95508019841693508086168417925050509392505050565b6000819050919050565b6000819050919050565b600061089861089361088e84610869565b610873565b610869565b9050919050565b6000819050919050565b6108b28361087d565b6108c66108be8261089f565b848454610817565b825550505050565b600090565b6108db6108ce565b6108e68184846108a9565b505050565b5b8181101561090a576108ff6000826108d3565b6001810190506108ec565b5050565b601f82111561094f57610920816107e5565b610929846107fa565b81016020851015610938578190505b61094c610944856107fa565b8301826108eb565b50505b505050565b600082821c905092915050565b600061097260001984600802610954565b1980831691505092915050565b600061098b8383610961565b9150826002028217905092915050565b6109a48261074b565b67ffffffffffffffff8111156109bd576109bc610756565b5b6109c782546107b4565b6109d282828561090e565b600060209050601f831160018114610a0557600084156109f3578287015190505b6109fd858261097f565b865550610a65565b601f198416610a13866107e5565b60005b82811015610a3b57848901518255600182019150602085019450602081019050610a16565b86831015610a585784890151610a54601f891682610961565b8355505b6001600288020188555050505b505050505050565b600073ffffffffffffffffffffffffffffffffffffffff82169050919050565b6000610a9882610a6d565b9050919050565b610aa881610a8d565b82525050565b6000602082019050610ac36000830184610a9f565b92915050565b61474580610ad86000396000f3fe6080604052600436106101ee5760003560e01c806370a082311161010d578063c21d5061116100a0578063da0239a61161006f578063da0239a61461072a578063db811e2414610755578063e985e9c51461077e578063f0231458146107bb578063f2fde38b146107fa576101ee565b8063c21d50611461064a578063c351de6914610687578063c87b56dd146106b0578063cebd0e7f146106ed576101ee565b806391b7f5ed116100dc57806391b7f5ed146105a457806395d89b41146105cd578063a22cb465146105f8578063b88d4fde14610621576101ee565b806370a08231146104e6578063715018a6146105235780638c8005a31461053a5780638da5cb5b14610579576101ee565b80633ccfd60b1161018557806355f804b31161015457806355f804b314610425578063581f0fb01461044e5780635982773b1461046c5780636352211e146104a9576101ee565b80633ccfd60b1461037d57806342842e0e146103945780634b39d64f146103bd5780634ca8a941146103fa576101ee565b8063095ea7b3116101c1578063095ea7b3146102c357806318160ddd146102ec57806323b872dd146103175780632d2c7b5514610340576101ee565b806301ffc9a7146101f3578063062f7b8c1461023057806306fdde031461025b578063081812fc14610286575b600080fd5b3480156101ff57600080fd5b5061021a60048036038101906102159190612e92565b610823565b6040516102279190612eda565b60405180910390f35b34801561023c57600080fd5b50610245610905565b6040516102529190612fae565b60405180910390f35b34801561026757600080fd5b5061027061096d565b60405161027d9190613059565b60405180910390f35b34801561029257600080fd5b506102ad60048036038101906102a891906130b1565b6109ff565b6040516102ba919061311f565b60405180910390f35b3480156102cf57600080fd5b506102ea60048036038101906102e59190613166565b610a1b565b005b3480156102f857600080fd5b50610301610a31565b60405161030e91906131b5565b60405180910390f35b34801561032357600080fd5b5061033e600480360381019061033991906131d0565b610a3b565b005b34801561034c57600080fd5b50610367600480360381019061036291906130b1565b610b3d565b6040516103749190613059565b60405180910390f35b34801561038957600080fd5b50610392610cb8565b005b3480156103a057600080fd5b506103bb60048036038101906103b691906131d0565b610d10565b005b3480156103c957600080fd5b506103e460048036038101906103df91906130b1565b610d30565b6040516103f19190613059565b60405180910390f35b34801561040657600080fd5b5061040f610e74565b60405161041c91906131b5565b60405180910390f35b34801561043157600080fd5b5061044c60048036038101906104479190613358565b610e7a565b005b610456610e95565b60405161046391906131b5565b60405180910390f35b34801561047857600080fd5b50610493600480360381019061048e91906133a1565b61110c565b6040516104a09190612eda565b60405180910390f35b3480156104b557600080fd5b506104d060048036038101906104cb91906130b1565b611117565b6040516104dd919061311f565b60405180910390f35b3480156104f257600080fd5b5061050d600480360381019061050891906133a1565b611129565b60405161051a91906131b5565b60405180910390f35b34801561052f57600080fd5b506105386111e3565b005b34801561054657600080fd5b50610561600480360381019061055c91906130b1565b6111f7565b60405161057093929190613409565b60405180910390f35b34801561058557600080fd5b5061058e61125e565b60405161059b919061311f565b60405180910390f35b3480156105b057600080fd5b506105cb60048036038101906105c691906130b1565b611288565b005b3480156105d957600080fd5b506105e261129a565b6040516105ef9190613059565b60405180910390f35b34801561060457600080fd5b5061061f600480360381019061061a919061346c565b61132c565b005b34801561062d57600080fd5b506106486004803603810190610643919061354d565b611342565b005b34801561065657600080fd5b50610671600480360381019061066c91906133a1565b611367565b60405161067e91906131b5565b60405180910390f35b34801561069357600080fd5b506106ae60048036038101906106a991906135fc565b61136e565b005b3480156106bc57600080fd5b506106d760048036038101906106d291906130b1565b6113e7565b6040516106e49190613059565b60405180910390f35b3480156106f957600080fd5b50610714600480360381019061070f9190613658565b611628565b6040516107219190613059565b60405180910390f35b34801561073657600080fd5b5061073f6116c8565b60405161074c91906131b5565b60405180910390f35b34801561076157600080fd5b5061077c60048036038101906107779190613759565b6116fd565b005b34801561078a57600080fd5b506107a560048036038101906107a091906137a2565b611766565b6040516107b29190612eda565b60405180910390f35b3480156107c757600080fd5b506107e260048036038101906107dd91906130b1565b6117fa565b6040516107f193929190613409565b60405180910390f35b34801561080657600080fd5b50610821600480360381019061081c91906133a1565b61194d565b005b60007f80ac58cd000000000000000000000000000000000000000000000000000000007bffffffffffffffffffffffffffffffffffffffffffffffffffffffff1916827bffffffffffffffffffffffffffffffffffffffffffffffffffffffff191614806108ee57507f5b5e139f000000000000000000000000000000000000000000000000000000007bffffffffffffffffffffffffffffffffffffffffffffffffffffffff1916827bffffffffffffffffffffffffffffffffffffffffffffffffffffffff1916145b806108fe57506108fd826119d3565b5b9050919050565b61090d612e04565b6040518060e00160405280600a61ffff168152602001606461ffff1681526020016101f461ffff1681526020016103e861ffff1681526020016107d061ffff168152602001610bb861ffff168152602001610d3e61ffff16815250905090565b60606000805461097c90613811565b80601f01602080910402602001604051908101604052809291908181526020018280546109a890613811565b80156109f55780601f106109ca576101008083540402835291602001916109f5565b820191906000526020600020905b8154815290600101906020018083116109d857829003601f168201915b5050505050905090565b6000610a0a82611a3d565b50610a1482611ac5565b9050919050565b610a2d8282610a28611b02565b611b0a565b5050565b6000600754905090565b600073ffffffffffffffffffffffffffffffffffffffff168273ffffffffffffffffffffffffffffffffffffffff1603610aad5760006040517f64a0ae92000000000000000000000000000000000000000000000000000000008152600401610aa4919061311f565b60405180910390fd5b6000610ac18383610abc611b02565b611b1c565b90508373ffffffffffffffffffffffffffffffffffffffff168173ffffffffffffffffffffffffffffffffffffffff1614610b37578382826040517f64283d7b000000000000000000000000000000000000000000000000000000008152600401610b2e93929190613842565b60405180910390fd5b50505050565b6060600073ffffffffffffffffffffffffffffffffffffffff16610b6083611d36565b73ffffffffffffffffffffffffffffffffffffffff1603610bb6576040517f08c379a0000000000000000000000000000000000000000000000000000000008152600401610bad906138c5565b60405180910390fd5b6000600b60008481526020019081526020016000206040518060600160405290816000820160009054906101000a900460ff1660ff1660ff1681526020016000820160019054906101000a900463ffffffff1663ffffffff1663ffffffff1681526020016000820160059054906101000a900473ffffffffffffffffffffffffffffffffffffffff1673ffffffffffffffffffffffffffffffffffffffff1673ffffffffffffffffffffffffffffffffffffffff168152505090506009600a6000836000015160ff1660ff168152602001908152602001600020604051602001610ca1929190613988565b604051602081830303815290604052915050919050565b610cc0611d73565b610cc861125e565b73ffffffffffffffffffffffffffffffffffffffff166108fc479081150290604051600060405180830381858888f19350505050158015610d0d573d6000803e3d6000fd5b50565b610d2b83838360405180602001604052806000815250611342565b505050565b6060600073ffffffffffffffffffffffffffffffffffffffff16610d5383611d36565b73ffffffffffffffffffffffffffffffffffffffff1603610da9576040517f08c379a0000000000000000000000000000000000000000000000000000000008152600401610da0906138c5565b60405180910390fd5b600c600b600084815260200190815260200160002060000160009054906101000a900460ff1660ff1660078110610de357610de26139ac565b5b018054610def90613811565b80601f0160208091040260200160405190810160405280929190818152602001828054610e1b90613811565b8015610e685780601f10610e3d57610100808354040283529160200191610e68565b820191906000526020600020905b815481529060010190602001808311610e4b57829003601f168201915b50505050509050919050565b60085481565b610e82611d73565b8060099081610e919190613b72565b5050565b6000600854341015610edc576040517f08c379a0000000000000000000000000000000000000000000000000000000008152600401610ed390613c90565b60405180910390fd5b60076000815480929190600101919050555060006007549050600061271042443385604051602001610f119493929190613d19565b6040516020818303038152906040528051906020012060001c610f349190613d96565b90506000600a821015610f4a5760009050610fb2565b606e821015610f5c5760019050610fb1565b610262821015610f6f5760029050610fb0565b61064a821015610f825760039050610faf565b610e1a821015610f955760049050610fae565b6119d2821015610fa85760059050610fad565b600690505b5b5b5b5b5b60405180606001604052808260ff1681526020014263ffffffff1681526020013373ffffffffffffffffffffffffffffffffffffffff16815250600b600085815260200190815260200160002060008201518160000160006101000a81548160ff021916908360ff16021790555060208201518160000160016101000a81548163ffffffff021916908363ffffffff16021790555060408201518160000160056101000a81548173ffffffffffffffffffffffffffffffffffffffff021916908373ffffffffffffffffffffffffffffffffffffffff16021790555090505061109b3384611dfa565b823373ffffffffffffffffffffffffffffffffffffffff167f8f59f601bb75974d2fc5a2ee8f1b7de682a1e78edb4cb7418db454c60ee4a5d183600c8560ff16600781106110ec576110eb6139ac565b5b016040516110fb929190613e4b565b60405180910390a382935050505090565b600060019050919050565b600061112282611a3d565b9050919050565b60008073ffffffffffffffffffffffffffffffffffffffff168273ffffffffffffffffffffffffffffffffffffffff160361119c5760006040517f89c62b64000000000000000000000000000000000000000000000000000000008152600401611193919061311f565b60405180910390fd5b600360008373ffffffffffffffffffffffffffffffffffffffff1673ffffffffffffffffffffffffffffffffffffffff168152602001908152602001600020549050919050565b6111eb611d73565b6111f56000611ef3565b565b600b6020528060005260406000206000915090508060000160009054906101000a900460ff16908060000160019054906101000a900463ffffffff16908060000160059054906101000a900473ffffffffffffffffffffffffffffffffffffffff16905083565b6000600660009054906101000a900473ffffffffffffffffffffffffffffffffffffffff16905090565b611290611d73565b8060088190555050565b6060600180546112a990613811565b80601f01602080910402602001604051908101604052809291908181526020018280546112d590613811565b80156113225780601f106112f757610100808354040283529160200191611322565b820191906000526020600020905b81548152906001019060200180831161130557829003601f168201915b5050505050905090565b61133e611337611b02565b8383611fb9565b5050565b61134d848484610a3b565b611361611358611b02565b85858585612128565b50505050565b6000919050565b611376611d73565b60078260ff16106113bc576040517f08c379a00000000000000000000000000000000000000000000000000000000081526004016113b390613ec7565b60405180910390fd5b80600a60008460ff1660ff16815260200190815260200160002090816113e29190613b72565b505050565b6060600073ffffffffffffffffffffffffffffffffffffffff1661140a83611d36565b73ffffffffffffffffffffffffffffffffffffffff1603611460576040517f08c379a0000000000000000000000000000000000000000000000000000000008152600401611457906138c5565b60405180910390fd5b6000600b60008481526020019081526020016000206040518060600160405290816000820160009054906101000a900460ff1660ff1660ff1681526020016000820160019054906101000a900463ffffffff1663ffffffff1663ffffffff1681526020016000820160059054906101000a900473ffffffffffffffffffffffffffffffffffffffff1673ffffffffffffffffffffffffffffffffffffffff1673ffffffffffffffffffffffffffffffffffffffff1681525050905060006009600a6000846000015160ff1660ff16815260200190815260200160002060405160200161154d929190613988565b60405160208183030381529060405290506000611569856122d9565b600c846000015160ff1660078110611584576115836139ac565b5b01836013866000015160ff16600781106115a1576115a06139ac565b5b016115af8760000151612439565b6115c2886020015163ffffffff166122d9565b6115cf8960400151612629565b6040516020016115e597969594939291906142f4565b60405160208183030381529060405290506115ff81612942565b60405160200161160f9190614434565b6040516020818303038152906040529350505050919050565b600a602052806000526040600020600091509050805461164790613811565b80601f016020809104026020016040519081016040528092919081815260200182805461167390613811565b80156116c05780601f10611695576101008083540402835291602001916116c0565b820191906000526020600020905b8154815290600101906020018083116116a357829003601f168201915b505050505081565b60006007547fffffffffffffffffffffffffffffffffffffffffffffffffffffffffffffffff6116f89190614485565b905090565b611705611d73565b60005b60078160ff16101561176257818160ff166007811061172a576117296139ac565b5b6020020151600a60008360ff1660ff16815260200190815260200160002090816117549190613b72565b508080600101915050611708565b5050565b6000600560008473ffffffffffffffffffffffffffffffffffffffff1673ffffffffffffffffffffffffffffffffffffffff16815260200190815260200160002060008373ffffffffffffffffffffffffffffffffffffffff1673ffffffffffffffffffffffffffffffffffffffff16815260200190815260200160002060009054906101000a900460ff16905092915050565b60008060008073ffffffffffffffffffffffffffffffffffffffff1661181f85611d36565b73ffffffffffffffffffffffffffffffffffffffff1603611875576040517f08c379a000000000000000000000000000000000000000000000000000000000815260040161186c906138c5565b60405180910390fd5b6000600b60008681526020019081526020016000206040518060600160405290816000820160009054906101000a900460ff1660ff1660ff1681526020016000820160019054906101000a900463ffffffff1663ffffffff1663ffffffff1681526020016000820160059054906101000a900473ffffffffffffffffffffffffffffffffffffffff1673ffffffffffffffffffffffffffffffffffffffff1673ffffffffffffffffffffffffffffffffffffffff16815250509050806000015181602001518260400151935093509350509193909250565b611955611d73565b600073ffffffffffffffffffffffffffffffffffffffff168173ffffffffffffffffffffffffffffffffffffffff16036119c75760006040517f1e4fbdf70000000000000000000000000000000000000000000000000000000081526004016119be919061311f565b60405180910390fd5b6119d081611ef3565b50565b60007f01ffc9a7000000000000000000000000000000000000000000000000000000007bffffffffffffffffffffffffffffffffffffffffffffffffffffffff1916827bffffffffffffffffffffffffffffffffffffffffffffffffffffffff1916149050919050565b600080611a4983611d36565b9050600073ffffffffffffffffffffffffffffffffffffffff168173ffffffffffffffffffffffffffffffffffffffff1603611abc57826040517f7e273289000000000000000000000000000000000000000000000000000000008152600401611ab391906131b5565b60405180910390fd5b80915050919050565b60006004600083815260200190815260200160002060009054906101000a900473ffffffffffffffffffffffffffffffffffffffff169050919050565b600033905090565b611b178383836001612aba565b505050565b600080611b2884611d36565b9050600073ffffffffffffffffffffffffffffffffffffffff168373ffffffffffffffffffffffffffffffffffffffff1614611b6a57611b69818486612c7f565b5b600073ffffffffffffffffffffffffffffffffffffffff168173ffffffffffffffffffffffffffffffffffffffff1614611bfb57611bac600085600080612aba565b6001600360008373ffffffffffffffffffffffffffffffffffffffff1673ffffffffffffffffffffffffffffffffffffffff168152602001908152602001600020600082825403925050819055505b600073ffffffffffffffffffffffffffffffffffffffff168573ffffffffffffffffffffffffffffffffffffffff1614611c7e576001600360008773ffffffffffffffffffffffffffffffffffffffff1673ffffffffffffffffffffffffffffffffffffffff168152602001908152602001600020600082825401925050819055505b846002600086815260200190815260200160002060006101000a81548173ffffffffffffffffffffffffffffffffffffffff021916908373ffffffffffffffffffffffffffffffffffffffff160217905550838573ffffffffffffffffffffffffffffffffffffffff168273ffffffffffffffffffffffffffffffffffffffff167fddf252ad1be2c89b69c2b068fc378daa952ba7f163c4a11628f55a4df523b3ef60405160405180910390a4809150509392505050565b60006002600083815260200190815260200160002060009054906101000a900473ffffffffffffffffffffffffffffffffffffffff169050919050565b611d7b611b02565b73ffffffffffffffffffffffffffffffffffffffff16611d9961125e565b73ffffffffffffffffffffffffffffffffffffffff1614611df857611dbc611b02565b6040517f118cdaa7000000000000000000000000000000000000000000000000000000008152600401611def919061311f565b60405180910390fd5b565b600073ffffffffffffffffffffffffffffffffffffffff168273ffffffffffffffffffffffffffffffffffffffff1603611e6c5760006040517f64a0ae92000000000000000000000000000000000000000000000000000000008152600401611e63919061311f565b60405180910390fd5b6000611e7a83836000611b1c565b9050600073ffffffffffffffffffffffffffffffffffffffff168173ffffffffffffffffffffffffffffffffffffffff1614611eee5760006040517f73c6ac6e000000000000000000000000000000000000000000000000000000008152600401611ee5919061311f565b60405180910390fd5b505050565b6000600660009054906101000a900473ffffffffffffffffffffffffffffffffffffffff16905081600660006101000a81548173ffffffffffffffffffffffffffffffffffffffff021916908373ffffffffffffffffffffffffffffffffffffffff1602179055508173ffffffffffffffffffffffffffffffffffffffff168173ffffffffffffffffffffffffffffffffffffffff167f8be0079c531659141344cd1fd0a4f28419497f9722a3daafe3b4186f6b6457e060405160405180910390a35050565b600073ffffffffffffffffffffffffffffffffffffffff168273ffffffffffffffffffffffffffffffffffffffff160361202a57816040517f5b08ba18000000000000000000000000000000000000000000000000000000008152600401612021919061311f565b60405180910390fd5b80600560008573ffffffffffffffffffffffffffffffffffffffff1673ffffffffffffffffffffffffffffffffffffffff16815260200190815260200160002060008473ffffffffffffffffffffffffffffffffffffffff1673ffffffffffffffffffffffffffffffffffffffff16815260200190815260200160002060006101000a81548160ff0219169083151502179055508173ffffffffffffffffffffffffffffffffffffffff168373ffffffffffffffffffffffffffffffffffffffff167f17307eab39ab6107e8899845ad3d59bd9653f200f220920489ca2b5937696c318360405161211b9190612eda565b60405180910390a3505050565b60008373ffffffffffffffffffffffffffffffffffffffff163b11156122d2578273ffffffffffffffffffffffffffffffffffffffff1663150b7a02868685856040518563ffffffff1660e01b8152600401612187949392919061450e565b6020604051808303816000875af19250505080156121c357506040513d601f19601f820116820180604052508101906121c0919061456f565b60015b612247573d80600081146121f3576040519150601f19603f3d011682016040523d82523d6000602084013e6121f8565b606091505b50600081510361223f57836040517f64a0ae92000000000000000000000000000000000000000000000000000000008152600401612236919061311f565b60405180910390fd5b805160208201fd5b63150b7a0260e01b7bffffffffffffffffffffffffffffffffffffffffffffffffffffffff1916817bffffffffffffffffffffffffffffffffffffffffffffffffffffffff1916146122d057836040517f64a0ae920000000000000000000000000000000000000000000000000000000081526004016122c7919061311f565b60405180910390fd5b505b5050505050565b606060008203612320576040518060400160405280600181526020017f30000000000000000000000000000000000000000000000000000000000000008152509050612434565b600082905060005b6000821461235257808061233b9061459c565b915050600a8261234b91906145e4565b9150612328565b60008167ffffffffffffffff81111561236e5761236d61322d565b5b6040519080825280601f01601f1916602001820160405280156123a05781602001600182028036833780820191505090505b5090505b6000851461242d576001826123b99190614485565b9150600a856123c89190613d96565b60306123d49190614615565b60f81b8183815181106123ea576123e96139ac565b5b60200101907effffffffffffffffffffffffffffffffffffffffffffffffffffffffffffff1916908160001a905350600a8561242691906145e4565b94506123a4565b8093505050505b919050565b606060008260ff1603612483576040518060400160405280601081526020017f4c6567656e646172792028302e312529000000000000000000000000000000008152509050612624565b60018260ff16036124cb576040518060400160405280600b81526020017f457069632028312e3025290000000000000000000000000000000000000000008152509050612624565b60028260ff1603612513576040518060400160405280600b81526020017f526172652028352e3025290000000000000000000000000000000000000000008152509050612624565b60038260ff160361255b576040518060400160405280601081526020017f556e636f6d6d6f6e202831302e302529000000000000000000000000000000008152509050612624565b60048260ff16036125a3576040518060400160405280600e81526020017f436f6d6d6f6e202832302e3025290000000000000000000000000000000000008152509050612624565b60058260ff16036125eb576040518060400160405280600e81526020017f436f6d6d6f6e202833302e3025290000000000000000000000000000000000008152509050612624565b6040518060400160405280600e81526020017f436f6d6d6f6e202833332e39252900000000000000000000000000000000000081525090505b919050565b606060008260405160200161263e9190614649565b604051602081830303815290604052905060006040518060400160405280601081526020017f303132333435363738396162636465660000000000000000000000000000000081525090506000600283516126999190614664565b60026126a59190614615565b67ffffffffffffffff8111156126be576126bd61322d565b5b6040519080825280601f01601f1916602001820160405280156126f05781602001600182028036833780820191505090505b5090507f300000000000000000000000000000000000000000000000000000000000000081600081518110612728576127276139ac565b5b60200101907effffffffffffffffffffffffffffffffffffffffffffffffffffffffffffff1916908160001a9053507f78000000000000000000000000000000000000000000000000000000000000008160018151811061278c5761278b6139ac565b5b60200101907effffffffffffffffffffffffffffffffffffffffffffffffffffffffffffff1916908160001a90535060005b8351811015612936578260048583815181106127dd576127dc6139ac565b5b602001015160f81c60f81b7effffffffffffffffffffffffffffffffffffffffffffffffffffffffffffff1916901c60f81c60ff1681518110612823576128226139ac565b5b602001015160f81c60f81b8260028361283c9190614664565b60026128489190614615565b81518110612859576128586139ac565b5b60200101907effffffffffffffffffffffffffffffffffffffffffffffffffffffffffffff1916908160001a90535082600f60f81b8583815181106128a1576128a06139ac565b5b602001015160f81c60f81b1660f81c60ff16815181106128c4576128c36139ac565b5b602001015160f81c60f81b826002836128dd9190614664565b60036128e99190614615565b815181106128fa576128f96139ac565b5b60200101907effffffffffffffffffffffffffffffffffffffffffffffffffffffffffffff1916908160001a90535080806001019150506127be565b50809350505050919050565b6060600082510361296457604051806020016040528060008152509050612ab5565b60006040518060600160405280604081526020016146d060409139905060006003600285516129939190614615565b61299d91906145e4565b60046129a99190614664565b905060006020826129ba9190614615565b67ffffffffffffffff8111156129d3576129d261322d565b5b6040519080825280601f01601f191660200182016040528015612a055781602001600182028036833780820191505090505b509050600183018586518101602084015b81831015612a71576003830192508251603f8160121c168501518253600182019150603f81600c1c168501518253600182019150603f8160061c168501518253600182019150603f8116850151825360018201915050612a16565b600389510660018114612a8b5760028114612a9b57612aa6565b613d3d60f01b6002830352612aa6565b603d60f81b60018303525b50858552505050508093505050505b919050565b8080612af35750600073ffffffffffffffffffffffffffffffffffffffff168273ffffffffffffffffffffffffffffffffffffffff1614155b15612c27576000612b0384611a3d565b9050600073ffffffffffffffffffffffffffffffffffffffff168373ffffffffffffffffffffffffffffffffffffffff1614158015612b6e57508273ffffffffffffffffffffffffffffffffffffffff168173ffffffffffffffffffffffffffffffffffffffff1614155b8015612b815750612b7f8184611766565b155b15612bc357826040517fa9fbf51f000000000000000000000000000000000000000000000000000000008152600401612bba919061311f565b60405180910390fd5b8115612c2557838573ffffffffffffffffffffffffffffffffffffffff168273ffffffffffffffffffffffffffffffffffffffff167f8c5be1e5ebec7d5bd14f71427d1e84f3dd0314c0f7b2291e5b200ac8c7c3b92560405160405180910390a45b505b836004600085815260200190815260200160002060006101000a81548173ffffffffffffffffffffffffffffffffffffffff021916908373ffffffffffffffffffffffffffffffffffffffff16021790555050505050565b612c8a838383612d43565b612d3e57600073ffffffffffffffffffffffffffffffffffffffff168373ffffffffffffffffffffffffffffffffffffffff1603612cff57806040517f7e273289000000000000000000000000000000000000000000000000000000008152600401612cf691906131b5565b60405180910390fd5b81816040517f177e802f000000000000000000000000000000000000000000000000000000008152600401612d359291906146a6565b60405180910390fd5b505050565b60008073ffffffffffffffffffffffffffffffffffffffff168373ffffffffffffffffffffffffffffffffffffffff1614158015612dfb57508273ffffffffffffffffffffffffffffffffffffffff168473ffffffffffffffffffffffffffffffffffffffff161480612dbc5750612dbb8484611766565b5b80612dfa57508273ffffffffffffffffffffffffffffffffffffffff16612de283611ac5565b73ffffffffffffffffffffffffffffffffffffffff16145b5b90509392505050565b6040518060e00160405280600790602082028036833780820191505090505090565b6000604051905090565b600080fd5b600080fd5b60007fffffffff0000000000000000000000000000000000000000000000000000000082169050919050565b612e6f81612e3a565b8114612e7a57600080fd5b50565b600081359050612e8c81612e66565b92915050565b600060208284031215612ea857612ea7612e30565b5b6000612eb684828501612e7d565b91505092915050565b60008115159050919050565b612ed481612ebf565b82525050565b6000602082019050612eef6000830184612ecb565b92915050565b600060079050919050565b600081905092915050565b6000819050919050565b600061ffff82169050919050565b612f2c81612f15565b82525050565b6000612f3e8383612f23565b60208301905092915050565b6000602082019050919050565b612f6081612ef5565b612f6a8184612f00565b9250612f7582612f0b565b8060005b83811015612fa6578151612f8d8782612f32565b9650612f9883612f4a565b925050600181019050612f79565b505050505050565b600060e082019050612fc36000830184612f57565b92915050565b600081519050919050565b600082825260208201905092915050565b60005b83811015613003578082015181840152602081019050612fe8565b60008484015250505050565b6000601f19601f8301169050919050565b600061302b82612fc9565b6130358185612fd4565b9350613045818560208601612fe5565b61304e8161300f565b840191505092915050565b600060208201905081810360008301526130738184613020565b905092915050565b6000819050919050565b61308e8161307b565b811461309957600080fd5b50565b6000813590506130ab81613085565b92915050565b6000602082840312156130c7576130c6612e30565b5b60006130d58482850161309c565b91505092915050565b600073ffffffffffffffffffffffffffffffffffffffff82169050919050565b6000613109826130de565b9050919050565b613119816130fe565b82525050565b60006020820190506131346000830184613110565b92915050565b613143816130fe565b811461314e57600080fd5b50565b6000813590506131608161313a565b92915050565b6000806040838503121561317d5761317c612e30565b5b600061318b85828601613151565b925050602061319c8582860161309c565b9150509250929050565b6131af8161307b565b82525050565b60006020820190506131ca60008301846131a6565b92915050565b6000806000606084860312156131e9576131e8612e30565b5b60006131f786828701613151565b935050602061320886828701613151565b92505060406132198682870161309c565b9150509250925092565b600080fd5b600080fd5b7f4e487b7100000000000000000000000000000000000000000000000000000000600052604160045260246000fd5b6132658261300f565b810181811067ffffffffffffffff821117156132845761328361322d565b5b80604052505050565b6000613297612e26565b90506132a3828261325c565b919050565b600067ffffffffffffffff8211156132c3576132c261322d565b5b6132cc8261300f565b9050602081019050919050565b82818337600083830152505050565b60006132fb6132f6846132a8565b61328d565b90508281526020810184848401111561331757613316613228565b5b6133228482856132d9565b509392505050565b600082601f83011261333f5761333e613223565b5b813561334f8482602086016132e8565b91505092915050565b60006020828403121561336e5761336d612e30565b5b600082013567ffffffffffffffff81111561338c5761338b612e35565b5b6133988482850161332a565b91505092915050565b6000602082840312156133b7576133b6612e30565b5b60006133c584828501613151565b91505092915050565b600060ff82169050919050565b6133e4816133ce565b82525050565b600063ffffffff82169050919050565b613403816133ea565b82525050565b600060608201905061341e60008301866133db565b61342b60208301856133fa565b6134386040830184613110565b949350505050565b61344981612ebf565b811461345457600080fd5b50565b60008135905061346681613440565b92915050565b6000806040838503121561348357613482612e30565b5b600061349185828601613151565b92505060206134a285828601613457565b9150509250929050565b600067ffffffffffffffff8211156134c7576134c661322d565b5b6134d08261300f565b9050602081019050919050565b60006134f06134eb846134ac565b61328d565b90508281526020810184848401111561350c5761350b613228565b5b6135178482856132d9565b509392505050565b600082601f83011261353457613533613223565b5b81356135448482602086016134dd565b91505092915050565b6000806000806080858703121561356757613566612e30565b5b600061357587828801613151565b945050602061358687828801613151565b93505060406135978782880161309c565b925050606085013567ffffffffffffffff8111156135b8576135b7612e35565b5b6135c48782880161351f565b91505092959194509250565b6135d9816133ce565b81146135e457600080fd5b50565b6000813590506135f6816135d0565b92915050565b6000806040838503121561361357613612612e30565b5b6000613621858286016135e7565b925050602083013567ffffffffffffffff81111561364257613641612e35565b5b61364e8582860161332a565b9150509250929050565b60006020828403121561366e5761366d612e30565b5b600061367c848285016135e7565b91505092915050565b600067ffffffffffffffff8211156136a05761369f61322d565b5b602082029050919050565b600080fd5b60006136c36136be84613685565b61328d565b905080602084028301858111156136dd576136dc6136ab565b5b835b8181101561372457803567ffffffffffffffff81111561370257613701613223565b5b80860161370f898261332a565b855260208501945050506020810190506136df565b5050509392505050565b600082601f83011261374357613742613223565b5b60076137508482856136b0565b91505092915050565b60006020828403121561376f5761376e612e30565b5b600082013567ffffffffffffffff81111561378d5761378c612e35565b5b6137998482850161372e565b91505092915050565b600080604083850312156137b9576137b8612e30565b5b60006137c785828601613151565b92505060206137d885828601613151565b9150509250929050565b7f4e487b7100000000000000000000000000000000000000000000000000000000600052602260045260246000fd5b6000600282049050600182168061382957607f821691505b60208210810361383c5761383b6137e2565b5b50919050565b60006060820190506138576000830186613110565b61386460208301856131a6565b6138716040830184613110565b949350505050565b7f546f6b656e20646f6573206e6f74206578697374000000000000000000000000600082015250565b60006138af601483612fd4565b91506138ba82613879565b602082019050919050565b600060208201905081810360008301526138de816138a2565b9050919050565b600081905092915050565b60008190508160005260206000209050919050565b6000815461391281613811565b61391c81866138e5565b94506001821660008114613937576001811461394c5761397f565b60ff198316865281151582028601935061397f565b613955856138f0565b60005b8381101561397757815481890152600182019150602081019050613958565b838801955050505b50505092915050565b60006139948285613905565b91506139a08284613905565b91508190509392505050565b7f4e487b7100000000000000000000000000000000000000000000000000000000600052603260045260246000fd5b60006020601f8301049050919050565b600082821b905092915050565b600060088302613a287fffffffffffffffffffffffffffffffffffffffffffffffffffffffffffffffff826139eb565b613a3286836139eb565b95508019841693508086168417925050509392505050565b6000819050919050565b6000613a6f613a6a613a658461307b565b613a4a565b61307b565b9050919050565b6000819050919050565b613a8983613a54565b613a9d613a9582613a76565b8484546139f8565b825550505050565b600090565b613ab2613aa5565b613abd818484613a80565b505050565b5b81811015613ae157613ad6600082613aaa565b600181019050613ac3565b5050565b601f821115613b2657613af7816138f0565b613b00846139db565b81016020851015613b0f578190505b613b23613b1b856139db565b830182613ac2565b50505b505050565b600082821c905092915050565b6000613b4960001984600802613b2b565b1980831691505092915050565b6000613b628383613b38565b9150826002028217905092915050565b613b7b82612fc9565b67ffffffffffffffff811115613b9457613b9361322d565b5b613b9e8254613811565b613ba9828285613ae5565b600060209050601f831160018114613bdc5760008415613bca578287015190505b613bd48582613b56565b865550613c3c565b601f198416613bea866138f0565b60005b82811015613c1257848901518255600182019150602085019450602081019050613bed565b86831015613c2f5784890151613c2b601f891682613b38565b8355505b6001600288020188555050505b505050505050565b7f496e73756666696369656e74207061796d656e74000000000000000000000000600082015250565b6000613c7a601483612fd4565b9150613c8582613c44565b602082019050919050565b60006020820190508181036000830152613ca981613c6d565b9050919050565b6000819050919050565b613ccb613cc68261307b565b613cb0565b82525050565b60008160601b9050919050565b6000613ce982613cd1565b9050919050565b6000613cfb82613cde565b9050919050565b613d13613d0e826130fe565b613cf0565b82525050565b6000613d258287613cba565b602082019150613d358286613cba565b602082019150613d458285613d02565b601482019150613d558284613cba565b60208201915081905095945050505050565b7f4e487b7100000000000000000000000000000000000000000000000000000000600052601260045260246000fd5b6000613da18261307b565b9150613dac8361307b565b925082613dbc57613dbb613d67565b5b828206905092915050565b60008154613dd481613811565b613dde8186612fd4565b94506001821660008114613df95760018114613e0f57613e42565b60ff198316865281151560200286019350613e42565b613e18856138f0565b60005b83811015613e3a57815481890152600182019150602081019050613e1b565b808801955050505b50505092915050565b6000604082019050613e6060008301856133db565b8181036020830152613e728184613dc7565b90509392505050565b7f496e76616c696420666f7274756e652074797065000000000000000000000000600082015250565b6000613eb1601483612fd4565b9150613ebc82613e7b565b602082019050919050565b60006020820190508181036000830152613ee081613ea4565b9050919050565b7f7b226e616d65223a224f6d696b756a6920230000000000000000000000000000600082015250565b6000613f1d6012836138e5565b9150613f2882613ee7565b601282019050919050565b6000613f3e82612fc9565b613f4881856138e5565b9350613f58818560208601612fe5565b80840191505092915050565b7f222c226465736372697074696f6e223a22000000000000000000000000000000600082015250565b6000613f9a6011836138e5565b9150613fa582613f64565b601182019050919050565b7f222c22696d616765223a22000000000000000000000000000000000000000000600082015250565b6000613fe6600b836138e5565b9150613ff182613fb0565b600b82019050919050565b7f222c2261747472696275746573223a5b00000000000000000000000000000000600082015250565b60006140326010836138e5565b915061403d82613ffc565b601082019050919050565b7f7b2274726169745f74797065223a22466f7274756e65222c2276616c7565223a60008201527f2200000000000000000000000000000000000000000000000000000000000000602082015250565b60006140a46021836138e5565b91506140af82614048565b602182019050919050565b7f227d2c0000000000000000000000000000000000000000000000000000000000600082015250565b60006140f06003836138e5565b91506140fb826140ba565b600382019050919050565b7f7b2274726169745f74797065223a22526172697479222c2276616c7565223a22600082015250565b600061413c6020836138e5565b915061414782614106565b602082019050919050565b7f7b2274726169745f74797065223a2254696d657374616d70222c2276616c756560008201527f223a000000000000000000000000000000000000000000000000000000000000602082015250565b60006141ae6022836138e5565b91506141b982614152565b602282019050919050565b7f7d2c000000000000000000000000000000000000000000000000000000000000600082015250565b60006141fa6002836138e5565b9150614205826141c4565b600282019050919050565b7f7b2274726169745f74797065223a22447261776572222c2276616c7565223a22600082015250565b60006142466020836138e5565b915061425182614210565b602082019050919050565b7f227d000000000000000000000000000000000000000000000000000000000000600082015250565b60006142926002836138e5565b915061429d8261425c565b600282019050919050565b7f5d7d000000000000000000000000000000000000000000000000000000000000600082015250565b60006142de6002836138e5565b91506142e9826142a8565b600282019050919050565b60006142ff82613f10565b915061430b828a613f33565b915061431682613f8d565b91506143228289613905565b915061432d82613fd9565b91506143398288613f33565b915061434482614025565b915061434f82614097565b915061435b8287613905565b9150614366826140e3565b91506143718261412f565b915061437d8286613f33565b9150614388826140e3565b9150614393826141a1565b915061439f8285613f33565b91506143aa826141ed565b91506143b582614239565b91506143c18284613f33565b91506143cc82614285565b91506143d7826142d1565b915081905098975050505050505050565b7f646174613a6170706c69636174696f6e2f6a736f6e3b6261736536342c000000600082015250565b600061441e601d836138e5565b9150614429826143e8565b601d82019050919050565b600061443f82614411565b915061444b8284613f33565b915081905092915050565b7f4e487b7100000000000000000000000000000000000000000000000000000000600052601160045260246000fd5b60006144908261307b565b915061449b8361307b565b92508282039050818111156144b3576144b2614456565b5b92915050565b600081519050919050565b600082825260208201905092915050565b60006144e0826144b9565b6144ea81856144c4565b93506144fa818560208601612fe5565b6145038161300f565b840191505092915050565b60006080820190506145236000830187613110565b6145306020830186613110565b61453d60408301856131a6565b818103606083015261454f81846144d5565b905095945050505050565b60008151905061456981612e66565b92915050565b60006020828403121561458557614584612e30565b5b60006145938482850161455a565b91505092915050565b60006145a78261307b565b91507fffffffffffffffffffffffffffffffffffffffffffffffffffffffffffffffff82036145d9576145d8614456565b5b600182019050919050565b60006145ef8261307b565b91506145fa8361307b565b92508261460a57614609613d67565b5b828204905092915050565b60006146208261307b565b915061462b8361307b565b925082820190508082111561464357614642614456565b5b92915050565b60006146558284613d02565b60148201915081905092915050565b600061466f8261307b565b915061467a8361307b565b92508282026146888161307b565b9150828204841483151761469f5761469e614456565b5b5092915050565b60006040820190506146bb6000830185613110565b6146c860208301846131a6565b939250505056fe4142434445464748494a4b4c4d4e4f505152535455565758595a6162636465666768696a6b6c6d6e6f707172737475767778797a303132333435363738392b2fa26469706673582212206dcf581baebf31b5463a8e2da76b7cce40fb66397f6f73cfa37988136e0292f664736f6c634300081b003350617469656e6365206272696e677320746865207377656574657374207265776172647321536d616c6c20626c657373696e6773206c65616420746f20626967676572206f70706f7274756e6974696573216261667962656964327564613568616d6b7a62346c73653572633768746362636a66666f376467756b6a6f34626a71646a7576686534346767376145787472616f7264696e61727920666f7274756e6520617761697473212045766572797468696e67207475726e7320746f20676f6c6421496e6372656469626c65206c75636b2120596f757220647265616d7320657863656564206578706563746174696f6e732162616679626569646c7974373375636a6d74637a727463766463666b73756c676670783567646167326a37366871646f336b637064783276327665476f6f64207468696e677320636f6d6520746f2074686f73652077686f20776169742142616c616e636564206c75636b206272696e6773207374656164792070726f6772657373216261667962656968733561757578777534346634676571776867797a646f616d64676171786a367762746377733437667436346d61796178736365626166796265696565326b637a6a677a73656171616e356c6465776c7363686677616c65787a79676568657775366a6f656f77326574626b65726168747470733a2f2f676174657761792e70696e6174612e636c6f75642f697066732f62616679626569686d6e74713372786864356a366e786b366a3376626c7a713672686c6f697a326972636d6477673234337261637a7937716c61756261667962656963617274346f656736677868716769766d356b6e626f6f716e346278613337346a7067373361716465687a3233347a683671756d6261666b72656967696f337532356732706762666f33616a6f68793571636964613734616b666c6e3374746c786834343378676a7933336f73706d477265617420666f7274756e6520736d696c65732075706f6e20796f7520746f64617921",
  "linkReferences": {},
  "deployedLinkReferences": {}
}