{
  "_format": "hh-sol-artifact-1",
  "contractName": "OmikujiShrine",
  "sourceName": "contracts/OmikujiShrine.sol",
  "abi": [
    {
      "inputs": [],
      "stateMutability": "nonpayable",
      "type": "constructor"
    },
    {
      "inputs": [
        {
          "internalType": "address",
          "name": "sender",
          "type": "address"
        },
        {
          "internalType": "uint256",
          "name": "tokenId",
          "type": "uint256"
        },
        {
          "internalType": "address",
          "name": "owner",
          "type": "address"
        }
      ],
      "name": "ERC721IncorrectOwner",
      "type": "error"
    },
    {
      "inputs": [
        {
          "internalType": "address",
          "name": "operator",
          "type": "address"
        },
        {
          "internalType": "uint256",
          "name": "tokenId",
          "type": "uint256"
        }
      ],
      "name": "ERC721InsufficientApproval",
      "type": "error"
    },
    {
      "inputs": [
        {
          "internalType": "address",
          "name": "approver",
          "type": "address"
        }
      ],
      "name": "ERC721InvalidApprover",
      "type": "error"
    },
    {
      "inputs": [
        {
          "internalType": "address",
          "name": "operator",
          "type": "address"
        }
      ],
      "name": "ERC721InvalidOperator",
      "type": "error"
    },
    {
      "inputs": [
        {
          "internalType": "address",
          "name": "owner",
          "type": "address"
        }
      ],
      "name": "ERC721InvalidOwner",
      "type": "error"
    },
    {
      "inputs": [
        {
          "internalType": "address",
          "name": "receiver",
          "type": "address"
        }
      ],
      "name": "ERC721InvalidReceiver",
      "type": "error"
    },
    {
      "inputs": [
        {
          "internalType": "address",
          "name": "sender",
          "type": "address"
        }
      ],
      "name": "ERC721InvalidSender",
      "type": "error"
    },
    {
      "inputs": [
        {
          "internalType": "uint256",
          "name": "tokenId",
          "type": "uint256"
        }
      ],
      "name": "ERC721NonexistentToken",
      "type": "error"
    },
    {
      "inputs": [
        {
          "internalType": "address",
          "name": "owner",
          "type": "address"
        }
      ],
      "name": "OwnableInvalidOwner",
      "type": "error"
    },
    {
      "inputs": [
        {
          "internalType": "address",
          "name": "account",
          "type": "address"
        }
      ],
      "name": "OwnableUnauthorizedAccount",
      "type": "error"
    },
    {
      "anonymous": false,
      "inputs": [
        {
          "indexed": true,
          "internalType": "address",
          "name": "owner",
          "type": "address"
        },
        {
          "indexed": true,
          "internalType": "address",
          "name": "approved",
          "type": "address"
        },
        {
          "indexed": true,
          "internalType": "uint256",
          "name": "tokenId",
          "type": "uint256"
        }
      ],
      "name": "Approval",
      "type": "event"
    },
    {
      "anonymous": false,
      "inputs": [
        {
          "indexed": true,
          "internalType": "address",
          "name": "owner",
          "type": "address"
        },
        {
          "indexed": true,
          "internalType": "address",
          "name": "operator",
          "type": "address"
        },
        {
          "indexed": false,
          "internalType": "bool",
          "name": "approved",
          "type": "bool"
        }
      ],
      "name": "ApprovalForAll",
      "type": "event"
    },
    {
      "anonymous": false,
      "inputs": [
        {
          "indexed": false,
          "internalType": "uint256",
          "name": "_fromTokenId",
          "type": "uint256"
        },
        {
          "indexed": false,
          "internalType": "uint256",
          "name": "_toTokenId",
          "type": "uint256"
        }
      ],
      "name": "BatchMetadataUpdate",
      "type": "event"
    },
    {
      "anonymous": false,
      "inputs": [
        {
          "indexed": false,
          "internalType": "uint256",
          "name": "_tokenId",
          "type": "uint256"
        }
      ],
      "name": "MetadataUpdate",
      "type": "event"
    },
    {
      "anonymous": false,
      "inputs": [
        {
          "indexed": true,
          "internalType": "address",
          "name": "drawer",
          "type": "address"
        },
        {
          "indexed": true,
          "internalType": "uint256",
          "name": "tokenId",
          "type": "uint256"
        },
        {
          "indexed": false,
          "internalType": "enum OmikujiShrine.OmikujiResult",
          "name": "result",
          "type": "uint8"
        },
        {
          "indexed": false,
          "internalType": "string",
          "name": "message",
          "type": "string"
        }
      ],
      "name": "OmikujiDrawn",
      "type": "event"
    },
    {
      "anonymous": false,
      "inputs": [
        {
          "indexed": true,
          "internalType": "address",
          "name": "previousOwner",
          "type": "address"
        },
        {
          "indexed": true,
          "internalType": "address",
          "name": "newOwner",
          "type": "address"
        }
      ],
      "name": "OwnershipTransferred",
      "type": "event"
    },
    {
      "anonymous": false,
      "inputs": [
        {
          "indexed": true,
          "internalType": "address",
          "name": "from",
          "type": "address"
        },
        {
          "indexed": true,
          "internalType": "address",
          "name": "to",
          "type": "address"
        },
        {
          "indexed": true,
          "internalType": "uint256",
          "name": "tokenId",
          "type": "uint256"
        }
      ],
      "name": "Transfer",
      "type": "event"
    },
    {
      "inputs": [
        {
          "internalType": "address",
          "name": "to",
          "type": "address"
        },
        {
          "internalType": "uint256",
          "name": "tokenId",
          "type": "uint256"
        }
      ],
      "name": "approve",
      "outputs": [],
      "stateMutability": "nonpayable",
      "type": "function"
    },
    {
      "inputs": [
        {
          "internalType": "address",
          "name": "owner",
          "type": "address"
        }
      ],
      "name": "balanceOf",
      "outputs": [
        {
          "internalType": "uint256",
          "name": "",
          "type": "uint256"
        }
      ],
      "stateMutability": "view",
      "type": "function"
    },
    {
      "inputs": [],
      "name": "drawOmikuji",
      "outputs": [
        {
          "internalType": "uint256",
          "name": "",
          "type": "uint256"
        }
      ],
      "stateMutability": "payable",
      "type": "function"
    },
    {
      "inputs": [
        {
          "internalType": "uint256",
          "name": "tokenId",
          "type": "uint256"
        }
      ],
      "name": "getApproved",
      "outputs": [
        {
          "internalType": "address",
          "name": "",
          "type": "address"
        }
      ],
      "stateMutability": "view",
      "type": "function"
    },
    {
      "inputs": [
        {
          "internalType": "address",
          "name": "user",
          "type": "address"
        }
      ],
      "name": "getUserOmikujis",
      "outputs": [
        {
          "internalType": "uint256[]",
          "name": "",
          "type": "uint256[]"
        }
      ],
      "stateMutability": "view",
      "type": "function"
    },
    {
      "inputs": [
        {
          "internalType": "address",
          "name": "owner",
          "type": "address"
        },
        {
          "internalType": "address",
          "name": "operator",
          "type": "address"
        }
      ],
      "name": "isApprovedForAll",
      "outputs": [
        {
          "internalType": "bool",
          "name": "",
          "type": "bool"
        }
      ],
      "stateMutability": "view",
      "type": "function"
    },
    {
      "inputs": [],
      "name": "name",
      "outputs": [
        {
          "internalType": "string",
          "name": "",
          "type": "string"
        }
      ],
      "stateMutability": "view",
      "type": "function"
    },
    {
      "inputs": [],
      "name": "omikujiPrice",
      "outputs": [
        {
          "internalType": "uint256",
          "name": "",
          "type": "uint256"
        }
      ],
      "stateMutability": "view",
      "type": "function"
    },
    {
      "inputs": [
        {
          "internalType": "uint256",
          "name": "",
          "type": "uint256"
        }
      ],
      "name": "omikujis",
      "outputs": [
        {
          "internalType": "enum OmikujiShrine.OmikujiResult",
          "name": "result",
          "type": "uint8"
        },
        {
          "internalType": "string",
          "name": "message",
          "type": "string"
        },
        {
          "internalType": "uint256",
          "name": "timestamp",
          "type": "uint256"
        },
        {
          "internalType": "address",
          "name": "drawer",
          "type": "address"
        }
      ],
      "stateMutability": "view",
      "type": "function"
    },
    {
      "inputs": [],
      "name": "owner",
      "outputs": [
        {
          "internalType": "address",
          "name": "",
          "type": "address"
        }
      ],
      "stateMutability": "view",
      "type": "function"
    },
    {
      "inputs": [
        {
          "internalType": "uint256",
          "name": "tokenId",
          "type": "uint256"
        }
      ],
      "name": "ownerOf",
      "outputs": [
        {
          "internalType": "address",
          "name": "",
          "type": "address"
        }
      ],
      "stateMutability": "view",
      "type": "function"
    },
    {
      "inputs": [],
      "name": "renounceOwnership",
      "outputs": [],
      "stateMutability": "nonpayable",
      "type": "function"
    },
    {
      "inputs": [
        {
          "internalType": "address",
          "name": "from",
          "type": "address"
        },
        {
          "internalType": "address",
          "name": "to",
          "type": "address"
        },
        {
          "internalType": "uint256",
          "name": "tokenId",
          "type": "uint256"
        }
      ],
      "name": "safeTransferFrom",
      "outputs": [],
      "stateMutability": "nonpayable",
      "type": "function"
    },
    {
      "inputs": [
        {
          "internalType": "address",
          "name": "from",
          "type": "address"
        },
        {
          "internalType": "address",
          "name": "to",
          "type": "address"
        },
        {
          "internalType": "uint256",
          "name": "tokenId",
          "type": "uint256"
        },
        {
          "internalType": "bytes",
          "name": "data",
          "type": "bytes"
        }
      ],
      "name": "safeTransferFrom",
      "outputs": [],
      "stateMutability": "nonpayable",
      "type": "function"
    },
    {
      "inputs": [
        {
          "internalType": "address",
          "name": "operator",
          "type": "address"
        },
        {
          "internalType": "bool",
          "name": "approved",
          "type": "bool"
        }
      ],
      "name": "setApprovalForAll",
      "outputs": [],
      "stateMutability": "nonpayable",
      "type": "function"
    },
    {
      "inputs": [
        {
          "internalType": "uint256",
          "name": "_price",
          "type": "uint256"
        }
      ],
      "name": "setOmikujiPrice",
      "outputs": [],
      "stateMutability": "nonpayable",
      "type": "function"
    },
    {
      "inputs": [
        {
          "internalType": "bytes4",
          "name": "interfaceId",
          "type": "bytes4"
        }
      ],
      "name": "supportsInterface",
      "outputs": [
        {
          "internalType": "bool",
          "name": "",
          "type": "bool"
        }
      ],
      "stateMutability": "view",
      "type": "function"
    },
    {
      "inputs": [],
      "name": "symbol",
      "outputs": [
        {
          "internalType": "string",
          "name": "",
          "type": "string"
        }
      ],
      "stateMutability": "view",
      "type": "function"
    },
    {
      "inputs": [
        {
          "internalType": "uint256",
          "name": "tokenId",
          "type": "uint256"
        }
      ],
      "name": "tokenURI",
      "outputs": [
        {
          "internalType": "string",
          "name": "",
          "type": "string"
        }
      ],
      "stateMutability": "view",
      "type": "function"
    },
    {
      "inputs": [
        {
          "internalType": "address",
          "name": "from",
          "type": "address"
        },
        {
          "internalType": "address",
          "name": "to",
          "type": "address"
        },
        {
          "internalType": "uint256",
          "name": "tokenId",
          "type": "uint256"
        }
      ],
      "name": "transferFrom",
      "outputs": [],
      "stateMutability": "nonpayable",
      "type": "function"
    },
    {
      "inputs": [
        {
          "internalType": "address",
          "name": "newOwner",
          "type": "address"
        }
      ],
      "name": "transferOwnership",
      "outputs": [],
      "stateMutability": "nonpayable",
      "type": "function"
    },
    {
      "inputs": [
        {
          "internalType": "address",
          "name": "",
          "type": "address"
        },
        {
          "internalType": "uint256",
          "name": "",
          "type": "uint256"
        }
      ],
      "name": "userOmikujis",
      "outputs": [
        {
          "internalType": "uint256",
          "name": "",
          "type": "uint256"
        }
      ],
      "stateMutability": "view",
      "type": "function"
    },
    {
      "inputs": [],
      "name": "withdraw",
      "outputs": [],
      "stateMutability": "nonpayable",
      "type": "function"
    }
  ],
  "bytecode": "0x608060405266038d7ea4c680006009556040518060c001604052806040518060400160405280601981526020017f4461696b69636869202d20477265617420426c657373696e670000000000000081525081526020016040518060400160405280601481526020017f4b69636869202d20476f6f6420466f7274756e6500000000000000000000000081525081526020016040518060400160405280601a81526020017f4368756b69636869202d204d6964646c6520426c657373696e6700000000000081525081526020016040518060400160405280601981526020017f53686f6b69636869202d20536d616c6c20426c657373696e670000000000000081525081526020016040518060400160405280601b81526020017f5375652d6b69636869202d2046757475726520426c657373696e67000000000081525081526020016040518060400160405280601181526020017f4b796f202d2042616420466f7274756e65000000000000000000000000000000815250815250600c90600661018a929190610499565b506040518060c001604052806040518060600160405280602981526020016152f16029913981526020016040518060400160405280602081526020017f476f6f64207468696e67732061726520636f6d696e6720796f7572207761792181525081526020016040518060400160405280601f81526020017f5374656164792070726f6772657373206272696e67732073756363657373210081525081526020016040518060600160405280602781526020016152a66027913981526020016040518060400160405280601a81526020017f50617469656e63652077696c6c2062652072657761726465642100000000000081525081526020016040518060600160405280602481526020016152cd6024913981525060129060066102af929190610499565b503480156102bc57600080fd5b50336040518060400160405280601281526020017f4f6d696b756a6920536872696e65204e465400000000000000000000000000008152506040518060400160405280600781526020017f4f4d494b554a4900000000000000000000000000000000000000000000000000815250816000908161033991906107b6565b50806001908161034991906107b6565b505050600073ffffffffffffffffffffffffffffffffffffffff168173ffffffffffffffffffffffffffffffffffffffff16036103be5760006040517f1e4fbdf70000000000000000000000000000000000000000000000000000000081526004016103b591906108c9565b60405180910390fd5b6103cd816103d360201b60201c565b506108e4565b6000600760009054906101000a900473ffffffffffffffffffffffffffffffffffffffff16905081600760006101000a81548173ffffffffffffffffffffffffffffffffffffffff021916908373ffffffffffffffffffffffffffffffffffffffff1602179055508173ffffffffffffffffffffffffffffffffffffffff168173ffffffffffffffffffffffffffffffffffffffff167f8be0079c531659141344cd1fd0a4f28419497f9722a3daafe3b4186f6b6457e060405160405180910390a35050565b82600681019282156104d4579160200282015b828111156104d35782518290816104c391906107b6565b50916020019190600101906104ac565b5b5090506104e191906104e5565b5090565b5b8082111561050557600081816104fc9190610509565b506001016104e6565b5090565b508054610515906105cf565b6000825580601f106105275750610546565b601f0160209004906000526020600020908101906105459190610549565b5b50565b5b8082111561056257600081600090555060010161054a565b5090565b600081519050919050565b7f4e487b7100000000000000000000000000000000000000000000000000000000600052604160045260246000fd5b7f4e487b7100000000000000000000000000000000000000000000000000000000600052602260045260246000fd5b600060028204905060018216806105e757607f821691505b6020821081036105fa576105f96105a0565b5b50919050565b60008190508160005260206000209050919050565b60006020601f8301049050919050565b600082821b905092915050565b6000600883026106627fffffffffffffffffffffffffffffffffffffffffffffffffffffffffffffffff82610625565b61066c8683610625565b95508019841693508086168417925050509392505050565b6000819050919050565b6000819050919050565b60006106b36106ae6106a984610684565b61068e565b610684565b9050919050565b6000819050919050565b6106cd83610698565b6106e16106d9826106ba565b848454610632565b825550505050565b600090565b6106f66106e9565b6107018184846106c4565b505050565b5b818110156107255761071a6000826106ee565b600181019050610707565b5050565b601f82111561076a5761073b81610600565b61074484610615565b81016020851015610753578190505b61076761075f85610615565b830182610706565b50505b505050565b600082821c905092915050565b600061078d6000198460080261076f565b1980831691505092915050565b60006107a6838361077c565b9150826002028217905092915050565b6107bf82610566565b67ffffffffffffffff8111156107d8576107d7610571565b5b6107e282546105cf565b6107ed828285610729565b600060209050601f831160018114610820576000841561080e578287015190505b610818858261079a565b865550610880565b601f19841661082e86610600565b60005b8281101561085657848901518255600182019150602085019450602081019050610831565b86831015610873578489015161086f601f89168261077c565b8355505b6001600288020188555050505b505050505050565b600073ffffffffffffffffffffffffffffffffffffffff82169050919050565b60006108b382610888565b9050919050565b6108c3816108a8565b82525050565b60006020820190506108de60008301846108ba565b92915050565b6149b3806108f36000396000f3fe6080604052600436106101405760003560e01c80636352211e116100b6578063a22cb4651161006f578063a22cb4651461044f578063b88d4fde14610478578063bce25a53146104a1578063c87b56dd146104e1578063e985e9c51461051e578063f2fde38b1461055b57610140565b80636352211e1461033f57806370a082311461037c578063715018a6146103b95780638da5cb5b146103d057806395d89b41146103fb5780639c59b1df1461042657610140565b80633ccfd60b116101085780633ccfd60b1461023c57806342842e0e146102535780634afa485d1461027c5780634ca8a941146102b9578063581f0fb0146102e45780635b72ed291461030257610140565b806301ffc9a71461014557806306fdde0314610182578063081812fc146101ad578063095ea7b3146101ea57806323b872dd14610213575b600080fd5b34801561015157600080fd5b5061016c60048036038101906101679190612e7a565b610584565b6040516101799190612ec2565b60405180910390f35b34801561018e57600080fd5b50610197610596565b6040516101a49190612f6d565b60405180910390f35b3480156101b957600080fd5b506101d460048036038101906101cf9190612fc5565b610628565b6040516101e19190613033565b60405180910390f35b3480156101f657600080fd5b50610211600480360381019061020c919061307a565b610644565b005b34801561021f57600080fd5b5061023a600480360381019061023591906130ba565b61065a565b005b34801561024857600080fd5b5061025161075c565b005b34801561025f57600080fd5b5061027a600480360381019061027591906130ba565b6107b4565b005b34801561028857600080fd5b506102a3600480360381019061029e919061307a565b6107d4565b6040516102b0919061311c565b60405180910390f35b3480156102c557600080fd5b506102ce610805565b6040516102db919061311c565b60405180910390f35b6102ec61080b565b6040516102f9919061311c565b60405180910390f35b34801561030e57600080fd5b5061032960048036038101906103249190613137565b610b9d565b6040516103369190613222565b60405180910390f35b34801561034b57600080fd5b5061036660048036038101906103619190612fc5565b610c34565b6040516103739190613033565b60405180910390f35b34801561038857600080fd5b506103a3600480360381019061039e9190613137565b610c46565b6040516103b0919061311c565b60405180910390f35b3480156103c557600080fd5b506103ce610d00565b005b3480156103dc57600080fd5b506103e5610d14565b6040516103f29190613033565b60405180910390f35b34801561040757600080fd5b50610410610d3e565b60405161041d9190612f6d565b60405180910390f35b34801561043257600080fd5b5061044d60048036038101906104489190612fc5565b610dd0565b005b34801561045b57600080fd5b5061047660048036038101906104719190613270565b610de2565b005b34801561048457600080fd5b5061049f600480360381019061049a91906133e5565b610df8565b005b3480156104ad57600080fd5b506104c860048036038101906104c39190612fc5565b610e1d565b6040516104d894939291906134df565b60405180910390f35b3480156104ed57600080fd5b5061050860048036038101906105039190612fc5565b610f02565b6040516105159190612f6d565b60405180910390f35b34801561052a57600080fd5b506105456004803603810190610540919061352b565b610f14565b6040516105529190612ec2565b60405180910390f35b34801561056757600080fd5b50610582600480360381019061057d9190613137565b610fa8565b005b600061058f8261102e565b9050919050565b6060600080546105a59061359a565b80601f01602080910402602001604051908101604052809291908181526020018280546105d19061359a565b801561061e5780601f106105f35761010080835404028352916020019161061e565b820191906000526020600020905b81548152906001019060200180831161060157829003601f168201915b5050505050905090565b60006106338261108f565b5061063d82611117565b9050919050565b6106568282610651611154565b61115c565b5050565b600073ffffffffffffffffffffffffffffffffffffffff168273ffffffffffffffffffffffffffffffffffffffff16036106cc5760006040517f64a0ae920000000000000000000000000000000000000000000000000000000081526004016106c39190613033565b60405180910390fd5b60006106e083836106db611154565b61116e565b90508373ffffffffffffffffffffffffffffffffffffffff168173ffffffffffffffffffffffffffffffffffffffff1614610756578382826040517f64283d7b00000000000000000000000000000000000000000000000000000000815260040161074d939291906135cb565b60405180910390fd5b50505050565b610764611388565b61076c610d14565b73ffffffffffffffffffffffffffffffffffffffff166108fc479081150290604051600060405180830381858888f193505050501580156107b1573d6000803e3d6000fd5b50565b6107cf83838360405180602001604052806000815250610df8565b505050565b600b60205281600052604060002081815481106107f057600080fd5b90600052602060002001600091509150505481565b60095481565b6000600954341015610852576040517f08c379a00000000000000000000000000000000000000000000000000000000081526004016108499061364e565b60405180910390fd5b600860008154809291906108659061369d565b919050555060006008549050600060644244338560405160200161088c949392919061374e565b6040516020818303038152906040528051906020012060001c6108af91906137cb565b9050600060058210156108c55760009050610916565b60148210156108d75760019050610915565b60288210156108e95760029050610914565b60418210156108fb5760039050610913565b605582101561090d5760049050610912565b600590505b5b5b5b5b6000601282600581111561092d5761092c613468565b5b6006811061093e5761093d6137fc565b5b01805461094a9061359a565b80601f01602080910402602001604051908101604052809291908181526020018280546109769061359a565b80156109c35780601f10610998576101008083540402835291602001916109c3565b820191906000526020600020905b8154815290600101906020018083116109a657829003601f168201915b5050505050905060405180608001604052808360058111156109e8576109e7613468565b5b81526020018281526020014281526020013373ffffffffffffffffffffffffffffffffffffffff16815250600a600086815260200190815260200160002060008201518160000160006101000a81548160ff02191690836005811115610a5157610a50613468565b5b02179055506020820151816001019081610a6b91906139d7565b506040820151816002015560608201518160030160006101000a81548173ffffffffffffffffffffffffffffffffffffffff021916908373ffffffffffffffffffffffffffffffffffffffff160217905550905050600b60003373ffffffffffffffffffffffffffffffffffffffff1673ffffffffffffffffffffffffffffffffffffffff168152602001908152602001600020849080600181540180825580915050600190039060005260206000200160009091909190915055610b30338561140f565b610b4284610b3d8661142d565b6116b4565b833373ffffffffffffffffffffffffffffffffffffffff167f8f59f601bb75974d2fc5a2ee8f1b7de682a1e78edb4cb7418db454c60ee4a5d18484604051610b8b929190613aa9565b60405180910390a38394505050505090565b6060600b60008373ffffffffffffffffffffffffffffffffffffffff1673ffffffffffffffffffffffffffffffffffffffff168152602001908152602001600020805480602002602001604051908101604052809291908181526020018280548015610c2857602002820191906000526020600020905b815481526020019060010190808311610c14575b50505050509050919050565b6000610c3f8261108f565b9050919050565b60008073ffffffffffffffffffffffffffffffffffffffff168273ffffffffffffffffffffffffffffffffffffffff1603610cb95760006040517f89c62b64000000000000000000000000000000000000000000000000000000008152600401610cb09190613033565b60405180910390fd5b600360008373ffffffffffffffffffffffffffffffffffffffff1673ffffffffffffffffffffffffffffffffffffffff168152602001908152602001600020549050919050565b610d08611388565b610d126000611710565b565b6000600760009054906101000a900473ffffffffffffffffffffffffffffffffffffffff16905090565b606060018054610d4d9061359a565b80601f0160208091040260200160405190810160405280929190818152602001828054610d799061359a565b8015610dc65780601f10610d9b57610100808354040283529160200191610dc6565b820191906000526020600020905b815481529060010190602001808311610da957829003601f168201915b5050505050905090565b610dd8611388565b8060098190555050565b610df4610ded611154565b83836117d6565b5050565b610e0384848461065a565b610e17610e0e611154565b85858585611945565b50505050565b600a6020528060005260406000206000915090508060000160009054906101000a900460ff1690806001018054610e539061359a565b80601f0160208091040260200160405190810160405280929190818152602001828054610e7f9061359a565b8015610ecc5780601f10610ea157610100808354040283529160200191610ecc565b820191906000526020600020905b815481529060010190602001808311610eaf57829003601f168201915b5050505050908060020154908060030160009054906101000a900473ffffffffffffffffffffffffffffffffffffffff16905084565b6060610f0d82611af6565b9050919050565b6000600560008473ffffffffffffffffffffffffffffffffffffffff1673ffffffffffffffffffffffffffffffffffffffff16815260200190815260200160002060008373ffffffffffffffffffffffffffffffffffffffff1673ffffffffffffffffffffffffffffffffffffffff16815260200190815260200160002060009054906101000a900460ff16905092915050565b610fb0611388565b600073ffffffffffffffffffffffffffffffffffffffff168173ffffffffffffffffffffffffffffffffffffffff16036110225760006040517f1e4fbdf70000000000000000000000000000000000000000000000000000000081526004016110199190613033565b60405180910390fd5b61102b81611710565b50565b6000634906490660e01b7bffffffffffffffffffffffffffffffffffffffffffffffffffffffff1916827bffffffffffffffffffffffffffffffffffffffffffffffffffffffff19161480611088575061108782611c09565b5b9050919050565b60008061109b83611ceb565b9050600073ffffffffffffffffffffffffffffffffffffffff168173ffffffffffffffffffffffffffffffffffffffff160361110e57826040517f7e273289000000000000000000000000000000000000000000000000000000008152600401611105919061311c565b60405180910390fd5b80915050919050565b60006004600083815260200190815260200160002060009054906101000a900473ffffffffffffffffffffffffffffffffffffffff169050919050565b600033905090565b6111698383836001611d28565b505050565b60008061117a84611ceb565b9050600073ffffffffffffffffffffffffffffffffffffffff168373ffffffffffffffffffffffffffffffffffffffff16146111bc576111bb818486611eed565b5b600073ffffffffffffffffffffffffffffffffffffffff168173ffffffffffffffffffffffffffffffffffffffff161461124d576111fe600085600080611d28565b6001600360008373ffffffffffffffffffffffffffffffffffffffff1673ffffffffffffffffffffffffffffffffffffffff168152602001908152602001600020600082825403925050819055505b600073ffffffffffffffffffffffffffffffffffffffff168573ffffffffffffffffffffffffffffffffffffffff16146112d0576001600360008773ffffffffffffffffffffffffffffffffffffffff1673ffffffffffffffffffffffffffffffffffffffff168152602001908152602001600020600082825401925050819055505b846002600086815260200190815260200160002060006101000a81548173ffffffffffffffffffffffffffffffffffffffff021916908373ffffffffffffffffffffffffffffffffffffffff160217905550838573ffffffffffffffffffffffffffffffffffffffff168273ffffffffffffffffffffffffffffffffffffffff167fddf252ad1be2c89b69c2b068fc378daa952ba7f163c4a11628f55a4df523b3ef60405160405180910390a4809150509392505050565b611390611154565b73ffffffffffffffffffffffffffffffffffffffff166113ae610d14565b73ffffffffffffffffffffffffffffffffffffffff161461140d576113d1611154565b6040517f118cdaa70000000000000000000000000000000000000000000000000000000081526004016114049190613033565b60405180910390fd5b565b611429828260405180602001604052806000815250611fb1565b5050565b60606000600a60008481526020019081526020016000206040518060800160405290816000820160009054906101000a900460ff16600581111561147457611473613468565b5b600581111561148657611485613468565b5b815260200160018201805461149a9061359a565b80601f01602080910402602001604051908101604052809291908181526020018280546114c69061359a565b80156115135780601f106114e857610100808354040283529160200191611513565b820191906000526020600020905b8154815290600101906020018083116114f657829003601f168201915b50505050508152602001600282015481526020016003820160009054906101000a900473ffffffffffffffffffffffffffffffffffffffff1673ffffffffffffffffffffffffffffffffffffffff1673ffffffffffffffffffffffffffffffffffffffff168152505090506000600c8260000151600581111561159957611598613468565b5b600681106115aa576115a96137fc565b5b0180546115b69061359a565b80601f01602080910402602001604051908101604052809291908181526020018280546115e29061359a565b801561162f5780601f106116045761010080835404028352916020019161162f565b820191906000526020600020905b81548152906001019060200180831161161257829003601f168201915b50505050509050600061164185611fd5565b8284602001516116548660400151611fd5565b61165d876120a3565b604051602001611671959493929190613f89565b604051602081830303815290604052905061168b816121ad565b60405160200161169b91906140af565b6040516020818303038152906040529350505050919050565b806006600084815260200190815260200160002090816116d491906139d7565b507ff8e1a15aba9398e019f0b49df1a4fde98ee17ae345cb5f6b5e2c27f5033e8ce782604051611704919061311c565b60405180910390a15050565b6000600760009054906101000a900473ffffffffffffffffffffffffffffffffffffffff16905081600760006101000a81548173ffffffffffffffffffffffffffffffffffffffff021916908373ffffffffffffffffffffffffffffffffffffffff1602179055508173ffffffffffffffffffffffffffffffffffffffff168173ffffffffffffffffffffffffffffffffffffffff167f8be0079c531659141344cd1fd0a4f28419497f9722a3daafe3b4186f6b6457e060405160405180910390a35050565b600073ffffffffffffffffffffffffffffffffffffffff168273ffffffffffffffffffffffffffffffffffffffff160361184757816040517f5b08ba1800000000000000000000000000000000000000000000000000000000815260040161183e9190613033565b60405180910390fd5b80600560008573ffffffffffffffffffffffffffffffffffffffff1673ffffffffffffffffffffffffffffffffffffffff16815260200190815260200160002060008473ffffffffffffffffffffffffffffffffffffffff1673ffffffffffffffffffffffffffffffffffffffff16815260200190815260200160002060006101000a81548160ff0219169083151502179055508173ffffffffffffffffffffffffffffffffffffffff168373ffffffffffffffffffffffffffffffffffffffff167f17307eab39ab6107e8899845ad3d59bd9653f200f220920489ca2b5937696c31836040516119389190612ec2565b60405180910390a3505050565b60008373ffffffffffffffffffffffffffffffffffffffff163b1115611aef578273ffffffffffffffffffffffffffffffffffffffff1663150b7a02868685856040518563ffffffff1660e01b81526004016119a49493929190614126565b6020604051808303816000875af19250505080156119e057506040513d601f19601f820116820180604052508101906119dd9190614187565b60015b611a64573d8060008114611a10576040519150601f19603f3d011682016040523d82523d6000602084013e611a15565b606091505b506000815103611a5c57836040517f64a0ae92000000000000000000000000000000000000000000000000000000008152600401611a539190613033565b60405180910390fd5b805160208201fd5b63150b7a0260e01b7bffffffffffffffffffffffffffffffffffffffffffffffffffffffff1916817bffffffffffffffffffffffffffffffffffffffffffffffffffffffff191614611aed57836040517f64a0ae92000000000000000000000000000000000000000000000000000000008152600401611ae49190613033565b60405180910390fd5b505b5050505050565b6060611b018261108f565b506000600660008481526020019081526020016000208054611b229061359a565b80601f0160208091040260200160405190810160405280929190818152602001828054611b4e9061359a565b8015611b9b5780601f10611b7057610100808354040283529160200191611b9b565b820191906000526020600020905b815481529060010190602001808311611b7e57829003601f168201915b505050505090506000611bac6127ca565b90506000815103611bc1578192505050611c04565b600082511115611bf6578082604051602001611bde9291906141b4565b60405160208183030381529060405292505050611c04565b611bff846127e1565b925050505b919050565b60007f80ac58cd000000000000000000000000000000000000000000000000000000007bffffffffffffffffffffffffffffffffffffffffffffffffffffffff1916827bffffffffffffffffffffffffffffffffffffffffffffffffffffffff19161480611cd457507f5b5e139f000000000000000000000000000000000000000000000000000000007bffffffffffffffffffffffffffffffffffffffffffffffffffffffff1916827bffffffffffffffffffffffffffffffffffffffffffffffffffffffff1916145b80611ce45750611ce38261284a565b5b9050919050565b60006002600083815260200190815260200160002060009054906101000a900473ffffffffffffffffffffffffffffffffffffffff169050919050565b8080611d615750600073ffffffffffffffffffffffffffffffffffffffff168273ffffffffffffffffffffffffffffffffffffffff1614155b15611e95576000611d718461108f565b9050600073ffffffffffffffffffffffffffffffffffffffff168373ffffffffffffffffffffffffffffffffffffffff1614158015611ddc57508273ffffffffffffffffffffffffffffffffffffffff168173ffffffffffffffffffffffffffffffffffffffff1614155b8015611def5750611ded8184610f14565b155b15611e3157826040517fa9fbf51f000000000000000000000000000000000000000000000000000000008152600401611e289190613033565b60405180910390fd5b8115611e9357838573ffffffffffffffffffffffffffffffffffffffff168273ffffffffffffffffffffffffffffffffffffffff167f8c5be1e5ebec7d5bd14f71427d1e84f3dd0314c0f7b2291e5b200ac8c7c3b92560405160405180910390a45b505b836004600085815260200190815260200160002060006101000a81548173ffffffffffffffffffffffffffffffffffffffff021916908373ffffffffffffffffffffffffffffffffffffffff16021790555050505050565b611ef88383836128b4565b611fac57600073ffffffffffffffffffffffffffffffffffffffff168373ffffffffffffffffffffffffffffffffffffffff1603611f6d57806040517f7e273289000000000000000000000000000000000000000000000000000000008152600401611f64919061311c565b60405180910390fd5b81816040517f177e802f000000000000000000000000000000000000000000000000000000008152600401611fa39291906141d8565b60405180910390fd5b505050565b611fbb8383612975565b611fd0611fc6611154565b6000858585611945565b505050565b606060006001611fe484612a6e565b01905060008167ffffffffffffffff811115612003576120026132ba565b5b6040519080825280601f01601f1916602001820160405280156120355781602001600182028036833780820191505090505b509050600082602083010190505b600115612098578080600190039150507f3031323334353637383961626364656600000000000000000000000000000000600a86061a8153600a858161208c5761208b61379c565b5b04945060008503612043575b819350505050919050565b60606000600c836000015160058111156120c0576120bf613468565b5b600681106120d1576120d06137fc565b5b0180546120dd9061359a565b80601f01602080910402602001604051908101604052809291908181526020018280546121099061359a565b80156121565780601f1061212b57610100808354040283529160200191612156565b820191906000526020600020905b81548152906001019060200180831161213957829003601f168201915b50505050509050600061216c8460000151612bc1565b9050600081838660200151604051602001612189939291906147cb565b60405160208183030381529060405290506121a3816121ad565b9350505050919050565b6060600060405180606001604052806040815260200161493e60409139905060008351036121ed57604051806020016040528060008152509150506127c5565b60006003600285516121ff9190614896565b61220991906148ca565b600461221591906148fb565b67ffffffffffffffff81111561222e5761222d6132ba565b5b6040519080825280601f01601f1916602001820160405280156122605781602001600182028036833780820191505090505b50905060008190506000805b865160038361227b9190614896565b11612516576000878381518110612295576122946137fc565b5b602001015160f81c60f81b60f81c60ff1690506000886001856122b89190614896565b815181106122c9576122c86137fc565b5b602001015160f81c60f81b60f81c60ff1690506000896002866122ec9190614896565b815181106122fd576122fc6137fc565b5b602001015160f81c60f81b60f81c60ff169050600081600884901b601086901b1717905088601282901c81518110612338576123376137fc565b5b602001015160f81c60f81b60f81c60f81b8786806123559061369d565b975081518110612368576123676137fc565b5b60200101907effffffffffffffffffffffffffffffffffffffffffffffffffffffffffffff1916908160001a90535088603f600c83901c16815181106123b1576123b06137fc565b5b602001015160f81c60f81b60f81c60f81b8786806123ce9061369d565b9750815181106123e1576123e06137fc565b5b60200101907effffffffffffffffffffffffffffffffffffffffffffffffffffffffffffff1916908160001a90535088603f600683901c168151811061242a576124296137fc565b5b602001015160f81c60f81b60f81c60f81b8786806124479061369d565b97508151811061245a576124596137fc565b5b60200101907effffffffffffffffffffffffffffffffffffffffffffffffffffffffffffff1916908160001a90535088603f82168151811061249f5761249e6137fc565b5b602001015160f81c60f81b60f81c60f81b8786806124bc9061369d565b9750815181106124cf576124ce6137fc565b5b60200101907effffffffffffffffffffffffffffffffffffffffffffffffffffffffffffff1916908160001a9053505050505060038261250f9190614896565b915061226c565b86518210156127bc576000878381518110612534576125336137fc565b5b602001015160f81c60f81b60f81c60ff169050600088516001856125589190614896565b10612564576000612595565b886001856125729190614896565b81518110612583576125826137fc565b5b602001015160f81c60f81b60f81c60ff165b90506000600882901b601084901b17905087601282901c815181106125bd576125bc6137fc565b5b602001015160f81c60f81b60f81c60f81b8685806125da9061369d565b9650815181106125ed576125ec6137fc565b5b60200101907effffffffffffffffffffffffffffffffffffffffffffffffffffffffffffff1916908160001a90535087603f600c83901c1681518110612636576126356137fc565b5b602001015160f81c60f81b60f81c60f81b8685806126539061369d565b965081518110612666576126656137fc565b5b60200101907effffffffffffffffffffffffffffffffffffffffffffffffffffffffffffff1916908160001a90535089516001866126a49190614896565b106126cf577f3d000000000000000000000000000000000000000000000000000000000000006126fb565b87603f600683901c16815181106126e9576126e86137fc565b5b602001015160f81c60f81b60f81c60f81b5b8685806127079061369d565b96508151811061271a576127196137fc565b5b60200101907effffffffffffffffffffffffffffffffffffffffffffffffffffffffffffff1916908160001a9053507f3d000000000000000000000000000000000000000000000000000000000000008685806127769061369d565b965081518110612789576127886137fc565b5b60200101907effffffffffffffffffffffffffffffffffffffffffffffffffffffffffffff1916908160001a9053505050505b83955050505050505b919050565b606060405180602001604052806000815250905090565b60606127ec8261108f565b5060006127f76127ca565b905060008151116128175760405180602001604052806000815250612842565b8061282184611fd5565b6040516020016128329291906141b4565b6040516020818303038152906040525b915050919050565b60007f01ffc9a7000000000000000000000000000000000000000000000000000000007bffffffffffffffffffffffffffffffffffffffffffffffffffffffff1916827bffffffffffffffffffffffffffffffffffffffffffffffffffffffff1916149050919050565b60008073ffffffffffffffffffffffffffffffffffffffff168373ffffffffffffffffffffffffffffffffffffffff161415801561296c57508273ffffffffffffffffffffffffffffffffffffffff168473ffffffffffffffffffffffffffffffffffffffff16148061292d575061292c8484610f14565b5b8061296b57508273ffffffffffffffffffffffffffffffffffffffff1661295383611117565b73ffffffffffffffffffffffffffffffffffffffff16145b5b90509392505050565b600073ffffffffffffffffffffffffffffffffffffffff168273ffffffffffffffffffffffffffffffffffffffff16036129e75760006040517f64a0ae920000000000000000000000000000000000000000000000000000000081526004016129de9190613033565b60405180910390fd5b60006129f58383600061116e565b9050600073ffffffffffffffffffffffffffffffffffffffff168173ffffffffffffffffffffffffffffffffffffffff1614612a695760006040517f73c6ac6e000000000000000000000000000000000000000000000000000000008152600401612a609190613033565b60405180910390fd5b505050565b600080600090507a184f03e93ff9f4daa797ed6e38ed64bf6a1f0100000000000000008310612acc577a184f03e93ff9f4daa797ed6e38ed64bf6a1f0100000000000000008381612ac257612ac161379c565b5b0492506040810190505b6d04ee2d6d415b85acef81000000008310612b09576d04ee2d6d415b85acef81000000008381612aff57612afe61379c565b5b0492506020810190505b662386f26fc100008310612b3857662386f26fc100008381612b2e57612b2d61379c565b5b0492506010810190505b6305f5e1008310612b61576305f5e1008381612b5757612b5661379c565b5b0492506008810190505b6127108310612b86576127108381612b7c57612b7b61379c565b5b0492506004810190505b60648310612ba95760648381612b9f57612b9e61379c565b5b0492506002810190505b600a8310612bb8576001810190505b80915050919050565b606060006005811115612bd757612bd6613468565b5b826005811115612bea57612be9613468565b5b03612c2c576040518060400160405280600781526020017f23666636623662000000000000000000000000000000000000000000000000008152509050612e09565b60016005811115612c4057612c3f613468565b5b826005811115612c5357612c52613468565b5b03612c95576040518060400160405280600781526020017f23346563646334000000000000000000000000000000000000000000000000008152509050612e09565b60026005811115612ca957612ca8613468565b5b826005811115612cbc57612cbb613468565b5b03612cfe576040518060400160405280600781526020017f23343562376431000000000000000000000000000000000000000000000000008152509050612e09565b60036005811115612d1257612d11613468565b5b826005811115612d2557612d24613468565b5b03612d67576040518060400160405280600781526020017f23393663656234000000000000000000000000000000000000000000000000008152509050612e09565b60046005811115612d7b57612d7a613468565b5b826005811115612d8e57612d8d613468565b5b03612dd0576040518060400160405280600781526020017f23666563613537000000000000000000000000000000000000000000000000008152509050612e09565b6040518060400160405280600781526020017f236135356565610000000000000000000000000000000000000000000000000081525090505b919050565b6000604051905090565b600080fd5b600080fd5b60007fffffffff0000000000000000000000000000000000000000000000000000000082169050919050565b612e5781612e22565b8114612e6257600080fd5b50565b600081359050612e7481612e4e565b92915050565b600060208284031215612e9057612e8f612e18565b5b6000612e9e84828501612e65565b91505092915050565b60008115159050919050565b612ebc81612ea7565b82525050565b6000602082019050612ed76000830184612eb3565b92915050565b600081519050919050565b600082825260208201905092915050565b60005b83811015612f17578082015181840152602081019050612efc565b60008484015250505050565b6000601f19601f8301169050919050565b6000612f3f82612edd565b612f498185612ee8565b9350612f59818560208601612ef9565b612f6281612f23565b840191505092915050565b60006020820190508181036000830152612f878184612f34565b905092915050565b6000819050919050565b612fa281612f8f565b8114612fad57600080fd5b50565b600081359050612fbf81612f99565b92915050565b600060208284031215612fdb57612fda612e18565b5b6000612fe984828501612fb0565b91505092915050565b600073ffffffffffffffffffffffffffffffffffffffff82169050919050565b600061301d82612ff2565b9050919050565b61302d81613012565b82525050565b60006020820190506130486000830184613024565b92915050565b61305781613012565b811461306257600080fd5b50565b6000813590506130748161304e565b92915050565b6000806040838503121561309157613090612e18565b5b600061309f85828601613065565b92505060206130b085828601612fb0565b9150509250929050565b6000806000606084860312156130d3576130d2612e18565b5b60006130e186828701613065565b93505060206130f286828701613065565b925050604061310386828701612fb0565b9150509250925092565b61311681612f8f565b82525050565b6000602082019050613131600083018461310d565b92915050565b60006020828403121561314d5761314c612e18565b5b600061315b84828501613065565b91505092915050565b600081519050919050565b600082825260208201905092915050565b6000819050602082019050919050565b61319981612f8f565b82525050565b60006131ab8383613190565b60208301905092915050565b6000602082019050919050565b60006131cf82613164565b6131d9818561316f565b93506131e483613180565b8060005b838110156132155781516131fc888261319f565b9750613207836131b7565b9250506001810190506131e8565b5085935050505092915050565b6000602082019050818103600083015261323c81846131c4565b905092915050565b61324d81612ea7565b811461325857600080fd5b50565b60008135905061326a81613244565b92915050565b6000806040838503121561328757613286612e18565b5b600061329585828601613065565b92505060206132a68582860161325b565b9150509250929050565b600080fd5b600080fd5b7f4e487b7100000000000000000000000000000000000000000000000000000000600052604160045260246000fd5b6132f282612f23565b810181811067ffffffffffffffff82111715613311576133106132ba565b5b80604052505050565b6000613324612e0e565b905061333082826132e9565b919050565b600067ffffffffffffffff8211156133505761334f6132ba565b5b61335982612f23565b9050602081019050919050565b82818337600083830152505050565b600061338861338384613335565b61331a565b9050828152602081018484840111156133a4576133a36132b5565b5b6133af848285613366565b509392505050565b600082601f8301126133cc576133cb6132b0565b5b81356133dc848260208601613375565b91505092915050565b600080600080608085870312156133ff576133fe612e18565b5b600061340d87828801613065565b945050602061341e87828801613065565b935050604061342f87828801612fb0565b925050606085013567ffffffffffffffff8111156134505761344f612e1d565b5b61345c878288016133b7565b91505092959194509250565b7f4e487b7100000000000000000000000000000000000000000000000000000000600052602160045260246000fd5b600681106134a8576134a7613468565b5b50565b60008190506134b982613497565b919050565b60006134c9826134ab565b9050919050565b6134d9816134be565b82525050565b60006080820190506134f460008301876134d0565b81810360208301526135068186612f34565b9050613515604083018561310d565b6135226060830184613024565b95945050505050565b6000806040838503121561354257613541612e18565b5b600061355085828601613065565b925050602061356185828601613065565b9150509250929050565b7f4e487b7100000000000000000000000000000000000000000000000000000000600052602260045260246000fd5b600060028204905060018216806135b257607f821691505b6020821081036135c5576135c461356b565b5b50919050565b60006060820190506135e06000830186613024565b6135ed602083018561310d565b6135fa6040830184613024565b949350505050565b7f496e73756666696369656e74207061796d656e7420666f72206f6d696b756a69600082015250565b6000613638602083612ee8565b915061364382613602565b602082019050919050565b600060208201905081810360008301526136678161362b565b9050919050565b7f4e487b7100000000000000000000000000000000000000000000000000000000600052601160045260246000fd5b60006136a882612f8f565b91507fffffffffffffffffffffffffffffffffffffffffffffffffffffffffffffffff82036136da576136d961366e565b5b600182019050919050565b6000819050919050565b6137006136fb82612f8f565b6136e5565b82525050565b60008160601b9050919050565b600061371e82613706565b9050919050565b600061373082613713565b9050919050565b61374861374382613012565b613725565b82525050565b600061375a82876136ef565b60208201915061376a82866136ef565b60208201915061377a8285613737565b60148201915061378a82846136ef565b60208201915081905095945050505050565b7f4e487b7100000000000000000000000000000000000000000000000000000000600052601260045260246000fd5b60006137d682612f8f565b91506137e183612f8f565b9250826137f1576137f061379c565b5b828206905092915050565b7f4e487b7100000000000000000000000000000000000000000000000000000000600052603260045260246000fd5b60008190508160005260206000209050919050565b60006020601f8301049050919050565b600082821b905092915050565b60006008830261388d7fffffffffffffffffffffffffffffffffffffffffffffffffffffffffffffffff82613850565b6138978683613850565b95508019841693508086168417925050509392505050565b6000819050919050565b60006138d46138cf6138ca84612f8f565b6138af565b612f8f565b9050919050565b6000819050919050565b6138ee836138b9565b6139026138fa826138db565b84845461385d565b825550505050565b600090565b61391761390a565b6139228184846138e5565b505050565b5b818110156139465761393b60008261390f565b600181019050613928565b5050565b601f82111561398b5761395c8161382b565b61396584613840565b81016020851015613974578190505b61398861398085613840565b830182613927565b50505b505050565b600082821c905092915050565b60006139ae60001984600802613990565b1980831691505092915050565b60006139c7838361399d565b9150826002028217905092915050565b6139e082612edd565b67ffffffffffffffff8111156139f9576139f86132ba565b5b613a03825461359a565b613a0e82828561394a565b600060209050601f831160018114613a415760008415613a2f578287015190505b613a3985826139bb565b865550613aa1565b601f198416613a4f8661382b565b60005b82811015613a7757848901518255600182019150602085019450602081019050613a52565b86831015613a945784890151613a90601f89168261399d565b8355505b6001600288020188555050505b505050505050565b6000604082019050613abe60008301856134d0565b8181036020830152613ad08184612f34565b90509392505050565b600081905092915050565b7f7b226e616d65223a20224f6d696b756a69202300000000000000000000000000600082015250565b6000613b1a601383613ad9565b9150613b2582613ae4565b601382019050919050565b6000613b3b82612edd565b613b458185613ad9565b9350613b55818560208601612ef9565b80840191505092915050565b7f222c000000000000000000000000000000000000000000000000000000000000600082015250565b6000613b97600283613ad9565b9150613ba282613b61565b600282019050919050565b7f226465736372697074696f6e223a20224120747261646974696f6e616c204a6160008201527f70616e65736520666f7274756e652066726f6d20746865206469676974616c2060208201527f736872696e65222c000000000000000000000000000000000000000000000000604082015250565b6000613c2f604883613ad9565b9150613c3a82613bad565b604882019050919050565b7f2261747472696275746573223a205b0000000000000000000000000000000000600082015250565b6000613c7b600f83613ad9565b9150613c8682613c45565b600f82019050919050565b7f7b2274726169745f74797065223a2022466f7274756e65222c202276616c756560008201527f223a202200000000000000000000000000000000000000000000000000000000602082015250565b6000613ced602483613ad9565b9150613cf882613c91565b602482019050919050565b7f227d2c0000000000000000000000000000000000000000000000000000000000600082015250565b6000613d39600383613ad9565b9150613d4482613d03565b600382019050919050565b7f7b2274726169745f74797065223a20224d657373616765222c202276616c756560008201527f223a202200000000000000000000000000000000000000000000000000000000602082015250565b6000613dab602483613ad9565b9150613db682613d4f565b602482019050919050565b7f7b2274726169745f74797065223a202254696d657374616d70222c202276616c60008201527f7565223a20000000000000000000000000000000000000000000000000000000602082015250565b6000613e1d602583613ad9565b9150613e2882613dc1565b602582019050919050565b7f7d00000000000000000000000000000000000000000000000000000000000000600082015250565b6000613e69600183613ad9565b9150613e7482613e33565b600182019050919050565b7f5d2c000000000000000000000000000000000000000000000000000000000000600082015250565b6000613eb5600283613ad9565b9150613ec082613e7f565b600282019050919050565b7f22696d616765223a2022646174613a696d6167652f7376672b786d6c3b62617360008201527f6536342c00000000000000000000000000000000000000000000000000000000602082015250565b6000613f27602483613ad9565b9150613f3282613ecb565b602482019050919050565b7f227d000000000000000000000000000000000000000000000000000000000000600082015250565b6000613f73600283613ad9565b9150613f7e82613f3d565b600282019050919050565b6000613f9482613b0d565b9150613fa08288613b30565b9150613fab82613b8a565b9150613fb682613c22565b9150613fc182613c6e565b9150613fcc82613ce0565b9150613fd88287613b30565b9150613fe382613d2c565b9150613fee82613d9e565b9150613ffa8286613b30565b915061400582613d2c565b915061401082613e10565b915061401c8285613b30565b915061402782613e5c565b915061403282613ea8565b915061403d82613f1a565b91506140498284613b30565b915061405482613f66565b91508190509695505050505050565b7f646174613a6170706c69636174696f6e2f6a736f6e3b6261736536342c000000600082015250565b6000614099601d83613ad9565b91506140a482614063565b601d82019050919050565b60006140ba8261408c565b91506140c68284613b30565b915081905092915050565b600081519050919050565b600082825260208201905092915050565b60006140f8826140d1565b61410281856140dc565b9350614112818560208601612ef9565b61411b81612f23565b840191505092915050565b600060808201905061413b6000830187613024565b6141486020830186613024565b614155604083018561310d565b818103606083015261416781846140ed565b905095945050505050565b60008151905061418181612e4e565b92915050565b60006020828403121561419d5761419c612e18565b5b60006141ab84828501614172565b91505092915050565b60006141c08285613b30565b91506141cc8284613b30565b91508190509392505050565b60006040820190506141ed6000830185613024565b6141fa602083018461310d565b9392505050565b7f3c7376672077696474683d2234303022206865696768743d223630302220786d60008201527f6c6e733d22687474703a2f2f7777772e77332e6f72672f323030302f7376672260208201527f3e00000000000000000000000000000000000000000000000000000000000000604082015250565b6000614283604183613ad9565b915061428e82614201565b604182019050919050565b7f3c726563742077696474683d2234303022206865696768743d2236303022206660008201527f696c6c3d2223663566356463222f3e0000000000000000000000000000000000602082015250565b60006142f5602f83613ad9565b915061430082614299565b602f82019050919050565b7f3c7265637420783d2232302220793d223230222077696474683d22333630222060008201527f6865696768743d22353630222066696c6c3d22776869746522207374726f6b6560208201527f3d222338623435313322207374726f6b652d77696474683d2233222f3e000000604082015250565b600061438d605d83613ad9565b91506143988261430b565b605d82019050919050565b7f3c7465787420783d223230302220793d2238302220746578742d616e63686f7260008201527f3d226d6964646c652220666f6e742d66616d696c793d2273657269662220666f60208201527f6e742d73697a653d223234222066696c6c3d2223386234353133223e00000000604082015250565b6000614425605c83613ad9565b9150614430826143a3565b605c82019050919050565b7fe3818ae381bfe3818fe381980000000000000000000000000000000000000000600082015250565b6000614471600c83613ad9565b915061447c8261443b565b600c82019050919050565b7f3c2f746578743e00000000000000000000000000000000000000000000000000600082015250565b60006144bd600783613ad9565b91506144c882614487565b600782019050919050565b7f3c7265637420783d2235302220793d22313230222077696474683d223330302260008201527f206865696768743d22313030222066696c6c3d22000000000000000000000000602082015250565b600061452f603483613ad9565b915061453a826144d3565b603482019050919050565b7f222072783d223130222f3e000000000000000000000000000000000000000000600082015250565b600061457b600b83613ad9565b915061458682614545565b600b82019050919050565b7f3c7465787420783d223230302220793d223138302220746578742d616e63686f60008201527f723d226d6964646c652220666f6e742d66616d696c793d22736572696622206660208201527f6f6e742d73697a653d223138222066696c6c3d227768697465223e0000000000604082015250565b6000614613605b83613ad9565b915061461e82614591565b605b82019050919050565b7f3c7465787420783d223230302220793d223235302220746578742d616e63686f60008201527f723d226d6964646c652220666f6e742d66616d696c793d22736572696622206660208201527f6f6e742d73697a653d223134222066696c6c3d2223333333223e000000000000604082015250565b60006146ab605a83613ad9565b91506146b682614629565b605a82019050919050565b7f3c7465787420783d223230302220793d223530302220746578742d616e63686f60008201527f723d226d6964646c652220666f6e742d66616d696c793d22736572696622206660208201527f6f6e742d73697a653d223132222066696c6c3d2223363636223e44696769746160408201527f6c20536872696e653c2f746578743e0000000000000000000000000000000000606082015250565b6000614769606f83613ad9565b9150614774826146c1565b606f82019050919050565b7f3c2f7376673e0000000000000000000000000000000000000000000000000000600082015250565b60006147b5600683613ad9565b91506147c08261477f565b600682019050919050565b60006147d682614276565b91506147e1826142e8565b91506147ec82614380565b91506147f782614418565b915061480282614464565b915061480d826144b0565b915061481882614522565b91506148248286613b30565b915061482f8261456e565b915061483a82614606565b91506148468285613b30565b9150614851826144b0565b915061485c8261469e565b91506148688284613b30565b9150614873826144b0565b915061487e8261475c565b9150614889826147a8565b9150819050949350505050565b60006148a182612f8f565b91506148ac83612f8f565b92508282019050808211156148c4576148c361366e565b5b92915050565b60006148d582612f8f565b91506148e083612f8f565b9250826148f0576148ef61379c565b5b828204905092915050565b600061490682612f8f565b915061491183612f8f565b925082820261491f81612f8f565b915082820484148315176149365761493561366e565b5b509291505056fe4142434445464748494a4b4c4d4e4f505152535455565758595a6162636465666768696a6b6c6d6e6f707172737475767778797a303132333435363738392b2fa2646970667358221220bf88dcadc1d66b86a8ab36190898cf6abb2ee5e426edbcdeeede6e549859211864736f6c634300081b0033536d616c6c207374657073206c65616420746f20677265617420616368696576656d656e7473215265666c656374696f6e206272696e6773206e6577206f70706f7274756e697469657321596f7572207769736865732077696c6c20636f6d652074727565206d61676e69666963656e746c7921",
  "linkReferences": {},
  "deployedLinkReferences": {}
}