{
  "_format": "hh-sol-artifact-1",
  "contractName": "OmikujiShrine",
  "sourceName": "contracts/OmikujiShrine.sol",
  "abi": [
    {
      "inputs": [],
      "stateMutability": "nonpayable",
      "type": "constructor"
    },
    {
      "inputs": [
        {
          "internalType": "address",
          "name": "sender",
          "type": "address"
        },
        {
          "internalType": "uint256",
          "name": "tokenId",
          "type": "uint256"
        },
        {
          "internalType": "address",
          "name": "owner",
          "type": "address"
        }
      ],
      "name": "ERC721IncorrectOwner",
      "type": "error"
    },
    {
      "inputs": [
        {
          "internalType": "address",
          "name": "operator",
          "type": "address"
        },
        {
          "internalType": "uint256",
          "name": "tokenId",
          "type": "uint256"
        }
      ],
      "name": "ERC721InsufficientApproval",
      "type": "error"
    },
    {
      "inputs": [
        {
          "internalType": "address",
          "name": "approver",
          "type": "address"
        }
      ],
      "name": "ERC721InvalidApprover",
      "type": "error"
    },
    {
      "inputs": [
        {
          "internalType": "address",
          "name": "operator",
          "type": "address"
        }
      ],
      "name": "ERC721InvalidOperator",
      "type": "error"
    },
    {
      "inputs": [
        {
          "internalType": "address",
          "name": "owner",
          "type": "address"
        }
      ],
      "name": "ERC721InvalidOwner",
      "type": "error"
    },
    {
      "inputs": [
        {
          "internalType": "address",
          "name": "receiver",
          "type": "address"
        }
      ],
      "name": "ERC721InvalidReceiver",
      "type": "error"
    },
    {
      "inputs": [
        {
          "internalType": "address",
          "name": "sender",
          "type": "address"
        }
      ],
      "name": "ERC721InvalidSender",
      "type": "error"
    },
    {
      "inputs": [
        {
          "internalType": "uint256",
          "name": "tokenId",
          "type": "uint256"
        }
      ],
      "name": "ERC721NonexistentToken",
      "type": "error"
    },
    {
      "inputs": [
        {
          "internalType": "address",
          "name": "owner",
          "type": "address"
        }
      ],
      "name": "OwnableInvalidOwner",
      "type": "error"
    },
    {
      "inputs": [
        {
          "internalType": "address",
          "name": "account",
          "type": "address"
        }
      ],
      "name": "OwnableUnauthorizedAccount",
      "type": "error"
    },
    {
      "anonymous": false,
      "inputs": [
        {
          "indexed": true,
          "internalType": "address",
          "name": "owner",
          "type": "address"
        },
        {
          "indexed": true,
          "internalType": "address",
          "name": "approved",
          "type": "address"
        },
        {
          "indexed": true,
          "internalType": "uint256",
          "name": "tokenId",
          "type": "uint256"
        }
      ],
      "name": "Approval",
      "type": "event"
    },
    {
      "anonymous": false,
      "inputs": [
        {
          "indexed": true,
          "internalType": "address",
          "name": "owner",
          "type": "address"
        },
        {
          "indexed": true,
          "internalType": "address",
          "name": "operator",
          "type": "address"
        },
        {
          "indexed": false,
          "internalType": "bool",
          "name": "approved",
          "type": "bool"
        }
      ],
      "name": "ApprovalForAll",
      "type": "event"
    },
    {
      "anonymous": false,
      "inputs": [
        {
          "indexed": false,
          "internalType": "uint256",
          "name": "_fromTokenId",
          "type": "uint256"
        },
        {
          "indexed": false,
          "internalType": "uint256",
          "name": "_toTokenId",
          "type": "uint256"
        }
      ],
      "name": "BatchMetadataUpdate",
      "type": "event"
    },
    {
      "anonymous": false,
      "inputs": [
        {
          "indexed": false,
          "internalType": "uint256",
          "name": "_tokenId",
          "type": "uint256"
        }
      ],
      "name": "MetadataUpdate",
      "type": "event"
    },
    {
      "anonymous": false,
      "inputs": [
        {
          "indexed": true,
          "internalType": "address",
          "name": "drawer",
          "type": "address"
        },
        {
          "indexed": true,
          "internalType": "uint256",
          "name": "tokenId",
          "type": "uint256"
        },
        {
          "indexed": false,
          "internalType": "enum OmikujiShrine.OmikujiResult",
          "name": "result",
          "type": "uint8"
        },
        {
          "indexed": false,
          "internalType": "string",
          "name": "message",
          "type": "string"
        }
      ],
      "name": "OmikujiDrawn",
      "type": "event"
    },
    {
      "anonymous": false,
      "inputs": [
        {
          "indexed": true,
          "internalType": "address",
          "name": "previousOwner",
          "type": "address"
        },
        {
          "indexed": true,
          "internalType": "address",
          "name": "newOwner",
          "type": "address"
        }
      ],
      "name": "OwnershipTransferred",
      "type": "event"
    },
    {
      "anonymous": false,
      "inputs": [
        {
          "indexed": true,
          "internalType": "address",
          "name": "from",
          "type": "address"
        },
        {
          "indexed": true,
          "internalType": "address",
          "name": "to",
          "type": "address"
        },
        {
          "indexed": true,
          "internalType": "uint256",
          "name": "tokenId",
          "type": "uint256"
        }
      ],
      "name": "Transfer",
      "type": "event"
    },
    {
      "inputs": [
        {
          "internalType": "address",
          "name": "to",
          "type": "address"
        },
        {
          "internalType": "uint256",
          "name": "tokenId",
          "type": "uint256"
        }
      ],
      "name": "approve",
      "outputs": [],
      "stateMutability": "nonpayable",
      "type": "function"
    },
    {
      "inputs": [
        {
          "internalType": "address",
          "name": "owner",
          "type": "address"
        }
      ],
      "name": "balanceOf",
      "outputs": [
        {
          "internalType": "uint256",
          "name": "",
          "type": "uint256"
        }
      ],
      "stateMutability": "view",
      "type": "function"
    },
    {
      "inputs": [
        {
          "internalType": "address",
          "name": "user",
          "type": "address"
        }
      ],
      "name": "canDrawOmikuji",
      "outputs": [
        {
          "internalType": "bool",
          "name": "",
          "type": "bool"
        }
      ],
      "stateMutability": "view",
      "type": "function"
    },
    {
      "inputs": [],
      "name": "developmentMode",
      "outputs": [
        {
          "internalType": "bool",
          "name": "",
          "type": "bool"
        }
      ],
      "stateMutability": "view",
      "type": "function"
    },
    {
      "inputs": [],
      "name": "drawOmikuji",
      "outputs": [
        {
          "internalType": "uint256",
          "name": "",
          "type": "uint256"
        }
      ],
      "stateMutability": "payable",
      "type": "function"
    },
    {
      "inputs": [
        {
          "internalType": "uint256",
          "name": "tokenId",
          "type": "uint256"
        }
      ],
      "name": "getApproved",
      "outputs": [
        {
          "internalType": "address",
          "name": "",
          "type": "address"
        }
      ],
      "stateMutability": "view",
      "type": "function"
    },
    {
      "inputs": [
        {
          "internalType": "address",
          "name": "user",
          "type": "address"
        }
      ],
      "name": "getTimeUntilNextDraw",
      "outputs": [
        {
          "internalType": "uint256",
          "name": "",
          "type": "uint256"
        }
      ],
      "stateMutability": "view",
      "type": "function"
    },
    {
      "inputs": [
        {
          "internalType": "address",
          "name": "user",
          "type": "address"
        }
      ],
      "name": "getUserOmikujis",
      "outputs": [
        {
          "internalType": "uint256[]",
          "name": "",
          "type": "uint256[]"
        }
      ],
      "stateMutability": "view",
      "type": "function"
    },
    {
      "inputs": [
        {
          "internalType": "address",
          "name": "owner",
          "type": "address"
        },
        {
          "internalType": "address",
          "name": "operator",
          "type": "address"
        }
      ],
      "name": "isApprovedForAll",
      "outputs": [
        {
          "internalType": "bool",
          "name": "",
          "type": "bool"
        }
      ],
      "stateMutability": "view",
      "type": "function"
    },
    {
      "inputs": [
        {
          "internalType": "address",
          "name": "",
          "type": "address"
        }
      ],
      "name": "lastDrawTime",
      "outputs": [
        {
          "internalType": "uint256",
          "name": "",
          "type": "uint256"
        }
      ],
      "stateMutability": "view",
      "type": "function"
    },
    {
      "inputs": [],
      "name": "name",
      "outputs": [
        {
          "internalType": "string",
          "name": "",
          "type": "string"
        }
      ],
      "stateMutability": "view",
      "type": "function"
    },
    {
      "inputs": [],
      "name": "omikujiPrice",
      "outputs": [
        {
          "internalType": "uint256",
          "name": "",
          "type": "uint256"
        }
      ],
      "stateMutability": "view",
      "type": "function"
    },
    {
      "inputs": [
        {
          "internalType": "uint256",
          "name": "",
          "type": "uint256"
        }
      ],
      "name": "omikujis",
      "outputs": [
        {
          "internalType": "enum OmikujiShrine.OmikujiResult",
          "name": "result",
          "type": "uint8"
        },
        {
          "internalType": "string",
          "name": "message",
          "type": "string"
        },
        {
          "internalType": "uint256",
          "name": "timestamp",
          "type": "uint256"
        },
        {
          "internalType": "address",
          "name": "drawer",
          "type": "address"
        }
      ],
      "stateMutability": "view",
      "type": "function"
    },
    {
      "inputs": [],
      "name": "owner",
      "outputs": [
        {
          "internalType": "address",
          "name": "",
          "type": "address"
        }
      ],
      "stateMutability": "view",
      "type": "function"
    },
    {
      "inputs": [
        {
          "internalType": "uint256",
          "name": "tokenId",
          "type": "uint256"
        }
      ],
      "name": "ownerOf",
      "outputs": [
        {
          "internalType": "address",
          "name": "",
          "type": "address"
        }
      ],
      "stateMutability": "view",
      "type": "function"
    },
    {
      "inputs": [],
      "name": "renounceOwnership",
      "outputs": [],
      "stateMutability": "nonpayable",
      "type": "function"
    },
    {
      "inputs": [
        {
          "internalType": "address",
          "name": "from",
          "type": "address"
        },
        {
          "internalType": "address",
          "name": "to",
          "type": "address"
        },
        {
          "internalType": "uint256",
          "name": "tokenId",
          "type": "uint256"
        }
      ],
      "name": "safeTransferFrom",
      "outputs": [],
      "stateMutability": "nonpayable",
      "type": "function"
    },
    {
      "inputs": [
        {
          "internalType": "address",
          "name": "from",
          "type": "address"
        },
        {
          "internalType": "address",
          "name": "to",
          "type": "address"
        },
        {
          "internalType": "uint256",
          "name": "tokenId",
          "type": "uint256"
        },
        {
          "internalType": "bytes",
          "name": "data",
          "type": "bytes"
        }
      ],
      "name": "safeTransferFrom",
      "outputs": [],
      "stateMutability": "nonpayable",
      "type": "function"
    },
    {
      "inputs": [
        {
          "internalType": "address",
          "name": "operator",
          "type": "address"
        },
        {
          "internalType": "bool",
          "name": "approved",
          "type": "bool"
        }
      ],
      "name": "setApprovalForAll",
      "outputs": [],
      "stateMutability": "nonpayable",
      "type": "function"
    },
    {
      "inputs": [
        {
          "internalType": "bool",
          "name": "_developmentMode",
          "type": "bool"
        }
      ],
      "name": "setDevelopmentMode",
      "outputs": [],
      "stateMutability": "nonpayable",
      "type": "function"
    },
    {
      "inputs": [
        {
          "internalType": "uint256",
          "name": "_price",
          "type": "uint256"
        }
      ],
      "name": "setOmikujiPrice",
      "outputs": [],
      "stateMutability": "nonpayable",
      "type": "function"
    },
    {
      "inputs": [
        {
          "internalType": "bytes4",
          "name": "interfaceId",
          "type": "bytes4"
        }
      ],
      "name": "supportsInterface",
      "outputs": [
        {
          "internalType": "bool",
          "name": "",
          "type": "bool"
        }
      ],
      "stateMutability": "view",
      "type": "function"
    },
    {
      "inputs": [],
      "name": "symbol",
      "outputs": [
        {
          "internalType": "string",
          "name": "",
          "type": "string"
        }
      ],
      "stateMutability": "view",
      "type": "function"
    },
    {
      "inputs": [
        {
          "internalType": "uint256",
          "name": "tokenId",
          "type": "uint256"
        }
      ],
      "name": "tokenURI",
      "outputs": [
        {
          "internalType": "string",
          "name": "",
          "type": "string"
        }
      ],
      "stateMutability": "view",
      "type": "function"
    },
    {
      "inputs": [
        {
          "internalType": "address",
          "name": "from",
          "type": "address"
        },
        {
          "internalType": "address",
          "name": "to",
          "type": "address"
        },
        {
          "internalType": "uint256",
          "name": "tokenId",
          "type": "uint256"
        }
      ],
      "name": "transferFrom",
      "outputs": [],
      "stateMutability": "nonpayable",
      "type": "function"
    },
    {
      "inputs": [
        {
          "internalType": "address",
          "name": "newOwner",
          "type": "address"
        }
      ],
      "name": "transferOwnership",
      "outputs": [],
      "stateMutability": "nonpayable",
      "type": "function"
    },
    {
      "inputs": [
        {
          "internalType": "address",
          "name": "",
          "type": "address"
        },
        {
          "internalType": "uint256",
          "name": "",
          "type": "uint256"
        }
      ],
      "name": "userOmikujis",
      "outputs": [
        {
          "internalType": "uint256",
          "name": "",
          "type": "uint256"
        }
      ],
      "stateMutability": "view",
      "type": "function"
    },
    {
      "inputs": [],
      "name": "withdraw",
      "outputs": [],
      "stateMutability": "nonpayable",
      "type": "function"
    }
  ],
  "bytecode": "0x6080604052662386f26fc100006009556040518060c001604052806040518060400160405280601981526020017f4461696b69636869202d20477265617420426c657373696e670000000000000081525081526020016040518060400160405280601481526020017f4b69636869202d20476f6f6420466f7274756e6500000000000000000000000081525081526020016040518060400160405280601a81526020017f4368756b69636869202d204d6964646c6520426c657373696e6700000000000081525081526020016040518060400160405280601981526020017f53686f6b69636869202d20536d616c6c20426c657373696e670000000000000081525081526020016040518060400160405280601b81526020017f5375652d6b69636869202d2046757475726520426c657373696e67000000000081525081526020016040518060400160405280601181526020017f4b796f202d2042616420466f7274756e65000000000000000000000000000000815250815250600e90600661018a9291906104b7565b506040518060c001604052806040518060600160405280602981526020016157536029913981526020016040518060400160405280602081526020017f476f6f64207468696e67732061726520636f6d696e6720796f7572207761792181525081526020016040518060400160405280601f81526020017f5374656164792070726f6772657373206272696e67732073756363657373210081525081526020016040518060600160405280602781526020016157086027913981526020016040518060400160405280601a81526020017f50617469656e63652077696c6c20626520726577617264656421000000000000815250815260200160405180606001604052806024815260200161572f6024913981525060149060066102af9291906104b7565b503480156102bc57600080fd5b50336040518060400160405280601281526020017f4f6d696b756a6920536872696e65204e465400000000000000000000000000008152506040518060400160405280600781526020017f4f4d494b554a4900000000000000000000000000000000000000000000000000815250816000908161033991906107d4565b50806001908161034991906107d4565b505050600073ffffffffffffffffffffffffffffffffffffffff168173ffffffffffffffffffffffffffffffffffffffff16036103be5760006040517f1e4fbdf70000000000000000000000000000000000000000000000000000000081526004016103b591906108e7565b60405180910390fd5b6103cd816103f160201b60201c565b50617a694614600a60006101000a81548160ff021916908315150217905550610902565b6000600760009054906101000a900473ffffffffffffffffffffffffffffffffffffffff16905081600760006101000a81548173ffffffffffffffffffffffffffffffffffffffff021916908373ffffffffffffffffffffffffffffffffffffffff1602179055508173ffffffffffffffffffffffffffffffffffffffff168173ffffffffffffffffffffffffffffffffffffffff167f8be0079c531659141344cd1fd0a4f28419497f9722a3daafe3b4186f6b6457e060405160405180910390a35050565b82600681019282156104f2579160200282015b828111156104f15782518290816104e191906107d4565b50916020019190600101906104ca565b5b5090506104ff9190610503565b5090565b5b80821115610523576000818161051a9190610527565b50600101610504565b5090565b508054610533906105ed565b6000825580601f106105455750610564565b601f0160209004906000526020600020908101906105639190610567565b5b50565b5b80821115610580576000816000905550600101610568565b5090565b600081519050919050565b7f4e487b7100000000000000000000000000000000000000000000000000000000600052604160045260246000fd5b7f4e487b7100000000000000000000000000000000000000000000000000000000600052602260045260246000fd5b6000600282049050600182168061060557607f821691505b602082108103610618576106176105be565b5b50919050565b60008190508160005260206000209050919050565b60006020601f8301049050919050565b600082821b905092915050565b6000600883026106807fffffffffffffffffffffffffffffffffffffffffffffffffffffffffffffffff82610643565b61068a8683610643565b95508019841693508086168417925050509392505050565b6000819050919050565b6000819050919050565b60006106d16106cc6106c7846106a2565b6106ac565b6106a2565b9050919050565b6000819050919050565b6106eb836106b6565b6106ff6106f7826106d8565b848454610650565b825550505050565b600090565b610714610707565b61071f8184846106e2565b505050565b5b818110156107435761073860008261070c565b600181019050610725565b5050565b601f821115610788576107598161061e565b61076284610633565b81016020851015610771578190505b61078561077d85610633565b830182610724565b50505b505050565b600082821c905092915050565b60006107ab6000198460080261078d565b1980831691505092915050565b60006107c4838361079a565b9150826002028217905092915050565b6107dd82610584565b67ffffffffffffffff8111156107f6576107f561058f565b5b61080082546105ed565b61080b828285610747565b600060209050601f83116001811461083e576000841561082c578287015190505b61083685826107b8565b86555061089e565b601f19841661084c8661061e565b60005b828110156108745784890151825560018201915060208501945060208101905061084f565b86831015610891578489015161088d601f89168261079a565b8355505b6001600288020188555050505b505050505050565b600073ffffffffffffffffffffffffffffffffffffffff82169050919050565b60006108d1826108a6565b9050919050565b6108e1816108c6565b82525050565b60006020820190506108fc60008301846108d8565b92915050565b614df7806109116000396000f3fe6080604052600436106101b75760003560e01c806370a08231116100ec578063b88d4fde1161008a578063c87b56dd11610064578063c87b56dd14610638578063d6fcaf4014610675578063e985e9c5146106a0578063f2fde38b146106dd576101b7565b8063b88d4fde14610592578063bce25a53146105bb578063c21d5061146105fb576101b7565b806391ab01f2116100c657806391ab01f2146104ec57806395d89b41146105155780639c59b1df14610540578063a22cb46514610569576101b7565b806370a082311461046d578063715018a6146104aa5780638da5cb5b146104c1576101b7565b806342842e0e11610159578063581f0fb011610133578063581f0fb0146103985780635982773b146103b65780635b72ed29146103f35780636352211e14610430576101b7565b806342842e0e146103075780634afa485d146103305780634ca8a9411461036d576101b7565b8063095ea7b311610195578063095ea7b31461026157806323b872dd1461028a578063392a8dd0146102b35780633ccfd60b146102f0576101b7565b806301ffc9a7146101bc57806306fdde03146101f9578063081812fc14610224575b600080fd5b3480156101c857600080fd5b506101e360048036038101906101de91906131cb565b610706565b6040516101f09190613213565b60405180910390f35b34801561020557600080fd5b5061020e610718565b60405161021b91906132be565b60405180910390f35b34801561023057600080fd5b5061024b60048036038101906102469190613316565b6107aa565b6040516102589190613384565b60405180910390f35b34801561026d57600080fd5b50610288600480360381019061028391906133cb565b6107c6565b005b34801561029657600080fd5b506102b160048036038101906102ac919061340b565b6107dc565b005b3480156102bf57600080fd5b506102da60048036038101906102d5919061345e565b6108de565b6040516102e7919061349a565b60405180910390f35b3480156102fc57600080fd5b506103056108f6565b005b34801561031357600080fd5b5061032e6004803603810190610329919061340b565b61094e565b005b34801561033c57600080fd5b50610357600480360381019061035291906133cb565b61096e565b604051610364919061349a565b60405180910390f35b34801561037957600080fd5b5061038261099f565b60405161038f919061349a565b60405180910390f35b6103a06109a5565b6040516103ad919061349a565b60405180910390f35b3480156103c257600080fd5b506103dd60048036038101906103d8919061345e565b610dc3565b6040516103ea9190613213565b60405180910390f35b3480156103ff57600080fd5b5061041a6004803603810190610415919061345e565b610e3c565b6040516104279190613573565b60405180910390f35b34801561043c57600080fd5b5061045760048036038101906104529190613316565b610ed3565b6040516104649190613384565b60405180910390f35b34801561047957600080fd5b50610494600480360381019061048f919061345e565b610ee5565b6040516104a1919061349a565b60405180910390f35b3480156104b657600080fd5b506104bf610f9f565b005b3480156104cd57600080fd5b506104d6610fb3565b6040516104e39190613384565b60405180910390f35b3480156104f857600080fd5b50610513600480360381019061050e91906135c1565b610fdd565b005b34801561052157600080fd5b5061052a611002565b60405161053791906132be565b60405180910390f35b34801561054c57600080fd5b5061056760048036038101906105629190613316565b611094565b005b34801561057557600080fd5b50610590600480360381019061058b91906135ee565b6110a6565b005b34801561059e57600080fd5b506105b960048036038101906105b49190613763565b6110bc565b005b3480156105c757600080fd5b506105e260048036038101906105dd9190613316565b6110e1565b6040516105f2949392919061385d565b60405180910390f35b34801561060757600080fd5b50610622600480360381019061061d919061345e565b6111c6565b60405161062f919061349a565b60405180910390f35b34801561064457600080fd5b5061065f600480360381019061065a9190613316565b611240565b60405161066c91906132be565b60405180910390f35b34801561068157600080fd5b5061068a611252565b6040516106979190613213565b60405180910390f35b3480156106ac57600080fd5b506106c760048036038101906106c291906138a9565b611265565b6040516106d49190613213565b60405180910390f35b3480156106e957600080fd5b5061070460048036038101906106ff919061345e565b6112f9565b005b60006107118261137f565b9050919050565b60606000805461072790613918565b80601f016020809104026020016040519081016040528092919081815260200182805461075390613918565b80156107a05780601f10610775576101008083540402835291602001916107a0565b820191906000526020600020905b81548152906001019060200180831161078357829003601f168201915b5050505050905090565b60006107b5826113e0565b506107bf82611468565b9050919050565b6107d882826107d36114a5565b6114ad565b5050565b600073ffffffffffffffffffffffffffffffffffffffff168273ffffffffffffffffffffffffffffffffffffffff160361084e5760006040517f64a0ae920000000000000000000000000000000000000000000000000000000081526004016108459190613384565b60405180910390fd5b6000610862838361085d6114a5565b6114bf565b90508373ffffffffffffffffffffffffffffffffffffffff168173ffffffffffffffffffffffffffffffffffffffff16146108d8578382826040517f64283d7b0000000000000000000000000000000000000000000000000000000081526004016108cf93929190613949565b60405180910390fd5b50505050565b600d6020528060005260406000206000915090505481565b6108fe6116d9565b610906610fb3565b73ffffffffffffffffffffffffffffffffffffffff166108fc479081150290604051600060405180830381858888f1935050505015801561094b573d6000803e3d6000fd5b50565b610969838383604051806020016040528060008152506110bc565b505050565b600c602052816000526040600020818154811061098a57600080fd5b90600052602060002001600091509150505481565b60095481565b60006009543410156109ec576040517f08c379a00000000000000000000000000000000000000000000000000000000081526004016109e3906139cc565b60405180910390fd5b6109f533610dc3565b610a34576040517f08c379a0000000000000000000000000000000000000000000000000000000008152600401610a2b90613a5e565b60405180910390fd5b42600d60003373ffffffffffffffffffffffffffffffffffffffff1673ffffffffffffffffffffffffffffffffffffffff1681526020019081526020016000208190555060086000815480929190610a8b90613aad565b9190505550600060085490506000606442443385604051602001610ab29493929190613b5e565b6040516020818303038152906040528051906020012060001c610ad59190613bdb565b905060006005821015610aeb5760009050610b3c565b6014821015610afd5760019050610b3b565b6028821015610b0f5760029050610b3a565b6041821015610b215760039050610b39565b6055821015610b335760049050610b38565b600590505b5b5b5b5b60006014826005811115610b5357610b526137e6565b5b60068110610b6457610b63613c0c565b5b018054610b7090613918565b80601f0160208091040260200160405190810160405280929190818152602001828054610b9c90613918565b8015610be95780601f10610bbe57610100808354040283529160200191610be9565b820191906000526020600020905b815481529060010190602001808311610bcc57829003601f168201915b505050505090506040518060800160405280836005811115610c0e57610c0d6137e6565b5b81526020018281526020014281526020013373ffffffffffffffffffffffffffffffffffffffff16815250600b600086815260200190815260200160002060008201518160000160006101000a81548160ff02191690836005811115610c7757610c766137e6565b5b02179055506020820151816001019081610c919190613de7565b506040820151816002015560608201518160030160006101000a81548173ffffffffffffffffffffffffffffffffffffffff021916908373ffffffffffffffffffffffffffffffffffffffff160217905550905050600c60003373ffffffffffffffffffffffffffffffffffffffff1673ffffffffffffffffffffffffffffffffffffffff168152602001908152602001600020849080600181540180825580915050600190039060005260206000200160009091909190915055610d563385611760565b610d6884610d638661177e565b611a05565b833373ffffffffffffffffffffffffffffffffffffffff167f8f59f601bb75974d2fc5a2ee8f1b7de682a1e78edb4cb7418db454c60ee4a5d18484604051610db1929190613eb9565b60405180910390a38394505050505090565b6000600a60009054906101000a900460ff1615610de35760019050610e37565b62015180600d60008473ffffffffffffffffffffffffffffffffffffffff1673ffffffffffffffffffffffffffffffffffffffff16815260200190815260200160002054610e319190613ee9565b42101590505b919050565b6060600c60008373ffffffffffffffffffffffffffffffffffffffff1673ffffffffffffffffffffffffffffffffffffffff168152602001908152602001600020805480602002602001604051908101604052809291908181526020018280548015610ec757602002820191906000526020600020905b815481526020019060010190808311610eb3575b50505050509050919050565b6000610ede826113e0565b9050919050565b60008073ffffffffffffffffffffffffffffffffffffffff168273ffffffffffffffffffffffffffffffffffffffff1603610f585760006040517f89c62b64000000000000000000000000000000000000000000000000000000008152600401610f4f9190613384565b60405180910390fd5b600360008373ffffffffffffffffffffffffffffffffffffffff1673ffffffffffffffffffffffffffffffffffffffff168152602001908152602001600020549050919050565b610fa76116d9565b610fb16000611a61565b565b6000600760009054906101000a900473ffffffffffffffffffffffffffffffffffffffff16905090565b610fe56116d9565b80600a60006101000a81548160ff02191690831515021790555050565b60606001805461101190613918565b80601f016020809104026020016040519081016040528092919081815260200182805461103d90613918565b801561108a5780601f1061105f5761010080835404028352916020019161108a565b820191906000526020600020905b81548152906001019060200180831161106d57829003601f168201915b5050505050905090565b61109c6116d9565b8060098190555050565b6110b86110b16114a5565b8383611b27565b5050565b6110c78484846107dc565b6110db6110d26114a5565b85858585611c96565b50505050565b600b6020528060005260406000206000915090508060000160009054906101000a900460ff169080600101805461111790613918565b80601f016020809104026020016040519081016040528092919081815260200182805461114390613918565b80156111905780601f1061116557610100808354040283529160200191611190565b820191906000526020600020905b81548152906001019060200180831161117357829003601f168201915b5050505050908060020154908060030160009054906101000a900473ffffffffffffffffffffffffffffffffffffffff16905084565b60006111d182610dc3565b156111df576000905061123b565b4262015180600d60008573ffffffffffffffffffffffffffffffffffffffff1673ffffffffffffffffffffffffffffffffffffffff1681526020019081526020016000205461122e9190613ee9565b6112389190613f1d565b90505b919050565b606061124b82611e47565b9050919050565b600a60009054906101000a900460ff1681565b6000600560008473ffffffffffffffffffffffffffffffffffffffff1673ffffffffffffffffffffffffffffffffffffffff16815260200190815260200160002060008373ffffffffffffffffffffffffffffffffffffffff1673ffffffffffffffffffffffffffffffffffffffff16815260200190815260200160002060009054906101000a900460ff16905092915050565b6113016116d9565b600073ffffffffffffffffffffffffffffffffffffffff168173ffffffffffffffffffffffffffffffffffffffff16036113735760006040517f1e4fbdf700000000000000000000000000000000000000000000000000000000815260040161136a9190613384565b60405180910390fd5b61137c81611a61565b50565b6000634906490660e01b7bffffffffffffffffffffffffffffffffffffffffffffffffffffffff1916827bffffffffffffffffffffffffffffffffffffffffffffffffffffffff191614806113d957506113d882611f5a565b5b9050919050565b6000806113ec8361203c565b9050600073ffffffffffffffffffffffffffffffffffffffff168173ffffffffffffffffffffffffffffffffffffffff160361145f57826040517f7e273289000000000000000000000000000000000000000000000000000000008152600401611456919061349a565b60405180910390fd5b80915050919050565b60006004600083815260200190815260200160002060009054906101000a900473ffffffffffffffffffffffffffffffffffffffff169050919050565b600033905090565b6114ba8383836001612079565b505050565b6000806114cb8461203c565b9050600073ffffffffffffffffffffffffffffffffffffffff168373ffffffffffffffffffffffffffffffffffffffff161461150d5761150c81848661223e565b5b600073ffffffffffffffffffffffffffffffffffffffff168173ffffffffffffffffffffffffffffffffffffffff161461159e5761154f600085600080612079565b6001600360008373ffffffffffffffffffffffffffffffffffffffff1673ffffffffffffffffffffffffffffffffffffffff168152602001908152602001600020600082825403925050819055505b600073ffffffffffffffffffffffffffffffffffffffff168573ffffffffffffffffffffffffffffffffffffffff1614611621576001600360008773ffffffffffffffffffffffffffffffffffffffff1673ffffffffffffffffffffffffffffffffffffffff168152602001908152602001600020600082825401925050819055505b846002600086815260200190815260200160002060006101000a81548173ffffffffffffffffffffffffffffffffffffffff021916908373ffffffffffffffffffffffffffffffffffffffff160217905550838573ffffffffffffffffffffffffffffffffffffffff168273ffffffffffffffffffffffffffffffffffffffff167fddf252ad1be2c89b69c2b068fc378daa952ba7f163c4a11628f55a4df523b3ef60405160405180910390a4809150509392505050565b6116e16114a5565b73ffffffffffffffffffffffffffffffffffffffff166116ff610fb3565b73ffffffffffffffffffffffffffffffffffffffff161461175e576117226114a5565b6040517f118cdaa70000000000000000000000000000000000000000000000000000000081526004016117559190613384565b60405180910390fd5b565b61177a828260405180602001604052806000815250612302565b5050565b60606000600b60008481526020019081526020016000206040518060800160405290816000820160009054906101000a900460ff1660058111156117c5576117c46137e6565b5b60058111156117d7576117d66137e6565b5b81526020016001820180546117eb90613918565b80601f016020809104026020016040519081016040528092919081815260200182805461181790613918565b80156118645780601f1061183957610100808354040283529160200191611864565b820191906000526020600020905b81548152906001019060200180831161184757829003601f168201915b50505050508152602001600282015481526020016003820160009054906101000a900473ffffffffffffffffffffffffffffffffffffffff1673ffffffffffffffffffffffffffffffffffffffff1673ffffffffffffffffffffffffffffffffffffffff168152505090506000600e826000015160058111156118ea576118e96137e6565b5b600681106118fb576118fa613c0c565b5b01805461190790613918565b80601f016020809104026020016040519081016040528092919081815260200182805461193390613918565b80156119805780601f1061195557610100808354040283529160200191611980565b820191906000526020600020905b81548152906001019060200180831161196357829003601f168201915b50505050509050600061199285612326565b8284602001516119a58660400151612326565b6119ae876123f4565b6040516020016119c2959493929190614401565b60405160208183030381529060405290506119dc816124fe565b6040516020016119ec9190614527565b6040516020818303038152906040529350505050919050565b80600660008481526020019081526020016000209081611a259190613de7565b507ff8e1a15aba9398e019f0b49df1a4fde98ee17ae345cb5f6b5e2c27f5033e8ce782604051611a55919061349a565b60405180910390a15050565b6000600760009054906101000a900473ffffffffffffffffffffffffffffffffffffffff16905081600760006101000a81548173ffffffffffffffffffffffffffffffffffffffff021916908373ffffffffffffffffffffffffffffffffffffffff1602179055508173ffffffffffffffffffffffffffffffffffffffff168173ffffffffffffffffffffffffffffffffffffffff167f8be0079c531659141344cd1fd0a4f28419497f9722a3daafe3b4186f6b6457e060405160405180910390a35050565b600073ffffffffffffffffffffffffffffffffffffffff168273ffffffffffffffffffffffffffffffffffffffff1603611b9857816040517f5b08ba18000000000000000000000000000000000000000000000000000000008152600401611b8f9190613384565b60405180910390fd5b80600560008573ffffffffffffffffffffffffffffffffffffffff1673ffffffffffffffffffffffffffffffffffffffff16815260200190815260200160002060008473ffffffffffffffffffffffffffffffffffffffff1673ffffffffffffffffffffffffffffffffffffffff16815260200190815260200160002060006101000a81548160ff0219169083151502179055508173ffffffffffffffffffffffffffffffffffffffff168373ffffffffffffffffffffffffffffffffffffffff167f17307eab39ab6107e8899845ad3d59bd9653f200f220920489ca2b5937696c3183604051611c899190613213565b60405180910390a3505050565b60008373ffffffffffffffffffffffffffffffffffffffff163b1115611e40578273ffffffffffffffffffffffffffffffffffffffff1663150b7a02868685856040518563ffffffff1660e01b8152600401611cf5949392919061459e565b6020604051808303816000875af1925050508015611d3157506040513d601f19601f82011682018060405250810190611d2e91906145ff565b60015b611db5573d8060008114611d61576040519150601f19603f3d011682016040523d82523d6000602084013e611d66565b606091505b506000815103611dad57836040517f64a0ae92000000000000000000000000000000000000000000000000000000008152600401611da49190613384565b60405180910390fd5b805160208201fd5b63150b7a0260e01b7bffffffffffffffffffffffffffffffffffffffffffffffffffffffff1916817bffffffffffffffffffffffffffffffffffffffffffffffffffffffff191614611e3e57836040517f64a0ae92000000000000000000000000000000000000000000000000000000008152600401611e359190613384565b60405180910390fd5b505b5050505050565b6060611e52826113e0565b506000600660008481526020019081526020016000208054611e7390613918565b80601f0160208091040260200160405190810160405280929190818152602001828054611e9f90613918565b8015611eec5780601f10611ec157610100808354040283529160200191611eec565b820191906000526020600020905b815481529060010190602001808311611ecf57829003601f168201915b505050505090506000611efd612b1b565b90506000815103611f12578192505050611f55565b600082511115611f47578082604051602001611f2f92919061462c565b60405160208183030381529060405292505050611f55565b611f5084612b32565b925050505b919050565b60007f80ac58cd000000000000000000000000000000000000000000000000000000007bffffffffffffffffffffffffffffffffffffffffffffffffffffffff1916827bffffffffffffffffffffffffffffffffffffffffffffffffffffffff1916148061202557507f5b5e139f000000000000000000000000000000000000000000000000000000007bffffffffffffffffffffffffffffffffffffffffffffffffffffffff1916827bffffffffffffffffffffffffffffffffffffffffffffffffffffffff1916145b80612035575061203482612b9b565b5b9050919050565b60006002600083815260200190815260200160002060009054906101000a900473ffffffffffffffffffffffffffffffffffffffff169050919050565b80806120b25750600073ffffffffffffffffffffffffffffffffffffffff168273ffffffffffffffffffffffffffffffffffffffff1614155b156121e65760006120c2846113e0565b9050600073ffffffffffffffffffffffffffffffffffffffff168373ffffffffffffffffffffffffffffffffffffffff161415801561212d57508273ffffffffffffffffffffffffffffffffffffffff168173ffffffffffffffffffffffffffffffffffffffff1614155b8015612140575061213e8184611265565b155b1561218257826040517fa9fbf51f0000000000000000000000000000000000000000000000000000000081526004016121799190613384565b60405180910390fd5b81156121e457838573ffffffffffffffffffffffffffffffffffffffff168273ffffffffffffffffffffffffffffffffffffffff167f8c5be1e5ebec7d5bd14f71427d1e84f3dd0314c0f7b2291e5b200ac8c7c3b92560405160405180910390a45b505b836004600085815260200190815260200160002060006101000a81548173ffffffffffffffffffffffffffffffffffffffff021916908373ffffffffffffffffffffffffffffffffffffffff16021790555050505050565b612249838383612c05565b6122fd57600073ffffffffffffffffffffffffffffffffffffffff168373ffffffffffffffffffffffffffffffffffffffff16036122be57806040517f7e2732890000000000000000000000000000000000000000000000000000000081526004016122b5919061349a565b60405180910390fd5b81816040517f177e802f0000000000000000000000000000000000000000000000000000000081526004016122f4929190614650565b60405180910390fd5b505050565b61230c8383612cc6565b6123216123176114a5565b6000858585611c96565b505050565b60606000600161233584612dbf565b01905060008167ffffffffffffffff81111561235457612353613638565b5b6040519080825280601f01601f1916602001820160405280156123865781602001600182028036833780820191505090505b509050600082602083010190505b6001156123e9578080600190039150507f3031323334353637383961626364656600000000000000000000000000000000600a86061a8153600a85816123dd576123dc613bac565b5b04945060008503612394575b819350505050919050565b60606000600e83600001516005811115612411576124106137e6565b5b6006811061242257612421613c0c565b5b01805461242e90613918565b80601f016020809104026020016040519081016040528092919081815260200182805461245a90613918565b80156124a75780601f1061247c576101008083540402835291602001916124a7565b820191906000526020600020905b81548152906001019060200180831161248a57829003601f168201915b5050505050905060006124bd8460000151612f12565b90506000818386602001516040516020016124da93929190614c43565b60405160208183030381529060405290506124f4816124fe565b9350505050919050565b60606000604051806060016040528060408152602001614d82604091399050600083510361253e5760405180602001604052806000815250915050612b16565b60006003600285516125509190613ee9565b61255a9190614d0e565b60046125669190614d3f565b67ffffffffffffffff81111561257f5761257e613638565b5b6040519080825280601f01601f1916602001820160405280156125b15781602001600182028036833780820191505090505b50905060008190506000805b86516003836125cc9190613ee9565b116128675760008783815181106125e6576125e5613c0c565b5b602001015160f81c60f81b60f81c60ff1690506000886001856126099190613ee9565b8151811061261a57612619613c0c565b5b602001015160f81c60f81b60f81c60ff16905060008960028661263d9190613ee9565b8151811061264e5761264d613c0c565b5b602001015160f81c60f81b60f81c60ff169050600081600884901b601086901b1717905088601282901c8151811061268957612688613c0c565b5b602001015160f81c60f81b60f81c60f81b8786806126a690613aad565b9750815181106126b9576126b8613c0c565b5b60200101907effffffffffffffffffffffffffffffffffffffffffffffffffffffffffffff1916908160001a90535088603f600c83901c168151811061270257612701613c0c565b5b602001015160f81c60f81b60f81c60f81b87868061271f90613aad565b97508151811061273257612731613c0c565b5b60200101907effffffffffffffffffffffffffffffffffffffffffffffffffffffffffffff1916908160001a90535088603f600683901c168151811061277b5761277a613c0c565b5b602001015160f81c60f81b60f81c60f81b87868061279890613aad565b9750815181106127ab576127aa613c0c565b5b60200101907effffffffffffffffffffffffffffffffffffffffffffffffffffffffffffff1916908160001a90535088603f8216815181106127f0576127ef613c0c565b5b602001015160f81c60f81b60f81c60f81b87868061280d90613aad565b9750815181106128205761281f613c0c565b5b60200101907effffffffffffffffffffffffffffffffffffffffffffffffffffffffffffff1916908160001a905350505050506003826128609190613ee9565b91506125bd565b8651821015612b0d57600087838151811061288557612884613c0c565b5b602001015160f81c60f81b60f81c60ff169050600088516001856128a99190613ee9565b106128b55760006128e6565b886001856128c39190613ee9565b815181106128d4576128d3613c0c565b5b602001015160f81c60f81b60f81c60ff165b90506000600882901b601084901b17905087601282901c8151811061290e5761290d613c0c565b5b602001015160f81c60f81b60f81c60f81b86858061292b90613aad565b96508151811061293e5761293d613c0c565b5b60200101907effffffffffffffffffffffffffffffffffffffffffffffffffffffffffffff1916908160001a90535087603f600c83901c168151811061298757612986613c0c565b5b602001015160f81c60f81b60f81c60f81b8685806129a490613aad565b9650815181106129b7576129b6613c0c565b5b60200101907effffffffffffffffffffffffffffffffffffffffffffffffffffffffffffff1916908160001a90535089516001866129f59190613ee9565b10612a20577f3d00000000000000000000000000000000000000000000000000000000000000612a4c565b87603f600683901c1681518110612a3a57612a39613c0c565b5b602001015160f81c60f81b60f81c60f81b5b868580612a5890613aad565b965081518110612a6b57612a6a613c0c565b5b60200101907effffffffffffffffffffffffffffffffffffffffffffffffffffffffffffff1916908160001a9053507f3d00000000000000000000000000000000000000000000000000000000000000868580612ac790613aad565b965081518110612ada57612ad9613c0c565b5b60200101907effffffffffffffffffffffffffffffffffffffffffffffffffffffffffffff1916908160001a9053505050505b83955050505050505b919050565b606060405180602001604052806000815250905090565b6060612b3d826113e0565b506000612b48612b1b565b90506000815111612b685760405180602001604052806000815250612b93565b80612b7284612326565b604051602001612b8392919061462c565b6040516020818303038152906040525b915050919050565b60007f01ffc9a7000000000000000000000000000000000000000000000000000000007bffffffffffffffffffffffffffffffffffffffffffffffffffffffff1916827bffffffffffffffffffffffffffffffffffffffffffffffffffffffff1916149050919050565b60008073ffffffffffffffffffffffffffffffffffffffff168373ffffffffffffffffffffffffffffffffffffffff1614158015612cbd57508273ffffffffffffffffffffffffffffffffffffffff168473ffffffffffffffffffffffffffffffffffffffff161480612c7e5750612c7d8484611265565b5b80612cbc57508273ffffffffffffffffffffffffffffffffffffffff16612ca483611468565b73ffffffffffffffffffffffffffffffffffffffff16145b5b90509392505050565b600073ffffffffffffffffffffffffffffffffffffffff168273ffffffffffffffffffffffffffffffffffffffff1603612d385760006040517f64a0ae92000000000000000000000000000000000000000000000000000000008152600401612d2f9190613384565b60405180910390fd5b6000612d46838360006114bf565b9050600073ffffffffffffffffffffffffffffffffffffffff168173ffffffffffffffffffffffffffffffffffffffff1614612dba5760006040517f73c6ac6e000000000000000000000000000000000000000000000000000000008152600401612db19190613384565b60405180910390fd5b505050565b600080600090507a184f03e93ff9f4daa797ed6e38ed64bf6a1f0100000000000000008310612e1d577a184f03e93ff9f4daa797ed6e38ed64bf6a1f0100000000000000008381612e1357612e12613bac565b5b0492506040810190505b6d04ee2d6d415b85acef81000000008310612e5a576d04ee2d6d415b85acef81000000008381612e5057612e4f613bac565b5b0492506020810190505b662386f26fc100008310612e8957662386f26fc100008381612e7f57612e7e613bac565b5b0492506010810190505b6305f5e1008310612eb2576305f5e1008381612ea857612ea7613bac565b5b0492506008810190505b6127108310612ed7576127108381612ecd57612ecc613bac565b5b0492506004810190505b60648310612efa5760648381612ef057612eef613bac565b5b0492506002810190505b600a8310612f09576001810190505b80915050919050565b606060006005811115612f2857612f276137e6565b5b826005811115612f3b57612f3a6137e6565b5b03612f7d576040518060400160405280600781526020017f2366663662366200000000000000000000000000000000000000000000000000815250905061315a565b60016005811115612f9157612f906137e6565b5b826005811115612fa457612fa36137e6565b5b03612fe6576040518060400160405280600781526020017f2334656364633400000000000000000000000000000000000000000000000000815250905061315a565b60026005811115612ffa57612ff96137e6565b5b82600581111561300d5761300c6137e6565b5b0361304f576040518060400160405280600781526020017f2334356237643100000000000000000000000000000000000000000000000000815250905061315a565b60036005811115613063576130626137e6565b5b826005811115613076576130756137e6565b5b036130b8576040518060400160405280600781526020017f2339366365623400000000000000000000000000000000000000000000000000815250905061315a565b600460058111156130cc576130cb6137e6565b5b8260058111156130df576130de6137e6565b5b03613121576040518060400160405280600781526020017f2366656361353700000000000000000000000000000000000000000000000000815250905061315a565b6040518060400160405280600781526020017f236135356565610000000000000000000000000000000000000000000000000081525090505b919050565b6000604051905090565b600080fd5b600080fd5b60007fffffffff0000000000000000000000000000000000000000000000000000000082169050919050565b6131a881613173565b81146131b357600080fd5b50565b6000813590506131c58161319f565b92915050565b6000602082840312156131e1576131e0613169565b5b60006131ef848285016131b6565b91505092915050565b60008115159050919050565b61320d816131f8565b82525050565b60006020820190506132286000830184613204565b92915050565b600081519050919050565b600082825260208201905092915050565b60005b8381101561326857808201518184015260208101905061324d565b60008484015250505050565b6000601f19601f8301169050919050565b60006132908261322e565b61329a8185613239565b93506132aa81856020860161324a565b6132b381613274565b840191505092915050565b600060208201905081810360008301526132d88184613285565b905092915050565b6000819050919050565b6132f3816132e0565b81146132fe57600080fd5b50565b600081359050613310816132ea565b92915050565b60006020828403121561332c5761332b613169565b5b600061333a84828501613301565b91505092915050565b600073ffffffffffffffffffffffffffffffffffffffff82169050919050565b600061336e82613343565b9050919050565b61337e81613363565b82525050565b60006020820190506133996000830184613375565b92915050565b6133a881613363565b81146133b357600080fd5b50565b6000813590506133c58161339f565b92915050565b600080604083850312156133e2576133e1613169565b5b60006133f0858286016133b6565b925050602061340185828601613301565b9150509250929050565b60008060006060848603121561342457613423613169565b5b6000613432868287016133b6565b9350506020613443868287016133b6565b925050604061345486828701613301565b9150509250925092565b60006020828403121561347457613473613169565b5b6000613482848285016133b6565b91505092915050565b613494816132e0565b82525050565b60006020820190506134af600083018461348b565b92915050565b600081519050919050565b600082825260208201905092915050565b6000819050602082019050919050565b6134ea816132e0565b82525050565b60006134fc83836134e1565b60208301905092915050565b6000602082019050919050565b6000613520826134b5565b61352a81856134c0565b9350613535836134d1565b8060005b8381101561356657815161354d88826134f0565b975061355883613508565b925050600181019050613539565b5085935050505092915050565b6000602082019050818103600083015261358d8184613515565b905092915050565b61359e816131f8565b81146135a957600080fd5b50565b6000813590506135bb81613595565b92915050565b6000602082840312156135d7576135d6613169565b5b60006135e5848285016135ac565b91505092915050565b6000806040838503121561360557613604613169565b5b6000613613858286016133b6565b9250506020613624858286016135ac565b9150509250929050565b600080fd5b600080fd5b7f4e487b7100000000000000000000000000000000000000000000000000000000600052604160045260246000fd5b61367082613274565b810181811067ffffffffffffffff8211171561368f5761368e613638565b5b80604052505050565b60006136a261315f565b90506136ae8282613667565b919050565b600067ffffffffffffffff8211156136ce576136cd613638565b5b6136d782613274565b9050602081019050919050565b82818337600083830152505050565b6000613706613701846136b3565b613698565b90508281526020810184848401111561372257613721613633565b5b61372d8482856136e4565b509392505050565b600082601f83011261374a5761374961362e565b5b813561375a8482602086016136f3565b91505092915050565b6000806000806080858703121561377d5761377c613169565b5b600061378b878288016133b6565b945050602061379c878288016133b6565b93505060406137ad87828801613301565b925050606085013567ffffffffffffffff8111156137ce576137cd61316e565b5b6137da87828801613735565b91505092959194509250565b7f4e487b7100000000000000000000000000000000000000000000000000000000600052602160045260246000fd5b60068110613826576138256137e6565b5b50565b600081905061383782613815565b919050565b600061384782613829565b9050919050565b6138578161383c565b82525050565b6000608082019050613872600083018761384e565b81810360208301526138848186613285565b9050613893604083018561348b565b6138a06060830184613375565b95945050505050565b600080604083850312156138c0576138bf613169565b5b60006138ce858286016133b6565b92505060206138df858286016133b6565b9150509250929050565b7f4e487b7100000000000000000000000000000000000000000000000000000000600052602260045260246000fd5b6000600282049050600182168061393057607f821691505b602082108103613943576139426138e9565b5b50919050565b600060608201905061395e6000830186613375565b61396b602083018561348b565b6139786040830184613375565b949350505050565b7f496e73756666696369656e74207061796d656e7420666f72206f6d696b756a69600082015250565b60006139b6602083613239565b91506139c182613980565b602082019050919050565b600060208201905081810360008301526139e5816139a9565b9050919050565b7f4d757374207761697420323420686f757273206265666f72652064726177696e60008201527f6720616761696e00000000000000000000000000000000000000000000000000602082015250565b6000613a48602783613239565b9150613a53826139ec565b604082019050919050565b60006020820190508181036000830152613a7781613a3b565b9050919050565b7f4e487b7100000000000000000000000000000000000000000000000000000000600052601160045260246000fd5b6000613ab8826132e0565b91507fffffffffffffffffffffffffffffffffffffffffffffffffffffffffffffffff8203613aea57613ae9613a7e565b5b600182019050919050565b6000819050919050565b613b10613b0b826132e0565b613af5565b82525050565b60008160601b9050919050565b6000613b2e82613b16565b9050919050565b6000613b4082613b23565b9050919050565b613b58613b5382613363565b613b35565b82525050565b6000613b6a8287613aff565b602082019150613b7a8286613aff565b602082019150613b8a8285613b47565b601482019150613b9a8284613aff565b60208201915081905095945050505050565b7f4e487b7100000000000000000000000000000000000000000000000000000000600052601260045260246000fd5b6000613be6826132e0565b9150613bf1836132e0565b925082613c0157613c00613bac565b5b828206905092915050565b7f4e487b7100000000000000000000000000000000000000000000000000000000600052603260045260246000fd5b60008190508160005260206000209050919050565b60006020601f8301049050919050565b600082821b905092915050565b600060088302613c9d7fffffffffffffffffffffffffffffffffffffffffffffffffffffffffffffffff82613c60565b613ca78683613c60565b95508019841693508086168417925050509392505050565b6000819050919050565b6000613ce4613cdf613cda846132e0565b613cbf565b6132e0565b9050919050565b6000819050919050565b613cfe83613cc9565b613d12613d0a82613ceb565b848454613c6d565b825550505050565b600090565b613d27613d1a565b613d32818484613cf5565b505050565b5b81811015613d5657613d4b600082613d1f565b600181019050613d38565b5050565b601f821115613d9b57613d6c81613c3b565b613d7584613c50565b81016020851015613d84578190505b613d98613d9085613c50565b830182613d37565b50505b505050565b600082821c905092915050565b6000613dbe60001984600802613da0565b1980831691505092915050565b6000613dd78383613dad565b9150826002028217905092915050565b613df08261322e565b67ffffffffffffffff811115613e0957613e08613638565b5b613e138254613918565b613e1e828285613d5a565b600060209050601f831160018114613e515760008415613e3f578287015190505b613e498582613dcb565b865550613eb1565b601f198416613e5f86613c3b565b60005b82811015613e8757848901518255600182019150602085019450602081019050613e62565b86831015613ea45784890151613ea0601f891682613dad565b8355505b6001600288020188555050505b505050505050565b6000604082019050613ece600083018561384e565b8181036020830152613ee08184613285565b90509392505050565b6000613ef4826132e0565b9150613eff836132e0565b9250828201905080821115613f1757613f16613a7e565b5b92915050565b6000613f28826132e0565b9150613f33836132e0565b9250828203905081811115613f4b57613f4a613a7e565b5b92915050565b600081905092915050565b7f7b226e616d65223a20224f6d696b756a69202300000000000000000000000000600082015250565b6000613f92601383613f51565b9150613f9d82613f5c565b601382019050919050565b6000613fb38261322e565b613fbd8185613f51565b9350613fcd81856020860161324a565b80840191505092915050565b7f222c000000000000000000000000000000000000000000000000000000000000600082015250565b600061400f600283613f51565b915061401a82613fd9565b600282019050919050565b7f226465736372697074696f6e223a20224120747261646974696f6e616c204a6160008201527f70616e65736520666f7274756e652066726f6d20746865206469676974616c2060208201527f736872696e65222c000000000000000000000000000000000000000000000000604082015250565b60006140a7604883613f51565b91506140b282614025565b604882019050919050565b7f2261747472696275746573223a205b0000000000000000000000000000000000600082015250565b60006140f3600f83613f51565b91506140fe826140bd565b600f82019050919050565b7f7b2274726169745f74797065223a2022466f7274756e65222c202276616c756560008201527f223a202200000000000000000000000000000000000000000000000000000000602082015250565b6000614165602483613f51565b915061417082614109565b602482019050919050565b7f227d2c0000000000000000000000000000000000000000000000000000000000600082015250565b60006141b1600383613f51565b91506141bc8261417b565b600382019050919050565b7f7b2274726169745f74797065223a20224d657373616765222c202276616c756560008201527f223a202200000000000000000000000000000000000000000000000000000000602082015250565b6000614223602483613f51565b915061422e826141c7565b602482019050919050565b7f7b2274726169745f74797065223a202254696d657374616d70222c202276616c60008201527f7565223a20000000000000000000000000000000000000000000000000000000602082015250565b6000614295602583613f51565b91506142a082614239565b602582019050919050565b7f7d00000000000000000000000000000000000000000000000000000000000000600082015250565b60006142e1600183613f51565b91506142ec826142ab565b600182019050919050565b7f5d2c000000000000000000000000000000000000000000000000000000000000600082015250565b600061432d600283613f51565b9150614338826142f7565b600282019050919050565b7f22696d616765223a2022646174613a696d6167652f7376672b786d6c3b62617360008201527f6536342c00000000000000000000000000000000000000000000000000000000602082015250565b600061439f602483613f51565b91506143aa82614343565b602482019050919050565b7f227d000000000000000000000000000000000000000000000000000000000000600082015250565b60006143eb600283613f51565b91506143f6826143b5565b600282019050919050565b600061440c82613f85565b91506144188288613fa8565b915061442382614002565b915061442e8261409a565b9150614439826140e6565b915061444482614158565b91506144508287613fa8565b915061445b826141a4565b915061446682614216565b91506144728286613fa8565b915061447d826141a4565b915061448882614288565b91506144948285613fa8565b915061449f826142d4565b91506144aa82614320565b91506144b582614392565b91506144c18284613fa8565b91506144cc826143de565b91508190509695505050505050565b7f646174613a6170706c69636174696f6e2f6a736f6e3b6261736536342c000000600082015250565b6000614511601d83613f51565b915061451c826144db565b601d82019050919050565b600061453282614504565b915061453e8284613fa8565b915081905092915050565b600081519050919050565b600082825260208201905092915050565b600061457082614549565b61457a8185614554565b935061458a81856020860161324a565b61459381613274565b840191505092915050565b60006080820190506145b36000830187613375565b6145c06020830186613375565b6145cd604083018561348b565b81810360608301526145df8184614565565b905095945050505050565b6000815190506145f98161319f565b92915050565b60006020828403121561461557614614613169565b5b6000614623848285016145ea565b91505092915050565b60006146388285613fa8565b91506146448284613fa8565b91508190509392505050565b60006040820190506146656000830185613375565b614672602083018461348b565b9392505050565b7f3c7376672077696474683d2234303022206865696768743d223630302220786d60008201527f6c6e733d22687474703a2f2f7777772e77332e6f72672f323030302f7376672260208201527f3e00000000000000000000000000000000000000000000000000000000000000604082015250565b60006146fb604183613f51565b915061470682614679565b604182019050919050565b7f3c726563742077696474683d2234303022206865696768743d2236303022206660008201527f696c6c3d2223663566356463222f3e0000000000000000000000000000000000602082015250565b600061476d602f83613f51565b915061477882614711565b602f82019050919050565b7f3c7265637420783d2232302220793d223230222077696474683d22333630222060008201527f6865696768743d22353630222066696c6c3d22776869746522207374726f6b6560208201527f3d222338623435313322207374726f6b652d77696474683d2233222f3e000000604082015250565b6000614805605d83613f51565b915061481082614783565b605d82019050919050565b7f3c7465787420783d223230302220793d2238302220746578742d616e63686f7260008201527f3d226d6964646c652220666f6e742d66616d696c793d2273657269662220666f60208201527f6e742d73697a653d223234222066696c6c3d2223386234353133223e00000000604082015250565b600061489d605c83613f51565b91506148a88261481b565b605c82019050919050565b7fe3818ae381bfe3818fe381980000000000000000000000000000000000000000600082015250565b60006148e9600c83613f51565b91506148f4826148b3565b600c82019050919050565b7f3c2f746578743e00000000000000000000000000000000000000000000000000600082015250565b6000614935600783613f51565b9150614940826148ff565b600782019050919050565b7f3c7265637420783d2235302220793d22313230222077696474683d223330302260008201527f206865696768743d22313030222066696c6c3d22000000000000000000000000602082015250565b60006149a7603483613f51565b91506149b28261494b565b603482019050919050565b7f222072783d223130222f3e000000000000000000000000000000000000000000600082015250565b60006149f3600b83613f51565b91506149fe826149bd565b600b82019050919050565b7f3c7465787420783d223230302220793d223138302220746578742d616e63686f60008201527f723d226d6964646c652220666f6e742d66616d696c793d22736572696622206660208201527f6f6e742d73697a653d223138222066696c6c3d227768697465223e0000000000604082015250565b6000614a8b605b83613f51565b9150614a9682614a09565b605b82019050919050565b7f3c7465787420783d223230302220793d223235302220746578742d616e63686f60008201527f723d226d6964646c652220666f6e742d66616d696c793d22736572696622206660208201527f6f6e742d73697a653d223134222066696c6c3d2223333333223e000000000000604082015250565b6000614b23605a83613f51565b9150614b2e82614aa1565b605a82019050919050565b7f3c7465787420783d223230302220793d223530302220746578742d616e63686f60008201527f723d226d6964646c652220666f6e742d66616d696c793d22736572696622206660208201527f6f6e742d73697a653d223132222066696c6c3d2223363636223e44696769746160408201527f6c20536872696e653c2f746578743e0000000000000000000000000000000000606082015250565b6000614be1606f83613f51565b9150614bec82614b39565b606f82019050919050565b7f3c2f7376673e0000000000000000000000000000000000000000000000000000600082015250565b6000614c2d600683613f51565b9150614c3882614bf7565b600682019050919050565b6000614c4e826146ee565b9150614c5982614760565b9150614c64826147f8565b9150614c6f82614890565b9150614c7a826148dc565b9150614c8582614928565b9150614c908261499a565b9150614c9c8286613fa8565b9150614ca7826149e6565b9150614cb282614a7e565b9150614cbe8285613fa8565b9150614cc982614928565b9150614cd482614b16565b9150614ce08284613fa8565b9150614ceb82614928565b9150614cf682614bd4565b9150614d0182614c20565b9150819050949350505050565b6000614d19826132e0565b9150614d24836132e0565b925082614d3457614d33613bac565b5b828204905092915050565b6000614d4a826132e0565b9150614d55836132e0565b9250828202614d63816132e0565b91508282048414831517614d7a57614d79613a7e565b5b509291505056fe4142434445464748494a4b4c4d4e4f505152535455565758595a6162636465666768696a6b6c6d6e6f707172737475767778797a303132333435363738392b2fa2646970667358221220530992dfdd50ba1c2656f71dab0dee4bae13faeb7212594540a3d4d6ff6b76bb64736f6c634300081b0033536d616c6c207374657073206c65616420746f20677265617420616368696576656d656e7473215265666c656374696f6e206272696e6773206e6577206f70706f7274756e697469657321596f7572207769736865732077696c6c20636f6d652074727565206d61676e69666963656e746c7921",
  "linkReferences": {},
  "deployedLinkReferences": {}
}