{
  "_format": "hh-sol-artifact-1",
  "contractName": "OmikujiShrine",
  "sourceName": "contracts/OmikujiShrine.sol",
  "abi": [
    {
      "inputs": [],
      "stateMutability": "nonpayable",
      "type": "constructor"
    },
    {
      "inputs": [
        {
          "internalType": "address",
          "name": "sender",
          "type": "address"
        },
        {
          "internalType": "uint256",
          "name": "tokenId",
          "type": "uint256"
        },
        {
          "internalType": "address",
          "name": "owner",
          "type": "address"
        }
      ],
      "name": "ERC721IncorrectOwner",
      "type": "error"
    },
    {
      "inputs": [
        {
          "internalType": "address",
          "name": "operator",
          "type": "address"
        },
        {
          "internalType": "uint256",
          "name": "tokenId",
          "type": "uint256"
        }
      ],
      "name": "ERC721InsufficientApproval",
      "type": "error"
    },
    {
      "inputs": [
        {
          "internalType": "address",
          "name": "approver",
          "type": "address"
        }
      ],
      "name": "ERC721InvalidApprover",
      "type": "error"
    },
    {
      "inputs": [
        {
          "internalType": "address",
          "name": "operator",
          "type": "address"
        }
      ],
      "name": "ERC721InvalidOperator",
      "type": "error"
    },
    {
      "inputs": [
        {
          "internalType": "address",
          "name": "owner",
          "type": "address"
        }
      ],
      "name": "ERC721InvalidOwner",
      "type": "error"
    },
    {
      "inputs": [
        {
          "internalType": "address",
          "name": "receiver",
          "type": "address"
        }
      ],
      "name": "ERC721InvalidReceiver",
      "type": "error"
    },
    {
      "inputs": [
        {
          "internalType": "address",
          "name": "sender",
          "type": "address"
        }
      ],
      "name": "ERC721InvalidSender",
      "type": "error"
    },
    {
      "inputs": [
        {
          "internalType": "uint256",
          "name": "tokenId",
          "type": "uint256"
        }
      ],
      "name": "ERC721NonexistentToken",
      "type": "error"
    },
    {
      "inputs": [
        {
          "internalType": "address",
          "name": "owner",
          "type": "address"
        }
      ],
      "name": "OwnableInvalidOwner",
      "type": "error"
    },
    {
      "inputs": [
        {
          "internalType": "address",
          "name": "account",
          "type": "address"
        }
      ],
      "name": "OwnableUnauthorizedAccount",
      "type": "error"
    },
    {
      "anonymous": false,
      "inputs": [
        {
          "indexed": true,
          "internalType": "address",
          "name": "owner",
          "type": "address"
        },
        {
          "indexed": true,
          "internalType": "address",
          "name": "approved",
          "type": "address"
        },
        {
          "indexed": true,
          "internalType": "uint256",
          "name": "tokenId",
          "type": "uint256"
        }
      ],
      "name": "Approval",
      "type": "event"
    },
    {
      "anonymous": false,
      "inputs": [
        {
          "indexed": true,
          "internalType": "address",
          "name": "owner",
          "type": "address"
        },
        {
          "indexed": true,
          "internalType": "address",
          "name": "operator",
          "type": "address"
        },
        {
          "indexed": false,
          "internalType": "bool",
          "name": "approved",
          "type": "bool"
        }
      ],
      "name": "ApprovalForAll",
      "type": "event"
    },
    {
      "anonymous": false,
      "inputs": [
        {
          "indexed": false,
          "internalType": "uint256",
          "name": "_fromTokenId",
          "type": "uint256"
        },
        {
          "indexed": false,
          "internalType": "uint256",
          "name": "_toTokenId",
          "type": "uint256"
        }
      ],
      "name": "BatchMetadataUpdate",
      "type": "event"
    },
    {
      "anonymous": false,
      "inputs": [
        {
          "indexed": false,
          "internalType": "uint256",
          "name": "_tokenId",
          "type": "uint256"
        }
      ],
      "name": "MetadataUpdate",
      "type": "event"
    },
    {
      "anonymous": false,
      "inputs": [
        {
          "indexed": true,
          "internalType": "address",
          "name": "drawer",
          "type": "address"
        },
        {
          "indexed": true,
          "internalType": "uint256",
          "name": "tokenId",
          "type": "uint256"
        },
        {
          "indexed": false,
          "internalType": "enum OmikujiShrine.OmikujiResult",
          "name": "result",
          "type": "uint8"
        },
        {
          "indexed": false,
          "internalType": "string",
          "name": "message",
          "type": "string"
        }
      ],
      "name": "OmikujiDrawn",
      "type": "event"
    },
    {
      "anonymous": false,
      "inputs": [
        {
          "indexed": true,
          "internalType": "address",
          "name": "previousOwner",
          "type": "address"
        },
        {
          "indexed": true,
          "internalType": "address",
          "name": "newOwner",
          "type": "address"
        }
      ],
      "name": "OwnershipTransferred",
      "type": "event"
    },
    {
      "anonymous": false,
      "inputs": [
        {
          "indexed": true,
          "internalType": "address",
          "name": "from",
          "type": "address"
        },
        {
          "indexed": true,
          "internalType": "address",
          "name": "to",
          "type": "address"
        },
        {
          "indexed": true,
          "internalType": "uint256",
          "name": "tokenId",
          "type": "uint256"
        }
      ],
      "name": "Transfer",
      "type": "event"
    },
    {
      "inputs": [
        {
          "internalType": "address",
          "name": "to",
          "type": "address"
        },
        {
          "internalType": "uint256",
          "name": "tokenId",
          "type": "uint256"
        }
      ],
      "name": "approve",
      "outputs": [],
      "stateMutability": "nonpayable",
      "type": "function"
    },
    {
      "inputs": [
        {
          "internalType": "address",
          "name": "owner",
          "type": "address"
        }
      ],
      "name": "balanceOf",
      "outputs": [
        {
          "internalType": "uint256",
          "name": "",
          "type": "uint256"
        }
      ],
      "stateMutability": "view",
      "type": "function"
    },
    {
      "inputs": [
        {
          "internalType": "address",
          "name": "user",
          "type": "address"
        }
      ],
      "name": "canDrawOmikuji",
      "outputs": [
        {
          "internalType": "bool",
          "name": "",
          "type": "bool"
        }
      ],
      "stateMutability": "view",
      "type": "function"
    },
    {
      "inputs": [],
      "name": "drawOmikuji",
      "outputs": [
        {
          "internalType": "uint256",
          "name": "",
          "type": "uint256"
        }
      ],
      "stateMutability": "payable",
      "type": "function"
    },
    {
      "inputs": [
        {
          "internalType": "uint256",
          "name": "tokenId",
          "type": "uint256"
        }
      ],
      "name": "getApproved",
      "outputs": [
        {
          "internalType": "address",
          "name": "",
          "type": "address"
        }
      ],
      "stateMutability": "view",
      "type": "function"
    },
    {
      "inputs": [
        {
          "internalType": "address",
          "name": "user",
          "type": "address"
        }
      ],
      "name": "getTimeUntilNextDraw",
      "outputs": [
        {
          "internalType": "uint256",
          "name": "",
          "type": "uint256"
        }
      ],
      "stateMutability": "view",
      "type": "function"
    },
    {
      "inputs": [
        {
          "internalType": "address",
          "name": "user",
          "type": "address"
        }
      ],
      "name": "getUserOmikujis",
      "outputs": [
        {
          "internalType": "uint256[]",
          "name": "",
          "type": "uint256[]"
        }
      ],
      "stateMutability": "view",
      "type": "function"
    },
    {
      "inputs": [
        {
          "internalType": "address",
          "name": "owner",
          "type": "address"
        },
        {
          "internalType": "address",
          "name": "operator",
          "type": "address"
        }
      ],
      "name": "isApprovedForAll",
      "outputs": [
        {
          "internalType": "bool",
          "name": "",
          "type": "bool"
        }
      ],
      "stateMutability": "view",
      "type": "function"
    },
    {
      "inputs": [
        {
          "internalType": "address",
          "name": "",
          "type": "address"
        }
      ],
      "name": "lastDrawTime",
      "outputs": [
        {
          "internalType": "uint256",
          "name": "",
          "type": "uint256"
        }
      ],
      "stateMutability": "view",
      "type": "function"
    },
    {
      "inputs": [],
      "name": "name",
      "outputs": [
        {
          "internalType": "string",
          "name": "",
          "type": "string"
        }
      ],
      "stateMutability": "view",
      "type": "function"
    },
    {
      "inputs": [],
      "name": "omikujiPrice",
      "outputs": [
        {
          "internalType": "uint256",
          "name": "",
          "type": "uint256"
        }
      ],
      "stateMutability": "view",
      "type": "function"
    },
    {
      "inputs": [
        {
          "internalType": "uint256",
          "name": "",
          "type": "uint256"
        }
      ],
      "name": "omikujis",
      "outputs": [
        {
          "internalType": "enum OmikujiShrine.OmikujiResult",
          "name": "result",
          "type": "uint8"
        },
        {
          "internalType": "string",
          "name": "message",
          "type": "string"
        },
        {
          "internalType": "uint256",
          "name": "timestamp",
          "type": "uint256"
        },
        {
          "internalType": "address",
          "name": "drawer",
          "type": "address"
        }
      ],
      "stateMutability": "view",
      "type": "function"
    },
    {
      "inputs": [],
      "name": "owner",
      "outputs": [
        {
          "internalType": "address",
          "name": "",
          "type": "address"
        }
      ],
      "stateMutability": "view",
      "type": "function"
    },
    {
      "inputs": [
        {
          "internalType": "uint256",
          "name": "tokenId",
          "type": "uint256"
        }
      ],
      "name": "ownerOf",
      "outputs": [
        {
          "internalType": "address",
          "name": "",
          "type": "address"
        }
      ],
      "stateMutability": "view",
      "type": "function"
    },
    {
      "inputs": [],
      "name": "renounceOwnership",
      "outputs": [],
      "stateMutability": "nonpayable",
      "type": "function"
    },
    {
      "inputs": [
        {
          "internalType": "address",
          "name": "from",
          "type": "address"
        },
        {
          "internalType": "address",
          "name": "to",
          "type": "address"
        },
        {
          "internalType": "uint256",
          "name": "tokenId",
          "type": "uint256"
        }
      ],
      "name": "safeTransferFrom",
      "outputs": [],
      "stateMutability": "nonpayable",
      "type": "function"
    },
    {
      "inputs": [
        {
          "internalType": "address",
          "name": "from",
          "type": "address"
        },
        {
          "internalType": "address",
          "name": "to",
          "type": "address"
        },
        {
          "internalType": "uint256",
          "name": "tokenId",
          "type": "uint256"
        },
        {
          "internalType": "bytes",
          "name": "data",
          "type": "bytes"
        }
      ],
      "name": "safeTransferFrom",
      "outputs": [],
      "stateMutability": "nonpayable",
      "type": "function"
    },
    {
      "inputs": [
        {
          "internalType": "address",
          "name": "operator",
          "type": "address"
        },
        {
          "internalType": "bool",
          "name": "approved",
          "type": "bool"
        }
      ],
      "name": "setApprovalForAll",
      "outputs": [],
      "stateMutability": "nonpayable",
      "type": "function"
    },
    {
      "inputs": [
        {
          "internalType": "uint256",
          "name": "_price",
          "type": "uint256"
        }
      ],
      "name": "setOmikujiPrice",
      "outputs": [],
      "stateMutability": "nonpayable",
      "type": "function"
    },
    {
      "inputs": [
        {
          "internalType": "bytes4",
          "name": "interfaceId",
          "type": "bytes4"
        }
      ],
      "name": "supportsInterface",
      "outputs": [
        {
          "internalType": "bool",
          "name": "",
          "type": "bool"
        }
      ],
      "stateMutability": "view",
      "type": "function"
    },
    {
      "inputs": [],
      "name": "symbol",
      "outputs": [
        {
          "internalType": "string",
          "name": "",
          "type": "string"
        }
      ],
      "stateMutability": "view",
      "type": "function"
    },
    {
      "inputs": [
        {
          "internalType": "uint256",
          "name": "tokenId",
          "type": "uint256"
        }
      ],
      "name": "tokenURI",
      "outputs": [
        {
          "internalType": "string",
          "name": "",
          "type": "string"
        }
      ],
      "stateMutability": "view",
      "type": "function"
    },
    {
      "inputs": [
        {
          "internalType": "address",
          "name": "from",
          "type": "address"
        },
        {
          "internalType": "address",
          "name": "to",
          "type": "address"
        },
        {
          "internalType": "uint256",
          "name": "tokenId",
          "type": "uint256"
        }
      ],
      "name": "transferFrom",
      "outputs": [],
      "stateMutability": "nonpayable",
      "type": "function"
    },
    {
      "inputs": [
        {
          "internalType": "address",
          "name": "newOwner",
          "type": "address"
        }
      ],
      "name": "transferOwnership",
      "outputs": [],
      "stateMutability": "nonpayable",
      "type": "function"
    },
    {
      "inputs": [
        {
          "internalType": "address",
          "name": "",
          "type": "address"
        },
        {
          "internalType": "uint256",
          "name": "",
          "type": "uint256"
        }
      ],
      "name": "userOmikujis",
      "outputs": [
        {
          "internalType": "uint256",
          "name": "",
          "type": "uint256"
        }
      ],
      "stateMutability": "view",
      "type": "function"
    },
    {
      "inputs": [],
      "name": "withdraw",
      "outputs": [],
      "stateMutability": "nonpayable",
      "type": "function"
    }
  ],
  "bytecode": "0x608060405266038d7ea4c680006009556040518060c001604052806040518060400160405280601981526020017f4461696b69636869202d20477265617420426c657373696e670000000000000081525081526020016040518060400160405280601481526020017f4b69636869202d20476f6f6420466f7274756e6500000000000000000000000081525081526020016040518060400160405280601a81526020017f4368756b69636869202d204d6964646c6520426c657373696e6700000000000081525081526020016040518060400160405280601981526020017f53686f6b69636869202d20536d616c6c20426c657373696e670000000000000081525081526020016040518060400160405280601b81526020017f5375652d6b69636869202d2046757475726520426c657373696e67000000000081525081526020016040518060400160405280601181526020017f4b796f202d2042616420466f7274756e65000000000000000000000000000000815250815250600d90600661018a929190610499565b506040518060c001604052806040518060600160405280602981526020016156276029913981526020016040518060400160405280602081526020017f476f6f64207468696e67732061726520636f6d696e6720796f7572207761792181525081526020016040518060400160405280601f81526020017f5374656164792070726f6772657373206272696e67732073756363657373210081525081526020016040518060600160405280602781526020016155dc6027913981526020016040518060400160405280601a81526020017f50617469656e63652077696c6c2062652072657761726465642100000000000081525081526020016040518060600160405280602481526020016156036024913981525060139060066102af929190610499565b503480156102bc57600080fd5b50336040518060400160405280601281526020017f4f6d696b756a6920536872696e65204e465400000000000000000000000000008152506040518060400160405280600781526020017f4f4d494b554a4900000000000000000000000000000000000000000000000000815250816000908161033991906107b6565b50806001908161034991906107b6565b505050600073ffffffffffffffffffffffffffffffffffffffff168173ffffffffffffffffffffffffffffffffffffffff16036103be5760006040517f1e4fbdf70000000000000000000000000000000000000000000000000000000081526004016103b591906108c9565b60405180910390fd5b6103cd816103d360201b60201c565b506108e4565b6000600760009054906101000a900473ffffffffffffffffffffffffffffffffffffffff16905081600760006101000a81548173ffffffffffffffffffffffffffffffffffffffff021916908373ffffffffffffffffffffffffffffffffffffffff1602179055508173ffffffffffffffffffffffffffffffffffffffff168173ffffffffffffffffffffffffffffffffffffffff167f8be0079c531659141344cd1fd0a4f28419497f9722a3daafe3b4186f6b6457e060405160405180910390a35050565b82600681019282156104d4579160200282015b828111156104d35782518290816104c391906107b6565b50916020019190600101906104ac565b5b5090506104e191906104e5565b5090565b5b8082111561050557600081816104fc9190610509565b506001016104e6565b5090565b508054610515906105cf565b6000825580601f106105275750610546565b601f0160209004906000526020600020908101906105459190610549565b5b50565b5b8082111561056257600081600090555060010161054a565b5090565b600081519050919050565b7f4e487b7100000000000000000000000000000000000000000000000000000000600052604160045260246000fd5b7f4e487b7100000000000000000000000000000000000000000000000000000000600052602260045260246000fd5b600060028204905060018216806105e757607f821691505b6020821081036105fa576105f96105a0565b5b50919050565b60008190508160005260206000209050919050565b60006020601f8301049050919050565b600082821b905092915050565b6000600883026106627fffffffffffffffffffffffffffffffffffffffffffffffffffffffffffffffff82610625565b61066c8683610625565b95508019841693508086168417925050509392505050565b6000819050919050565b6000819050919050565b60006106b36106ae6106a984610684565b61068e565b610684565b9050919050565b6000819050919050565b6106cd83610698565b6106e16106d9826106ba565b848454610632565b825550505050565b600090565b6106f66106e9565b6107018184846106c4565b505050565b5b818110156107255761071a6000826106ee565b600181019050610707565b5050565b601f82111561076a5761073b81610600565b61074484610615565b81016020851015610753578190505b61076761075f85610615565b830182610706565b50505b505050565b600082821c905092915050565b600061078d6000198460080261076f565b1980831691505092915050565b60006107a6838361077c565b9150826002028217905092915050565b6107bf82610566565b67ffffffffffffffff8111156107d8576107d7610571565b5b6107e282546105cf565b6107ed828285610729565b600060209050601f831160018114610820576000841561080e578287015190505b610818858261079a565b865550610880565b601f19841661082e86610600565b60005b8281101561085657848901518255600182019150602085019450602081019050610831565b86831015610873578489015161086f601f89168261077c565b8355505b6001600288020188555050505b505050505050565b600073ffffffffffffffffffffffffffffffffffffffff82169050919050565b60006108b382610888565b9050919050565b6108c3816108a8565b82525050565b60006020820190506108de60008301846108ba565b92915050565b614ce9806108f36000396000f3fe6080604052600436106101815760003560e01c80636352211e116100d1578063a22cb4651161008a578063c21d506111610064578063c21d50611461059c578063c87b56dd146105d9578063e985e9c514610616578063f2fde38b1461065357610181565b8063a22cb4651461050a578063b88d4fde14610533578063bce25a531461055c57610181565b80636352211e146103fa57806370a0823114610437578063715018a6146104745780638da5cb5b1461048b57806395d89b41146104b65780639c59b1df146104e157610181565b80633ccfd60b1161013e5780634ca8a941116101185780634ca8a94114610337578063581f0fb0146103625780635982773b146103805780635b72ed29146103bd57610181565b80633ccfd60b146102ba57806342842e0e146102d15780634afa485d146102fa57610181565b806301ffc9a71461018657806306fdde03146101c3578063081812fc146101ee578063095ea7b31461022b57806323b872dd14610254578063392a8dd01461027d575b600080fd5b34801561019257600080fd5b506101ad60048036038101906101a891906130ea565b61067c565b6040516101ba9190613132565b60405180910390f35b3480156101cf57600080fd5b506101d861068e565b6040516101e591906131dd565b60405180910390f35b3480156101fa57600080fd5b5061021560048036038101906102109190613235565b610720565b60405161022291906132a3565b60405180910390f35b34801561023757600080fd5b50610252600480360381019061024d91906132ea565b61073c565b005b34801561026057600080fd5b5061027b6004803603810190610276919061332a565b610752565b005b34801561028957600080fd5b506102a4600480360381019061029f919061337d565b610854565b6040516102b191906133b9565b60405180910390f35b3480156102c657600080fd5b506102cf61086c565b005b3480156102dd57600080fd5b506102f860048036038101906102f3919061332a565b6108c4565b005b34801561030657600080fd5b50610321600480360381019061031c91906132ea565b6108e4565b60405161032e91906133b9565b60405180910390f35b34801561034357600080fd5b5061034c610915565b60405161035991906133b9565b60405180910390f35b61036a61091b565b60405161037791906133b9565b60405180910390f35b34801561038c57600080fd5b506103a760048036038101906103a2919061337d565b610d39565b6040516103b49190613132565b60405180910390f35b3480156103c957600080fd5b506103e460048036038101906103df919061337d565b610d93565b6040516103f19190613492565b60405180910390f35b34801561040657600080fd5b50610421600480360381019061041c9190613235565b610e2a565b60405161042e91906132a3565b60405180910390f35b34801561044357600080fd5b5061045e6004803603810190610459919061337d565b610e3c565b60405161046b91906133b9565b60405180910390f35b34801561048057600080fd5b50610489610ef6565b005b34801561049757600080fd5b506104a0610f0a565b6040516104ad91906132a3565b60405180910390f35b3480156104c257600080fd5b506104cb610f34565b6040516104d891906131dd565b60405180910390f35b3480156104ed57600080fd5b5061050860048036038101906105039190613235565b610fc6565b005b34801561051657600080fd5b50610531600480360381019061052c91906134e0565b610fd8565b005b34801561053f57600080fd5b5061055a60048036038101906105559190613655565b610fee565b005b34801561056857600080fd5b50610583600480360381019061057e9190613235565b611013565b604051610593949392919061374f565b60405180910390f35b3480156105a857600080fd5b506105c360048036038101906105be919061337d565b6110f8565b6040516105d091906133b9565b60405180910390f35b3480156105e557600080fd5b5061060060048036038101906105fb9190613235565b611172565b60405161060d91906131dd565b60405180910390f35b34801561062257600080fd5b5061063d6004803603810190610638919061379b565b611184565b60405161064a9190613132565b60405180910390f35b34801561065f57600080fd5b5061067a6004803603810190610675919061337d565b611218565b005b60006106878261129e565b9050919050565b60606000805461069d9061380a565b80601f01602080910402602001604051908101604052809291908181526020018280546106c99061380a565b80156107165780601f106106eb57610100808354040283529160200191610716565b820191906000526020600020905b8154815290600101906020018083116106f957829003601f168201915b5050505050905090565b600061072b826112ff565b5061073582611387565b9050919050565b61074e82826107496113c4565b6113cc565b5050565b600073ffffffffffffffffffffffffffffffffffffffff168273ffffffffffffffffffffffffffffffffffffffff16036107c45760006040517f64a0ae920000000000000000000000000000000000000000000000000000000081526004016107bb91906132a3565b60405180910390fd5b60006107d883836107d36113c4565b6113de565b90508373ffffffffffffffffffffffffffffffffffffffff168173ffffffffffffffffffffffffffffffffffffffff161461084e578382826040517f64283d7b0000000000000000000000000000000000000000000000000000000081526004016108459392919061383b565b60405180910390fd5b50505050565b600c6020528060005260406000206000915090505481565b6108746115f8565b61087c610f0a565b73ffffffffffffffffffffffffffffffffffffffff166108fc479081150290604051600060405180830381858888f193505050501580156108c1573d6000803e3d6000fd5b50565b6108df83838360405180602001604052806000815250610fee565b505050565b600b602052816000526040600020818154811061090057600080fd5b90600052602060002001600091509150505481565b60095481565b6000600954341015610962576040517f08c379a0000000000000000000000000000000000000000000000000000000008152600401610959906138be565b60405180910390fd5b61096b33610d39565b6109aa576040517f08c379a00000000000000000000000000000000000000000000000000000000081526004016109a190613950565b60405180910390fd5b42600c60003373ffffffffffffffffffffffffffffffffffffffff1673ffffffffffffffffffffffffffffffffffffffff1681526020019081526020016000208190555060086000815480929190610a019061399f565b9190505550600060085490506000606442443385604051602001610a289493929190613a50565b6040516020818303038152906040528051906020012060001c610a4b9190613acd565b905060006005821015610a615760009050610ab2565b6014821015610a735760019050610ab1565b6028821015610a855760029050610ab0565b6041821015610a975760039050610aaf565b6055821015610aa95760049050610aae565b600590505b5b5b5b5b60006013826005811115610ac957610ac86136d8565b5b60068110610ada57610ad9613afe565b5b018054610ae69061380a565b80601f0160208091040260200160405190810160405280929190818152602001828054610b129061380a565b8015610b5f5780601f10610b3457610100808354040283529160200191610b5f565b820191906000526020600020905b815481529060010190602001808311610b4257829003601f168201915b505050505090506040518060800160405280836005811115610b8457610b836136d8565b5b81526020018281526020014281526020013373ffffffffffffffffffffffffffffffffffffffff16815250600a600086815260200190815260200160002060008201518160000160006101000a81548160ff02191690836005811115610bed57610bec6136d8565b5b02179055506020820151816001019081610c079190613cd9565b506040820151816002015560608201518160030160006101000a81548173ffffffffffffffffffffffffffffffffffffffff021916908373ffffffffffffffffffffffffffffffffffffffff160217905550905050600b60003373ffffffffffffffffffffffffffffffffffffffff1673ffffffffffffffffffffffffffffffffffffffff168152602001908152602001600020849080600181540180825580915050600190039060005260206000200160009091909190915055610ccc338561167f565b610cde84610cd98661169d565b611924565b833373ffffffffffffffffffffffffffffffffffffffff167f8f59f601bb75974d2fc5a2ee8f1b7de682a1e78edb4cb7418db454c60ee4a5d18484604051610d27929190613dab565b60405180910390a38394505050505090565b600062015180600c60008473ffffffffffffffffffffffffffffffffffffffff1673ffffffffffffffffffffffffffffffffffffffff16815260200190815260200160002054610d899190613ddb565b4210159050919050565b6060600b60008373ffffffffffffffffffffffffffffffffffffffff1673ffffffffffffffffffffffffffffffffffffffff168152602001908152602001600020805480602002602001604051908101604052809291908181526020018280548015610e1e57602002820191906000526020600020905b815481526020019060010190808311610e0a575b50505050509050919050565b6000610e35826112ff565b9050919050565b60008073ffffffffffffffffffffffffffffffffffffffff168273ffffffffffffffffffffffffffffffffffffffff1603610eaf5760006040517f89c62b64000000000000000000000000000000000000000000000000000000008152600401610ea691906132a3565b60405180910390fd5b600360008373ffffffffffffffffffffffffffffffffffffffff1673ffffffffffffffffffffffffffffffffffffffff168152602001908152602001600020549050919050565b610efe6115f8565b610f086000611980565b565b6000600760009054906101000a900473ffffffffffffffffffffffffffffffffffffffff16905090565b606060018054610f439061380a565b80601f0160208091040260200160405190810160405280929190818152602001828054610f6f9061380a565b8015610fbc5780601f10610f9157610100808354040283529160200191610fbc565b820191906000526020600020905b815481529060010190602001808311610f9f57829003601f168201915b5050505050905090565b610fce6115f8565b8060098190555050565b610fea610fe36113c4565b8383611a46565b5050565b610ff9848484610752565b61100d6110046113c4565b85858585611bb5565b50505050565b600a6020528060005260406000206000915090508060000160009054906101000a900460ff16908060010180546110499061380a565b80601f01602080910402602001604051908101604052809291908181526020018280546110759061380a565b80156110c25780601f10611097576101008083540402835291602001916110c2565b820191906000526020600020905b8154815290600101906020018083116110a557829003601f168201915b5050505050908060020154908060030160009054906101000a900473ffffffffffffffffffffffffffffffffffffffff16905084565b600061110382610d39565b15611111576000905061116d565b4262015180600c60008573ffffffffffffffffffffffffffffffffffffffff1673ffffffffffffffffffffffffffffffffffffffff168152602001908152602001600020546111609190613ddb565b61116a9190613e0f565b90505b919050565b606061117d82611d66565b9050919050565b6000600560008473ffffffffffffffffffffffffffffffffffffffff1673ffffffffffffffffffffffffffffffffffffffff16815260200190815260200160002060008373ffffffffffffffffffffffffffffffffffffffff1673ffffffffffffffffffffffffffffffffffffffff16815260200190815260200160002060009054906101000a900460ff16905092915050565b6112206115f8565b600073ffffffffffffffffffffffffffffffffffffffff168173ffffffffffffffffffffffffffffffffffffffff16036112925760006040517f1e4fbdf700000000000000000000000000000000000000000000000000000000815260040161128991906132a3565b60405180910390fd5b61129b81611980565b50565b6000634906490660e01b7bffffffffffffffffffffffffffffffffffffffffffffffffffffffff1916827bffffffffffffffffffffffffffffffffffffffffffffffffffffffff191614806112f857506112f782611e79565b5b9050919050565b60008061130b83611f5b565b9050600073ffffffffffffffffffffffffffffffffffffffff168173ffffffffffffffffffffffffffffffffffffffff160361137e57826040517f7e27328900000000000000000000000000000000000000000000000000000000815260040161137591906133b9565b60405180910390fd5b80915050919050565b60006004600083815260200190815260200160002060009054906101000a900473ffffffffffffffffffffffffffffffffffffffff169050919050565b600033905090565b6113d98383836001611f98565b505050565b6000806113ea84611f5b565b9050600073ffffffffffffffffffffffffffffffffffffffff168373ffffffffffffffffffffffffffffffffffffffff161461142c5761142b81848661215d565b5b600073ffffffffffffffffffffffffffffffffffffffff168173ffffffffffffffffffffffffffffffffffffffff16146114bd5761146e600085600080611f98565b6001600360008373ffffffffffffffffffffffffffffffffffffffff1673ffffffffffffffffffffffffffffffffffffffff168152602001908152602001600020600082825403925050819055505b600073ffffffffffffffffffffffffffffffffffffffff168573ffffffffffffffffffffffffffffffffffffffff1614611540576001600360008773ffffffffffffffffffffffffffffffffffffffff1673ffffffffffffffffffffffffffffffffffffffff168152602001908152602001600020600082825401925050819055505b846002600086815260200190815260200160002060006101000a81548173ffffffffffffffffffffffffffffffffffffffff021916908373ffffffffffffffffffffffffffffffffffffffff160217905550838573ffffffffffffffffffffffffffffffffffffffff168273ffffffffffffffffffffffffffffffffffffffff167fddf252ad1be2c89b69c2b068fc378daa952ba7f163c4a11628f55a4df523b3ef60405160405180910390a4809150509392505050565b6116006113c4565b73ffffffffffffffffffffffffffffffffffffffff1661161e610f0a565b73ffffffffffffffffffffffffffffffffffffffff161461167d576116416113c4565b6040517f118cdaa700000000000000000000000000000000000000000000000000000000815260040161167491906132a3565b60405180910390fd5b565b611699828260405180602001604052806000815250612221565b5050565b60606000600a60008481526020019081526020016000206040518060800160405290816000820160009054906101000a900460ff1660058111156116e4576116e36136d8565b5b60058111156116f6576116f56136d8565b5b815260200160018201805461170a9061380a565b80601f01602080910402602001604051908101604052809291908181526020018280546117369061380a565b80156117835780601f1061175857610100808354040283529160200191611783565b820191906000526020600020905b81548152906001019060200180831161176657829003601f168201915b50505050508152602001600282015481526020016003820160009054906101000a900473ffffffffffffffffffffffffffffffffffffffff1673ffffffffffffffffffffffffffffffffffffffff1673ffffffffffffffffffffffffffffffffffffffff168152505090506000600d82600001516005811115611809576118086136d8565b5b6006811061181a57611819613afe565b5b0180546118269061380a565b80601f01602080910402602001604051908101604052809291908181526020018280546118529061380a565b801561189f5780601f106118745761010080835404028352916020019161189f565b820191906000526020600020905b81548152906001019060200180831161188257829003601f168201915b5050505050905060006118b185612245565b8284602001516118c48660400151612245565b6118cd87612313565b6040516020016118e19594939291906142f3565b60405160208183030381529060405290506118fb8161241d565b60405160200161190b9190614419565b6040516020818303038152906040529350505050919050565b806006600084815260200190815260200160002090816119449190613cd9565b507ff8e1a15aba9398e019f0b49df1a4fde98ee17ae345cb5f6b5e2c27f5033e8ce78260405161197491906133b9565b60405180910390a15050565b6000600760009054906101000a900473ffffffffffffffffffffffffffffffffffffffff16905081600760006101000a81548173ffffffffffffffffffffffffffffffffffffffff021916908373ffffffffffffffffffffffffffffffffffffffff1602179055508173ffffffffffffffffffffffffffffffffffffffff168173ffffffffffffffffffffffffffffffffffffffff167f8be0079c531659141344cd1fd0a4f28419497f9722a3daafe3b4186f6b6457e060405160405180910390a35050565b600073ffffffffffffffffffffffffffffffffffffffff168273ffffffffffffffffffffffffffffffffffffffff1603611ab757816040517f5b08ba18000000000000000000000000000000000000000000000000000000008152600401611aae91906132a3565b60405180910390fd5b80600560008573ffffffffffffffffffffffffffffffffffffffff1673ffffffffffffffffffffffffffffffffffffffff16815260200190815260200160002060008473ffffffffffffffffffffffffffffffffffffffff1673ffffffffffffffffffffffffffffffffffffffff16815260200190815260200160002060006101000a81548160ff0219169083151502179055508173ffffffffffffffffffffffffffffffffffffffff168373ffffffffffffffffffffffffffffffffffffffff167f17307eab39ab6107e8899845ad3d59bd9653f200f220920489ca2b5937696c3183604051611ba89190613132565b60405180910390a3505050565b60008373ffffffffffffffffffffffffffffffffffffffff163b1115611d5f578273ffffffffffffffffffffffffffffffffffffffff1663150b7a02868685856040518563ffffffff1660e01b8152600401611c149493929190614490565b6020604051808303816000875af1925050508015611c5057506040513d601f19601f82011682018060405250810190611c4d91906144f1565b60015b611cd4573d8060008114611c80576040519150601f19603f3d011682016040523d82523d6000602084013e611c85565b606091505b506000815103611ccc57836040517f64a0ae92000000000000000000000000000000000000000000000000000000008152600401611cc391906132a3565b60405180910390fd5b805160208201fd5b63150b7a0260e01b7bffffffffffffffffffffffffffffffffffffffffffffffffffffffff1916817bffffffffffffffffffffffffffffffffffffffffffffffffffffffff191614611d5d57836040517f64a0ae92000000000000000000000000000000000000000000000000000000008152600401611d5491906132a3565b60405180910390fd5b505b5050505050565b6060611d71826112ff565b506000600660008481526020019081526020016000208054611d929061380a565b80601f0160208091040260200160405190810160405280929190818152602001828054611dbe9061380a565b8015611e0b5780601f10611de057610100808354040283529160200191611e0b565b820191906000526020600020905b815481529060010190602001808311611dee57829003601f168201915b505050505090506000611e1c612a3a565b90506000815103611e31578192505050611e74565b600082511115611e66578082604051602001611e4e92919061451e565b60405160208183030381529060405292505050611e74565b611e6f84612a51565b925050505b919050565b60007f80ac58cd000000000000000000000000000000000000000000000000000000007bffffffffffffffffffffffffffffffffffffffffffffffffffffffff1916827bffffffffffffffffffffffffffffffffffffffffffffffffffffffff19161480611f4457507f5b5e139f000000000000000000000000000000000000000000000000000000007bffffffffffffffffffffffffffffffffffffffffffffffffffffffff1916827bffffffffffffffffffffffffffffffffffffffffffffffffffffffff1916145b80611f545750611f5382612aba565b5b9050919050565b60006002600083815260200190815260200160002060009054906101000a900473ffffffffffffffffffffffffffffffffffffffff169050919050565b8080611fd15750600073ffffffffffffffffffffffffffffffffffffffff168273ffffffffffffffffffffffffffffffffffffffff1614155b15612105576000611fe1846112ff565b9050600073ffffffffffffffffffffffffffffffffffffffff168373ffffffffffffffffffffffffffffffffffffffff161415801561204c57508273ffffffffffffffffffffffffffffffffffffffff168173ffffffffffffffffffffffffffffffffffffffff1614155b801561205f575061205d8184611184565b155b156120a157826040517fa9fbf51f00000000000000000000000000000000000000000000000000000000815260040161209891906132a3565b60405180910390fd5b811561210357838573ffffffffffffffffffffffffffffffffffffffff168273ffffffffffffffffffffffffffffffffffffffff167f8c5be1e5ebec7d5bd14f71427d1e84f3dd0314c0f7b2291e5b200ac8c7c3b92560405160405180910390a45b505b836004600085815260200190815260200160002060006101000a81548173ffffffffffffffffffffffffffffffffffffffff021916908373ffffffffffffffffffffffffffffffffffffffff16021790555050505050565b612168838383612b24565b61221c57600073ffffffffffffffffffffffffffffffffffffffff168373ffffffffffffffffffffffffffffffffffffffff16036121dd57806040517f7e2732890000000000000000000000000000000000000000000000000000000081526004016121d491906133b9565b60405180910390fd5b81816040517f177e802f000000000000000000000000000000000000000000000000000000008152600401612213929190614542565b60405180910390fd5b505050565b61222b8383612be5565b6122406122366113c4565b6000858585611bb5565b505050565b60606000600161225484612cde565b01905060008167ffffffffffffffff8111156122735761227261352a565b5b6040519080825280601f01601f1916602001820160405280156122a55781602001600182028036833780820191505090505b509050600082602083010190505b600115612308578080600190039150507f3031323334353637383961626364656600000000000000000000000000000000600a86061a8153600a85816122fc576122fb613a9e565b5b049450600085036122b3575b819350505050919050565b60606000600d836000015160058111156123305761232f6136d8565b5b6006811061234157612340613afe565b5b01805461234d9061380a565b80601f01602080910402602001604051908101604052809291908181526020018280546123799061380a565b80156123c65780601f1061239b576101008083540402835291602001916123c6565b820191906000526020600020905b8154815290600101906020018083116123a957829003601f168201915b5050505050905060006123dc8460000151612e31565b90506000818386602001516040516020016123f993929190614b35565b60405160208183030381529060405290506124138161241d565b9350505050919050565b60606000604051806060016040528060408152602001614c74604091399050600083510361245d5760405180602001604052806000815250915050612a35565b600060036002855161246f9190613ddb565b6124799190614c00565b60046124859190614c31565b67ffffffffffffffff81111561249e5761249d61352a565b5b6040519080825280601f01601f1916602001820160405280156124d05781602001600182028036833780820191505090505b50905060008190506000805b86516003836124eb9190613ddb565b1161278657600087838151811061250557612504613afe565b5b602001015160f81c60f81b60f81c60ff1690506000886001856125289190613ddb565b8151811061253957612538613afe565b5b602001015160f81c60f81b60f81c60ff16905060008960028661255c9190613ddb565b8151811061256d5761256c613afe565b5b602001015160f81c60f81b60f81c60ff169050600081600884901b601086901b1717905088601282901c815181106125a8576125a7613afe565b5b602001015160f81c60f81b60f81c60f81b8786806125c59061399f565b9750815181106125d8576125d7613afe565b5b60200101907effffffffffffffffffffffffffffffffffffffffffffffffffffffffffffff1916908160001a90535088603f600c83901c168151811061262157612620613afe565b5b602001015160f81c60f81b60f81c60f81b87868061263e9061399f565b97508151811061265157612650613afe565b5b60200101907effffffffffffffffffffffffffffffffffffffffffffffffffffffffffffff1916908160001a90535088603f600683901c168151811061269a57612699613afe565b5b602001015160f81c60f81b60f81c60f81b8786806126b79061399f565b9750815181106126ca576126c9613afe565b5b60200101907effffffffffffffffffffffffffffffffffffffffffffffffffffffffffffff1916908160001a90535088603f82168151811061270f5761270e613afe565b5b602001015160f81c60f81b60f81c60f81b87868061272c9061399f565b97508151811061273f5761273e613afe565b5b60200101907effffffffffffffffffffffffffffffffffffffffffffffffffffffffffffff1916908160001a9053505050505060038261277f9190613ddb565b91506124dc565b8651821015612a2c5760008783815181106127a4576127a3613afe565b5b602001015160f81c60f81b60f81c60ff169050600088516001856127c89190613ddb565b106127d4576000612805565b886001856127e29190613ddb565b815181106127f3576127f2613afe565b5b602001015160f81c60f81b60f81c60ff165b90506000600882901b601084901b17905087601282901c8151811061282d5761282c613afe565b5b602001015160f81c60f81b60f81c60f81b86858061284a9061399f565b96508151811061285d5761285c613afe565b5b60200101907effffffffffffffffffffffffffffffffffffffffffffffffffffffffffffff1916908160001a90535087603f600c83901c16815181106128a6576128a5613afe565b5b602001015160f81c60f81b60f81c60f81b8685806128c39061399f565b9650815181106128d6576128d5613afe565b5b60200101907effffffffffffffffffffffffffffffffffffffffffffffffffffffffffffff1916908160001a90535089516001866129149190613ddb565b1061293f577f3d0000000000000000000000000000000000000000000000000000000000000061296b565b87603f600683901c168151811061295957612958613afe565b5b602001015160f81c60f81b60f81c60f81b5b8685806129779061399f565b96508151811061298a57612989613afe565b5b60200101907effffffffffffffffffffffffffffffffffffffffffffffffffffffffffffff1916908160001a9053507f3d000000000000000000000000000000000000000000000000000000000000008685806129e69061399f565b9650815181106129f9576129f8613afe565b5b60200101907effffffffffffffffffffffffffffffffffffffffffffffffffffffffffffff1916908160001a9053505050505b83955050505050505b919050565b606060405180602001604052806000815250905090565b6060612a5c826112ff565b506000612a67612a3a565b90506000815111612a875760405180602001604052806000815250612ab2565b80612a9184612245565b604051602001612aa292919061451e565b6040516020818303038152906040525b915050919050565b60007f01ffc9a7000000000000000000000000000000000000000000000000000000007bffffffffffffffffffffffffffffffffffffffffffffffffffffffff1916827bffffffffffffffffffffffffffffffffffffffffffffffffffffffff1916149050919050565b60008073ffffffffffffffffffffffffffffffffffffffff168373ffffffffffffffffffffffffffffffffffffffff1614158015612bdc57508273ffffffffffffffffffffffffffffffffffffffff168473ffffffffffffffffffffffffffffffffffffffff161480612b9d5750612b9c8484611184565b5b80612bdb57508273ffffffffffffffffffffffffffffffffffffffff16612bc383611387565b73ffffffffffffffffffffffffffffffffffffffff16145b5b90509392505050565b600073ffffffffffffffffffffffffffffffffffffffff168273ffffffffffffffffffffffffffffffffffffffff1603612c575760006040517f64a0ae92000000000000000000000000000000000000000000000000000000008152600401612c4e91906132a3565b60405180910390fd5b6000612c65838360006113de565b9050600073ffffffffffffffffffffffffffffffffffffffff168173ffffffffffffffffffffffffffffffffffffffff1614612cd95760006040517f73c6ac6e000000000000000000000000000000000000000000000000000000008152600401612cd091906132a3565b60405180910390fd5b505050565b600080600090507a184f03e93ff9f4daa797ed6e38ed64bf6a1f0100000000000000008310612d3c577a184f03e93ff9f4daa797ed6e38ed64bf6a1f0100000000000000008381612d3257612d31613a9e565b5b0492506040810190505b6d04ee2d6d415b85acef81000000008310612d79576d04ee2d6d415b85acef81000000008381612d6f57612d6e613a9e565b5b0492506020810190505b662386f26fc100008310612da857662386f26fc100008381612d9e57612d9d613a9e565b5b0492506010810190505b6305f5e1008310612dd1576305f5e1008381612dc757612dc6613a9e565b5b0492506008810190505b6127108310612df6576127108381612dec57612deb613a9e565b5b0492506004810190505b60648310612e195760648381612e0f57612e0e613a9e565b5b0492506002810190505b600a8310612e28576001810190505b80915050919050565b606060006005811115612e4757612e466136d8565b5b826005811115612e5a57612e596136d8565b5b03612e9c576040518060400160405280600781526020017f23666636623662000000000000000000000000000000000000000000000000008152509050613079565b60016005811115612eb057612eaf6136d8565b5b826005811115612ec357612ec26136d8565b5b03612f05576040518060400160405280600781526020017f23346563646334000000000000000000000000000000000000000000000000008152509050613079565b60026005811115612f1957612f186136d8565b5b826005811115612f2c57612f2b6136d8565b5b03612f6e576040518060400160405280600781526020017f23343562376431000000000000000000000000000000000000000000000000008152509050613079565b60036005811115612f8257612f816136d8565b5b826005811115612f9557612f946136d8565b5b03612fd7576040518060400160405280600781526020017f23393663656234000000000000000000000000000000000000000000000000008152509050613079565b60046005811115612feb57612fea6136d8565b5b826005811115612ffe57612ffd6136d8565b5b03613040576040518060400160405280600781526020017f23666563613537000000000000000000000000000000000000000000000000008152509050613079565b6040518060400160405280600781526020017f236135356565610000000000000000000000000000000000000000000000000081525090505b919050565b6000604051905090565b600080fd5b600080fd5b60007fffffffff0000000000000000000000000000000000000000000000000000000082169050919050565b6130c781613092565b81146130d257600080fd5b50565b6000813590506130e4816130be565b92915050565b600060208284031215613100576130ff613088565b5b600061310e848285016130d5565b91505092915050565b60008115159050919050565b61312c81613117565b82525050565b60006020820190506131476000830184613123565b92915050565b600081519050919050565b600082825260208201905092915050565b60005b8381101561318757808201518184015260208101905061316c565b60008484015250505050565b6000601f19601f8301169050919050565b60006131af8261314d565b6131b98185613158565b93506131c9818560208601613169565b6131d281613193565b840191505092915050565b600060208201905081810360008301526131f781846131a4565b905092915050565b6000819050919050565b613212816131ff565b811461321d57600080fd5b50565b60008135905061322f81613209565b92915050565b60006020828403121561324b5761324a613088565b5b600061325984828501613220565b91505092915050565b600073ffffffffffffffffffffffffffffffffffffffff82169050919050565b600061328d82613262565b9050919050565b61329d81613282565b82525050565b60006020820190506132b86000830184613294565b92915050565b6132c781613282565b81146132d257600080fd5b50565b6000813590506132e4816132be565b92915050565b6000806040838503121561330157613300613088565b5b600061330f858286016132d5565b925050602061332085828601613220565b9150509250929050565b60008060006060848603121561334357613342613088565b5b6000613351868287016132d5565b9350506020613362868287016132d5565b925050604061337386828701613220565b9150509250925092565b60006020828403121561339357613392613088565b5b60006133a1848285016132d5565b91505092915050565b6133b3816131ff565b82525050565b60006020820190506133ce60008301846133aa565b92915050565b600081519050919050565b600082825260208201905092915050565b6000819050602082019050919050565b613409816131ff565b82525050565b600061341b8383613400565b60208301905092915050565b6000602082019050919050565b600061343f826133d4565b61344981856133df565b9350613454836133f0565b8060005b8381101561348557815161346c888261340f565b975061347783613427565b925050600181019050613458565b5085935050505092915050565b600060208201905081810360008301526134ac8184613434565b905092915050565b6134bd81613117565b81146134c857600080fd5b50565b6000813590506134da816134b4565b92915050565b600080604083850312156134f7576134f6613088565b5b6000613505858286016132d5565b9250506020613516858286016134cb565b9150509250929050565b600080fd5b600080fd5b7f4e487b7100000000000000000000000000000000000000000000000000000000600052604160045260246000fd5b61356282613193565b810181811067ffffffffffffffff821117156135815761358061352a565b5b80604052505050565b600061359461307e565b90506135a08282613559565b919050565b600067ffffffffffffffff8211156135c0576135bf61352a565b5b6135c982613193565b9050602081019050919050565b82818337600083830152505050565b60006135f86135f3846135a5565b61358a565b90508281526020810184848401111561361457613613613525565b5b61361f8482856135d6565b509392505050565b600082601f83011261363c5761363b613520565b5b813561364c8482602086016135e5565b91505092915050565b6000806000806080858703121561366f5761366e613088565b5b600061367d878288016132d5565b945050602061368e878288016132d5565b935050604061369f87828801613220565b925050606085013567ffffffffffffffff8111156136c0576136bf61308d565b5b6136cc87828801613627565b91505092959194509250565b7f4e487b7100000000000000000000000000000000000000000000000000000000600052602160045260246000fd5b60068110613718576137176136d8565b5b50565b600081905061372982613707565b919050565b60006137398261371b565b9050919050565b6137498161372e565b82525050565b60006080820190506137646000830187613740565b818103602083015261377681866131a4565b905061378560408301856133aa565b6137926060830184613294565b95945050505050565b600080604083850312156137b2576137b1613088565b5b60006137c0858286016132d5565b92505060206137d1858286016132d5565b9150509250929050565b7f4e487b7100000000000000000000000000000000000000000000000000000000600052602260045260246000fd5b6000600282049050600182168061382257607f821691505b602082108103613835576138346137db565b5b50919050565b60006060820190506138506000830186613294565b61385d60208301856133aa565b61386a6040830184613294565b949350505050565b7f496e73756666696369656e74207061796d656e7420666f72206f6d696b756a69600082015250565b60006138a8602083613158565b91506138b382613872565b602082019050919050565b600060208201905081810360008301526138d78161389b565b9050919050565b7f4d757374207761697420323420686f757273206265666f72652064726177696e60008201527f6720616761696e00000000000000000000000000000000000000000000000000602082015250565b600061393a602783613158565b9150613945826138de565b604082019050919050565b600060208201905081810360008301526139698161392d565b9050919050565b7f4e487b7100000000000000000000000000000000000000000000000000000000600052601160045260246000fd5b60006139aa826131ff565b91507fffffffffffffffffffffffffffffffffffffffffffffffffffffffffffffffff82036139dc576139db613970565b5b600182019050919050565b6000819050919050565b613a026139fd826131ff565b6139e7565b82525050565b60008160601b9050919050565b6000613a2082613a08565b9050919050565b6000613a3282613a15565b9050919050565b613a4a613a4582613282565b613a27565b82525050565b6000613a5c82876139f1565b602082019150613a6c82866139f1565b602082019150613a7c8285613a39565b601482019150613a8c82846139f1565b60208201915081905095945050505050565b7f4e487b7100000000000000000000000000000000000000000000000000000000600052601260045260246000fd5b6000613ad8826131ff565b9150613ae3836131ff565b925082613af357613af2613a9e565b5b828206905092915050565b7f4e487b7100000000000000000000000000000000000000000000000000000000600052603260045260246000fd5b60008190508160005260206000209050919050565b60006020601f8301049050919050565b600082821b905092915050565b600060088302613b8f7fffffffffffffffffffffffffffffffffffffffffffffffffffffffffffffffff82613b52565b613b998683613b52565b95508019841693508086168417925050509392505050565b6000819050919050565b6000613bd6613bd1613bcc846131ff565b613bb1565b6131ff565b9050919050565b6000819050919050565b613bf083613bbb565b613c04613bfc82613bdd565b848454613b5f565b825550505050565b600090565b613c19613c0c565b613c24818484613be7565b505050565b5b81811015613c4857613c3d600082613c11565b600181019050613c2a565b5050565b601f821115613c8d57613c5e81613b2d565b613c6784613b42565b81016020851015613c76578190505b613c8a613c8285613b42565b830182613c29565b50505b505050565b600082821c905092915050565b6000613cb060001984600802613c92565b1980831691505092915050565b6000613cc98383613c9f565b9150826002028217905092915050565b613ce28261314d565b67ffffffffffffffff811115613cfb57613cfa61352a565b5b613d05825461380a565b613d10828285613c4c565b600060209050601f831160018114613d435760008415613d31578287015190505b613d3b8582613cbd565b865550613da3565b601f198416613d5186613b2d565b60005b82811015613d7957848901518255600182019150602085019450602081019050613d54565b86831015613d965784890151613d92601f891682613c9f565b8355505b6001600288020188555050505b505050505050565b6000604082019050613dc06000830185613740565b8181036020830152613dd281846131a4565b90509392505050565b6000613de6826131ff565b9150613df1836131ff565b9250828201905080821115613e0957613e08613970565b5b92915050565b6000613e1a826131ff565b9150613e25836131ff565b9250828203905081811115613e3d57613e3c613970565b5b92915050565b600081905092915050565b7f7b226e616d65223a20224f6d696b756a69202300000000000000000000000000600082015250565b6000613e84601383613e43565b9150613e8f82613e4e565b601382019050919050565b6000613ea58261314d565b613eaf8185613e43565b9350613ebf818560208601613169565b80840191505092915050565b7f222c000000000000000000000000000000000000000000000000000000000000600082015250565b6000613f01600283613e43565b9150613f0c82613ecb565b600282019050919050565b7f226465736372697074696f6e223a20224120747261646974696f6e616c204a6160008201527f70616e65736520666f7274756e652066726f6d20746865206469676974616c2060208201527f736872696e65222c000000000000000000000000000000000000000000000000604082015250565b6000613f99604883613e43565b9150613fa482613f17565b604882019050919050565b7f2261747472696275746573223a205b0000000000000000000000000000000000600082015250565b6000613fe5600f83613e43565b9150613ff082613faf565b600f82019050919050565b7f7b2274726169745f74797065223a2022466f7274756e65222c202276616c756560008201527f223a202200000000000000000000000000000000000000000000000000000000602082015250565b6000614057602483613e43565b915061406282613ffb565b602482019050919050565b7f227d2c0000000000000000000000000000000000000000000000000000000000600082015250565b60006140a3600383613e43565b91506140ae8261406d565b600382019050919050565b7f7b2274726169745f74797065223a20224d657373616765222c202276616c756560008201527f223a202200000000000000000000000000000000000000000000000000000000602082015250565b6000614115602483613e43565b9150614120826140b9565b602482019050919050565b7f7b2274726169745f74797065223a202254696d657374616d70222c202276616c60008201527f7565223a20000000000000000000000000000000000000000000000000000000602082015250565b6000614187602583613e43565b91506141928261412b565b602582019050919050565b7f7d00000000000000000000000000000000000000000000000000000000000000600082015250565b60006141d3600183613e43565b91506141de8261419d565b600182019050919050565b7f5d2c000000000000000000000000000000000000000000000000000000000000600082015250565b600061421f600283613e43565b915061422a826141e9565b600282019050919050565b7f22696d616765223a2022646174613a696d6167652f7376672b786d6c3b62617360008201527f6536342c00000000000000000000000000000000000000000000000000000000602082015250565b6000614291602483613e43565b915061429c82614235565b602482019050919050565b7f227d000000000000000000000000000000000000000000000000000000000000600082015250565b60006142dd600283613e43565b91506142e8826142a7565b600282019050919050565b60006142fe82613e77565b915061430a8288613e9a565b915061431582613ef4565b915061432082613f8c565b915061432b82613fd8565b91506143368261404a565b91506143428287613e9a565b915061434d82614096565b915061435882614108565b91506143648286613e9a565b915061436f82614096565b915061437a8261417a565b91506143868285613e9a565b9150614391826141c6565b915061439c82614212565b91506143a782614284565b91506143b38284613e9a565b91506143be826142d0565b91508190509695505050505050565b7f646174613a6170706c69636174696f6e2f6a736f6e3b6261736536342c000000600082015250565b6000614403601d83613e43565b915061440e826143cd565b601d82019050919050565b6000614424826143f6565b91506144308284613e9a565b915081905092915050565b600081519050919050565b600082825260208201905092915050565b60006144628261443b565b61446c8185614446565b935061447c818560208601613169565b61448581613193565b840191505092915050565b60006080820190506144a56000830187613294565b6144b26020830186613294565b6144bf60408301856133aa565b81810360608301526144d18184614457565b905095945050505050565b6000815190506144eb816130be565b92915050565b60006020828403121561450757614506613088565b5b6000614515848285016144dc565b91505092915050565b600061452a8285613e9a565b91506145368284613e9a565b91508190509392505050565b60006040820190506145576000830185613294565b61456460208301846133aa565b9392505050565b7f3c7376672077696474683d2234303022206865696768743d223630302220786d60008201527f6c6e733d22687474703a2f2f7777772e77332e6f72672f323030302f7376672260208201527f3e00000000000000000000000000000000000000000000000000000000000000604082015250565b60006145ed604183613e43565b91506145f88261456b565b604182019050919050565b7f3c726563742077696474683d2234303022206865696768743d2236303022206660008201527f696c6c3d2223663566356463222f3e0000000000000000000000000000000000602082015250565b600061465f602f83613e43565b915061466a82614603565b602f82019050919050565b7f3c7265637420783d2232302220793d223230222077696474683d22333630222060008201527f6865696768743d22353630222066696c6c3d22776869746522207374726f6b6560208201527f3d222338623435313322207374726f6b652d77696474683d2233222f3e000000604082015250565b60006146f7605d83613e43565b915061470282614675565b605d82019050919050565b7f3c7465787420783d223230302220793d2238302220746578742d616e63686f7260008201527f3d226d6964646c652220666f6e742d66616d696c793d2273657269662220666f60208201527f6e742d73697a653d223234222066696c6c3d2223386234353133223e00000000604082015250565b600061478f605c83613e43565b915061479a8261470d565b605c82019050919050565b7fe3818ae381bfe3818fe381980000000000000000000000000000000000000000600082015250565b60006147db600c83613e43565b91506147e6826147a5565b600c82019050919050565b7f3c2f746578743e00000000000000000000000000000000000000000000000000600082015250565b6000614827600783613e43565b9150614832826147f1565b600782019050919050565b7f3c7265637420783d2235302220793d22313230222077696474683d223330302260008201527f206865696768743d22313030222066696c6c3d22000000000000000000000000602082015250565b6000614899603483613e43565b91506148a48261483d565b603482019050919050565b7f222072783d223130222f3e000000000000000000000000000000000000000000600082015250565b60006148e5600b83613e43565b91506148f0826148af565b600b82019050919050565b7f3c7465787420783d223230302220793d223138302220746578742d616e63686f60008201527f723d226d6964646c652220666f6e742d66616d696c793d22736572696622206660208201527f6f6e742d73697a653d223138222066696c6c3d227768697465223e0000000000604082015250565b600061497d605b83613e43565b9150614988826148fb565b605b82019050919050565b7f3c7465787420783d223230302220793d223235302220746578742d616e63686f60008201527f723d226d6964646c652220666f6e742d66616d696c793d22736572696622206660208201527f6f6e742d73697a653d223134222066696c6c3d2223333333223e000000000000604082015250565b6000614a15605a83613e43565b9150614a2082614993565b605a82019050919050565b7f3c7465787420783d223230302220793d223530302220746578742d616e63686f60008201527f723d226d6964646c652220666f6e742d66616d696c793d22736572696622206660208201527f6f6e742d73697a653d223132222066696c6c3d2223363636223e44696769746160408201527f6c20536872696e653c2f746578743e0000000000000000000000000000000000606082015250565b6000614ad3606f83613e43565b9150614ade82614a2b565b606f82019050919050565b7f3c2f7376673e0000000000000000000000000000000000000000000000000000600082015250565b6000614b1f600683613e43565b9150614b2a82614ae9565b600682019050919050565b6000614b40826145e0565b9150614b4b82614652565b9150614b56826146ea565b9150614b6182614782565b9150614b6c826147ce565b9150614b778261481a565b9150614b828261488c565b9150614b8e8286613e9a565b9150614b99826148d8565b9150614ba482614970565b9150614bb08285613e9a565b9150614bbb8261481a565b9150614bc682614a08565b9150614bd28284613e9a565b9150614bdd8261481a565b9150614be882614ac6565b9150614bf382614b12565b9150819050949350505050565b6000614c0b826131ff565b9150614c16836131ff565b925082614c2657614c25613a9e565b5b828204905092915050565b6000614c3c826131ff565b9150614c47836131ff565b9250828202614c55816131ff565b91508282048414831517614c6c57614c6b613970565b5b509291505056fe4142434445464748494a4b4c4d4e4f505152535455565758595a6162636465666768696a6b6c6d6e6f707172737475767778797a303132333435363738392b2fa264697066735822122086e69539b5167a9190c21bddea6c54232711e775873a0b34348464650314230e64736f6c634300081b0033536d616c6c207374657073206c65616420746f20677265617420616368696576656d656e7473215265666c656374696f6e206272696e6773206e6577206f70706f7274756e697469657321596f7572207769736865732077696c6c20636f6d652074727565206d61676e69666963656e746c7921",
  "linkReferences": {},
  "deployedLinkReferences": {}
}